{
  "address": "0xC4562C6F436a9aCcb739dc972aF8745e74b97462",
  "abi": [
    {
      "inputs": [
        {
          "internalType": "contract BaseRegistrarImplementation",
          "name": "_base",
          "type": "address"
        },
        {
          "internalType": "contract IAgentPriceOracle",
          "name": "_prices",
          "type": "address"
        },
        {
          "internalType": "contract ReverseRegistrar",
          "name": "_reverseRegistrar",
          "type": "address"
        },
        {
          "internalType": "contract INameWrapper",
          "name": "_nameWrapper",
          "type": "address"
        },
        {
          "internalType": "contract IERC20",
          "name": "_usdc",
          "type": "address"
        },
        {
          "internalType": "contract ReferralVerifier",
          "name": "_referralVerifier",
          "type": "address"
        }
      ],
      "stateMutability": "nonpayable",
      "type": "constructor"
    },
    {
      "inputs": [
        {
          "internalType": "string",
          "name": "name",
          "type": "string"
        }
      ],
      "name": "BatchOnlyForAgentNames",
      "type": "error"
    },
    {
      "inputs": [
        {
          "internalType": "uint256",
          "name": "count",
          "type": "uint256"
        }
      ],
      "name": "BatchTooLarge",
      "type": "error"
    },
    {
      "inputs": [
        {
          "internalType": "bytes32",
          "name": "commitment",
          "type": "bytes32"
        }
      ],
      "name": "CommitmentTooNew",
      "type": "error"
    },
    {
      "inputs": [
        {
          "internalType": "bytes32",
          "name": "commitment",
          "type": "bytes32"
        }
      ],
      "name": "CommitmentTooOld",
      "type": "error"
    },
    {
      "inputs": [],
      "name": "InsufficientValue",
      "type": "error"
    },
    {
      "inputs": [
        {
          "internalType": "string",
          "name": "name",
          "type": "string"
        }
      ],
      "name": "InvalidName",
      "type": "error"
    },
    {
      "inputs": [
        {
          "internalType": "string",
          "name": "name",
          "type": "string"
        }
      ],
      "name": "NameNotAvailable",
      "type": "error"
    },
    {
      "inputs": [],
      "name": "ResolverRequiredWhenDataSupplied",
      "type": "error"
    },
    {
      "inputs": [
        {
          "internalType": "bytes32",
          "name": "commitment",
          "type": "bytes32"
        }
      ],
      "name": "UnexpiredCommitmentExists",
      "type": "error"
    },
    {
      "anonymous": false,
      "inputs": [
        {
          "indexed": false,
          "internalType": "bool",
          "name": "enabled",
          "type": "bool"
        }
      ],
      "name": "AgentModeToggled",
      "type": "event"
    },
    {
      "anonymous": false,
      "inputs": [
        {
          "indexed": true,
          "internalType": "address",
          "name": "owner",
          "type": "address"
        },
        {
          "indexed": true,
          "internalType": "address",
          "name": "wallet",
          "type": "address"
        },
        {
          "indexed": false,
          "internalType": "string",
          "name": "domainName",
          "type": "string"
        }
      ],
      "name": "AgentWalletDeployed",
      "type": "event"
    },
    {
      "anonymous": false,
      "inputs": [
        {
          "indexed": false,
          "internalType": "uint256",
          "name": "count",
          "type": "uint256"
        },
        {
          "indexed": true,
          "internalType": "address",
          "name": "owner",
          "type": "address"
        },
        {
          "indexed": false,
          "internalType": "uint256",
          "name": "totalCost",
          "type": "uint256"
        }
      ],
      "name": "BatchRegistered",
      "type": "event"
    },
    {
      "anonymous": false,
      "inputs": [
        {
          "indexed": true,
          "internalType": "bytes32",
          "name": "commitment",
          "type": "bytes32"
        },
        {
          "indexed": true,
          "internalType": "address",
          "name": "sender",
          "type": "address"
        }
      ],
      "name": "CommitmentMade",
      "type": "event"
    },
    {
      "anonymous": false,
      "inputs": [
        {
          "indexed": true,
          "internalType": "address",
          "name": "to",
          "type": "address"
        },
        {
          "indexed": false,
          "internalType": "uint256",
          "name": "amount",
          "type": "uint256"
        }
      ],
      "name": "FundsWithdrawn",
      "type": "event"
    },
    {
      "anonymous": false,
      "inputs": [
        {
          "indexed": false,
          "internalType": "string",
          "name": "name",
          "type": "string"
        },
        {
          "indexed": true,
          "internalType": "bytes32",
          "name": "label",
          "type": "bytes32"
        },
        {
          "indexed": true,
          "internalType": "address",
          "name": "owner",
          "type": "address"
        },
        {
          "indexed": false,
          "internalType": "uint256",
          "name": "cost",
          "type": "uint256"
        },
        {
          "indexed": false,
          "internalType": "uint256",
          "name": "expires",
          "type": "uint256"
        }
      ],
      "name": "NameRegistered",
      "type": "event"
    },
    {
      "anonymous": false,
      "inputs": [
        {
          "indexed": true,
          "internalType": "address",
          "name": "previousOwner",
          "type": "address"
        },
        {
          "indexed": true,
          "internalType": "address",
          "name": "newOwner",
          "type": "address"
        }
      ],
      "name": "OwnershipTransferred",
      "type": "event"
    },
    {
      "anonymous": false,
      "inputs": [
        {
          "indexed": true,
          "internalType": "address",
          "name": "to",
          "type": "address"
        },
        {
          "indexed": false,
          "internalType": "uint256",
          "name": "amount",
          "type": "uint256"
        }
      ],
      "name": "USDCWithdrawn",
      "type": "event"
    },
    {
      "inputs": [],
      "name": "LIFETIME_DURATION",
      "outputs": [
        {
          "internalType": "uint256",
          "name": "",
          "type": "uint256"
        }
      ],
      "stateMutability": "view",
      "type": "function"
    },
    {
      "inputs": [],
      "name": "MAX_BATCH_SIZE",
      "outputs": [
        {
          "internalType": "uint256",
          "name": "",
          "type": "uint256"
        }
      ],
      "stateMutability": "view",
      "type": "function"
    },
    {
      "inputs": [],
      "name": "MAX_COMMITMENT_AGE",
      "outputs": [
        {
          "internalType": "uint256",
          "name": "",
          "type": "uint256"
        }
      ],
      "stateMutability": "view",
      "type": "function"
    },
    {
      "inputs": [],
      "name": "MAX_REFERRAL_PCT",
      "outputs": [
        {
          "internalType": "uint256",
          "name": "",
          "type": "uint256"
        }
      ],
      "stateMutability": "view",
      "type": "function"
    },
    {
      "inputs": [],
      "name": "MIN_COMMITMENT_AGE",
      "outputs": [
        {
          "internalType": "uint256",
          "name": "",
          "type": "uint256"
        }
      ],
      "stateMutability": "view",
      "type": "function"
    },
    {
      "inputs": [],
      "name": "accountFactory",
      "outputs": [
        {
          "internalType": "contract IAccountFactory",
          "name": "",
          "type": "address"
        }
      ],
      "stateMutability": "view",
      "type": "function"
    },
    {
      "inputs": [],
      "name": "agentModeEnabled",
      "outputs": [
        {
          "internalType": "bool",
          "name": "",
          "type": "bool"
        }
      ],
      "stateMutability": "view",
      "type": "function"
    },
    {
      "inputs": [
        {
          "internalType": "string",
          "name": "name",
          "type": "string"
        }
      ],
      "name": "available",
      "outputs": [
        {
          "internalType": "bool",
          "name": "",
          "type": "bool"
        }
      ],
      "stateMutability": "view",
      "type": "function"
    },
    {
      "inputs": [],
      "name": "base",
      "outputs": [
        {
          "internalType": "contract BaseRegistrarImplementation",
          "name": "",
          "type": "address"
        }
      ],
      "stateMutability": "view",
      "type": "function"
    },
    {
      "inputs": [
        {
          "components": [
            {
              "internalType": "string",
              "name": "name",
              "type": "string"
            },
            {
              "internalType": "address",
              "name": "owner",
              "type": "address"
            },
            {
              "internalType": "bytes32",
              "name": "secret",
              "type": "bytes32"
            },
            {
              "internalType": "address",
              "name": "resolver",
              "type": "address"
            },
            {
              "internalType": "bytes[]",
              "name": "data",
              "type": "bytes[]"
            },
            {
              "internalType": "bool",
              "name": "reverseRecord",
              "type": "bool"
            },
            {
              "internalType": "uint16",
              "name": "ownerControlledFuses",
              "type": "uint16"
            },
            {
              "internalType": "bool",
              "name": "deployWallet",
              "type": "bool"
            },
            {
              "internalType": "uint256",
              "name": "walletSalt",
              "type": "uint256"
            }
          ],
          "internalType": "struct IAgentRegistrar.RegisterRequest[]",
          "name": "requests",
          "type": "tuple[]"
        }
      ],
      "name": "batchRegister",
      "outputs": [],
      "stateMutability": "payable",
      "type": "function"
    },
    {
      "inputs": [
        {
          "components": [
            {
              "internalType": "string",
              "name": "name",
              "type": "string"
            },
            {
              "internalType": "address",
              "name": "owner",
              "type": "address"
            },
            {
              "internalType": "bytes32",
              "name": "secret",
              "type": "bytes32"
            },
            {
              "internalType": "address",
              "name": "resolver",
              "type": "address"
            },
            {
              "internalType": "bytes[]",
              "name": "data",
              "type": "bytes[]"
            },
            {
              "internalType": "bool",
              "name": "reverseRecord",
              "type": "bool"
            },
            {
              "internalType": "uint16",
              "name": "ownerControlledFuses",
              "type": "uint16"
            },
            {
              "internalType": "bool",
              "name": "deployWallet",
              "type": "bool"
            },
            {
              "internalType": "uint256",
              "name": "walletSalt",
              "type": "uint256"
            }
          ],
          "internalType": "struct IAgentRegistrar.RegisterRequest[]",
          "name": "requests",
          "type": "tuple[]"
        }
      ],
      "name": "batchRegisterWithUSDC",
      "outputs": [],
      "stateMutability": "nonpayable",
      "type": "function"
    },
    {
      "inputs": [
        {
          "internalType": "bytes32",
          "name": "commitment",
          "type": "bytes32"
        }
      ],
      "name": "commit",
      "outputs": [],
      "stateMutability": "nonpayable",
      "type": "function"
    },
    {
      "inputs": [
        {
          "internalType": "bytes32",
          "name": "",
          "type": "bytes32"
        }
      ],
      "name": "commitments",
      "outputs": [
        {
          "internalType": "uint256",
          "name": "",
          "type": "uint256"
        }
      ],
      "stateMutability": "view",
      "type": "function"
    },
    {
      "inputs": [
        {
          "internalType": "string",
          "name": "name",
          "type": "string"
        }
      ],
      "name": "getPrice",
      "outputs": [
        {
          "internalType": "uint256",
          "name": "priceUSDC",
          "type": "uint256"
        },
        {
          "internalType": "bool",
          "name": "isAgentName",
          "type": "bool"
        }
      ],
      "stateMutability": "view",
      "type": "function"
    },
    {
      "inputs": [
        {
          "internalType": "address",
          "name": "owner",
          "type": "address"
        },
        {
          "internalType": "uint256",
          "name": "salt",
          "type": "uint256"
        }
      ],
      "name": "getWalletAddress",
      "outputs": [
        {
          "internalType": "address",
          "name": "",
          "type": "address"
        }
      ],
      "stateMutability": "view",
      "type": "function"
    },
    {
      "inputs": [
        {
          "components": [
            {
              "internalType": "string",
              "name": "name",
              "type": "string"
            },
            {
              "internalType": "address",
              "name": "owner",
              "type": "address"
            },
            {
              "internalType": "bytes32",
              "name": "secret",
              "type": "bytes32"
            },
            {
              "internalType": "address",
              "name": "resolver",
              "type": "address"
            },
            {
              "internalType": "bytes[]",
              "name": "data",
              "type": "bytes[]"
            },
            {
              "internalType": "bool",
              "name": "reverseRecord",
              "type": "bool"
            },
            {
              "internalType": "uint16",
              "name": "ownerControlledFuses",
              "type": "uint16"
            },
            {
              "internalType": "bool",
              "name": "deployWallet",
              "type": "bool"
            },
            {
              "internalType": "uint256",
              "name": "walletSalt",
              "type": "uint256"
            }
          ],
          "internalType": "struct IAgentRegistrar.RegisterRequest",
          "name": "req",
          "type": "tuple"
        }
      ],
      "name": "makeCommitment",
      "outputs": [
        {
          "internalType": "bytes32",
          "name": "",
          "type": "bytes32"
        }
      ],
      "stateMutability": "pure",
      "type": "function"
    },
    {
      "inputs": [],
      "name": "nameWrapper",
      "outputs": [
        {
          "internalType": "contract INameWrapper",
          "name": "",
          "type": "address"
        }
      ],
      "stateMutability": "view",
      "type": "function"
    },
    {
      "inputs": [],
      "name": "owner",
      "outputs": [
        {
          "internalType": "address",
          "name": "",
          "type": "address"
        }
      ],
      "stateMutability": "view",
      "type": "function"
    },
    {
      "inputs": [],
      "name": "prices",
      "outputs": [
        {
          "internalType": "contract IAgentPriceOracle",
          "name": "",
          "type": "address"
        }
      ],
      "stateMutability": "view",
      "type": "function"
    },
    {
      "inputs": [],
      "name": "referralVerifier",
      "outputs": [
        {
          "internalType": "contract ReferralVerifier",
          "name": "",
          "type": "address"
        }
      ],
      "stateMutability": "view",
      "type": "function"
    },
    {
      "inputs": [
        {
          "components": [
            {
              "internalType": "string",
              "name": "name",
              "type": "string"
            },
            {
              "internalType": "address",
              "name": "owner",
              "type": "address"
            },
            {
              "internalType": "bytes32",
              "name": "secret",
              "type": "bytes32"
            },
            {
              "internalType": "address",
              "name": "resolver",
              "type": "address"
            },
            {
              "internalType": "bytes[]",
              "name": "data",
              "type": "bytes[]"
            },
            {
              "internalType": "bool",
              "name": "reverseRecord",
              "type": "bool"
            },
            {
              "internalType": "uint16",
              "name": "ownerControlledFuses",
              "type": "uint16"
            },
            {
              "internalType": "bool",
              "name": "deployWallet",
              "type": "bool"
            },
            {
              "internalType": "uint256",
              "name": "walletSalt",
              "type": "uint256"
            }
          ],
          "internalType": "struct IAgentRegistrar.RegisterRequest",
          "name": "req",
          "type": "tuple"
        },
        {
          "components": [
            {
              "internalType": "address",
              "name": "referrer",
              "type": "address"
            },
            {
              "internalType": "address",
              "name": "registrant",
              "type": "address"
            },
            {
              "internalType": "bytes32",
              "name": "nameHash",
              "type": "bytes32"
            },
            {
              "internalType": "bytes32",
              "name": "referrerCodeHash",
              "type": "bytes32"
            },
            {
              "internalType": "uint256",
              "name": "deadline",
              "type": "uint256"
            },
            {
              "internalType": "bytes32",
              "name": "nonce",
              "type": "bytes32"
            }
          ],
          "internalType": "struct ReferralVerifier.ReferralData",
          "name": "referralData",
          "type": "tuple"
        },
        {
          "internalType": "bytes",
          "name": "referralSignature",
          "type": "bytes"
        }
      ],
      "name": "register",
      "outputs": [],
      "stateMutability": "payable",
      "type": "function"
    },
    {
      "inputs": [
        {
          "components": [
            {
              "internalType": "string",
              "name": "name",
              "type": "string"
            },
            {
              "internalType": "address",
              "name": "owner",
              "type": "address"
            },
            {
              "internalType": "bytes32",
              "name": "secret",
              "type": "bytes32"
            },
            {
              "internalType": "address",
              "name": "resolver",
              "type": "address"
            },
            {
              "internalType": "bytes[]",
              "name": "data",
              "type": "bytes[]"
            },
            {
              "internalType": "bool",
              "name": "reverseRecord",
              "type": "bool"
            },
            {
              "internalType": "uint16",
              "name": "ownerControlledFuses",
              "type": "uint16"
            },
            {
              "internalType": "bool",
              "name": "deployWallet",
              "type": "bool"
            },
            {
              "internalType": "uint256",
              "name": "walletSalt",
              "type": "uint256"
            }
          ],
          "internalType": "struct IAgentRegistrar.RegisterRequest",
          "name": "req",
          "type": "tuple"
        },
        {
          "components": [
            {
              "internalType": "uint256",
              "name": "deadline",
              "type": "uint256"
            },
            {
              "internalType": "uint8",
              "name": "v",
              "type": "uint8"
            },
            {
              "internalType": "bytes32",
              "name": "r",
              "type": "bytes32"
            },
            {
              "internalType": "bytes32",
              "name": "s",
              "type": "bytes32"
            }
          ],
          "internalType": "struct IAgentRegistrar.PermitData",
          "name": "permit",
          "type": "tuple"
        }
      ],
      "name": "registerWithPermit",
      "outputs": [],
      "stateMutability": "nonpayable",
      "type": "function"
    },
    {
      "inputs": [
        {
          "components": [
            {
              "internalType": "string",
              "name": "name",
              "type": "string"
            },
            {
              "internalType": "address",
              "name": "owner",
              "type": "address"
            },
            {
              "internalType": "bytes32",
              "name": "secret",
              "type": "bytes32"
            },
            {
              "internalType": "address",
              "name": "resolver",
              "type": "address"
            },
            {
              "internalType": "bytes[]",
              "name": "data",
              "type": "bytes[]"
            },
            {
              "internalType": "bool",
              "name": "reverseRecord",
              "type": "bool"
            },
            {
              "internalType": "uint16",
              "name": "ownerControlledFuses",
              "type": "uint16"
            },
            {
              "internalType": "bool",
              "name": "deployWallet",
              "type": "bool"
            },
            {
              "internalType": "uint256",
              "name": "walletSalt",
              "type": "uint256"
            }
          ],
          "internalType": "struct IAgentRegistrar.RegisterRequest",
          "name": "req",
          "type": "tuple"
        }
      ],
      "name": "registerWithUSDC",
      "outputs": [],
      "stateMutability": "nonpayable",
      "type": "function"
    },
    {
      "inputs": [],
      "name": "renounceOwnership",
      "outputs": [],
      "stateMutability": "nonpayable",
      "type": "function"
    },
    {
      "inputs": [
        {
          "internalType": "string",
          "name": "name",
          "type": "string"
        }
      ],
      "name": "rentPrice",
      "outputs": [
        {
          "internalType": "uint256",
          "name": "priceWei",
          "type": "uint256"
        },
        {
          "internalType": "uint256",
          "name": "priceUsd",
          "type": "uint256"
        },
        {
          "internalType": "bool",
          "name": "isAgentName",
          "type": "bool"
        }
      ],
      "stateMutability": "view",
      "type": "function"
    },
    {
      "inputs": [],
      "name": "reverseRegistrar",
      "outputs": [
        {
          "internalType": "contract ReverseRegistrar",
          "name": "",
          "type": "address"
        }
      ],
      "stateMutability": "view",
      "type": "function"
    },
    {
      "inputs": [
        {
          "internalType": "address",
          "name": "_factory",
          "type": "address"
        }
      ],
      "name": "setAccountFactory",
      "outputs": [],
      "stateMutability": "nonpayable",
      "type": "function"
    },
    {
      "inputs": [
        {
          "internalType": "bool",
          "name": "enabled",
          "type": "bool"
        }
      ],
      "name": "setAgentMode",
      "outputs": [],
      "stateMutability": "nonpayable",
      "type": "function"
    },
    {
      "inputs": [
        {
          "internalType": "address",
          "name": "_verifier",
          "type": "address"
        }
      ],
      "name": "setReferralVerifier",
      "outputs": [],
      "stateMutability": "nonpayable",
      "type": "function"
    },
    {
      "inputs": [
        {
          "internalType": "address",
          "name": "_treasury",
          "type": "address"
        }
      ],
      "name": "setTreasury",
      "outputs": [],
      "stateMutability": "nonpayable",
      "type": "function"
    },
    {
      "inputs": [
        {
          "internalType": "bytes4",
          "name": "interfaceID",
          "type": "bytes4"
        }
      ],
      "name": "supportsInterface",
      "outputs": [
        {
          "internalType": "bool",
          "name": "",
          "type": "bool"
        }
      ],
      "stateMutability": "pure",
      "type": "function"
    },
    {
      "inputs": [],
      "name": "totalAgentRegistrations",
      "outputs": [
        {
          "internalType": "uint256",
          "name": "",
          "type": "uint256"
        }
      ],
      "stateMutability": "view",
      "type": "function"
    },
    {
      "inputs": [],
      "name": "totalMints",
      "outputs": [
        {
          "internalType": "uint256",
          "name": "",
          "type": "uint256"
        }
      ],
      "stateMutability": "view",
      "type": "function"
    },
    {
      "inputs": [],
      "name": "totalVolumeUSDC",
      "outputs": [
        {
          "internalType": "uint256",
          "name": "",
          "type": "uint256"
        }
      ],
      "stateMutability": "view",
      "type": "function"
    },
    {
      "inputs": [
        {
          "internalType": "address",
          "name": "newOwner",
          "type": "address"
        }
      ],
      "name": "transferOwnership",
      "outputs": [],
      "stateMutability": "nonpayable",
      "type": "function"
    },
    {
      "inputs": [],
      "name": "treasury",
      "outputs": [
        {
          "internalType": "address",
          "name": "",
          "type": "address"
        }
      ],
      "stateMutability": "view",
      "type": "function"
    },
    {
      "inputs": [],
      "name": "usdc",
      "outputs": [
        {
          "internalType": "contract IERC20",
          "name": "",
          "type": "address"
        }
      ],
      "stateMutability": "view",
      "type": "function"
    },
    {
      "inputs": [
        {
          "internalType": "string",
          "name": "name",
          "type": "string"
        }
      ],
      "name": "valid",
      "outputs": [
        {
          "internalType": "bool",
          "name": "",
          "type": "bool"
        }
      ],
      "stateMutability": "pure",
      "type": "function"
    },
    {
      "inputs": [
        {
          "internalType": "address payable",
          "name": "to",
          "type": "address"
        }
      ],
      "name": "withdraw",
      "outputs": [],
      "stateMutability": "nonpayable",
      "type": "function"
    },
    {
      "inputs": [
        {
          "internalType": "address",
          "name": "to",
          "type": "address"
        }
      ],
      "name": "withdrawUSDC",
      "outputs": [],
      "stateMutability": "nonpayable",
      "type": "function"
    },
    {
      "stateMutability": "payable",
      "type": "receive"
    }
  ],
  "transactionHash": "0x057fe6a41a920845045f76ab250e44e7f9591d4a3bacf35908b0cd5cb16f5b1b",
  "args": [
    "0xA0F3fF5eA4aA93e9C6247A7A09AFde9d0B7353C2",
    "0x1137b3608a547C1d52bD2fb30644b561Bf374cd6",
    "0x6516d242117CE3Be817aeBF39e7e3A044F62D81C",
    "0x1300B1efc8E6D265B2482545379c86815Bc6f0A1",
    "0x036CbD53842c5426634e7929541eC2318f3dCF7e",
    "0x28bC9c78C16d245B0ccbE91C6Fee1E9b70957049"
  ],
  "numDeployments": 1,
  "solcInputHash": "51c396074905eafbf23ffb9db0ffdf7f",
  "bytecode": "0x6101206040523480156200001257600080fd5b506040516200354f3803806200354f83398101604081905262000035916200025d565b856001600160a01b0316633f15457f6040518163ffffffff1660e01b8152600401602060405180830381865afa15801562000074573d6000803e3d6000fd5b505050506040513d601f19601f820116820180604052508101906200009a9190620002f1565b600080546001600160a01b031916339081178255604051909182918291907f8be0079c531659141344cd1fd0a4f28419497f9722a3daafe3b4186f6b6457e0908290a3506040516302571be360e01b81527f91d1777781884d03a6757a803996e38de2a42967fb37eeaca72729271025a9e260048201526000906001600160a01b038416906302571be390602401602060405180830381865afa15801562000146573d6000803e3d6000fd5b505050506040513d601f19601f820116820180604052508101906200016c9190620002f1565b604051630f41a04d60e11b81526001600160a01b03848116600483015291925090821690631e83409a906024016020604051808303816000875af1158015620001b9573d6000803e3d6000fd5b505050506040513d601f19601f82011682018060405250810190620001df919062000318565b505060018080556001600160a01b0398891660805296881660a052505092851660c05290841660e05283166101005260028054919093166001600160a01b0319918216179092556004805460ff19169091179055600780549091163317905562000332565b6001600160a01b03811681146200025a57600080fd5b50565b60008060008060008060c087890312156200027757600080fd5b8651620002848162000244565b6020880151909650620002978162000244565b6040880151909550620002aa8162000244565b6060880151909450620002bd8162000244565b6080880151909350620002d08162000244565b60a0880151909250620002e38162000244565b809150509295509295509295565b6000602082840312156200030457600080fd5b8151620003118162000244565b9392505050565b6000602082840312156200032b57600080fd5b5051919050565b60805160a05160c05160e0516101005161315a620003f5600039600081816103240152818161087d015281816108ff01528181610ce301528181610dd60152818161119101526115d80152600081816106560152611f0501526000818161050301526125d701526000818161071701528181610a1201528181610c31015281816110b30152818161135c015281816114600152818161160f0152611c7d01526000818161039f015281816119d901528181611e24015261249f015261315a6000f3fe60806040526004361061023f5760003560e01c8063808698531161012e578063addc1a76116100ab578063d3419bf31161006f578063d3419bf314610705578063d5a3e8ae14610739578063f0f442601461074f578063f14fcbc81461076f578063f2fde38b1461078f57600080fd5b8063addc1a7614610678578063ae7fa4a314610698578063aeb8ce9b146106b8578063cfdbf254146106d8578063d050f748146106ed57600080fd5b80639ae841c1116100f25780639ae841c1146105a75780639bbc1533146105c7578063a03eab3d146105e7578063a327ed6014610624578063a8e5fbc01461064457600080fd5b806380869853146104f1578063839df945146105255780638ccb9ea6146105525780638da5cb5b146105695780639791c0971461058757600080fd5b806351cff8d9116101bc57806366eb4fe81161018057806366eb4fe814610469578063687cd9c1146104895780636cbf8f2d146104a95780636f7716ab146104c9578063715018a6146104dc57600080fd5b806351cff8d9146103c1578063524f3889146103e157806359cf683c146104165780635db95a411461043657806361d027b31461044957600080fd5b8063332df4cb11610203578063332df4cb146102fc5780633e413bee146103125780634165c6861461035e578063428f63e4146103785780635001f3b51461038d57600080fd5b806301ffc9a71461024b5780631f21bfbf1461028057806327a71ef3146102a45780632e4f692a146102c657806331cc5f6c146102dc57600080fd5b3661024657005b600080fd5b34801561025757600080fd5b5061026b610266366004612844565b6107af565b60405190151581526020015b60405180910390f35b34801561028c57600080fd5b5061029660055481565b604051908152602001610277565b3480156102b057600080fd5b506102c46102bf366004612886565b6107e6565b005b3480156102d257600080fd5b5061029661025881565b3480156102e857600080fd5b506102c46102f7366004612886565b61083b565b34801561030857600080fd5b5061029660095481565b34801561031e57600080fd5b506103467f000000000000000000000000000000000000000000000000000000000000000081565b6040516001600160a01b039091168152602001610277565b34801561036a57600080fd5b5060045461026b9060ff1681565b34801561038457600080fd5b50610296601e81565b34801561039957600080fd5b506103467f000000000000000000000000000000000000000000000000000000000000000081565b3480156103cd57600080fd5b506102c46103dc366004612886565b61096d565b3480156103ed57600080fd5b506104016103fc3660046128ec565b610a0b565b60408051928352901515602083015201610277565b34801561042257600080fd5b50600254610346906001600160a01b031681565b6102c461044436600461292e565b610ac7565b34801561045557600080fd5b50600754610346906001600160a01b031681565b34801561047557600080fd5b506102c46104843660046129b6565b610bfe565b34801561049557600080fd5b50600654610346906001600160a01b031681565b3480156104b557600080fd5b506102c46104c4366004612a1e565b610eb9565b6102c46104d7366004612a3b565b610f2a565b3480156104e857600080fd5b506102c4610fc0565b3480156104fd57600080fd5b506103467f000000000000000000000000000000000000000000000000000000000000000081565b34801561053157600080fd5b50610296610540366004612abf565b60036020526000908152604090205481565b34801561055e57600080fd5b506102966201518081565b34801561057557600080fd5b506000546001600160a01b0316610346565b34801561059357600080fd5b5061026b6105a23660046128ec565b611034565b3480156105b357600080fd5b506102c46105c2366004612ad8565b611080565b3480156105d357600080fd5b506102966105e2366004612ad8565b61126e565b3480156105f357600080fd5b506106076106023660046128ec565b611354565b604080519384526020840192909252151590820152606001610277565b34801561063057600080fd5b506102c461063f36600461292e565b611404565b34801561065057600080fd5b506103467f000000000000000000000000000000000000000000000000000000000000000081565b34801561068457600080fd5b506102c4610693366004612886565b61187d565b3480156106a457600080fd5b506103466106b3366004612b0d565b6118c9565b3480156106c457600080fd5b5061026b6106d33660046128ec565b611995565b3480156106e457600080fd5b50610296603281565b3480156106f957600080fd5b5061029663bbf81e0081565b34801561071157600080fd5b506103467f000000000000000000000000000000000000000000000000000000000000000081565b34801561074557600080fd5b5061029660085481565b34801561075b57600080fd5b506102c461076a366004612886565b611a54565b34801561077b57600080fd5b506102c461078a366004612abf565b611aa0565b34801561079b57600080fd5b506102c46107aa366004612886565b611b1e565b60006001600160e01b031982166301ffc9a760e01b14806107e057506001600160e01b0319821663610071bf60e11b145b92915050565b6000546001600160a01b031633146108195760405162461bcd60e51b815260040161081090612b39565b60405180910390fd5b600280546001600160a01b0319166001600160a01b0392909216919091179055565b6000546001600160a01b031633146108655760405162461bcd60e51b815260040161081090612b39565b6040516370a0823160e01b81523060048201526000907f00000000000000000000000000000000000000000000000000000000000000006001600160a01b0316906370a0823190602401602060405180830381865afa1580156108cc573d6000803e3d6000fd5b505050506040513d601f19601f820116820180604052508101906108f09190612b6e565b90506109266001600160a01b037f0000000000000000000000000000000000000000000000000000000000000000168383611c08565b816001600160a01b03167f2aa7fb97600ea702b454359fc3d02ae9fa48367e7155505d38cee896e5b5aae78260405161096191815260200190565b60405180910390a25050565b6000546001600160a01b031633146109975760405162461bcd60e51b815260040161081090612b39565b60405147906001600160a01b0383169082156108fc029083906000818181858888f193505050501580156109cf573d6000803e3d6000fd5b50816001600160a01b03167feaff4b37086828766ad3268786972c0cd24259d4c87a80f9d3963a3c3d999b0d8260405161096191815260200190565b60008060007f00000000000000000000000000000000000000000000000000000000000000006001600160a01b031663524f388986866040518363ffffffff1660e01b8152600401610a5e929190612bb0565b606060405180830381865afa158015610a7b573d6000803e3d6000fd5b505050506040513d601f19601f82011682018060405250810190610a9f9190612bc4565b905064e8d4a510008160200151610ab69190612c4a565b925080604001519150509250929050565b6032811115610aec5760405163533dcfcf60e11b815260048101829052602401610810565b6000805b82811015610b4257610b24848483818110610b0d57610b0d612c6c565b9050602002810190610b1f9190612c82565b611c70565b610b2e9083612ca3565b915080610b3a81612cb6565b915050610af0565b5080341015610b645760405163044044a560e21b815260040160405180910390fd5b80341115610ba457336108fc610b7a8334612ccf565b6040518115909202916000818181858888f19350505050158015610ba2573d6000803e3d6000fd5b505b8282905060056000828254610bb99190612ca3565b9091555050604080518381526020810183905233917f0db9ec4d476c9a74e4da8d1fa4fe7ddf207c5caa7c7fcc43b58a95777d6da0f5910160405180910390a2505050565b600260015403610c205760405162461bcd60e51b815260040161081090612ce2565b600260015560006001600160a01b037f00000000000000000000000000000000000000000000000000000000000000001663524f3889610c608580612d19565b6040518363ffffffff1660e01b8152600401610c7d929190612bb0565b606060405180830381865afa158015610c9a573d6000803e3d6000fd5b505050506040513d601f19601f82011682018060405250810190610cbe9190612bc4565b9050600064e8d4a510008260200151610cd79190612c4a565b90506001600160a01b037f00000000000000000000000000000000000000000000000000000000000000001663d505accf3330848735610d1d60408a0160208b01612d60565b604080516001600160e01b031960e089901b1681526001600160a01b0396871660048201529590941660248601526044850192909252606484015260ff16608483015286013560a4820152606086013560c482015260e401600060405180830381600087803b158015610d8f57600080fd5b505af1925050508015610da0575060015b506007546000906001600160a01b0316610dba5730610dc7565b6007546001600160a01b03165b9050610dfe6001600160a01b037f000000000000000000000000000000000000000000000000000000000000000016338385611d78565b610e0c858460400151611db6565b610e1d610100860160e08701612a1e565b8015610e3357506006546001600160a01b031615155b15610e6257610e60610e4b6040870160208801612886565b610100870135610e5b8880612d19565b6120aa565b505b8160086000828254610e749190612ca3565b9091555050604083015115610e995760098054906000610e9383612cb6565b91905055505b60058054906000610ea983612cb6565b9091555050600180555050505050565b6000546001600160a01b03163314610ee35760405162461bcd60e51b815260040161081090612b39565b6004805460ff19168215159081179091556040519081527fddb94f596118312f824729776b8a0e5e98970e56f09e39c4c8f87f9fa920ca6a9060200160405180910390a150565b6000610f3585611c70565b905080341015610f585760405163044044a560e21b815260040160405180910390fd5b610f6484848484612179565b80341115610fa457336108fc610f7a8334612ccf565b6040518115909202916000818181858888f19350505050158015610fa2573d6000803e3d6000fd5b505b60058054906000610fb483612cb6565b91905055505050505050565b6000546001600160a01b03163314610fea5760405162461bcd60e51b815260040161081090612b39565b600080546040516001600160a01b03909116907f8be0079c531659141344cd1fd0a4f28419497f9722a3daafe3b4186f6b6457e0908390a3600080546001600160a01b0319169055565b6000600161107784848080601f01602080910402602001604051908101604052809392919081815260200183838082843760009201919091525061225592505050565b10159392505050565b6002600154036110a25760405162461bcd60e51b815260040161081090612ce2565b600260015560006001600160a01b037f00000000000000000000000000000000000000000000000000000000000000001663524f38896110e28480612d19565b6040518363ffffffff1660e01b81526004016110ff929190612bb0565b606060405180830381865afa15801561111c573d6000803e3d6000fd5b505050506040513d601f19601f820116820180604052508101906111409190612bc4565b9050600064e8d4a5100082602001516111599190612c4a565b6007549091506000906001600160a01b03166111755730611182565b6007546001600160a01b03165b90506111b96001600160a01b037f000000000000000000000000000000000000000000000000000000000000000016338385611d78565b6111c7848460400151611db6565b6111d8610100850160e08601612a1e565b80156111ee57506006546001600160a01b031615155b15611218576112166112066040860160208701612886565b610100860135610e5b8780612d19565b505b816008600082825461122a9190612ca3565b909155505060408301511561124f576009805490600061124983612cb6565b91905055505b6005805490600061125f83612cb6565b90915550506001805550505050565b60008061127e6080840184612d83565b90501180156112a55750600061129a6080840160608501612886565b6001600160a01b0316145b156112c3576040516334fd817160e21b815260040160405180910390fd5b6112cd8280612d19565b6112dd6040850160208601612886565b60408501356112f26080870160608801612886565b6112ff6080880188612d83565b61130f60c08a0160a08b01612a1e565b61131f60e08b0160c08c01612dcd565b60405160200161133799989796959493929190612df1565b604051602081830303815290604052805190602001209050919050565b6000806000807f00000000000000000000000000000000000000000000000000000000000000006001600160a01b031663524f388987876040518363ffffffff1660e01b81526004016113a8929190612bb0565b606060405180830381865afa1580156113c5573d6000803e3d6000fd5b505050506040513d601f19601f820116820180604052508101906113e99190612bc4565b80516020820151604090920151909891975095509350505050565b6002600154036114265760405162461bcd60e51b815260040161081090612ce2565b600260015560328111156114505760405163533dcfcf60e11b815260048101829052602401610810565b6000805b828110156115a25760007f00000000000000000000000000000000000000000000000000000000000000006001600160a01b031663524f388986868581811061149f5761149f612c6c565b90506020028101906114b19190612c82565b6114bb9080612d19565b6040518363ffffffff1660e01b81526004016114d8929190612bb0565b606060405180830381865afa1580156114f5573d6000803e3d6000fd5b505050506040513d601f19601f820116820180604052508101906115199190612bc4565b9050806040015161156d5784848381811061153657611536612c6c565b90506020028101906115489190612c82565b6115529080612d19565b6040516329bd13dd60e21b8152600401610810929190612bb0565b64e8d4a5100081602001516115829190612c4a565b61158c9084612ca3565b925050808061159a90612cb6565b915050611454565b506007546000906001600160a01b03166115bc57306115c9565b6007546001600160a01b03165b90506116006001600160a01b037f000000000000000000000000000000000000000000000000000000000000000016338385611d78565b60005b838110156118065760007f00000000000000000000000000000000000000000000000000000000000000006001600160a01b031663524f388987878581811061164e5761164e612c6c565b90506020028101906116609190612c82565b61166a9080612d19565b6040518363ffffffff1660e01b8152600401611687929190612bb0565b606060405180830381865afa1580156116a4573d6000803e3d6000fd5b505050506040513d601f19601f820116820180604052508101906116c89190612bc4565b90506116fb8686848181106116df576116df612c6c565b90506020028101906116f19190612c82565b8260400151611db6565b85858381811061170d5761170d612c6c565b905060200281019061171f9190612c82565b6117319061010081019060e001612a1e565b801561174757506006546001600160a01b031615155b156117dd576117db86868481811061176157611761612c6c565b90506020028101906117739190612c82565b611784906040810190602001612886565b87878581811061179657611796612c6c565b90506020028101906117a89190612c82565b61010001358888868181106117bf576117bf612c6c565b90506020028101906117d19190612c82565b610e5b9080612d19565b505b600980549060006117ed83612cb6565b91905055505080806117fe90612cb6565b915050611603565b5081600860008282546118199190612ca3565b909155505060058054849190600090611833908490612ca3565b9091555050604080518481526020810184905233917f0db9ec4d476c9a74e4da8d1fa4fe7ddf207c5caa7c7fcc43b58a95777d6da0f5910160405180910390a25050600180555050565b6000546001600160a01b031633146118a75760405162461bcd60e51b815260040161081090612b39565b600680546001600160a01b0319166001600160a01b0392909216919091179055565b6006546000906001600160a01b03166119195760405162461bcd60e51b81526020600482015260126024820152714e6f206163636f756e7420666163746f727960701b6044820152606401610810565b60065460405163119709c360e31b81526001600160a01b0385811660048301526024820185905290911690638cb84e1890604401602060405180830381865afa15801561196a573d6000803e3d6000fd5b505050506040513d601f19601f8201168201806040525081019061198e9190612ee0565b9392505050565b60008083836040516119a8929190612efd565b604051809103902090506119bc8484611034565b8015611a4c57506040516312dc929d60e31b8152600481018290527f00000000000000000000000000000000000000000000000000000000000000006001600160a01b0316906396e494e890602401602060405180830381865afa158015611a28573d6000803e3d6000fd5b505050506040513d601f19601f82011682018060405250810190611a4c9190612f0d565b949350505050565b6000546001600160a01b03163314611a7e5760405162461bcd60e51b815260040161081090612b39565b600780546001600160a01b0319166001600160a01b0392909216919091179055565b6000818152600360205260409020544290611abf906201518090612ca3565b10611ae057604051630a059d7160e01b815260048101829052602401610810565b60008181526003602052604080822042905551339183917f8ce2746aaeaaa63277ab80ec835ce796bcc35ffa47758bc808adfc7f8ad921339190a350565b6000546001600160a01b03163314611b485760405162461bcd60e51b815260040161081090612b39565b6001600160a01b038116611bad5760405162461bcd60e51b815260206004820152602660248201527f4f776e61626c653a206e6577206f776e657220697320746865207a65726f206160448201526564647265737360d01b6064820152608401610810565b600080546040516001600160a01b03808516939216917f8be0079c531659141344cd1fd0a4f28419497f9722a3daafe3b4186f6b6457e091a3600080546001600160a01b0319166001600160a01b0392909216919091179055565b6040516001600160a01b038316602482015260448101829052611c6b90849063a9059cbb60e01b906064015b60408051601f198184030181529190526020810180516001600160e01b03166001600160e01b031990931692909217909152612358565b505050565b6000806001600160a01b037f00000000000000000000000000000000000000000000000000000000000000001663524f3889611cac8580612d19565b6040518363ffffffff1660e01b8152600401611cc9929190612bb0565b606060405180830381865afa158015611ce6573d6000803e3d6000fd5b505050506040513d601f19601f82011682018060405250810190611d0a9190612bc4565b905080600001519150611d21838260400151611db6565b611d32610100840160e08501612a1e565b8015611d4857506006546001600160a01b031615155b15611d7257611d70611d606040850160208601612886565b610100850135610e5b8680612d19565b505b50919050565b6040516001600160a01b0380851660248301528316604482015260648101829052611db09085906323b872dd60e01b90608401611c34565b50505050565b611dc36105a28380612d19565b611dec57611dd18280612d19565b604051637f19f48d60e01b8152600401610810929190612bb0565b6000611df88380612d19565b604051611e06929190612efd565b6040519081900381206312dc929d60e31b82526004820181905291507f00000000000000000000000000000000000000000000000000000000000000006001600160a01b0316906396e494e890602401602060405180830381865afa158015611e73573d6000803e3d6000fd5b505050506040513d601f19601f82011682018060405250810190611e979190612f0d565b611ec057611ea58380612d19565b6040516308eee0fd60e31b8152600401610810929190612bb0565b60045460ff168015611ecf5750815b611ef9576000611ede8461126e565b9050611ee98161242a565b6000908152600360205260408120555b60006001600160a01b037f00000000000000000000000000000000000000000000000000000000000000001663a4014982611f348680612d19565b611f446040890160208a01612886565b63bbf81e00611f5960808b0160608c01612886565b611f6960e08c0160c08d01612dcd565b6040518763ffffffff1660e01b8152600401611f8a96959493929190612f2a565b6020604051808303816000875af1158015611fa9573d6000803e3d6000fd5b505050506040513d601f19601f82011682018060405250810190611fcd9190612b6e565b90506000611fde6080860186612d83565b9050111561200c5761200c611ff96080860160608701612886565b836120076080880188612d83565b61249b565b61201c60c0850160a08601612a1e565b156120445761204461202e8580612d19565b61203e6080880160608901612886565b336125d5565b6120546040850160208601612886565b6001600160a01b0316827fca6abbe9d7f11422cb6ca7629fbf6fe9efb1c621f71ce8f02b9f2a230097404f6120898780612d19565b85600060405161209c9493929190612f75565b60405180910390a350505050565b600654604051635fbfb9cf60e01b81526001600160a01b038681166004830152602482018690526000921690635fbfb9cf906044016020604051808303816000875af11580156120fe573d6000803e3d6000fd5b505050506040513d601f19601f820116820180604052508101906121229190612ee0565b9050806001600160a01b0316856001600160a01b03167fc99bff1f058c307300ebd5f42fc5162b699269eb16765b191ed3280dd29d27278585604051612169929190612bb0565b60405180910390a3949350505050565b6002546001600160a01b031615806121a65750600061219b6020860186612886565b6001600160a01b0316145b806121af575081155b611db057600060646121c2601e84612f9c565b6121cc9190612c4a565b60025460405163044a5a8160e41b81529192506001600160a01b0316906344a5a81090839061220a9089908990899089906000908190600401612fb3565b60206040518083038185885af1158015612228573d6000803e3d6000fd5b50505050506040513d601f19601f8201168201806040525081019061224d9190612b6e565b505050505050565b8051600090819081905b8082101561234f57600085838151811061227b5761227b612c6c565b01602001516001600160f81b0319169050600160ff1b8110156122aa576122a3600184612ca3565b925061233c565b600760fd1b6001600160f81b0319821610156122cb576122a3600284612ca3565b600f60fc1b6001600160f81b0319821610156122ec576122a3600384612ca3565b601f60fb1b6001600160f81b03198216101561230d576122a3600484612ca3565b603f60fa1b6001600160f81b03198216101561232e576122a3600584612ca3565b612339600684612ca3565b92505b508261234781612cb6565b93505061225f565b50909392505050565b60006123ad826040518060400160405280602081526020017f5361666545524332303a206c6f772d6c6576656c2063616c6c206661696c6564815250856001600160a01b03166126929092919063ffffffff16565b805190915015611c6b57808060200190518101906123cb9190612f0d565b611c6b5760405162461bcd60e51b815260206004820152602a60248201527f5361666545524332303a204552433230206f7065726174696f6e20646964206e6044820152691bdd081cdd58d8d9595960b21b6064820152608401610810565b6000818152600360205260409020544261244661025883612ca3565b111561246857604051635320bcf960e01b815260048101839052602401610810565b426124766201518083612ca3565b116124975760405163cb7690d760e01b815260048101839052602401610810565b5050565b60007f00000000000000000000000000000000000000000000000000000000000000006001600160a01b031663ddf7fcb06040518163ffffffff1660e01b8152600401602060405180830381865afa1580156124fb573d6000803e3d6000fd5b505050506040513d601f19601f8201168201806040525081019061251f9190612b6e565b604080516020810192909252810185905260600160405160208183030381529060405280519060200120905060005b8281101561224d576125c284848381811061256b5761256b612c6c565b905060200281019061257d9190612d19565b8080601f016020809104026020016040519081016040528093929190818152602001838380828437600092019190915250506001600160a01b038a16929150506126a1565b50806125cd81612cb6565b91505061254e565b7f00000000000000000000000000000000000000000000000000000000000000006001600160a01b0316637a806d6b828385888860405160200161261a929190613057565b6040516020818303038152906040526040518563ffffffff1660e01b815260040161264894939291906130c1565b6020604051808303816000875af1158015612667573d6000803e3d6000fd5b505050506040513d601f19601f8201168201806040525081019061268b9190612b6e565b5050505050565b6060611a4c84846000856126e3565b606061198e83836040518060400160405280601e81526020017f416464726573733a206c6f772d6c6576656c2063616c6c206661696c65640000815250612692565b6060824710156127445760405162461bcd60e51b815260206004820152602660248201527f416464726573733a20696e73756666696369656e742062616c616e636520666f6044820152651c8818d85b1b60d21b6064820152608401610810565b843b6127925760405162461bcd60e51b815260206004820152601d60248201527f416464726573733a2063616c6c20746f206e6f6e2d636f6e74726163740000006044820152606401610810565b600080866001600160a01b031685876040516127ae91906130ff565b60006040518083038185875af1925050503d80600081146127eb576040519150601f19603f3d011682016040523d82523d6000602084013e6127f0565b606091505b509150915061280082828661280b565b979650505050505050565b6060831561281a57508161198e565b82511561282a5782518084602001fd5b8160405162461bcd60e51b81526004016108109190613111565b60006020828403121561285657600080fd5b81356001600160e01b03198116811461198e57600080fd5b6001600160a01b038116811461288357600080fd5b50565b60006020828403121561289857600080fd5b813561198e8161286e565b60008083601f8401126128b557600080fd5b50813567ffffffffffffffff8111156128cd57600080fd5b6020830191508360208285010111156128e557600080fd5b9250929050565b600080602083850312156128ff57600080fd5b823567ffffffffffffffff81111561291657600080fd5b612922858286016128a3565b90969095509350505050565b6000806020838503121561294157600080fd5b823567ffffffffffffffff8082111561295957600080fd5b818501915085601f83011261296d57600080fd5b81358181111561297c57600080fd5b8660208260051b850101111561299157600080fd5b60209290920196919550909350505050565b60006101208284031215611d7257600080fd5b60008082840360a08112156129ca57600080fd5b833567ffffffffffffffff8111156129e157600080fd5b6129ed868287016129a3565b9350506080601f1982011215612a0257600080fd5b506020830190509250929050565b801515811461288357600080fd5b600060208284031215612a3057600080fd5b813561198e81612a10565b600080600080848603610100811215612a5357600080fd5b853567ffffffffffffffff80821115612a6b57600080fd5b612a7789838a016129a3565b965060c0601f1984011215612a8b57600080fd5b60208801955060e0880135925080831115612aa557600080fd5b5050612ab3878288016128a3565b95989497509550505050565b600060208284031215612ad157600080fd5b5035919050565b600060208284031215612aea57600080fd5b813567ffffffffffffffff811115612b0157600080fd5b611a4c848285016129a3565b60008060408385031215612b2057600080fd5b8235612b2b8161286e565b946020939093013593505050565b6020808252818101527f4f776e61626c653a2063616c6c6572206973206e6f7420746865206f776e6572604082015260600190565b600060208284031215612b8057600080fd5b5051919050565b81835281816020850137506000828201602090810191909152601f909101601f19169091010190565b602081526000611a4c602083018486612b87565b600060608284031215612bd657600080fd5b6040516060810181811067ffffffffffffffff82111715612c0757634e487b7160e01b600052604160045260246000fd5b806040525082518152602083015160208201526040830151612c2881612a10565b60408201529392505050565b634e487b7160e01b600052601160045260246000fd5b600082612c6757634e487b7160e01b600052601260045260246000fd5b500490565b634e487b7160e01b600052603260045260246000fd5b6000823561011e19833603018112612c9957600080fd5b9190910192915050565b808201808211156107e0576107e0612c34565b600060018201612cc857612cc8612c34565b5060010190565b818103818111156107e0576107e0612c34565b6020808252601f908201527f5265656e7472616e637947756172643a207265656e7472616e742063616c6c00604082015260600190565b6000808335601e19843603018112612d3057600080fd5b83018035915067ffffffffffffffff821115612d4b57600080fd5b6020019150368190038213156128e557600080fd5b600060208284031215612d7257600080fd5b813560ff8116811461198e57600080fd5b6000808335601e19843603018112612d9a57600080fd5b83018035915067ffffffffffffffff821115612db557600080fd5b6020019150600581901b36038213156128e557600080fd5b600060208284031215612ddf57600080fd5b813561ffff8116811461198e57600080fd5b60e081526000612e0560e083018b8d612b87565b6001600160a01b038a8116602085810191909152604085018b905290891660608501528382036080850152868252818101600588901b830182018960005b8a811015612eb357858303601f190184528135368d9003601e19018112612e6957600080fd5b8c01858101903567ffffffffffffffff811115612e8557600080fd5b803603821315612e9457600080fd5b612e9f858284612b87565b958701959450505090840190600101612e43565b505087151560a08701529350612ec892505050565b61ffff831660c08301529a9950505050505050505050565b600060208284031215612ef257600080fd5b815161198e8161286e565b8183823760009101908152919050565b600060208284031215612f1f57600080fd5b815161198e81612a10565b60a081526000612f3e60a08301888a612b87565b6001600160a01b03968716602084015260408301959095525091909316606082015261ffff90921660809092019190915292915050565b606081526000612f89606083018688612b87565b6020830194909452506040015292915050565b80820281158282048414176107e0576107e0612c34565b60006101408835612fc38161286e565b6001600160a01b03908116845260208a013590612fdf8261286e565b8082166020860152505060408901356040840152606089013560608401526080890135608084015260a089013560a08401528060c0840152613024818401888a612b87565b9150508460e08301526130436101008301856001600160a01b03169052565b821515610120830152979650505050505050565b81838237642e7361667560d81b9101908152600501919050565b60005b8381101561308c578181015183820152602001613074565b50506000910152565b600081518084526130ad816020860160208601613071565b601f01601f19169290920160200192915050565b6001600160a01b0385811682528481166020830152831660408201526080606082018190526000906130f590830184613095565b9695505050505050565b60008251612c99818460208701613071565b60208152600061198e602083018461309556fea2646970667358221220f5922b39d560596e16043ed28418fc39732a65d8d5716b92f7bebad55f2532f164736f6c63430008140033",
  "devdoc": {
    "details": "Supports USDC-only payments, ERC-4337 Account Abstraction,      Circle Paymaster for gasless transactions, and optional AA wallet deployment.      No renewal functions - all registrations are lifetime (100 years). Key Features: - ETH and USDC payments - EIP-2612 permit for gasless USDC approval - ERC-4337 Account Abstraction compatible - Optional AA wallet deployment with domain mint - Works with Circle Paymaster for gas sponsorship",
    "kind": "dev",
    "methods": {
      "available(string)": {
        "params": {
          "name": "The name to check"
        },
        "returns": {
          "_0": "True if the name is available"
        }
      },
      "batchRegister((string,address,bytes32,address,bytes[],bool,uint16,bool,uint256)[])": {
        "params": {
          "requests": "Array of registration requests"
        }
      },
      "batchRegisterWithUSDC((string,address,bytes32,address,bytes[],bool,uint16,bool,uint256)[])": {
        "params": {
          "requests": "Array of registration requests"
        }
      },
      "commit(bytes32)": {
        "params": {
          "commitment": "The commitment hash"
        }
      },
      "getPrice(string)": {
        "params": {
          "name": "The name to price"
        },
        "returns": {
          "isAgentName": "Whether the name qualifies as an agent name",
          "priceUSDC": "Price in USDC (6 decimals)"
        }
      },
      "getWalletAddress(address,uint256)": {
        "params": {
          "owner": "The wallet owner",
          "salt": "The CREATE2 salt"
        },
        "returns": {
          "_0": "The predicted wallet address"
        }
      },
      "makeCommitment((string,address,bytes32,address,bytes[],bool,uint16,bool,uint256))": {
        "params": {
          "req": "The registration request"
        },
        "returns": {
          "_0": "The commitment hash"
        }
      },
      "owner()": {
        "details": "Returns the address of the current owner."
      },
      "register((string,address,bytes32,address,bytes[],bool,uint16,bool,uint256),(address,address,bytes32,bytes32,uint256,bytes32),bytes)": {
        "params": {
          "referralData": "The referral data",
          "referralSignature": "The referral signature",
          "req": "The registration request"
        }
      },
      "registerWithPermit((string,address,bytes32,address,bytes[],bool,uint16,bool,uint256),(uint256,uint8,bytes32,bytes32))": {
        "details": "Best for AA wallets - single transaction approval + mint",
        "params": {
          "permit": "EIP-2612 permit data for USDC approval",
          "req": "The registration request"
        }
      },
      "registerWithUSDC((string,address,bytes32,address,bytes[],bool,uint16,bool,uint256))": {
        "params": {
          "req": "The registration request"
        }
      },
      "renounceOwnership()": {
        "details": "Leaves the contract without owner. It will not be possible to call `onlyOwner` functions anymore. Can only be called by the current owner. NOTE: Renouncing ownership will leave the contract without an owner, thereby removing any functionality that is only available to the owner."
      },
      "transferOwnership(address)": {
        "details": "Transfers ownership of the contract to a new account (`newOwner`). Can only be called by the current owner."
      },
      "valid(string)": {
        "params": {
          "name": "The name to check"
        },
        "returns": {
          "_0": "True if the name is valid"
        }
      }
    },
    "title": "AgentRegistrarController",
    "version": 1
  },
  "userdoc": {
    "events": {
      "AgentWalletDeployed(address,address,string)": {
        "notice": "Emitted when an AA wallet is deployed for an agent"
      },
      "BatchRegistered(uint256,address,uint256)": {
        "notice": "Emitted when a batch registration completes"
      },
      "NameRegistered(string,bytes32,address,uint256,uint256)": {
        "notice": "Emitted when a name is registered"
      }
    },
    "kind": "user",
    "methods": {
      "LIFETIME_DURATION()": {
        "notice": "Lifetime duration: 100 years in seconds"
      },
      "MAX_BATCH_SIZE()": {
        "notice": "Maximum names in a single batch registration"
      },
      "MAX_COMMITMENT_AGE()": {
        "notice": "Maximum commitment age (24 hours)"
      },
      "MAX_REFERRAL_PCT()": {
        "notice": "Max referral percentage (30%)"
      },
      "MIN_COMMITMENT_AGE()": {
        "notice": "Minimum commitment age (10 minutes)"
      },
      "accountFactory()": {
        "notice": "Account factory for deploying AA wallets"
      },
      "agentModeEnabled()": {
        "notice": "Whether to skip commit-reveal for agent names"
      },
      "available(string)": {
        "notice": "Check if a name is available for registration"
      },
      "batchRegister((string,address,bytes32,address,bytes[],bool,uint16,bool,uint256)[])": {
        "notice": "Register multiple names in a single transaction"
      },
      "batchRegisterWithUSDC((string,address,bytes32,address,bytes[],bool,uint16,bool,uint256)[])": {
        "notice": "Batch register names with USDC (agent names only)"
      },
      "commit(bytes32)": {
        "notice": "Commit to a name registration (for commit-reveal)"
      },
      "commitments(bytes32)": {
        "notice": "Mapping of commitments to timestamps"
      },
      "getPrice(string)": {
        "notice": "Get registration price in USDC (6 decimals)"
      },
      "getWalletAddress(address,uint256)": {
        "notice": "Get the deterministic AA wallet address for an owner"
      },
      "makeCommitment((string,address,bytes32,address,bytes[],bool,uint16,bool,uint256))": {
        "notice": "Make a commitment hash from registration parameters"
      },
      "referralVerifier()": {
        "notice": "ReferralVerifier for referral rewards"
      },
      "register((string,address,bytes32,address,bytes[],bool,uint16,bool,uint256),(address,address,bytes32,bytes32,uint256,bytes32),bytes)": {
        "notice": "Register a name with ETH payment"
      },
      "registerWithPermit((string,address,bytes32,address,bytes[],bool,uint16,bool,uint256),(uint256,uint8,bytes32,bytes32))": {
        "notice": "Register a name with USDC using EIP-2612 permit (gasless approval)"
      },
      "registerWithUSDC((string,address,bytes32,address,bytes[],bool,uint16,bool,uint256))": {
        "notice": "Register a name with USDC payment"
      },
      "rentPrice(string)": {
        "notice": "Get the rent price for a name (ETH + USD)"
      },
      "setAccountFactory(address)": {
        "notice": "Set the account factory for AA wallet deployment"
      },
      "setAgentMode(bool)": {
        "notice": "Toggle agent mode (skip commit-reveal for agent names)"
      },
      "setReferralVerifier(address)": {
        "notice": "Set the referral verifier contract"
      },
      "setTreasury(address)": {
        "notice": "Set the treasury address for USDC payments"
      },
      "totalAgentRegistrations()": {
        "notice": "Total agent-specific registrations"
      },
      "totalMints()": {
        "notice": "Total number of names minted"
      },
      "totalVolumeUSDC()": {
        "notice": "Total USDC volume processed (6 decimals)"
      },
      "treasury()": {
        "notice": "Treasury address for USDC payments"
      },
      "usdc()": {
        "notice": "USDC token address on Base"
      },
      "valid(string)": {
        "notice": "Check if a name is valid (meets minimum requirements)"
      },
      "withdraw(address)": {
        "notice": "Withdraw ETH from the contract"
      },
      "withdrawUSDC(address)": {
        "notice": "Withdraw USDC from the contract"
      }
    },
    "notice": "Agent-first domain registration controller with lifetime-only pricing",
    "version": 1
  },
  "storageLayout": {
    "storage": [
      {
        "astId": 492,
        "contract": "contracts/agent-registrar/AgentRegistrarController.sol:AgentRegistrarController",
        "label": "_owner",
        "offset": 0,
        "slot": "0",
        "type": "t_address"
      },
      {
        "astId": 1077,
        "contract": "contracts/agent-registrar/AgentRegistrarController.sol:AgentRegistrarController",
        "label": "_status",
        "offset": 0,
        "slot": "1",
        "type": "t_uint256"
      },
      {
        "astId": 6220,
        "contract": "contracts/agent-registrar/AgentRegistrarController.sol:AgentRegistrarController",
        "label": "referralVerifier",
        "offset": 0,
        "slot": "2",
        "type": "t_contract(ReferralVerifier)21849"
      },
      {
        "astId": 6229,
        "contract": "contracts/agent-registrar/AgentRegistrarController.sol:AgentRegistrarController",
        "label": "commitments",
        "offset": 0,
        "slot": "3",
        "type": "t_mapping(t_bytes32,t_uint256)"
      },
      {
        "astId": 6232,
        "contract": "contracts/agent-registrar/AgentRegistrarController.sol:AgentRegistrarController",
        "label": "agentModeEnabled",
        "offset": 0,
        "slot": "4",
        "type": "t_bool"
      },
      {
        "astId": 6235,
        "contract": "contracts/agent-registrar/AgentRegistrarController.sol:AgentRegistrarController",
        "label": "totalMints",
        "offset": 0,
        "slot": "5",
        "type": "t_uint256"
      },
      {
        "astId": 6239,
        "contract": "contracts/agent-registrar/AgentRegistrarController.sol:AgentRegistrarController",
        "label": "accountFactory",
        "offset": 0,
        "slot": "6",
        "type": "t_contract(IAccountFactory)6128"
      },
      {
        "astId": 6242,
        "contract": "contracts/agent-registrar/AgentRegistrarController.sol:AgentRegistrarController",
        "label": "treasury",
        "offset": 0,
        "slot": "7",
        "type": "t_address"
      },
      {
        "astId": 6245,
        "contract": "contracts/agent-registrar/AgentRegistrarController.sol:AgentRegistrarController",
        "label": "totalVolumeUSDC",
        "offset": 0,
        "slot": "8",
        "type": "t_uint256"
      },
      {
        "astId": 6248,
        "contract": "contracts/agent-registrar/AgentRegistrarController.sol:AgentRegistrarController",
        "label": "totalAgentRegistrations",
        "offset": 0,
        "slot": "9",
        "type": "t_uint256"
      }
    ],
    "types": {
      "t_address": {
        "encoding": "inplace",
        "label": "address",
        "numberOfBytes": "20"
      },
      "t_bool": {
        "encoding": "inplace",
        "label": "bool",
        "numberOfBytes": "1"
      },
      "t_bytes32": {
        "encoding": "inplace",
        "label": "bytes32",
        "numberOfBytes": "32"
      },
      "t_contract(IAccountFactory)6128": {
        "encoding": "inplace",
        "label": "contract IAccountFactory",
        "numberOfBytes": "20"
      },
      "t_contract(ReferralVerifier)21849": {
        "encoding": "inplace",
        "label": "contract ReferralVerifier",
        "numberOfBytes": "20"
      },
      "t_mapping(t_bytes32,t_uint256)": {
        "encoding": "mapping",
        "key": "t_bytes32",
        "label": "mapping(bytes32 => uint256)",
        "numberOfBytes": "32",
        "value": "t_uint256"
      },
      "t_uint256": {
        "encoding": "inplace",
        "label": "uint256",
        "numberOfBytes": "32"
      }
    }
  }
}