{
  "address": "0x860B78482d7ee00c53ae53A48d6577Cde0fdA230",
  "abi": [
    {
      "inputs": [
        {
          "internalType": "address",
          "name": "_accountImplementation",
          "type": "address"
        },
        {
          "internalType": "address",
          "name": "_entryPoint",
          "type": "address"
        }
      ],
      "stateMutability": "nonpayable",
      "type": "constructor"
    },
    {
      "anonymous": false,
      "inputs": [
        {
          "indexed": true,
          "internalType": "address",
          "name": "owner",
          "type": "address"
        },
        {
          "indexed": true,
          "internalType": "address",
          "name": "account",
          "type": "address"
        },
        {
          "indexed": false,
          "internalType": "uint256",
          "name": "salt",
          "type": "uint256"
        }
      ],
      "name": "AccountCreated",
      "type": "event"
    },
    {
      "inputs": [],
      "name": "accountImplementation",
      "outputs": [
        {
          "internalType": "address",
          "name": "",
          "type": "address"
        }
      ],
      "stateMutability": "view",
      "type": "function"
    },
    {
      "inputs": [
        {
          "internalType": "address",
          "name": "owner",
          "type": "address"
        },
        {
          "internalType": "uint256",
          "name": "salt",
          "type": "uint256"
        }
      ],
      "name": "createAccount",
      "outputs": [
        {
          "internalType": "address",
          "name": "",
          "type": "address"
        }
      ],
      "stateMutability": "nonpayable",
      "type": "function"
    },
    {
      "inputs": [],
      "name": "entryPoint",
      "outputs": [
        {
          "internalType": "address",
          "name": "",
          "type": "address"
        }
      ],
      "stateMutability": "view",
      "type": "function"
    },
    {
      "inputs": [
        {
          "internalType": "address",
          "name": "owner",
          "type": "address"
        },
        {
          "internalType": "uint256",
          "name": "salt",
          "type": "uint256"
        }
      ],
      "name": "getAddress",
      "outputs": [
        {
          "internalType": "address",
          "name": "",
          "type": "address"
        }
      ],
      "stateMutability": "view",
      "type": "function"
    }
  ],
  "transactionHash": "0xcba99e00456aee30979fae0b008fadbd89cf8f46f9c88c08f220b5f0b3b57035",
  "args": [
    "0x634Df76964cf1a239845b140Bb449b41F0C4a2dF",
    "0x5FF137D4b0FDCD49DcA30c7CF57E578a026d2789"
  ],
  "numDeployments": 2,
  "solcInputHash": "51c396074905eafbf23ffb9db0ffdf7f",
  "bytecode": "0x60c060405234801561001057600080fd5b50604051610aba380380610aba83398101604081905261002f91610062565b6001600160a01b039182166080521660a052610095565b80516001600160a01b038116811461005d57600080fd5b919050565b6000806040838503121561007557600080fd5b61007e83610046565b915061008c60208401610046565b90509250929050565b60805160a0516109e66100d46000396000818160bf0152818161011c015261024201526000818160560152818161017c01526102c901526109e66000f3fe608060405234801561001057600080fd5b506004361061004c5760003560e01c806311464fbe146100515780635fbfb9cf146100945780638cb84e18146100a7578063b0d691fe146100ba575b600080fd5b6100787f000000000000000000000000000000000000000000000000000000000000000081565b6040516001600160a01b03909116815260200160405180910390f35b6100786100a236600461039d565b6100e1565b6100786100b536600461039d565b61022d565b6100787f000000000000000000000000000000000000000000000000000000000000000081565b6000806100ee848461022d565b90506001600160a01b0381163b15610107579050610227565b6040516001600160a01b0380861660248301527f000000000000000000000000000000000000000000000000000000000000000016604482015260009060640160408051601f198184030181529181526020820180516001600160e01b031663485cc95560e01b1790525190915060009085907f00000000000000000000000000000000000000000000000000000000000000009084906101a790610390565b6101b29291906103f9565b8190604051809103906000f59050801580156101d2573d6000803e3d6000fd5b509050806001600160a01b0316866001600160a01b03167f33310a89c32d8cc00057ad6ef6274d2f8fe22389a992cf89983e09fc84f6cfff8760405161021a91815260200190565b60405180910390a3925050505b92915050565b6040516001600160a01b0380841660248301527f0000000000000000000000000000000000000000000000000000000000000000166044820152600090819060640160408051601f19818403018152918152602080830180516001600160e01b031663485cc95560e01b1790529051919250600091906102ae908201610390565b601f1982820381018352601f9091011660408190526102f3907f00000000000000000000000000000000000000000000000000000000000000009085906020016103f9565b60408051601f1981840301815290829052610311929160200161043b565b60405160208183030381529060405290506103878460001b8280519060200120604080516001600160f81b03196020808301919091523060601b6bffffffffffffffffffffffff191660218301526035820194909452605580820193909352815180820390930183526075019052805191012090565b95945050505050565b6105468061046b83390190565b600080604083850312156103b057600080fd5b82356001600160a01b03811681146103c757600080fd5b946020939093013593505050565b60005b838110156103f05781810151838201526020016103d8565b50506000910152565b60018060a01b038316815260406020820152600082518060408401526104268160608501602087016103d5565b601f01601f1916919091016060019392505050565b6000835161044d8184602088016103d5565b8351908301906104618183602088016103d5565b0194935050505056fe6080604052604051610546380380610546833981016040819052610022916102ec565b61004d60017f360894a13ba1a3210667c828492db98dca3e2076cc3735a920a3ca505d382bbd6103ba565b6000805160206104ff83398151915214610069576100696103db565b6100758282600061007c565b5050610440565b610085836100dc565b6040516001600160a01b038416907fbc7cd75a20ee27fd9adebab32041f755214dbc6bffa90cc0225b39da2e5c2d3b90600090a26000825111806100c65750805b156100d7576100d58383610174565b505b505050565b803b6101455760405162461bcd60e51b815260206004820152602d60248201527f455243313936373a206e657720696d706c656d656e746174696f6e206973206e60448201526c1bdd08184818dbdb9d1c9858dd609a1b60648201526084015b60405180910390fd5b6000805160206104ff83398151915280546001600160a01b0319166001600160a01b0392909216919091179055565b6060610199838360405180606001604052806027815260200161051f602791396101a2565b90505b92915050565b6060833b6102015760405162461bcd60e51b815260206004820152602660248201527f416464726573733a2064656c65676174652063616c6c20746f206e6f6e2d636f6044820152651b9d1c9858dd60d21b606482015260840161013c565b600080856001600160a01b03168560405161021c91906103f1565b600060405180830381855af49150503d8060008114610257576040519150601f19603f3d011682016040523d82523d6000602084013e61025c565b606091505b50909250905061026d828286610279565b925050505b9392505050565b60608315610288575081610272565b8251156102985782518084602001fd5b8160405162461bcd60e51b815260040161013c919061040d565b634e487b7160e01b600052604160045260246000fd5b60005b838110156102e35781810151838201526020016102cb565b50506000910152565b600080604083850312156102ff57600080fd5b82516001600160a01b038116811461031657600080fd5b60208401519092506001600160401b038082111561033357600080fd5b818501915085601f83011261034757600080fd5b815181811115610359576103596102b2565b604051601f8201601f19908116603f01168101908382118183101715610381576103816102b2565b8160405282815288602084870101111561039a57600080fd5b6103ab8360208301602088016102c8565b80955050505050509250929050565b8181038181111561019c57634e487b7160e01b600052601160045260246000fd5b634e487b7160e01b600052600160045260246000fd5b600082516104038184602087016102c8565b9190910192915050565b602081526000825180602084015261042c8160408501602087016102c8565b601f01601f19169190910160400192915050565b60b18061044e6000396000f3fe608060405236601057600e6013565b005b600e5b601f601b6021565b6058565b565b600060537f360894a13ba1a3210667c828492db98dca3e2076cc3735a920a3ca505d382bbc546001600160a01b031690565b905090565b3660008037600080366000845af43d6000803e8080156076573d6000f35b3d6000fdfea26469706673582212208d422411bf083a43617eaee87467d29318162a12b673527312caae1e52241afe64736f6c63430008140033360894a13ba1a3210667c828492db98dca3e2076cc3735a920a3ca505d382bbc416464726573733a206c6f772d6c6576656c2064656c65676174652063616c6c206661696c6564a26469706673582212208966c1b80d25d778f553d900e6961464640e3076836f55da9371e4c8e3a9eab564736f6c63430008140033",
  "devdoc": {
    "details": "Uses deterministic CREATE2 for predictable addresses",
    "kind": "dev",
    "methods": {
      "createAccount(address,uint256)": {
        "params": {
          "owner": "The owner of the wallet (can be EOA or another contract)",
          "salt": "Unique salt for deterministic address"
        }
      }
    },
    "title": "AgentAccountFactory",
    "version": 1
  },
  "userdoc": {
    "kind": "user",
    "methods": {
      "createAccount(address,uint256)": {
        "notice": "Create a new AA wallet for an agent"
      },
      "getAddress(address,uint256)": {
        "notice": "Get the deterministic address for an account"
      }
    },
    "notice": "Factory for deploying ERC-4337 smart wallets for AI agents",
    "version": 1
  },
  "storageLayout": {
    "storage": [],
    "types": null
  }
}