{
  "address": "0xcD2eB3567f6547ad98e61876fd1F53A60bE74d6f",
  "abi": [
    {
      "inputs": [
        {
          "internalType": "int256",
          "name": "_value",
          "type": "int256"
        }
      ],
      "stateMutability": "nonpayable",
      "type": "constructor"
    },
    {
      "inputs": [],
      "name": "decimals",
      "outputs": [
        {
          "internalType": "uint8",
          "name": "",
          "type": "uint8"
        }
      ],
      "stateMutability": "pure",
      "type": "function"
    },
    {
      "inputs": [],
      "name": "latestAnswer",
      "outputs": [
        {
          "internalType": "int256",
          "name": "",
          "type": "int256"
        }
      ],
      "stateMutability": "view",
      "type": "function"
    },
    {
      "inputs": [],
      "name": "latestRoundData",
      "outputs": [
        {
          "internalType": "uint80",
          "name": "roundId",
          "type": "uint80"
        },
        {
          "internalType": "int256",
          "name": "answer",
          "type": "int256"
        },
        {
          "internalType": "uint256",
          "name": "startedAt",
          "type": "uint256"
        },
        {
          "internalType": "uint256",
          "name": "updatedAt",
          "type": "uint256"
        },
        {
          "internalType": "uint80",
          "name": "answeredInRound",
          "type": "uint80"
        }
      ],
      "stateMutability": "view",
      "type": "function"
    },
    {
      "inputs": [
        {
          "internalType": "int256",
          "name": "_value",
          "type": "int256"
        }
      ],
      "name": "set",
      "outputs": [],
      "stateMutability": "nonpayable",
      "type": "function"
    }
  ],
  "transactionHash": "0x647cd4cf7ff08070641024aa5d12b2d168d4a6188ff44d5824847f6c396518fa",
  "args": [
    "250000000"
  ],
  "numDeployments": 1,
  "bytecode": "0x608060405234801561001057600080fd5b5060405161016738038061016783398101604081905261002f9161003e565b61003881600055565b50610057565b60006020828403121561005057600080fd5b5051919050565b610101806100666000396000f3fe6080604052348015600f57600080fd5b506004361060465760003560e01c8063313ce56714604b57806350d25bcd14605f578063e5c19b2d14606f578063feaf968c146081575b600080fd5b604051600881526020015b60405180910390f35b6000546040519081526020016056565b607f607a36600460b3565b600055565b005b6000546040805160018082526020820193909352429181018290526060810191909152608081019190915260a0016056565b60006020828403121560c457600080fd5b503591905056fea2646970667358221220e653df530f8c6cbf9e5b739b9d8703cde8d9cd3708762a0de5924c6c5448f50364736f6c63430008140033"
}