{
  "address": "0x98C7C2e77B1858e3A3De5a9979AB6d8Bd3Bb6227",
  "abi": [
    {
      "inputs": [
        {
          "internalType": "contract BaseRegistrarImplementation",
          "name": "_base",
          "type": "address"
        },
        {
          "internalType": "contract TokenPriceOracle",
          "name": "_prices",
          "type": "address"
        },
        {
          "internalType": "uint256",
          "name": "_minCommitmentAge",
          "type": "uint256"
        },
        {
          "internalType": "uint256",
          "name": "_maxCommitmentAge",
          "type": "uint256"
        },
        {
          "internalType": "contract ReverseRegistrar",
          "name": "_reverseRegistrar",
          "type": "address"
        },
        {
          "internalType": "contract INameWrapper",
          "name": "_nameWrapper",
          "type": "address"
        },
        {
          "internalType": "contract ENS",
          "name": "_ens",
          "type": "address"
        },
        {
          "internalType": "contract ReferralVerifier",
          "name": "_referralVerifier",
          "type": "address"
        }
      ],
      "stateMutability": "nonpayable",
      "type": "constructor"
    },
    {
      "inputs": [
        {
          "internalType": "bytes32",
          "name": "commitment",
          "type": "bytes32"
        }
      ],
      "name": "CommitmentTooNew",
      "type": "error"
    },
    {
      "inputs": [
        {
          "internalType": "bytes32",
          "name": "commitment",
          "type": "bytes32"
        }
      ],
      "name": "CommitmentTooOld",
      "type": "error"
    },
    {
      "inputs": [
        {
          "internalType": "uint256",
          "name": "duration",
          "type": "uint256"
        }
      ],
      "name": "DurationTooShort",
      "type": "error"
    },
    {
      "inputs": [],
      "name": "InsufficientValue",
      "type": "error"
    },
    {
      "inputs": [],
      "name": "MaxCommitmentAgeTooHigh",
      "type": "error"
    },
    {
      "inputs": [],
      "name": "MaxCommitmentAgeTooLow",
      "type": "error"
    },
    {
      "inputs": [
        {
          "internalType": "string",
          "name": "name",
          "type": "string"
        }
      ],
      "name": "NameNotAvailable",
      "type": "error"
    },
    {
      "inputs": [],
      "name": "ResolverRequiredWhenDataSupplied",
      "type": "error"
    },
    {
      "inputs": [
        {
          "internalType": "bytes32",
          "name": "commitment",
          "type": "bytes32"
        }
      ],
      "name": "UnexpiredCommitmentExists",
      "type": "error"
    },
    {
      "anonymous": false,
      "inputs": [
        {
          "indexed": false,
          "internalType": "string",
          "name": "name",
          "type": "string"
        },
        {
          "indexed": true,
          "internalType": "bytes32",
          "name": "label",
          "type": "bytes32"
        },
        {
          "indexed": true,
          "internalType": "address",
          "name": "owner",
          "type": "address"
        },
        {
          "indexed": false,
          "internalType": "uint256",
          "name": "baseCost",
          "type": "uint256"
        },
        {
          "indexed": false,
          "internalType": "uint256",
          "name": "premium",
          "type": "uint256"
        },
        {
          "indexed": false,
          "internalType": "uint256",
          "name": "expires",
          "type": "uint256"
        }
      ],
      "name": "NameRegistered",
      "type": "event"
    },
    {
      "anonymous": false,
      "inputs": [
        {
          "indexed": false,
          "internalType": "string",
          "name": "name",
          "type": "string"
        },
        {
          "indexed": true,
          "internalType": "bytes32",
          "name": "label",
          "type": "bytes32"
        },
        {
          "indexed": false,
          "internalType": "uint256",
          "name": "cost",
          "type": "uint256"
        },
        {
          "indexed": false,
          "internalType": "uint256",
          "name": "expires",
          "type": "uint256"
        }
      ],
      "name": "NameRenewed",
      "type": "event"
    },
    {
      "anonymous": false,
      "inputs": [
        {
          "indexed": true,
          "internalType": "address",
          "name": "previousOwner",
          "type": "address"
        },
        {
          "indexed": true,
          "internalType": "address",
          "name": "newOwner",
          "type": "address"
        }
      ],
      "name": "OwnershipTransferred",
      "type": "event"
    },
    {
      "inputs": [],
      "name": "MIN_REGISTRATION_DURATION",
      "outputs": [
        {
          "internalType": "uint256",
          "name": "",
          "type": "uint256"
        }
      ],
      "stateMutability": "view",
      "type": "function"
    },
    {
      "inputs": [],
      "name": "airdrop",
      "outputs": [
        {
          "internalType": "contract Airdrop",
          "name": "",
          "type": "address"
        }
      ],
      "stateMutability": "view",
      "type": "function"
    },
    {
      "inputs": [
        {
          "internalType": "string",
          "name": "name",
          "type": "string"
        }
      ],
      "name": "available",
      "outputs": [
        {
          "internalType": "bool",
          "name": "",
          "type": "bool"
        }
      ],
      "stateMutability": "view",
      "type": "function"
    },
    {
      "inputs": [],
      "name": "backendWallet",
      "outputs": [
        {
          "internalType": "address",
          "name": "",
          "type": "address"
        }
      ],
      "stateMutability": "view",
      "type": "function"
    },
    {
      "inputs": [],
      "name": "base",
      "outputs": [
        {
          "internalType": "contract BaseRegistrarImplementation",
          "name": "",
          "type": "address"
        }
      ],
      "stateMutability": "view",
      "type": "function"
    },
    {
      "inputs": [
        {
          "internalType": "bytes32",
          "name": "commitment",
          "type": "bytes32"
        }
      ],
      "name": "commit",
      "outputs": [],
      "stateMutability": "nonpayable",
      "type": "function"
    },
    {
      "inputs": [
        {
          "internalType": "bytes32",
          "name": "",
          "type": "bytes32"
        }
      ],
      "name": "commitments",
      "outputs": [
        {
          "internalType": "uint256",
          "name": "",
          "type": "uint256"
        }
      ],
      "stateMutability": "view",
      "type": "function"
    },
    {
      "inputs": [
        {
          "internalType": "bool",
          "name": "enabled",
          "type": "bool"
        }
      ],
      "name": "controlAirdrop",
      "outputs": [],
      "stateMutability": "nonpayable",
      "type": "function"
    },
    {
      "inputs": [],
      "name": "getMints",
      "outputs": [
        {
          "internalType": "uint256",
          "name": "",
          "type": "uint256"
        }
      ],
      "stateMutability": "view",
      "type": "function"
    },
    {
      "inputs": [],
      "name": "infoFi",
      "outputs": [
        {
          "internalType": "address",
          "name": "",
          "type": "address"
        }
      ],
      "stateMutability": "view",
      "type": "function"
    },
    {
      "inputs": [
        {
          "components": [
            {
              "internalType": "string",
              "name": "name",
              "type": "string"
            },
            {
              "internalType": "address",
              "name": "owner",
              "type": "address"
            },
            {
              "internalType": "uint256",
              "name": "duration",
              "type": "uint256"
            },
            {
              "internalType": "bytes32",
              "name": "secret",
              "type": "bytes32"
            },
            {
              "internalType": "address",
              "name": "resolver",
              "type": "address"
            },
            {
              "internalType": "bytes[]",
              "name": "data",
              "type": "bytes[]"
            },
            {
              "internalType": "bool",
              "name": "reverseRecord",
              "type": "bool"
            },
            {
              "internalType": "uint16",
              "name": "ownerControlledFuses",
              "type": "uint16"
            },
            {
              "internalType": "bool",
              "name": "lifetime",
              "type": "bool"
            }
          ],
          "internalType": "struct IETHRegistrarController.RegisterRequest",
          "name": "req",
          "type": "tuple"
        }
      ],
      "name": "makeCommitment",
      "outputs": [
        {
          "internalType": "bytes32",
          "name": "",
          "type": "bytes32"
        }
      ],
      "stateMutability": "pure",
      "type": "function"
    },
    {
      "inputs": [],
      "name": "maxCommitmentAge",
      "outputs": [
        {
          "internalType": "uint256",
          "name": "",
          "type": "uint256"
        }
      ],
      "stateMutability": "view",
      "type": "function"
    },
    {
      "inputs": [],
      "name": "minCommitmentAge",
      "outputs": [
        {
          "internalType": "uint256",
          "name": "",
          "type": "uint256"
        }
      ],
      "stateMutability": "view",
      "type": "function"
    },
    {
      "inputs": [],
      "name": "mints",
      "outputs": [
        {
          "internalType": "uint256",
          "name": "",
          "type": "uint256"
        }
      ],
      "stateMutability": "view",
      "type": "function"
    },
    {
      "inputs": [],
      "name": "nameWrapper",
      "outputs": [
        {
          "internalType": "contract INameWrapper",
          "name": "",
          "type": "address"
        }
      ],
      "stateMutability": "view",
      "type": "function"
    },
    {
      "inputs": [],
      "name": "owner",
      "outputs": [
        {
          "internalType": "address",
          "name": "",
          "type": "address"
        }
      ],
      "stateMutability": "view",
      "type": "function"
    },
    {
      "inputs": [],
      "name": "prices",
      "outputs": [
        {
          "internalType": "contract TokenPriceOracle",
          "name": "",
          "type": "address"
        }
      ],
      "stateMutability": "view",
      "type": "function"
    },
    {
      "inputs": [
        {
          "internalType": "address",
          "name": "_token",
          "type": "address"
        },
        {
          "internalType": "address",
          "name": "_to",
          "type": "address"
        },
        {
          "internalType": "uint256",
          "name": "_amount",
          "type": "uint256"
        }
      ],
      "name": "recoverFunds",
      "outputs": [],
      "stateMutability": "nonpayable",
      "type": "function"
    },
    {
      "inputs": [],
      "name": "referralVerifier",
      "outputs": [
        {
          "internalType": "contract ReferralVerifier",
          "name": "",
          "type": "address"
        }
      ],
      "stateMutability": "view",
      "type": "function"
    },
    {
      "inputs": [
        {
          "components": [
            {
              "internalType": "string",
              "name": "name",
              "type": "string"
            },
            {
              "internalType": "address",
              "name": "owner",
              "type": "address"
            },
            {
              "internalType": "uint256",
              "name": "duration",
              "type": "uint256"
            },
            {
              "internalType": "bytes32",
              "name": "secret",
              "type": "bytes32"
            },
            {
              "internalType": "address",
              "name": "resolver",
              "type": "address"
            },
            {
              "internalType": "bytes[]",
              "name": "data",
              "type": "bytes[]"
            },
            {
              "internalType": "bool",
              "name": "reverseRecord",
              "type": "bool"
            },
            {
              "internalType": "uint16",
              "name": "ownerControlledFuses",
              "type": "uint16"
            },
            {
              "internalType": "bool",
              "name": "lifetime",
              "type": "bool"
            }
          ],
          "internalType": "struct IETHRegistrarController.RegisterRequest",
          "name": "req",
          "type": "tuple"
        },
        {
          "components": [
            {
              "internalType": "address",
              "name": "referrer",
              "type": "address"
            },
            {
              "internalType": "address",
              "name": "registrant",
              "type": "address"
            },
            {
              "internalType": "bytes32",
              "name": "nameHash",
              "type": "bytes32"
            },
            {
              "internalType": "bytes32",
              "name": "referrerCodeHash",
              "type": "bytes32"
            },
            {
              "internalType": "uint256",
              "name": "deadline",
              "type": "uint256"
            },
            {
              "internalType": "bytes32",
              "name": "nonce",
              "type": "bytes32"
            }
          ],
          "internalType": "struct ReferralVerifier.ReferralData",
          "name": "referralData",
          "type": "tuple"
        },
        {
          "internalType": "bytes",
          "name": "referralSignature",
          "type": "bytes"
        }
      ],
      "name": "register",
      "outputs": [],
      "stateMutability": "payable",
      "type": "function"
    },
    {
      "inputs": [
        {
          "components": [
            {
              "internalType": "string",
              "name": "name",
              "type": "string"
            },
            {
              "internalType": "address",
              "name": "owner",
              "type": "address"
            },
            {
              "internalType": "uint256",
              "name": "duration",
              "type": "uint256"
            },
            {
              "internalType": "bytes32",
              "name": "secret",
              "type": "bytes32"
            },
            {
              "internalType": "address",
              "name": "resolver",
              "type": "address"
            },
            {
              "internalType": "bytes[]",
              "name": "data",
              "type": "bytes[]"
            },
            {
              "internalType": "bool",
              "name": "reverseRecord",
              "type": "bool"
            },
            {
              "internalType": "uint16",
              "name": "ownerControlledFuses",
              "type": "uint16"
            },
            {
              "internalType": "bool",
              "name": "lifetime",
              "type": "bool"
            }
          ],
          "internalType": "struct IETHRegistrarController.RegisterRequest",
          "name": "req",
          "type": "tuple"
        },
        {
          "components": [
            {
              "internalType": "address",
              "name": "referrer",
              "type": "address"
            },
            {
              "internalType": "address",
              "name": "registrant",
              "type": "address"
            },
            {
              "internalType": "bytes32",
              "name": "nameHash",
              "type": "bytes32"
            },
            {
              "internalType": "bytes32",
              "name": "referrerCodeHash",
              "type": "bytes32"
            },
            {
              "internalType": "uint256",
              "name": "deadline",
              "type": "uint256"
            },
            {
              "internalType": "bytes32",
              "name": "nonce",
              "type": "bytes32"
            }
          ],
          "internalType": "struct ReferralVerifier.ReferralData",
          "name": "referralData",
          "type": "tuple"
        },
        {
          "internalType": "bytes",
          "name": "referralSignature",
          "type": "bytes"
        }
      ],
      "name": "registerWithCard",
      "outputs": [],
      "stateMutability": "nonpayable",
      "type": "function"
    },
    {
      "inputs": [
        {
          "components": [
            {
              "internalType": "string",
              "name": "name",
              "type": "string"
            },
            {
              "internalType": "address",
              "name": "owner",
              "type": "address"
            },
            {
              "internalType": "uint256",
              "name": "duration",
              "type": "uint256"
            },
            {
              "internalType": "bytes32",
              "name": "secret",
              "type": "bytes32"
            },
            {
              "internalType": "address",
              "name": "resolver",
              "type": "address"
            },
            {
              "internalType": "bytes[]",
              "name": "data",
              "type": "bytes[]"
            },
            {
              "internalType": "bool",
              "name": "reverseRecord",
              "type": "bool"
            },
            {
              "internalType": "uint16",
              "name": "ownerControlledFuses",
              "type": "uint16"
            },
            {
              "internalType": "bool",
              "name": "lifetime",
              "type": "bool"
            }
          ],
          "internalType": "struct IETHRegistrarController.RegisterRequest",
          "name": "req",
          "type": "tuple"
        },
        {
          "internalType": "address",
          "name": "tokenAddress",
          "type": "address"
        },
        {
          "components": [
            {
              "internalType": "address",
              "name": "referrer",
              "type": "address"
            },
            {
              "internalType": "address",
              "name": "registrant",
              "type": "address"
            },
            {
              "internalType": "bytes32",
              "name": "nameHash",
              "type": "bytes32"
            },
            {
              "internalType": "bytes32",
              "name": "referrerCodeHash",
              "type": "bytes32"
            },
            {
              "internalType": "uint256",
              "name": "deadline",
              "type": "uint256"
            },
            {
              "internalType": "bytes32",
              "name": "nonce",
              "type": "bytes32"
            }
          ],
          "internalType": "struct ReferralVerifier.ReferralData",
          "name": "referralData",
          "type": "tuple"
        },
        {
          "internalType": "bytes",
          "name": "referralSignature",
          "type": "bytes"
        }
      ],
      "name": "registerWithToken",
      "outputs": [],
      "stateMutability": "nonpayable",
      "type": "function"
    },
    {
      "inputs": [
        {
          "internalType": "address",
          "name": "tokenAddress",
          "type": "address"
        }
      ],
      "name": "removeToken",
      "outputs": [],
      "stateMutability": "nonpayable",
      "type": "function"
    },
    {
      "inputs": [
        {
          "internalType": "string",
          "name": "name",
          "type": "string"
        },
        {
          "internalType": "uint256",
          "name": "duration",
          "type": "uint256"
        },
        {
          "internalType": "bool",
          "name": "lifetime",
          "type": "bool"
        }
      ],
      "name": "renew",
      "outputs": [],
      "stateMutability": "payable",
      "type": "function"
    },
    {
      "inputs": [
        {
          "internalType": "string",
          "name": "name",
          "type": "string"
        },
        {
          "internalType": "uint256",
          "name": "duration",
          "type": "uint256"
        },
        {
          "internalType": "bool",
          "name": "lifetime",
          "type": "bool"
        }
      ],
      "name": "renewCard",
      "outputs": [],
      "stateMutability": "nonpayable",
      "type": "function"
    },
    {
      "inputs": [
        {
          "internalType": "string",
          "name": "name",
          "type": "string"
        },
        {
          "internalType": "uint256",
          "name": "duration",
          "type": "uint256"
        },
        {
          "internalType": "address",
          "name": "tokenAddress",
          "type": "address"
        },
        {
          "internalType": "bool",
          "name": "lifetime",
          "type": "bool"
        }
      ],
      "name": "renewTokens",
      "outputs": [],
      "stateMutability": "nonpayable",
      "type": "function"
    },
    {
      "inputs": [],
      "name": "renounceOwnership",
      "outputs": [],
      "stateMutability": "nonpayable",
      "type": "function"
    },
    {
      "inputs": [
        {
          "internalType": "string",
          "name": "name",
          "type": "string"
        },
        {
          "internalType": "uint256",
          "name": "duration",
          "type": "uint256"
        },
        {
          "internalType": "bool",
          "name": "lifetime",
          "type": "bool"
        }
      ],
      "name": "rentPrice",
      "outputs": [
        {
          "components": [
            {
              "internalType": "uint256",
              "name": "base",
              "type": "uint256"
            },
            {
              "internalType": "uint256",
              "name": "premium",
              "type": "uint256"
            }
          ],
          "internalType": "struct IPriceOracle.Price",
          "name": "",
          "type": "tuple"
        }
      ],
      "stateMutability": "view",
      "type": "function"
    },
    {
      "inputs": [
        {
          "internalType": "string",
          "name": "name",
          "type": "string"
        },
        {
          "internalType": "uint256",
          "name": "duration",
          "type": "uint256"
        },
        {
          "internalType": "string",
          "name": "token",
          "type": "string"
        },
        {
          "internalType": "bool",
          "name": "lifetime",
          "type": "bool"
        }
      ],
      "name": "rentPriceToken",
      "outputs": [
        {
          "components": [
            {
              "internalType": "uint256",
              "name": "base",
              "type": "uint256"
            },
            {
              "internalType": "uint256",
              "name": "premium",
              "type": "uint256"
            }
          ],
          "internalType": "struct IPriceOracle.Price",
          "name": "",
          "type": "tuple"
        }
      ],
      "stateMutability": "view",
      "type": "function"
    },
    {
      "inputs": [],
      "name": "resetInfoFi",
      "outputs": [],
      "stateMutability": "payable",
      "type": "function"
    },
    {
      "inputs": [],
      "name": "reverseRegistrar",
      "outputs": [
        {
          "internalType": "contract ReverseRegistrar",
          "name": "",
          "type": "address"
        }
      ],
      "stateMutability": "view",
      "type": "function"
    },
    {
      "inputs": [
        {
          "internalType": "contract Airdrop",
          "name": "_airdrop",
          "type": "address"
        }
      ],
      "name": "setAirdrop",
      "outputs": [],
      "stateMutability": "nonpayable",
      "type": "function"
    },
    {
      "inputs": [
        {
          "internalType": "address",
          "name": "wallet",
          "type": "address"
        }
      ],
      "name": "setBackend",
      "outputs": [],
      "stateMutability": "nonpayable",
      "type": "function"
    },
    {
      "inputs": [
        {
          "internalType": "address",
          "name": "_infoFi",
          "type": "address"
        }
      ],
      "name": "setInfoFi",
      "outputs": [],
      "stateMutability": "nonpayable",
      "type": "function"
    },
    {
      "inputs": [
        {
          "internalType": "address",
          "name": "oracle",
          "type": "address"
        }
      ],
      "name": "setOracle",
      "outputs": [],
      "stateMutability": "nonpayable",
      "type": "function"
    },
    {
      "inputs": [
        {
          "internalType": "address",
          "name": "_verifier",
          "type": "address"
        }
      ],
      "name": "setReferralVerifier",
      "outputs": [],
      "stateMutability": "nonpayable",
      "type": "function"
    },
    {
      "inputs": [
        {
          "components": [
            {
              "internalType": "string",
              "name": "token",
              "type": "string"
            },
            {
              "internalType": "address",
              "name": "tokenAddress",
              "type": "address"
            }
          ],
          "internalType": "struct ETHRegistrarController.Token",
          "name": "token",
          "type": "tuple"
        },
        {
          "internalType": "address",
          "name": "tokenAddress",
          "type": "address"
        }
      ],
      "name": "setToken",
      "outputs": [],
      "stateMutability": "nonpayable",
      "type": "function"
    },
    {
      "inputs": [
        {
          "internalType": "bytes4",
          "name": "interfaceID",
          "type": "bytes4"
        }
      ],
      "name": "supportsInterface",
      "outputs": [
        {
          "internalType": "bool",
          "name": "",
          "type": "bool"
        }
      ],
      "stateMutability": "pure",
      "type": "function"
    },
    {
      "inputs": [
        {
          "internalType": "address",
          "name": "newOwner",
          "type": "address"
        }
      ],
      "name": "transferOwnership",
      "outputs": [],
      "stateMutability": "nonpayable",
      "type": "function"
    },
    {
      "inputs": [],
      "name": "untrackedInfoFi",
      "outputs": [
        {
          "internalType": "uint256",
          "name": "",
          "type": "uint256"
        }
      ],
      "stateMutability": "view",
      "type": "function"
    },
    {
      "inputs": [],
      "name": "useAirdrop",
      "outputs": [
        {
          "internalType": "bool",
          "name": "",
          "type": "bool"
        }
      ],
      "stateMutability": "view",
      "type": "function"
    },
    {
      "inputs": [
        {
          "internalType": "string",
          "name": "name",
          "type": "string"
        }
      ],
      "name": "valid",
      "outputs": [
        {
          "internalType": "bool",
          "name": "",
          "type": "bool"
        }
      ],
      "stateMutability": "pure",
      "type": "function"
    },
    {
      "inputs": [
        {
          "internalType": "address",
          "name": "",
          "type": "address"
        }
      ],
      "name": "verifiedTokens",
      "outputs": [
        {
          "internalType": "string",
          "name": "token",
          "type": "string"
        },
        {
          "internalType": "address",
          "name": "tokenAddress",
          "type": "address"
        }
      ],
      "stateMutability": "view",
      "type": "function"
    },
    {
      "inputs": [],
      "name": "withdraw",
      "outputs": [],
      "stateMutability": "nonpayable",
      "type": "function"
    },
    {
      "inputs": [
        {
          "internalType": "address",
          "name": "tokenAddress",
          "type": "address"
        }
      ],
      "name": "withdrawTokens",
      "outputs": [],
      "stateMutability": "nonpayable",
      "type": "function"
    }
  ],
  "transactionHash": "0x0cf8af89a00d896508fbb68db45c8a14a69c97140f320d0cafa6e2306f611559",
  "args": [
    "0xA0F3fF5eA4aA93e9C6247A7A09AFde9d0B7353C2",
    "0x037326bC14287e8C6CA46Fa8F883fFb81C814aB3",
    "60",
    "86400",
    "0x6516d242117CE3Be817aeBF39e7e3A044F62D81C",
    "0x1300B1efc8E6D265B2482545379c86815Bc6f0A1",
    "0x60b5c974D939C56A0b02EAaC197F57e0B3cf937b",
    "0x28bC9c78C16d245B0ccbE91C6Fee1E9b70957049"
  ],
  "numDeployments": 1,
  "solcInputHash": "7f163969fa9976036f403960df528002",
  "bytecode": "0x6101206040523480156200001257600080fd5b50604051620044e6380380620044e6833981016040819052620000359162000229565b600080546001600160a01b031916339081178255604051849282918291907f8be0079c531659141344cd1fd0a4f28419497f9722a3daafe3b4186f6b6457e0908290a3506040516302571be360e01b81527f91d1777781884d03a6757a803996e38de2a42967fb37eeaca72729271025a9e260048201526000906001600160a01b038416906302571be390602401602060405180830381865afa158015620000e1573d6000803e3d6000fd5b505050506040513d601f19601f82011682018060405250810190620001079190620002d3565b604051630f41a04d60e11b81526001600160a01b03848116600483015291925090821690631e83409a906024016020604051808303816000875af115801562000154573d6000803e3d6000fd5b505050506040513d601f19601f820116820180604052508101906200017a9190620002fa565b505050508585116200019f576040516307cb550760e31b815260040160405180910390fd5b42851115620001c157604051630b4319e560e21b815260040160405180910390fd5b6001600160a01b03978816608052600180549789166001600160a01b031998891617905560a0959095525060c092909252841660e0528316610100526002805491909316911617905562000314565b6001600160a01b03811681146200022657600080fd5b50565b600080600080600080600080610100898b0312156200024757600080fd5b8851620002548162000210565b60208a0151909850620002678162000210565b8097505060408901519550606089015194506080890151620002898162000210565b60a08a01519094506200029c8162000210565b60c08a0151909350620002af8162000210565b60e08a0151909250620002c28162000210565b809150509295985092959890939650565b600060208284031215620002e657600080fd5b8151620002f38162000210565b9392505050565b6000602082840312156200030d57600080fd5b5051919050565b60805160a05160c05160e05161010051614139620003ad6000396000818161073b01528181610d5c015281816110a101528181611d3801528181611f1d01526126ed0152600081816105bc0152612e2d0152600081816107a50152818161197e0152612a1901526000818161067401526129bb0152600081816104170152818161135f0152818161158d01526118a801526141396000f3fe6080604052600436106102725760003560e01c80637adbf9731161014f578063a57b5d2c116100c1578063d3419bf31161007a578063d3419bf3146107c7578063da7fc24f146107e7578063dfc7379d14610807578063f14fcbc81461081d578063f2fde38b1461083d578063fbd50fa01461085d57600080fd5b8063a57b5d2c146106e9578063a680baaf14610709578063a8e5fbc014610729578063aeb8ce9b1461075d578063c53c0ec11461077d578063ce1e09c01461079357600080fd5b80638a2c4836116101135780638a2c48361461062b5780638a95b09f1461064b5780638d839ffe146106625780638da5cb5b146106965780639791c097146106b45780639dbd768e146106d457600080fd5b80637adbf9731461056a5780637eb9a50b1461058a57806380869853146105aa578063839df945146105de57806388cccc091461060b57600080fd5b80634be2b2ec116101e85780635fa7b584116101ac5780635fa7b5841461049957806367547287146104b95780636cfc51e2146104da578063715018a61461051557806372820dbc1461052a578063786d96a11461054a57600080fd5b80634be2b2ec146103f25780635001f3b51461040557806359cf683c146104395780635baef98e146104595780635d3590d51461047957600080fd5b806327a71ef31161023a57806327a71ef314610325578063330386b6146103455780633884d635146103655780633c3a7d351461039d5780633ccfd60b146103bd57806349df728c146103d257600080fd5b806301ffc9a714610277578063094f716d146102ac5780631baaaffe146102b65780631c953313146102e4578063215d1ba6146102f7575b600080fd5b34801561028357600080fd5b50610297610292366004613119565b61087d565b60405190151581526020015b60405180910390f35b6102b46108b4565b005b3480156102c257600080fd5b506102d66102d1366004613158565b6109c5565b6040516102a39291906131c5565b6102b46102f2366004613262565b610a72565b34801561030357600080fd5b506103176103123660046132da565b610ab6565b6040519081526020016102a3565b34801561033157600080fd5b506102b4610340366004613158565b610bce565b34801561035157600080fd5b506102b4610360366004613324565b610c1a565b34801561037157600080fd5b50600554610385906001600160a01b031681565b6040516001600160a01b0390911681526020016102a3565b3480156103a957600080fd5b506102b46103b8366004613341565b610c62565b3480156103c957600080fd5b506102b4610e55565b3480156103de57600080fd5b506102b46103ed366004613158565b610f17565b6102b4610400366004613341565b610fcf565b34801561041157600080fd5b506103857f000000000000000000000000000000000000000000000000000000000000000081565b34801561044557600080fd5b50600254610385906001600160a01b031681565b34801561046557600080fd5b506102b4610474366004613158565b611176565b34801561048557600080fd5b506102b461049436600461339f565b6111c2565b3480156104a557600080fd5b506102b46104b4366004613158565b611265565b3480156104c557600080fd5b5060055461029790600160a01b900460ff1681565b3480156104e657600080fd5b506104fa6104f53660046134d3565b6112c7565b604080518251815260209283015192810192909252016102a3565b34801561052157600080fd5b506102b4611435565b34801561053657600080fd5b506102b4610545366004613158565b6114a9565b34801561055657600080fd5b506104fa61056536600461352d565b6114f5565b34801561057657600080fd5b506102b4610585366004613158565b611664565b34801561059657600080fd5b506102b46105a53660046135a1565b6116b0565b3480156105b657600080fd5b506103857f000000000000000000000000000000000000000000000000000000000000000081565b3480156105ea57600080fd5b506103176105f9366004613638565b60086020526000908152604090205481565b34801561061757600080fd5b50600454610385906001600160a01b031681565b34801561063757600080fd5b506102b4610646366004613262565b611731565b34801561065757600080fd5b506103176224ea0081565b34801561066e57600080fd5b506103177f000000000000000000000000000000000000000000000000000000000000000081565b3480156106a257600080fd5b506000546001600160a01b0316610385565b3480156106c057600080fd5b506102976106cf366004613651565b6117ea565b3480156106e057600080fd5b50600654610317565b3480156106f557600080fd5b506102b4610704366004613685565b6117ff565b34801561071557600080fd5b50600354610385906001600160a01b031681565b34801561073557600080fd5b506103857f000000000000000000000000000000000000000000000000000000000000000081565b34801561076957600080fd5b50610297610778366004613651565b611878565b34801561078957600080fd5b5061031760075481565b34801561079f57600080fd5b506103177f000000000000000000000000000000000000000000000000000000000000000081565b3480156107d357600080fd5b50600154610385906001600160a01b031681565b3480156107f357600080fd5b506102b4610802366004613158565b61191b565b34801561081357600080fd5b5061031760065481565b34801561082957600080fd5b506102b4610838366004613638565b611967565b34801561084957600080fd5b506102b4610858366004613158565b6119d7565b34801561086957600080fd5b506102b4610878366004613718565b611ac1565b60006001600160e01b031982166301ffc9a760e01b14806108ae57506001600160e01b031982166306e3e71960e21b145b92915050565b6000546001600160a01b031633146108e75760405162461bcd60e51b81526004016108de9061378b565b60405180910390fd5b600034116109295760405162461bcd60e51b815260206004820152600f60248201526e4d7573742073656e642076616c756560881b60448201526064016108de565b6004546040516000916001600160a01b03169034908381818185875af1925050503d8060008114610976576040519150601f19603f3d011682016040523d82523d6000602084013e61097b565b606091505b50509050806109bd5760405162461bcd60e51b815260206004820152600e60248201526d14185e5b595b9d0819985a5b195960921b60448201526064016108de565b506000600755565b6009602052600090815260409020805481906109e0906137c0565b80601f0160208091040260200160405190810160405280929190818152602001828054610a0c906137c0565b8015610a595780601f10610a2e57610100808354040283529160200191610a59565b820191906000526020600020905b815481529060010190602001808311610a3c57829003601f168201915b505050600190930154919250506001600160a01b031682565b600080610a7e86611e05565b91509150610a90858585856000611ff6565b610a998261214c565b60068054906000610aa98361380a565b9190505550505050505050565b600080610ac660a0840184613823565b9050118015610aed57506000610ae260a0840160808501613158565b6001600160a01b0316145b15610b0b576040516334fd817160e21b815260040160405180910390fd5b610b15828061386c565b604051610b239291906138b2565b6040518091039020826020016020810190610b3e9190613158565b60408401356060850135610b5860a0870160808801613158565b610b6560a0880188613823565b610b7560e08a0160c08b01613324565b610b866101008b0160e08c016138c2565b610b986101208c016101008d01613324565b604051602001610bb19a9998979695949392919061390f565b604051602081830303815290604052805190602001209050919050565b6000546001600160a01b03163314610bf85760405162461bcd60e51b81526004016108de9061378b565b600280546001600160a01b0319166001600160a01b0392909216919091179055565b6000546001600160a01b03163314610c445760405162461bcd60e51b81526004016108de9061378b565b60058054911515600160a01b0260ff60a01b19909216919091179055565b6003546001600160a01b03163314610caa5760405162461bcd60e51b815260206004820152600b60248201526a139bdd08109858dad95b9960aa1b60448201526064016108de565b600081610cb75782610cbe565b640757b12c005b905060008585604051610cd29291906138b2565b604051809103902090506000610d2187878080601f0160208091040260200160405190810160405280939291908181526020018383808284376000920191909152508792508891506112c79050565b9050600081602001518260000151610d399190613a09565b60405163c475abff60e01b815260048101859052602481018690529091506000907f00000000000000000000000000000000000000000000000000000000000000006001600160a01b03169063c475abff906044016020604051808303816000875af1158015610dad573d6000803e3d6000fd5b505050506040513d601f19601f82011682018060405250810190610dd19190613a1c565b9050837f3da24c024582931cfaf8267d8ed24d13a82a8068d5bd337d30ec45cea4e506ae8a8a8585604051610e099493929190613a35565b60405180910390a2610e1d848360016121e7565b6064610e2a836023613a5c565b610e349190613a73565b60076000828254610e459190613a09565b9091555050505050505050505050565b6000546001600160a01b03163314610e7f5760405162461bcd60e51b81526004016108de9061378b565b600080546040516001600160a01b039091169047908381818185875af1925050503d8060008114610ecc576040519150601f19603f3d011682016040523d82523d6000602084013e610ed1565b606091505b5050905080610f145760405162461bcd60e51b815260206004820152600f60248201526e151c985b9cd9995c8819985a5b1959608a1b60448201526064016108de565b50565b6000546001600160a01b03163314610f415760405162461bcd60e51b81526004016108de9061378b565b610f14610f566000546001600160a01b031690565b6040516370a0823160e01b81523060048201526001600160a01b038416906370a0823190602401602060405180830381865afa158015610f9a573d6000803e3d6000fd5b505050506040513d601f19601f82011682018060405250810190610fbe9190613a1c565b6001600160a01b0384169190612314565b600081610fdc5782610fe3565b640757b12c005b905060008585604051610ff79291906138b2565b60405180910390209050600061104687878080601f0160208091040260200160405190810160405280939291908181526020018383808284376000920191909152508792508891506112c79050565b905060008160200151826000015161105e9190613a09565b9050803410156110815760405163044044a560e21b815260040160405180910390fd5b60405163c475abff60e01b815260048101849052602481018590526000907f00000000000000000000000000000000000000000000000000000000000000006001600160a01b03169063c475abff906044016020604051808303816000875af11580156110f2573d6000803e3d6000fd5b505050506040513d601f19601f820116820180604052508101906111169190613a1c565b9050837f3da24c024582931cfaf8267d8ed24d13a82a8068d5bd337d30ec45cea4e506ae8a8a858560405161114e9493929190613a35565b60405180910390a2611162848360006121e7565b61116b8261214c565b505050505050505050565b6000546001600160a01b031633146111a05760405162461bcd60e51b81526004016108de9061378b565b600480546001600160a01b0319166001600160a01b0392909216919091179055565b6000546001600160a01b031633146111ec5760405162461bcd60e51b81526004016108de9061378b565b60405163a9059cbb60e01b81526001600160a01b0383811660048301526024820183905284169063a9059cbb906044016020604051808303816000875af115801561123b573d6000803e3d6000fd5b505050506040513d601f19601f8201168201806040525081019061125f9190613a95565b50505050565b6000546001600160a01b0316331461128f5760405162461bcd60e51b81526004016108de9061378b565b6001600160a01b0381166000908152600960205260408120906112b282826130cb565b5060010180546001600160a01b031916905550565b60408051808201909152600080825260208201528215806112eb57506224ea008310155b61132a5760405162461bcd60e51b815260206004820152601060248201526f24b73b30b634b210323ab930ba34b7b760811b60448201526064016108de565b60015484516020860120604051636b727d4360e11b815260048101919091526001600160a01b0391821691638416a3749187917f0000000000000000000000000000000000000000000000000000000000000000169063d6e4fa8690602401602060405180830381865afa1580156113a6573d6000803e3d6000fd5b505050506040513d601f19601f820116820180604052508101906113ca9190613a1c565b86866040518563ffffffff1660e01b81526004016113eb9493929190613ab2565b6040805180830381865afa158015611407573d6000803e3d6000fd5b505050506040513d601f19601f8201168201806040525081019061142b9190613ae3565b90505b9392505050565b6000546001600160a01b0316331461145f5760405162461bcd60e51b81526004016108de9061378b565b600080546040516001600160a01b03909116907f8be0079c531659141344cd1fd0a4f28419497f9722a3daafe3b4186f6b6457e0908390a3600080546001600160a01b0319169055565b6000546001600160a01b031633146114d35760405162461bcd60e51b81526004016108de9061378b565b600580546001600160a01b0319166001600160a01b0392909216919091179055565b604080518082019091526000808252602082015283158061151957506224ea008410155b6115585760405162461bcd60e51b815260206004820152601060248201526f24b73b30b634b210323ab930ba34b7b760811b60448201526064016108de565b60015485516020870120604051636b727d4360e11b815260048101919091526001600160a01b0391821691638361401d9188917f0000000000000000000000000000000000000000000000000000000000000000169063d6e4fa8690602401602060405180830381865afa1580156115d4573d6000803e3d6000fd5b505050506040513d601f19601f820116820180604052508101906115f89190613a1c565b8787876040518663ffffffff1660e01b815260040161161b959493929190613b15565b6040805180830381865afa158015611637573d6000803e3d6000fd5b505050506040513d601f19601f8201168201806040525081019061165b9190613ae3565b95945050505050565b6000546001600160a01b0316331461168e5760405162461bcd60e51b81526004016108de9061378b565b600180546001600160a01b0319166001600160a01b0392909216919091179055565b6000546001600160a01b031633146116da5760405162461bcd60e51b81526004016108de9061378b565b6001600160a01b0381166000908152600960205260409020825183919081906117039082613ba1565b5060209190910151600190910180546001600160a01b0319166001600160a01b039092169190911790555050565b6003546001600160a01b031633146117795760405162461bcd60e51b815260206004820152600b60248201526a139bdd08109858dad95b9960aa1b60448201526064016108de565b600061178485611e05565b5090506103e860065411156117a1576117a1848484846001611ff6565b60646117ae826023613a5c565b6117b89190613a73565b600760008282546117c99190613a09565b9091555050600680549060006117de8361380a565b91905055505050505050565b600060026117f78361237c565b101592915050565b6001600160a01b038481166000908152600960205260409020600101541661185c5760405162461bcd60e51b815260206004820152601060248201526f2ab730b1b1b2b83a32b2102a37b5b2b760811b60448201526064016108de565b6000611868868661247f565b509050610a9984848484896127cb565b8051602082012060009061188b836117ea565b801561142e57506040516312dc929d60e31b8152600481018290527f00000000000000000000000000000000000000000000000000000000000000006001600160a01b0316906396e494e890602401602060405180830381865afa1580156118f7573d6000803e3d6000fd5b505050506040513d601f19601f8201168201806040525081019061142e9190613a95565b6000546001600160a01b031633146119455760405162461bcd60e51b81526004016108de9061378b565b600380546001600160a01b0319166001600160a01b0392909216919091179055565b60008181526008602052604090205442906119a3907f000000000000000000000000000000000000000000000000000000000000000090613a09565b106119c457604051630a059d7160e01b8152600481018290526024016108de565b6000908152600860205260409020429055565b6000546001600160a01b03163314611a015760405162461bcd60e51b81526004016108de9061378b565b6001600160a01b038116611a665760405162461bcd60e51b815260206004820152602660248201527f4f776e61626c653a206e6577206f776e657220697320746865207a65726f206160448201526564647265737360d01b60648201526084016108de565b600080546040516001600160a01b03808516939216917f8be0079c531659141344cd1fd0a4f28419497f9722a3daafe3b4186f6b6457e091a3600080546001600160a01b0319166001600160a01b0392909216919091179055565b6001600160a01b0382811660009081526009602052604090206001015416611b1e5760405162461bcd60e51b815260206004820152601060248201526f2ab730b1b1b2b83a32b2102a37b5b2b760811b60448201526064016108de565b600081611b2b5783611b32565b640757b12c005b905060008686604051611b469291906138b2565b604080519182900382206001600160a01b03871660009081526009602052828120848401909352825491945092919082908290611b82906137c0565b80601f0160208091040260200160405190810160405280929190818152602001828054611bae906137c0565b8015611bfb5780601f10611bd057610100808354040283529160200191611bfb565b820191906000526020600020905b815481529060010190602001808311611bde57829003601f168201915b5050509183525050600191909101546001600160a01b031660209182015260408051601f8b01839004830281018301909152898152919250600091611c5f918b908b90819084018382808284376000920191909152505085518892509050886114f5565b9050600081602001518260000151611c779190613a09565b6040516370a0823160e01b815233600482015290915081906001600160a01b038916906370a0823190602401602060405180830381865afa158015611cc0573d6000803e3d6000fd5b505050506040513d601f19601f82011682018060405250810190611ce49190613a1c565b1015611d035760405163044044a560e21b815260040160405180910390fd5b611d186001600160a01b038816333084612862565b60405163c475abff60e01b815260048101859052602481018690526000907f00000000000000000000000000000000000000000000000000000000000000006001600160a01b03169063c475abff906044016020604051808303816000875af1158015611d89573d6000803e3d6000fd5b505050506040513d601f19601f82011682018060405250810190611dad9190613a1c565b9050847f3da24c024582931cfaf8267d8ed24d13a82a8068d5bd337d30ec45cea4e506ae8c8c8585604051611de59493929190613a35565b60405180910390a2611df885838a61289a565b5050505050505050505050565b60008080611e1b61012085016101008601613324565b611e29578360400135611e30565b640757b12c005b90506000611e8a611e41868061386c565b8080601f0160208091040260200160405190810160405280939291908181526020018383808284376000920191909152508692506104f591505061012089016101008a01613324565b60208101518151919250611e9d91613a09565b935083341015611ec05760405163044044a560e21b815260040160405180910390fd5b611f13611ecd868061386c565b8080601f016020809104026020016040519081016040528093929190818152602001838380828437600092019190915250869250611f0e9150899050610ab6565b6129a4565b6001600160a01b037f00000000000000000000000000000000000000000000000000000000000000001663a4014982611f4c878061386c565b611f5c60408a0160208b01613158565b86611f6d60a08c0160808d01613158565b611f7e6101008d0160e08e016138c2565b6040518763ffffffff1660e01b8152600401611f9f96959493929190613c60565b6020604051808303816000875af1158015611fbe573d6000803e3d6000fd5b505050506040513d601f19601f82011682018060405250810190611fe29190613a1c565b9250611fef858285612ac8565b5050915091565b60006120056020870187613158565b6001600160a01b03161480612018575082155b612145576000606461202b601e85613a5c565b6120359190613a73565b9050816120c25760025460405163044a5a8160e41b81526001600160a01b03909116906344a5a810908390612079908a908a908a908a906000908190600401613cab565b60206040518083038185885af1158015612097573d6000803e3d6000fd5b50505050506040513d601f19601f820116820180604052508101906120bc9190613a1c565b50612143565b60025460405163044a5a8160e41b81526001600160a01b03909116906344a5a810906120fe908990899089908990600090600190600401613cab565b6020604051808303816000875af115801561211d573d6000803e3d6000fd5b505050506040513d601f19601f820116820180604052508101906121419190613a1c565b505b505b5050505050565b80341115610f14576000336121618334613d4f565b604051600081818185875af1925050503d806000811461219d576040519150601f19603f3d011682016040523d82523d6000602084013e6121a2565b606091505b50509050806121e35760405162461bcd60e51b815260206004820152600d60248201526c1499599d5b990819985a5b1959609a1b60448201526064016108de565b5050565b600254604051630952393560e41b81526004810185905260009182916001600160a01b0390911690639523935090602401600060405180830381865afa158015612235573d6000803e3d6000fd5b505050506040513d6000823e601f3d908101601f1916820160405261225d9190810190613d92565b50919450925050506001600160a01b0382161580612279575080155b15612285575050505050565b60006064612294601e87613a5c565b61229e9190613a73565b9050836122dd57600254604051622edce760e71b81526001600160a01b039091169063176e7380908390612079908a908a906000908190600401613e27565b600254604051622edce760e71b81526001600160a01b039091169063176e7380906120fe9089908990600090600190600401613e27565b6040516001600160a01b03831660248201526044810182905261237790849063a9059cbb60e01b906064015b60408051601f198184030181529190526020810180516001600160e01b03166001600160e01b031990931692909217909152612c9c565b505050565b8051600090819081905b808210156124765760008583815181106123a2576123a2613e4d565b01602001516001600160f81b0319169050600160ff1b8110156123d1576123ca600184613a09565b9250612463565b600760fd1b6001600160f81b0319821610156123f2576123ca600284613a09565b600f60fc1b6001600160f81b031982161015612413576123ca600384613a09565b601f60fb1b6001600160f81b031982161015612434576123ca600484613a09565b603f60fa1b6001600160f81b031982161015612455576123ca600584613a09565b612460600684613a09565b92505b508261246e8161380a565b935050612386565b50909392505050565b6000808061249561012086016101008701613324565b6124a35784604001356124aa565b640757b12c005b9050600060096000866001600160a01b03166001600160a01b031681526020019081526020016000206040518060400160405290816000820180546124ee906137c0565b80601f016020809104026020016040519081016040528092919081815260200182805461251a906137c0565b80156125675780601f1061253c57610100808354040283529160200191612567565b820191906000526020600020905b81548152906001019060200180831161254a57829003601f168201915b5050509183525050600191909101546001600160a01b0316602090910152905060006125e1612596888061386c565b8080601f01602080910402602001604051908101604052809392919081815260200183838082843760009201919091525050855187925090506105656101208c016101008d01613324565b602081015181519192506125f491613a09565b6040516370a0823160e01b815233600482015290955085906001600160a01b038816906370a0823190602401602060405180830381865afa15801561263d573d6000803e3d6000fd5b505050506040513d601f19601f820116820180604052508101906126619190613a1c565b10156126805760405163044044a560e21b815260040160405180910390fd5b6126ce61268d888061386c565b8080601f016020809104026020016040519081016040528093929190818152602001838380828437600092019190915250879250611f0e91508b9050610ab6565b6126e36001600160a01b038716333088612862565b6001600160a01b037f00000000000000000000000000000000000000000000000000000000000000001663a401498261271c898061386c565b61272c60408c0160208d01613158565b8761273d60a08e0160808f01613158565b8d60e001602081019061275091906138c2565b6040518763ffffffff1660e01b815260040161277196959493929190613c60565b6020604051808303816000875af1158015612790573d6000803e3d6000fd5b505050506040513d601f19601f820116820180604052508101906127b49190613a1c565b93506127c1878286612ac8565b5050509250929050565b60006127da6020870187613158565b6001600160a01b031614806127ed575082155b6121455760006064612800601e85613a5c565b61280a9190613a73565b600254909150612827906001600160a01b03848116911683612314565b60025460405163044a5a8160e41b81526001600160a01b03909116906344a5a810906120fe9089908990899089908990600090600401613cab565b6040516001600160a01b038085166024830152831660448201526064810182905261125f9085906323b872dd60e01b90608401612340565b600254604051630952393560e41b81526004810185905260009182916001600160a01b0390911690639523935090602401600060405180830381865afa1580156128e8573d6000803e3d6000fd5b505050506040513d6000823e601f3d908101601f191682016040526129109190810190613d92565b50919450925050506001600160a01b038216158061292c575080155b15612938575050505050565b60006064612947601e87613a5c565b6129519190613a73565b60025490915061296e906001600160a01b03868116911683612314565b600254604051622edce760e71b81526001600160a01b039091169063176e7380906120fe90899089908990600090600401613e27565b60008181526008602052604090205442906129e0907f000000000000000000000000000000000000000000000000000000000000000090613a09565b1115612a0257604051635320bcf960e01b8152600481018290526024016108de565b6000818152600860205260409020544290612a3e907f000000000000000000000000000000000000000000000000000000000000000090613a09565b11612a5f5760405163cb7690d760e01b8152600481018290526024016108de565b612a6883611878565b612a8757826040516308eee0fd60e31b81526004016108de9190613e63565b6000818152600860205260408120558115801590612aa757506224ea0082105b1561237757604051639a71997b60e01b8152600481018390526024016108de565b6000612ad4848061386c565b604051612ae29291906138b2565b60405190819003902090506000612afc60a0860186613823565b90501115612b3357612b33612b1760a0860160808701613158565b82612b2560a0880188613823565b612b2e91613e99565b612d6e565b612b4360e0850160c08601613324565b15612ba057612ba0612b55858061386c565b8080601f016020809104026020016040519081016040528093929190818152602001838380828437600092019190915250612b9a9250505060a0870160808801613158565b33612e2b565b612c30612bad858061386c565b8080601f016020809104026020016040519081016040528093929190818152602001838380828437600092019190915250612bf49250505061012087016101008801613324565b612c02578560400135612c09565b640757b12c005b612c196040880160208901613158565b612c2b61012089016101008a01613324565b612edf565b612c406040850160208601613158565b6001600160a01b0316817f69e37f151eb98a09618ddaa80c8cfaf1ce5996867c489f45b555b412271ebf27612c75878061386c565b87516020890151604051612c8e94939291908a90613f20565b60405180910390a350505050565b6000612cf1826040518060400160405280602081526020017f5361666545524332303a206c6f772d6c6576656c2063616c6c206661696c6564815250856001600160a01b0316612fc09092919063ffffffff16565b8051909150156123775780806020019051810190612d0f9190613a95565b6123775760405162461bcd60e51b815260206004820152602a60248201527f5361666545524332303a204552433230206f7065726174696f6e20646964206e6044820152691bdd081cdd58d8d9595960b21b60648201526084016108de565b604080517ff92e9539a836c60f519caef3f817b823139813f56a7a19c9621f7b47f35b340d6020808301919091528183018590528251808303840181526060830193849052805191012063e32954eb60e01b9092526001600160a01b0385169063e32954eb90612de49084908690606401613f51565b6000604051808303816000875af1158015612e03573d6000803e3d6000fd5b505050506040513d6000823e601f3d908101601f191682016040526121459190810190613fbb565b7f00000000000000000000000000000000000000000000000000000000000000006001600160a01b0316637a806d6b33838587604051602001612e6e9190614080565b6040516020818303038152906040526040518563ffffffff1660e01b8152600401612e9c94939291906140a9565b6020604051808303816000875af1158015612ebb573d6000803e3d6000fd5b505050506040513d601f19601f8201168201806040525081019061125f9190613a1c565b600554600160a01b900460ff161561125f576000612efc8561237c565b9050600081600214612f2d5781600314612f265781600414612f1f57600a612f30565b6014612f30565b6032612f30565b60645b60ff169050600083612f4f57612f4a6301e1338087613a73565b612f52565b60035b612f5c9083613a5c565b600554604051630abc1d0960e21b81526001600160a01b03888116600483015260248201849052929350911690632af0742490604401600060405180830381600087803b158015612fac57600080fd5b505af1158015611df8573d6000803e3d6000fd5b606061142b848460008585843b6130195760405162461bcd60e51b815260206004820152601d60248201527f416464726573733a2063616c6c20746f206e6f6e2d636f6e747261637400000060448201526064016108de565b600080866001600160a01b0316858760405161303591906140e7565b60006040518083038185875af1925050503d8060008114613072576040519150601f19603f3d011682016040523d82523d6000602084013e613077565b606091505b5091509150613087828286613092565b979650505050505050565b606083156130a157508161142e565b8251156130b15782518084602001fd5b8160405162461bcd60e51b81526004016108de9190613e63565b5080546130d7906137c0565b6000825580601f106130e7575050565b601f016020900490600052602060002090810190610f1491905b808211156131155760008155600101613101565b5090565b60006020828403121561312b57600080fd5b81356001600160e01b03198116811461142e57600080fd5b6001600160a01b0381168114610f1457600080fd5b60006020828403121561316a57600080fd5b813561142e81613143565b60005b83811015613190578181015183820152602001613178565b50506000910152565b600081518084526131b1816020860160208601613175565b601f01601f19169290920160200192915050565b6040815260006131d86040830185613199565b905060018060a01b03831660208301529392505050565b6000610120828403121561320257600080fd5b50919050565b600060c0828403121561320257600080fd5b60008083601f84011261322c57600080fd5b5081356001600160401b0381111561324357600080fd5b60208301915083602082850101111561325b57600080fd5b9250929050565b600080600080610100858703121561327957600080fd5b84356001600160401b038082111561329057600080fd5b61329c888389016131ef565b95506132ab8860208901613208565b945060e08701359150808211156132c157600080fd5b506132ce8782880161321a565b95989497509550505050565b6000602082840312156132ec57600080fd5b81356001600160401b0381111561330257600080fd5b61330e848285016131ef565b949350505050565b8015158114610f1457600080fd5b60006020828403121561333657600080fd5b813561142e81613316565b6000806000806060858703121561335757600080fd5b84356001600160401b0381111561336d57600080fd5b6133798782880161321a565b90955093505060208501359150604085013561339481613316565b939692955090935050565b6000806000606084860312156133b457600080fd5b83356133bf81613143565b925060208401356133cf81613143565b929592945050506040919091013590565b634e487b7160e01b600052604160045260246000fd5b604080519081016001600160401b0381118282101715613418576134186133e0565b60405290565b604051601f8201601f191681016001600160401b0381118282101715613446576134466133e0565b604052919050565b60006001600160401b03821115613467576134676133e0565b50601f01601f191660200190565b60006134886134838461344e565b61341e565b905082815283838301111561349c57600080fd5b828260208301376000602084830101529392505050565b600082601f8301126134c457600080fd5b61142e83833560208501613475565b6000806000606084860312156134e857600080fd5b83356001600160401b038111156134fe57600080fd5b61350a868287016134b3565b93505060208401359150604084013561352281613316565b809150509250925092565b6000806000806080858703121561354357600080fd5b84356001600160401b038082111561355a57600080fd5b613566888389016134b3565b955060208701359450604087013591508082111561358357600080fd5b50613590878288016134b3565b925050606085013561339481613316565b600080604083850312156135b457600080fd5b82356001600160401b03808211156135cb57600080fd5b90840190604082870312156135df57600080fd5b6135e76133f6565b8235828111156135f657600080fd5b613602888286016134b3565b8252506020830135925061361583613143565b60208181019390935293505083013561362d81613143565b809150509250929050565b60006020828403121561364a57600080fd5b5035919050565b60006020828403121561366357600080fd5b81356001600160401b0381111561367957600080fd5b61330e848285016134b3565b6000806000806000610120868803121561369e57600080fd5b85356001600160401b03808211156136b557600080fd5b6136c189838a016131ef565b9650602088013591506136d382613143565b8195506136e38960408a01613208565b94506101008801359150808211156136fa57600080fd5b506137078882890161321a565b969995985093965092949392505050565b60008060008060006080868803121561373057600080fd5b85356001600160401b0381111561374657600080fd5b6137528882890161321a565b90965094505060208601359250604086013561376d81613143565b9150606086013561377d81613316565b809150509295509295909350565b6020808252818101527f4f776e61626c653a2063616c6c6572206973206e6f7420746865206f776e6572604082015260600190565b600181811c908216806137d457607f821691505b60208210810361320257634e487b7160e01b600052602260045260246000fd5b634e487b7160e01b600052601160045260246000fd5b60006001820161381c5761381c6137f4565b5060010190565b6000808335601e1984360301811261383a57600080fd5b8301803591506001600160401b0382111561385457600080fd5b6020019150600581901b360382131561325b57600080fd5b6000808335601e1984360301811261388357600080fd5b8301803591506001600160401b0382111561389d57600080fd5b60200191503681900382131561325b57600080fd5b8183823760009101908152919050565b6000602082840312156138d457600080fd5b813561ffff8116811461142e57600080fd5b81835281816020850137506000828201602090810191909152601f909101601f19169091010190565b8a81526001600160a01b038a8116602080840191909152604083018b9052606083018a9052908816608083015261012060a08301819052820186905260009061014080840191600589901b85019091019089845b8a8110156139d35786840361013f190185528135368d9003601e1901811261398a57600080fd5b8c0183810190356001600160401b038111156139a557600080fd5b8036038213156139b457600080fd5b6139bf8682846138e6565b968501969550505090820190600101613963565b50505086151560c085015291506139e79050565b61ffff841660e08301528215156101008301529b9a5050505050505050505050565b808201808211156108ae576108ae6137f4565b600060208284031215613a2e57600080fd5b5051919050565b606081526000613a496060830186886138e6565b6020830194909452506040015292915050565b80820281158282048414176108ae576108ae6137f4565b600082613a9057634e487b7160e01b600052601260045260246000fd5b500490565b600060208284031215613aa757600080fd5b815161142e81613316565b608081526000613ac56080830187613199565b60208301959095525060408101929092521515606090910152919050565b600060408284031215613af557600080fd5b613afd6133f6565b82518152602083015160208201528091505092915050565b60a081526000613b2860a0830188613199565b8660208401528560408401528281036060840152613b468186613199565b91505082151560808301529695505050505050565b601f82111561237757600081815260208120601f850160051c81016020861015613b825750805b601f850160051c820191505b8181101561214357828155600101613b8e565b81516001600160401b03811115613bba57613bba6133e0565b613bce81613bc884546137c0565b84613b5b565b602080601f831160018114613c035760008415613beb5750858301515b600019600386901b1c1916600185901b178555612143565b600085815260208120601f198616915b82811015613c3257888601518255948401946001909101908401613c13565b5085821015613c505787850151600019600388901b60f8161c191681555b5050505050600190811b01905550565b60a081526000613c7460a08301888a6138e6565b6001600160a01b03968716602084015260408301959095525091909316606082015261ffff90921660809092019190915292915050565b60006101408835613cbb81613143565b6001600160a01b03908116845260208a013590613cd782613143565b8082166020860152505060408901356040840152606089013560608401526080890135608084015260a089013560a08401528060c0840152613d1c818401888a6138e6565b9150508460e0830152613d3b6101008301856001600160a01b03169052565b821515610120830152979650505050505050565b818103818111156108ae576108ae6137f4565b6000613d706134838461344e565b9050828152838383011115613d8457600080fd5b61142e836020830184613175565b600080600080600060a08688031215613daa57600080fd5b855194506020860151613dbc81613143565b6040870151909450613dcd81613316565b6060870151909350613dde81613143565b60808701519092506001600160401b03811115613dfa57600080fd5b8601601f81018813613e0b57600080fd5b613e1a88825160208401613d62565b9150509295509295909350565b93845260208401929092526001600160a01b031660408301521515606082015260800190565b634e487b7160e01b600052603260045260246000fd5b60208152600061142e6020830184613199565b60006001600160401b03821115613e8f57613e8f6133e0565b5060051b60200190565b6000613ea761348384613e76565b80848252602080830192508560051b850136811115613ec557600080fd5b855b81811015613f145780356001600160401b03811115613ee65760008081fd5b870136601f820112613ef85760008081fd5b613f06368235868401613475565b865250938201938201613ec7565b50919695505050505050565b608081526000613f346080830187896138e6565b602083019590955250604081019290925260609091015292915050565b600060408201848352602060408185015281855180845260608601915060608160051b870101935082870160005b82811015613fad57605f19888703018452613f9b868351613199565b95509284019290840190600101613f7f565b509398975050505050505050565b60006020808385031215613fce57600080fd5b82516001600160401b0380821115613fe557600080fd5b818501915085601f830112613ff957600080fd5b815161400761348382613e76565b81815260059190911b8301840190848101908883111561402657600080fd5b8585015b83811015614073578051858111156140425760008081fd5b8601603f81018b136140545760008081fd5b6140658b8983015160408401613d62565b84525091860191860161402a565b5098975050505050505050565b60008251614092818460208701613175565b642e7361667560d81b920191825250600501919050565b6001600160a01b0385811682528481166020830152831660408201526080606082018190526000906140dd90830184613199565b9695505050505050565b600082516140f9818460208701613175565b919091019291505056fea2646970667358221220f530f74c4c75db8fde81a9336eac91b3f68bb4b3a9a16f295d849d8172dc220e64736f6c63430008110033"
}