{
  "address": "0x0783bEebdCb97A43424B66875fdBe84cb551327D",
  "abi": [
    {
      "inputs": [
        {
          "internalType": "bytes",
          "name": "addr",
          "type": "bytes"
        }
      ],
      "name": "InvalidAddressFormat",
      "type": "error"
    },
    {
      "inputs": [],
      "name": "NotImplemented",
      "type": "error"
    },
    {
      "inputs": [
        {
          "internalType": "bytes",
          "name": "",
          "type": "bytes"
        },
        {
          "internalType": "bytes",
          "name": "data",
          "type": "bytes"
        },
        {
          "internalType": "bytes",
          "name": "context",
          "type": "bytes"
        }
      ],
      "name": "resolve",
      "outputs": [
        {
          "internalType": "bytes",
          "name": "",
          "type": "bytes"
        }
      ],
      "stateMutability": "pure",
      "type": "function"
    },
    {
      "inputs": [
        {
          "internalType": "bytes4",
          "name": "interfaceId",
          "type": "bytes4"
        }
      ],
      "name": "supportsInterface",
      "outputs": [
        {
          "internalType": "bool",
          "name": "",
          "type": "bool"
        }
      ],
      "stateMutability": "view",
      "type": "function"
    }
  ],
  "transactionHash": "0x1f4152a7f9e19ea55a12ddc1830118e4bd38c6329858dce3b2272570b826a206",
  "args": [],
  "numDeployments": 1,
  "solcInputHash": "51c396074905eafbf23ffb9db0ffdf7f",
  "bytecode": "0x608060405234801561001057600080fd5b50611265806100206000396000f3fe608060405234801561001057600080fd5b50600436106100365760003560e01c806301ffc9a71461003b5780638ef98a7e14610074575b600080fd5b61005f610049366004610e2e565b6001600160e01b03191663477cc53f60e11b1490565b60405190151581526020015b60405180910390f35b610087610082366004610ea8565b610094565b60405161006b9190610f66565b606060006100a28587610f99565b9050636262541160e11b6001600160e01b03198216016100ce576100c68484610139565b91505061012f565b63071a40fd60e11b6001600160e01b03198216016100f2576100c686868686610222565b63298b8af160e21b6001600160e01b0319821601610116576100c6868686866103a1565b60405163d623472560e01b815260040160405180910390fd5b9695505050505050565b6060600061019a84848080601f01602080910402602001604051908101604052809392919081815260200183838082843760009201919091525050604080518082019091526006815265615b36305d3d60d01b6020820152915061043c9050565b905080516000036101ac57905061021c565b6000806101c660028451856109ed9092919063ffffffff16565b91509150806101f35782604051630f79e00960e21b81526004016101ea9190610f66565b60405180910390fd5b604080516001600160a01b03841660208201520160405160208183030381529060405293505050505b92915050565b606060006102338560048189610fc9565b8101906102409190610ff3565b9150506060816380000000166000146102c7576102c085858080601f01602080910402602001604051908101604052809392919081815260200183838082843760009201919091525061029c92505050637fffffff8516610a2b565b6040516020016102ac9190611015565b60405160208183030381529060405261043c565b905061031f565b61031c85858080601f01602080910402602001604051908101604052809392919081815260200183838082843760009201919091525061030c9250869150610a2b9050565b6040516020016102ac919061104c565b90505b80516000036103315791506103999050565b60008061034b60028451856109ed9092919063ffffffff16565b915091508061036f5782604051630f79e00960e21b81526004016101ea9190610f66565b604080516001600160a01b0384166020820152016040516020818303038152906040529450505050505b949350505050565b606060006103b28560048189610fc9565b8101906103bf9190611098565b915050600061040e85858080601f016020809104026020016040519081016040528093929190818152602001838380828437600092019190915250506040516102ac9250869150602001611153565b9050806040516020016104219190610f66565b60405160208183030381529060405292505050949350505050565b8151606090600090815b818110156109d4578261048c57845161046790879083908890600090610b2c565b156104835784516104789082611186565b905060039250610446565b60019250610446565b6001830361052f575b8181101561052a578581815181106104af576104af611199565b01602001516001600160f81b031916603d60f81b036104de57600692506104d7600182611186565b9050610446565b8581815181106104f0576104f0611199565b01602001516001600160f81b031916605b60f81b0361051857600292506104d7600182611186565b80610522816111af565b915050610495565b610446565b600283036105c4575b8181101561052a5785818151811061055257610552611199565b01602001516001600160f81b031916605d60f81b036105b2576006925061057a600182611186565b905085818151811061058e5761058e611199565b01602001516001600160f81b031916603d60f81b0361052a576104d7600182611186565b806105bc816111af565b915050610538565b6003830361060f578581815181106105de576105de611199565b01602001516001600160f81b031916602760f81b0361060657600492506104d7600182611186565b60059250610446565b6004830361078457806000805b8484101561077c5780156106935788848151811061063c5761063c611199565b01602001516001600160f81b031916896106568486611186565b8151811061066657610666611199565b60200101906001600160f81b031916908160001a905350610688600183611186565b91506000905061076a565b8884815181106106a5576106a5611199565b01602001516001600160f81b031916601760fa1b036106c65750600161076a565b8884815181106106d8576106d8611199565b01602001516001600160f81b031916602760f81b03610709576106fc898484610b4f565b965050505050505061021c565b88848151811061071b5761071b611199565b01602001516001600160f81b031916896107358486611186565b8151811061074557610745611199565b60200101906001600160f81b031916908160001a905350610767600183611186565b91505b83610774816111af565b94505061061c565b505050610446565b6005830361080257805b828210156107f4578682815181106107a8576107a8611199565b01602001516001600160f81b031916600160fd1b036107e2576107d7816107cf81856111c8565b899190610b4f565b94505050505061021c565b816107ec816111af565b92505061078e565b6107d7816107cf81866111c8565b6006830361084d5785818151811061081c5761081c611199565b01602001516001600160f81b031916602760f81b0361084457600792506104d7600182611186565b60089250610446565b600783036109385760005b8282101561093257801561086e57506000610920565b86828151811061088057610880611199565b01602001516001600160f81b031916601760fa1b036108a157506001610920565b8682815181106108b3576108b3611199565b01602001516001600160f81b031916602760f81b03610920576108d7600183611186565b91505b8682815181106108ec576108ec611199565b01602001516001600160f81b031916600160fd1b0361091757610910600183611186565b91506108da565b60009350610932565b8161092a816111af565b925050610858565b50610446565b60088314610948576109486111db565b8181101561052a5785818151811061096257610962611199565b01602001516001600160f81b031916600160fd1b036109c2575b85818151811061098e5761098e611199565b01602001516001600160f81b031916600160fd1b036109b9576109b2600182611186565b905061097c565b60009250610446565b806109cc816111af565b915050610948565b5050604080516020810190915260008152949350505050565b60008060286109fc85856111c8565b1015610a0d57506000905080610a23565b600080610a1b878787610bd1565b909450925050505b935093915050565b606081600003610a525750506040805180820190915260018152600360fc1b602082015290565b8160005b8115610a7c5780610a66816111af565b9150610a759050600a83611207565b9150610a56565b60008167ffffffffffffffff811115610a9757610a97611082565b6040519080825280601f01601f191660200182016040528015610ac1576020820181803683370190505b5090505b841561039957610ad66001836111c8565b9150610ae3600a8661121b565b610aee906030611186565b60f81b818381518110610b0357610b03611199565b60200101906001600160f81b031916908160001a905350610b25600a86611207565b9450610ac5565b6000610b39848484610c2e565b610b44878785610c2e565b149695505050505050565b8251606090610b5e8385611186565b1115610b6957600080fd5b60008267ffffffffffffffff811115610b8457610b84611082565b6040519080825280601f01601f191660200182016040528015610bae576020820181803683370190505b50905060208082019086860101610bc6828287610c52565b509095945050505050565b6000806040610be085856111c8565b1115610beb57600080fd5b600080610bf9878787610ca8565b9150915080610c11575060009250829150610a239050565b50602001516004858503604003021c915060019050935093915050565b8251600090610c3d8385611186565b1115610c4857600080fd5b5091016020012090565b60208110610c8a5781518352610c69602084611186565b9250610c76602083611186565b9150610c836020826111c8565b9050610c52565b905182516020929092036101000a6000190180199091169116179052565b6060600080610cb785856111c8565b9050610cc460028261121b565b600103610d0b5760405162461bcd60e51b8152602060048201526015602482015274092dcecc2d8d2c840e6e8e4d2dcce40d8cadccee8d605b1b60448201526064016101ea565b610d16600282611207565b67ffffffffffffffff811115610d2e57610d2e611082565b6040519080825280601f01601f191660200182016040528015610d58576020820181803683370190505b509250600191508551841115610d6d57600080fd5b610dbe565b6000603a8210602f83111615610d8a5750602f190190565b60478210604083111615610da057506036190190565b60678210606083111615610db657506056190190565b5060ff919050565b60208601855b85811015610e2357610ddb8183015160001a610d72565b610ded6001830184015160001a610d72565b60ff811460ff83141715610e0657600095505050610e23565b60049190911b178060028984030487016020015350600201610dc4565b505050935093915050565b600060208284031215610e4057600080fd5b81356001600160e01b031981168114610e5857600080fd5b9392505050565b60008083601f840112610e7157600080fd5b50813567ffffffffffffffff811115610e8957600080fd5b602083019150836020828501011115610ea157600080fd5b9250929050565b60008060008060008060608789031215610ec157600080fd5b863567ffffffffffffffff80821115610ed957600080fd5b610ee58a838b01610e5f565b90985096506020890135915080821115610efe57600080fd5b610f0a8a838b01610e5f565b90965094506040890135915080821115610f2357600080fd5b50610f3089828a01610e5f565b979a9699509497509295939492505050565b60005b83811015610f5d578181015183820152602001610f45565b50506000910152565b6020815260008251806020840152610f85816040850160208701610f42565b601f01601f19169190910160400192915050565b6001600160e01b03198135818116916004851015610fc15780818660040360031b1b83161692505b505092915050565b60008085851115610fd957600080fd5b83861115610fe657600080fd5b5050820193919092039150565b6000806040838503121561100657600080fd5b50508035926020909101359150565b62615b6560e81b815260008251611033816003850160208701610f42565b615d3d60f01b6003939091019283015250600501919050565b61615b60f01b815260008251611069816002850160208701610f42565b615d3d60f01b6002939091019283015250600401919050565b634e487b7160e01b600052604160045260246000fd5b600080604083850312156110ab57600080fd5b82359150602083013567ffffffffffffffff808211156110ca57600080fd5b818501915085601f8301126110de57600080fd5b8135818111156110f0576110f0611082565b604051601f8201601f19908116603f0116810190838211818310171561111857611118611082565b8160405282815288602084870101111561113157600080fd5b8260208601602083013760006020848301015280955050505050509250929050565b61745b60f01b815260008251611069816002850160208701610f42565b634e487b7160e01b600052601160045260246000fd5b8082018082111561021c5761021c611170565b634e487b7160e01b600052603260045260246000fd5b6000600182016111c1576111c1611170565b5060010190565b8181038181111561021c5761021c611170565b634e487b7160e01b600052600160045260246000fd5b634e487b7160e01b600052601260045260246000fd5b600082611216576112166111f1565b500490565b60008261122a5761122a6111f1565b50069056fea2646970667358221220f27898ae50c950b7972a3d67b452b02369ae6fe6e17b95110762ee61ada2d62764736f6c63430008140033",
  "devdoc": {
    "details": "Resolves names on ENS by interpreting record data stored in a DNS TXT record.      This resolver implements the IExtendedDNSResolver interface, meaning that when      a DNS name specifies it as the resolver via a TXT record, this resolver's      resolve() method is invoked, and is passed any additional information from that      text record. This resolver implements a simple text parser allowing a variety      of records to be specified in text, which will then be used to resolve the name      in ENS.      To use this, set a TXT record on your DNS name in the following format:          ENS1 <address or name of ExtendedDNSResolver> <record data>      For example:          ENS1 2.dnsname.ens.eth a[60]=0x1234...      The record data consists of a series of key=value pairs, separated by spaces. Keys      may have an optional argument in square brackets, and values may be either unquoted       - in which case they may not contain spaces - or single-quoted. Single quotes in      a quoted value may be backslash-escaped.                                                                                         \" \"                                                                                                                                ^key\"[\"arg\"]\"\"=\"\"'\"quoted_value\"'\"$                                                                                                                                      unquoted_value                                                                      Record types:       - a[<coinType>] - Specifies how an `addr()` request should be resolved for the specified         `coinType`. Ethereum has `coinType` 60. The value must be 0x-prefixed hexadecimal, and will         be returned unmodified; this means that non-EVM addresses will need to be translated         into binary format and then encoded in hex.         Examples:          - a[60]=0xFe89cc7aBB2C4183683ab71653C4cdc9B02D44b7          - a[0]=0x00149010587f8364b964fcaa70687216b53bd2cbd798       - a[e<chainId>] - Specifies how an `addr()` request should be resolved for the specified         `chainId`. The value must be 0x-prefixed hexadecimal. When encoding an address for an         EVM-based cryptocurrency that uses a chainId instead of a coinType, this syntax *must*         be used in place of the coin type - eg, Optimism is `a[e10]`, not `a[2147483658]`.         A list of supported cryptocurrencies for both syntaxes can be found here:           https://github.com/ensdomains/address-encoder/blob/master/docs/supported-cryptocurrencies.md         Example:          - a[e10]=0xFe89cc7aBB2C4183683ab71653C4cdc9B02D44b7       - t[<key>] - Specifies how a `text()` request should be resolved for the specified `key`.         Examples:          - t[com.twitter]=nicksdjohnson          - t[url]='https://ens.domains/'          - t[note]='I\\'m great'",
    "kind": "dev",
    "methods": {
      "supportsInterface(bytes4)": {
        "details": "Returns true if this contract implements the interface defined by `interfaceId`. See the corresponding https://eips.ethereum.org/EIPS/eip-165#how-interfaces-are-identified[EIP section] to learn more about how these ids are created. This function call must use less than 30 000 gas."
      }
    },
    "version": 1
  },
  "userdoc": {
    "kind": "user",
    "methods": {},
    "version": 1
  },
  "storageLayout": {
    "storage": [],
    "types": null
  }
}