{
  "address": "0x397f2dF76F24b733c5cAC436c88Bbc842061a6C8",
  "abi": [
    {
      "inputs": [
        {
          "internalType": "contract ENS",
          "name": "_ens",
          "type": "address"
        },
        {
          "internalType": "contract IBaseRegistrar",
          "name": "_registrar",
          "type": "address"
        },
        {
          "internalType": "contract IMetadataService",
          "name": "_metadataService",
          "type": "address"
        }
      ],
      "stateMutability": "nonpayable",
      "type": "constructor"
    },
    {
      "inputs": [],
      "name": "CannotUpgrade",
      "type": "error"
    },
    {
      "inputs": [],
      "name": "IncompatibleParent",
      "type": "error"
    },
    {
      "inputs": [
        {
          "internalType": "address",
          "name": "owner",
          "type": "address"
        }
      ],
      "name": "IncorrectTargetOwner",
      "type": "error"
    },
    {
      "inputs": [],
      "name": "IncorrectTokenType",
      "type": "error"
    },
    {
      "inputs": [
        {
          "internalType": "bytes32",
          "name": "labelHash",
          "type": "bytes32"
        },
        {
          "internalType": "bytes32",
          "name": "expectedLabelhash",
          "type": "bytes32"
        }
      ],
      "name": "LabelMismatch",
      "type": "error"
    },
    {
      "inputs": [
        {
          "internalType": "string",
          "name": "label",
          "type": "string"
        }
      ],
      "name": "LabelTooLong",
      "type": "error"
    },
    {
      "inputs": [],
      "name": "LabelTooShort",
      "type": "error"
    },
    {
      "inputs": [],
      "name": "NameIsNotWrapped",
      "type": "error"
    },
    {
      "inputs": [
        {
          "internalType": "bytes32",
          "name": "node",
          "type": "bytes32"
        }
      ],
      "name": "OperationProhibited",
      "type": "error"
    },
    {
      "inputs": [
        {
          "internalType": "bytes32",
          "name": "node",
          "type": "bytes32"
        },
        {
          "internalType": "address",
          "name": "addr",
          "type": "address"
        }
      ],
      "name": "Unauthorised",
      "type": "error"
    },
    {
      "anonymous": false,
      "inputs": [
        {
          "indexed": true,
          "internalType": "address",
          "name": "owner",
          "type": "address"
        },
        {
          "indexed": true,
          "internalType": "address",
          "name": "approved",
          "type": "address"
        },
        {
          "indexed": true,
          "internalType": "uint256",
          "name": "tokenId",
          "type": "uint256"
        }
      ],
      "name": "Approval",
      "type": "event"
    },
    {
      "anonymous": false,
      "inputs": [
        {
          "indexed": true,
          "internalType": "address",
          "name": "account",
          "type": "address"
        },
        {
          "indexed": true,
          "internalType": "address",
          "name": "operator",
          "type": "address"
        },
        {
          "indexed": false,
          "internalType": "bool",
          "name": "approved",
          "type": "bool"
        }
      ],
      "name": "ApprovalForAll",
      "type": "event"
    },
    {
      "anonymous": false,
      "inputs": [
        {
          "indexed": true,
          "internalType": "address",
          "name": "controller",
          "type": "address"
        },
        {
          "indexed": false,
          "internalType": "bool",
          "name": "active",
          "type": "bool"
        }
      ],
      "name": "ControllerChanged",
      "type": "event"
    },
    {
      "anonymous": false,
      "inputs": [
        {
          "indexed": true,
          "internalType": "bytes32",
          "name": "node",
          "type": "bytes32"
        },
        {
          "indexed": false,
          "internalType": "uint64",
          "name": "expiry",
          "type": "uint64"
        }
      ],
      "name": "ExpiryExtended",
      "type": "event"
    },
    {
      "anonymous": false,
      "inputs": [
        {
          "indexed": true,
          "internalType": "bytes32",
          "name": "node",
          "type": "bytes32"
        },
        {
          "indexed": false,
          "internalType": "uint32",
          "name": "fuses",
          "type": "uint32"
        }
      ],
      "name": "FusesSet",
      "type": "event"
    },
    {
      "anonymous": false,
      "inputs": [
        {
          "indexed": true,
          "internalType": "bytes32",
          "name": "node",
          "type": "bytes32"
        },
        {
          "indexed": false,
          "internalType": "address",
          "name": "owner",
          "type": "address"
        }
      ],
      "name": "NameUnwrapped",
      "type": "event"
    },
    {
      "anonymous": false,
      "inputs": [
        {
          "indexed": true,
          "internalType": "bytes32",
          "name": "node",
          "type": "bytes32"
        },
        {
          "indexed": false,
          "internalType": "bytes",
          "name": "name",
          "type": "bytes"
        },
        {
          "indexed": false,
          "internalType": "address",
          "name": "owner",
          "type": "address"
        },
        {
          "indexed": false,
          "internalType": "uint32",
          "name": "fuses",
          "type": "uint32"
        },
        {
          "indexed": false,
          "internalType": "uint64",
          "name": "expiry",
          "type": "uint64"
        }
      ],
      "name": "NameWrapped",
      "type": "event"
    },
    {
      "anonymous": false,
      "inputs": [
        {
          "indexed": true,
          "internalType": "address",
          "name": "previousOwner",
          "type": "address"
        },
        {
          "indexed": true,
          "internalType": "address",
          "name": "newOwner",
          "type": "address"
        }
      ],
      "name": "OwnershipTransferred",
      "type": "event"
    },
    {
      "anonymous": false,
      "inputs": [
        {
          "indexed": true,
          "internalType": "address",
          "name": "oldReceiver",
          "type": "address"
        },
        {
          "indexed": true,
          "internalType": "address",
          "name": "newReceiver",
          "type": "address"
        }
      ],
      "name": "RoyaltyReceiverUpdated",
      "type": "event"
    },
    {
      "anonymous": false,
      "inputs": [
        {
          "indexed": true,
          "internalType": "address",
          "name": "operator",
          "type": "address"
        },
        {
          "indexed": true,
          "internalType": "address",
          "name": "from",
          "type": "address"
        },
        {
          "indexed": true,
          "internalType": "address",
          "name": "to",
          "type": "address"
        },
        {
          "indexed": false,
          "internalType": "uint256[]",
          "name": "ids",
          "type": "uint256[]"
        },
        {
          "indexed": false,
          "internalType": "uint256[]",
          "name": "values",
          "type": "uint256[]"
        }
      ],
      "name": "TransferBatch",
      "type": "event"
    },
    {
      "anonymous": false,
      "inputs": [
        {
          "indexed": true,
          "internalType": "address",
          "name": "operator",
          "type": "address"
        },
        {
          "indexed": true,
          "internalType": "address",
          "name": "from",
          "type": "address"
        },
        {
          "indexed": true,
          "internalType": "address",
          "name": "to",
          "type": "address"
        },
        {
          "indexed": false,
          "internalType": "uint256",
          "name": "id",
          "type": "uint256"
        },
        {
          "indexed": false,
          "internalType": "uint256",
          "name": "value",
          "type": "uint256"
        }
      ],
      "name": "TransferSingle",
      "type": "event"
    },
    {
      "anonymous": false,
      "inputs": [
        {
          "indexed": false,
          "internalType": "string",
          "name": "value",
          "type": "string"
        },
        {
          "indexed": true,
          "internalType": "uint256",
          "name": "id",
          "type": "uint256"
        }
      ],
      "name": "URI",
      "type": "event"
    },
    {
      "inputs": [],
      "name": "ROYALTY_BPS",
      "outputs": [
        {
          "internalType": "uint96",
          "name": "",
          "type": "uint96"
        }
      ],
      "stateMutability": "view",
      "type": "function"
    },
    {
      "inputs": [
        {
          "internalType": "uint256",
          "name": "",
          "type": "uint256"
        }
      ],
      "name": "_tokens",
      "outputs": [
        {
          "internalType": "uint256",
          "name": "",
          "type": "uint256"
        }
      ],
      "stateMutability": "view",
      "type": "function"
    },
    {
      "inputs": [
        {
          "internalType": "bytes32",
          "name": "node",
          "type": "bytes32"
        },
        {
          "internalType": "uint32",
          "name": "fuseMask",
          "type": "uint32"
        }
      ],
      "name": "allFusesBurned",
      "outputs": [
        {
          "internalType": "bool",
          "name": "",
          "type": "bool"
        }
      ],
      "stateMutability": "view",
      "type": "function"
    },
    {
      "inputs": [
        {
          "internalType": "address",
          "name": "to",
          "type": "address"
        },
        {
          "internalType": "uint256",
          "name": "tokenId",
          "type": "uint256"
        }
      ],
      "name": "approve",
      "outputs": [],
      "stateMutability": "nonpayable",
      "type": "function"
    },
    {
      "inputs": [
        {
          "internalType": "address",
          "name": "account",
          "type": "address"
        },
        {
          "internalType": "uint256",
          "name": "id",
          "type": "uint256"
        }
      ],
      "name": "balanceOf",
      "outputs": [
        {
          "internalType": "uint256",
          "name": "",
          "type": "uint256"
        }
      ],
      "stateMutability": "view",
      "type": "function"
    },
    {
      "inputs": [
        {
          "internalType": "address[]",
          "name": "accounts",
          "type": "address[]"
        },
        {
          "internalType": "uint256[]",
          "name": "ids",
          "type": "uint256[]"
        }
      ],
      "name": "balanceOfBatch",
      "outputs": [
        {
          "internalType": "uint256[]",
          "name": "",
          "type": "uint256[]"
        }
      ],
      "stateMutability": "view",
      "type": "function"
    },
    {
      "inputs": [
        {
          "internalType": "bytes32",
          "name": "node",
          "type": "bytes32"
        },
        {
          "internalType": "address",
          "name": "addr",
          "type": "address"
        }
      ],
      "name": "canExtendSubnames",
      "outputs": [
        {
          "internalType": "bool",
          "name": "",
          "type": "bool"
        }
      ],
      "stateMutability": "view",
      "type": "function"
    },
    {
      "inputs": [
        {
          "internalType": "bytes32",
          "name": "node",
          "type": "bytes32"
        },
        {
          "internalType": "address",
          "name": "addr",
          "type": "address"
        }
      ],
      "name": "canModifyName",
      "outputs": [
        {
          "internalType": "bool",
          "name": "",
          "type": "bool"
        }
      ],
      "stateMutability": "view",
      "type": "function"
    },
    {
      "inputs": [
        {
          "internalType": "address",
          "name": "",
          "type": "address"
        }
      ],
      "name": "controllers",
      "outputs": [
        {
          "internalType": "bool",
          "name": "",
          "type": "bool"
        }
      ],
      "stateMutability": "view",
      "type": "function"
    },
    {
      "inputs": [],
      "name": "ens",
      "outputs": [
        {
          "internalType": "contract ENS",
          "name": "",
          "type": "address"
        }
      ],
      "stateMutability": "view",
      "type": "function"
    },
    {
      "inputs": [
        {
          "internalType": "bytes32",
          "name": "parentNode",
          "type": "bytes32"
        },
        {
          "internalType": "bytes32",
          "name": "labelhash",
          "type": "bytes32"
        },
        {
          "internalType": "uint64",
          "name": "expiry",
          "type": "uint64"
        }
      ],
      "name": "extendExpiry",
      "outputs": [
        {
          "internalType": "uint64",
          "name": "",
          "type": "uint64"
        }
      ],
      "stateMutability": "nonpayable",
      "type": "function"
    },
    {
      "inputs": [
        {
          "internalType": "uint256",
          "name": "id",
          "type": "uint256"
        }
      ],
      "name": "getApproved",
      "outputs": [
        {
          "internalType": "address",
          "name": "operator",
          "type": "address"
        }
      ],
      "stateMutability": "view",
      "type": "function"
    },
    {
      "inputs": [
        {
          "internalType": "uint256",
          "name": "id",
          "type": "uint256"
        }
      ],
      "name": "getData",
      "outputs": [
        {
          "internalType": "address",
          "name": "owner",
          "type": "address"
        },
        {
          "internalType": "uint32",
          "name": "fuses",
          "type": "uint32"
        },
        {
          "internalType": "uint64",
          "name": "expiry",
          "type": "uint64"
        }
      ],
      "stateMutability": "view",
      "type": "function"
    },
    {
      "inputs": [
        {
          "internalType": "address",
          "name": "account",
          "type": "address"
        },
        {
          "internalType": "address",
          "name": "operator",
          "type": "address"
        }
      ],
      "name": "isApprovedForAll",
      "outputs": [
        {
          "internalType": "bool",
          "name": "",
          "type": "bool"
        }
      ],
      "stateMutability": "view",
      "type": "function"
    },
    {
      "inputs": [
        {
          "internalType": "bytes32",
          "name": "parentNode",
          "type": "bytes32"
        },
        {
          "internalType": "bytes32",
          "name": "labelhash",
          "type": "bytes32"
        }
      ],
      "name": "isWrapped",
      "outputs": [
        {
          "internalType": "bool",
          "name": "",
          "type": "bool"
        }
      ],
      "stateMutability": "view",
      "type": "function"
    },
    {
      "inputs": [
        {
          "internalType": "bytes32",
          "name": "node",
          "type": "bytes32"
        }
      ],
      "name": "isWrapped",
      "outputs": [
        {
          "internalType": "bool",
          "name": "",
          "type": "bool"
        }
      ],
      "stateMutability": "view",
      "type": "function"
    },
    {
      "inputs": [],
      "name": "metadataService",
      "outputs": [
        {
          "internalType": "contract IMetadataService",
          "name": "",
          "type": "address"
        }
      ],
      "stateMutability": "view",
      "type": "function"
    },
    {
      "inputs": [],
      "name": "name",
      "outputs": [
        {
          "internalType": "string",
          "name": "",
          "type": "string"
        }
      ],
      "stateMutability": "view",
      "type": "function"
    },
    {
      "inputs": [
        {
          "internalType": "bytes32",
          "name": "",
          "type": "bytes32"
        }
      ],
      "name": "names",
      "outputs": [
        {
          "internalType": "bytes",
          "name": "",
          "type": "bytes"
        }
      ],
      "stateMutability": "view",
      "type": "function"
    },
    {
      "inputs": [
        {
          "internalType": "address",
          "name": "to",
          "type": "address"
        },
        {
          "internalType": "address",
          "name": "",
          "type": "address"
        },
        {
          "internalType": "uint256",
          "name": "tokenId",
          "type": "uint256"
        },
        {
          "internalType": "bytes",
          "name": "data",
          "type": "bytes"
        }
      ],
      "name": "onERC721Received",
      "outputs": [
        {
          "internalType": "bytes4",
          "name": "",
          "type": "bytes4"
        }
      ],
      "stateMutability": "nonpayable",
      "type": "function"
    },
    {
      "inputs": [],
      "name": "owner",
      "outputs": [
        {
          "internalType": "address",
          "name": "",
          "type": "address"
        }
      ],
      "stateMutability": "view",
      "type": "function"
    },
    {
      "inputs": [
        {
          "internalType": "uint256",
          "name": "id",
          "type": "uint256"
        }
      ],
      "name": "ownerOf",
      "outputs": [
        {
          "internalType": "address",
          "name": "owner",
          "type": "address"
        }
      ],
      "stateMutability": "view",
      "type": "function"
    },
    {
      "inputs": [
        {
          "internalType": "address",
          "name": "_token",
          "type": "address"
        },
        {
          "internalType": "address",
          "name": "_to",
          "type": "address"
        },
        {
          "internalType": "uint256",
          "name": "_amount",
          "type": "uint256"
        }
      ],
      "name": "recoverFunds",
      "outputs": [],
      "stateMutability": "nonpayable",
      "type": "function"
    },
    {
      "inputs": [
        {
          "internalType": "string",
          "name": "label",
          "type": "string"
        },
        {
          "internalType": "address",
          "name": "wrappedOwner",
          "type": "address"
        },
        {
          "internalType": "uint256",
          "name": "duration",
          "type": "uint256"
        },
        {
          "internalType": "address",
          "name": "resolver",
          "type": "address"
        },
        {
          "internalType": "uint16",
          "name": "ownerControlledFuses",
          "type": "uint16"
        }
      ],
      "name": "registerAndWrapETH2LD",
      "outputs": [
        {
          "internalType": "uint256",
          "name": "registrarExpiry",
          "type": "uint256"
        }
      ],
      "stateMutability": "nonpayable",
      "type": "function"
    },
    {
      "inputs": [],
      "name": "registrar",
      "outputs": [
        {
          "internalType": "contract IBaseRegistrar",
          "name": "",
          "type": "address"
        }
      ],
      "stateMutability": "view",
      "type": "function"
    },
    {
      "inputs": [
        {
          "internalType": "uint256",
          "name": "tokenId",
          "type": "uint256"
        },
        {
          "internalType": "uint256",
          "name": "duration",
          "type": "uint256"
        }
      ],
      "name": "renew",
      "outputs": [
        {
          "internalType": "uint256",
          "name": "expires",
          "type": "uint256"
        }
      ],
      "stateMutability": "nonpayable",
      "type": "function"
    },
    {
      "inputs": [],
      "name": "renounceOwnership",
      "outputs": [],
      "stateMutability": "nonpayable",
      "type": "function"
    },
    {
      "inputs": [
        {
          "internalType": "uint256",
          "name": "",
          "type": "uint256"
        },
        {
          "internalType": "uint256",
          "name": "salePrice",
          "type": "uint256"
        }
      ],
      "name": "royaltyInfo",
      "outputs": [
        {
          "internalType": "address",
          "name": "receiver",
          "type": "address"
        },
        {
          "internalType": "uint256",
          "name": "royaltyAmount",
          "type": "uint256"
        }
      ],
      "stateMutability": "view",
      "type": "function"
    },
    {
      "inputs": [],
      "name": "royaltyReceiver",
      "outputs": [
        {
          "internalType": "address",
          "name": "",
          "type": "address"
        }
      ],
      "stateMutability": "view",
      "type": "function"
    },
    {
      "inputs": [
        {
          "internalType": "address",
          "name": "from",
          "type": "address"
        },
        {
          "internalType": "address",
          "name": "to",
          "type": "address"
        },
        {
          "internalType": "uint256[]",
          "name": "ids",
          "type": "uint256[]"
        },
        {
          "internalType": "uint256[]",
          "name": "amounts",
          "type": "uint256[]"
        },
        {
          "internalType": "bytes",
          "name": "data",
          "type": "bytes"
        }
      ],
      "name": "safeBatchTransferFrom",
      "outputs": [],
      "stateMutability": "nonpayable",
      "type": "function"
    },
    {
      "inputs": [
        {
          "internalType": "address",
          "name": "from",
          "type": "address"
        },
        {
          "internalType": "address",
          "name": "to",
          "type": "address"
        },
        {
          "internalType": "uint256",
          "name": "id",
          "type": "uint256"
        },
        {
          "internalType": "uint256",
          "name": "amount",
          "type": "uint256"
        },
        {
          "internalType": "bytes",
          "name": "data",
          "type": "bytes"
        }
      ],
      "name": "safeTransferFrom",
      "outputs": [],
      "stateMutability": "nonpayable",
      "type": "function"
    },
    {
      "inputs": [
        {
          "internalType": "address",
          "name": "operator",
          "type": "address"
        },
        {
          "internalType": "bool",
          "name": "approved",
          "type": "bool"
        }
      ],
      "name": "setApprovalForAll",
      "outputs": [],
      "stateMutability": "nonpayable",
      "type": "function"
    },
    {
      "inputs": [
        {
          "internalType": "bytes32",
          "name": "parentNode",
          "type": "bytes32"
        },
        {
          "internalType": "bytes32",
          "name": "labelhash",
          "type": "bytes32"
        },
        {
          "internalType": "uint32",
          "name": "fuses",
          "type": "uint32"
        },
        {
          "internalType": "uint64",
          "name": "expiry",
          "type": "uint64"
        }
      ],
      "name": "setChildFuses",
      "outputs": [],
      "stateMutability": "nonpayable",
      "type": "function"
    },
    {
      "inputs": [
        {
          "internalType": "address",
          "name": "controller",
          "type": "address"
        },
        {
          "internalType": "bool",
          "name": "active",
          "type": "bool"
        }
      ],
      "name": "setController",
      "outputs": [],
      "stateMutability": "nonpayable",
      "type": "function"
    },
    {
      "inputs": [
        {
          "internalType": "bytes32",
          "name": "node",
          "type": "bytes32"
        },
        {
          "internalType": "uint16",
          "name": "ownerControlledFuses",
          "type": "uint16"
        }
      ],
      "name": "setFuses",
      "outputs": [
        {
          "internalType": "uint32",
          "name": "",
          "type": "uint32"
        }
      ],
      "stateMutability": "nonpayable",
      "type": "function"
    },
    {
      "inputs": [
        {
          "internalType": "address",
          "name": "_metadata",
          "type": "address"
        }
      ],
      "name": "setMetadata",
      "outputs": [],
      "stateMutability": "nonpayable",
      "type": "function"
    },
    {
      "inputs": [
        {
          "internalType": "contract IMetadataService",
          "name": "_metadataService",
          "type": "address"
        }
      ],
      "name": "setMetadataService",
      "outputs": [],
      "stateMutability": "nonpayable",
      "type": "function"
    },
    {
      "inputs": [
        {
          "internalType": "bytes32",
          "name": "node",
          "type": "bytes32"
        },
        {
          "internalType": "address",
          "name": "owner",
          "type": "address"
        },
        {
          "internalType": "address",
          "name": "resolver",
          "type": "address"
        },
        {
          "internalType": "uint64",
          "name": "ttl",
          "type": "uint64"
        }
      ],
      "name": "setRecord",
      "outputs": [],
      "stateMutability": "nonpayable",
      "type": "function"
    },
    {
      "inputs": [
        {
          "internalType": "bytes32",
          "name": "node",
          "type": "bytes32"
        },
        {
          "internalType": "address",
          "name": "resolver",
          "type": "address"
        }
      ],
      "name": "setResolver",
      "outputs": [],
      "stateMutability": "nonpayable",
      "type": "function"
    },
    {
      "inputs": [
        {
          "internalType": "address",
          "name": "_newReceiver",
          "type": "address"
        }
      ],
      "name": "setRoyaltyReceiver",
      "outputs": [],
      "stateMutability": "nonpayable",
      "type": "function"
    },
    {
      "inputs": [
        {
          "internalType": "bytes32",
          "name": "parentNode",
          "type": "bytes32"
        },
        {
          "internalType": "string",
          "name": "label",
          "type": "string"
        },
        {
          "internalType": "address",
          "name": "owner",
          "type": "address"
        },
        {
          "internalType": "uint32",
          "name": "fuses",
          "type": "uint32"
        },
        {
          "internalType": "uint64",
          "name": "expiry",
          "type": "uint64"
        }
      ],
      "name": "setSubnodeOwner",
      "outputs": [
        {
          "internalType": "bytes32",
          "name": "node",
          "type": "bytes32"
        }
      ],
      "stateMutability": "nonpayable",
      "type": "function"
    },
    {
      "inputs": [
        {
          "internalType": "bytes32",
          "name": "parentNode",
          "type": "bytes32"
        },
        {
          "internalType": "string",
          "name": "label",
          "type": "string"
        },
        {
          "internalType": "address",
          "name": "owner",
          "type": "address"
        },
        {
          "internalType": "address",
          "name": "resolver",
          "type": "address"
        },
        {
          "internalType": "uint64",
          "name": "ttl",
          "type": "uint64"
        },
        {
          "internalType": "uint32",
          "name": "fuses",
          "type": "uint32"
        },
        {
          "internalType": "uint64",
          "name": "expiry",
          "type": "uint64"
        }
      ],
      "name": "setSubnodeRecord",
      "outputs": [
        {
          "internalType": "bytes32",
          "name": "node",
          "type": "bytes32"
        }
      ],
      "stateMutability": "nonpayable",
      "type": "function"
    },
    {
      "inputs": [
        {
          "internalType": "bytes32",
          "name": "node",
          "type": "bytes32"
        },
        {
          "internalType": "uint64",
          "name": "ttl",
          "type": "uint64"
        }
      ],
      "name": "setTTL",
      "outputs": [],
      "stateMutability": "nonpayable",
      "type": "function"
    },
    {
      "inputs": [
        {
          "internalType": "contract INameWrapperUpgrade",
          "name": "_upgradeAddress",
          "type": "address"
        }
      ],
      "name": "setUpgradeContract",
      "outputs": [],
      "stateMutability": "nonpayable",
      "type": "function"
    },
    {
      "inputs": [
        {
          "internalType": "bytes4",
          "name": "interfaceId",
          "type": "bytes4"
        }
      ],
      "name": "supportsInterface",
      "outputs": [
        {
          "internalType": "bool",
          "name": "",
          "type": "bool"
        }
      ],
      "stateMutability": "view",
      "type": "function"
    },
    {
      "inputs": [
        {
          "internalType": "address",
          "name": "newOwner",
          "type": "address"
        }
      ],
      "name": "transferOwnership",
      "outputs": [],
      "stateMutability": "nonpayable",
      "type": "function"
    },
    {
      "inputs": [
        {
          "internalType": "bytes32",
          "name": "parentNode",
          "type": "bytes32"
        },
        {
          "internalType": "bytes32",
          "name": "labelhash",
          "type": "bytes32"
        },
        {
          "internalType": "address",
          "name": "controller",
          "type": "address"
        }
      ],
      "name": "unwrap",
      "outputs": [],
      "stateMutability": "nonpayable",
      "type": "function"
    },
    {
      "inputs": [
        {
          "internalType": "bytes32",
          "name": "labelhash",
          "type": "bytes32"
        },
        {
          "internalType": "address",
          "name": "registrant",
          "type": "address"
        },
        {
          "internalType": "address",
          "name": "controller",
          "type": "address"
        }
      ],
      "name": "unwrapETH2LD",
      "outputs": [],
      "stateMutability": "nonpayable",
      "type": "function"
    },
    {
      "inputs": [
        {
          "internalType": "bytes",
          "name": "name",
          "type": "bytes"
        },
        {
          "internalType": "bytes",
          "name": "extraData",
          "type": "bytes"
        }
      ],
      "name": "upgrade",
      "outputs": [],
      "stateMutability": "nonpayable",
      "type": "function"
    },
    {
      "inputs": [],
      "name": "upgradeContract",
      "outputs": [
        {
          "internalType": "contract INameWrapperUpgrade",
          "name": "",
          "type": "address"
        }
      ],
      "stateMutability": "view",
      "type": "function"
    },
    {
      "inputs": [
        {
          "internalType": "uint256",
          "name": "tokenId",
          "type": "uint256"
        }
      ],
      "name": "uri",
      "outputs": [
        {
          "internalType": "string",
          "name": "",
          "type": "string"
        }
      ],
      "stateMutability": "view",
      "type": "function"
    },
    {
      "inputs": [
        {
          "internalType": "bytes",
          "name": "name",
          "type": "bytes"
        },
        {
          "internalType": "address",
          "name": "wrappedOwner",
          "type": "address"
        },
        {
          "internalType": "address",
          "name": "resolver",
          "type": "address"
        }
      ],
      "name": "wrap",
      "outputs": [],
      "stateMutability": "nonpayable",
      "type": "function"
    },
    {
      "inputs": [
        {
          "internalType": "string",
          "name": "label",
          "type": "string"
        },
        {
          "internalType": "address",
          "name": "wrappedOwner",
          "type": "address"
        },
        {
          "internalType": "uint16",
          "name": "ownerControlledFuses",
          "type": "uint16"
        },
        {
          "internalType": "address",
          "name": "resolver",
          "type": "address"
        }
      ],
      "name": "wrapETH2LD",
      "outputs": [
        {
          "internalType": "uint64",
          "name": "expiry",
          "type": "uint64"
        }
      ],
      "stateMutability": "nonpayable",
      "type": "function"
    }
  ],
  "transactionHash": "0xcb1fad88b2f4706a22c66dbcc5bc966fd1d69d6bf61571331033c5f41479d469",
  "args": [
    "0x60b5c974D939C56A0b02EAaC197F57e0B3cf937b",
    "0xA4983189ad7A3C1e555a1509C461FA9E85457587",
    "0x8FCa3f07c83e4BC9dcDb0D15BdF3ED6e3F3DfA26"
  ],
  "numDeployments": 1,
  "solcInputHash": "c1d243d6e41074649143109163110e26",
  "bytecode": "0x60c06040523480156200001157600080fd5b5060405162006061380380620060618339810160408190526200003491620002df565b600080546001600160a01b031916339081178255604051859282918291907f8be0079c531659141344cd1fd0a4f28419497f9722a3daafe3b4186f6b6457e0908290a3506040516302571be360e01b81527f91d1777781884d03a6757a803996e38de2a42967fb37eeaca72729271025a9e260048201526000906001600160a01b038416906302571be390602401602060405180830381865afa158015620000e0573d6000803e3d6000fd5b505050506040513d601f19601f8201168201806040525081019062000106919062000333565b604051630f41a04d60e11b81526001600160a01b03848116600483015291925090821690631e83409a906024016020604051808303816000875af115801562000153573d6000803e3d6000fd5b505050506040513d601f19601f820116820180604052508101906200017991906200035a565b505050506001600160a01b0383811660805282811660a052600580546001600160a01b031916918316919091179055600163fffeffff60a01b03197feb6932d0375103a6ebd8fe57db6088dbcffb555f1ef2d402f40229bdfabaf0ef8190557fa6eef7e35abe7026729641147f7915573c7e97b47efa546f5f6e3230263bcb4955604080518082019091526001815260006020808301829052908052600690527f54cdd369e4e8a8515e52ca72ec816c2101831ad1f18bf44102ed171459c9b4f89062000247908262000419565b5060408051808201909152600680825264047361667560d81b6020808401919091527ff92e9539a836c60f519caef3f817b823139813f56a7a19c9621f7b47f35b340d600052527f91502f0795698fa643049f064159f61fc85a8e4805df1a6e464f8ef5ac381e5290620002bc908262000419565b50505050620004e5565b6001600160a01b0381168114620002dc57600080fd5b50565b600080600060608486031215620002f557600080fd5b83516200030281620002c6565b60208501519093506200031581620002c6565b60408501519092506200032881620002c6565b809150509250925092565b6000602082840312156200034657600080fd5b81516200035381620002c6565b9392505050565b6000602082840312156200036d57600080fd5b5051919050565b634e487b7160e01b600052604160045260246000fd5b600181811c908216806200039f57607f821691505b602082108103620003c057634e487b7160e01b600052602260045260246000fd5b50919050565b601f8211156200041457600081815260208120601f850160051c81016020861015620003ef5750805b601f850160051c820191505b818110156200041057828155600101620003fb565b5050505b505050565b81516001600160401b0381111562000435576200043562000374565b6200044d816200044684546200038a565b84620003c6565b602080601f8311600181146200048557600084156200046c5750858301515b600019600386901b1c1916600185901b17855562000410565b600085815260208120601f198616915b82811015620004b65788860151825594840194600190910190840162000495565b5085821015620004d55787850151600019600388901b60f8161c191681555b5050505050600190811b01905550565b60805160a051615a6f620005f26000396000818161052c01528181610c0e01528181610cb101528181610d4001528181611aba01528181611b5001528181611bfe01528181611cd001528181611d4101528181611dc60152818161209f015281816121fd0152818161232f015281816124870152818161250d0152612c4b01526000818161057901528181610b9401528181610eac0152818161103b015281816110ec0152818161142e01528181612282015281816123b4015281816125b80152818161276a01528181612a3b01528181612ea601528181612f54015281816130090152818161308a0152818161360b015281816137040152818161396c0152613ec80152615a6f6000f3fe608060405234801561001057600080fd5b50600436106103265760003560e01c80636352211e116101b8578063c658e08611610104578063e985e9c5116100a2578063f242432a1161007c578063f242432a1461081f578063f2fde38b14610832578063f3cb838514610496578063fd0cd0d91461084557600080fd5b8063e985e9c5146107d9578063eb8ae530146107ec578063ed70554d146107ff57600080fd5b8063d8c9921a116100de578063d8c9921a1461077d578063d9a50c1214610790578063da8c229e146107a3578063e0dba60f146107c657600080fd5b8063c658e08614610744578063c93ab3fd14610757578063cf4088231461076a57600080fd5b80638dc251e311610171578063a40149821161014b578063a4014982146106f8578063adf4960a1461070b578063b6bcad261461071e578063c475abff1461073157600080fd5b80638dc251e3146106bf5780639fbc8713146106d2578063a22cb465146106e557600080fd5b80636352211e146106425780636e5d6ad214610655578063715018a6146106805780638b4dfa75146106885780638cf8b41e1461069b5780638da5cb5b146106ae57600080fd5b806320c38e2b116102775780633f15457f1161023057806349c657db1161020a57806349c657db146105d65780634e1273f4146105fc578063530954671461061c5780635d3590d51461062f57600080fd5b80633f15457f14610574578063402906fc1461059b57806341415eab146105c357600080fd5b806320c38e2b146104cf57806324c1af44146104e25780632a55205a146104f55780632b20e397146105275780632eb2c2d61461054e57806333c69ea91461056157600080fd5b80630e4cd725116102e4578063150b7a02116102be578063150b7a021461046a5780631534e177146104965780631896f70a146104a95780631f4e1504146104bc57600080fd5b80630e4cd725146104315780630e89341c1461044457806314ab90381461045757600080fd5b8062fdd58e1461032b5780630178fe3f1461035157806301ffc9a71461039757806306fdde03146103ba578063081812fc146103f1578063095ea7b31461041c575b600080fd5b61033e610339366004614715565b610858565b6040519081526020015b60405180910390f35b61036461035f366004614741565b610905565b604080516001600160a01b03909416845263ffffffff90921660208401526001600160401b031690820152606001610348565b6103aa6103a5366004614770565b610935565b6040519015158152602001610348565b6103e46040518060400160405280600b81526020016a2730b6b2abb930b83832b960a91b81525081565b60405161034891906147dd565b6104046103ff366004614741565b610990565b6040516001600160a01b039091168152602001610348565b61042f61042a366004614715565b6109d5565b005b6103aa61043f3660046147f0565b610a1b565b6103e4610452366004614741565b610a95565b61042f61046536600461483c565b610b07565b61047d6104783660046148a7565b610c01565b6040516001600160e01b03199091168152602001610348565b61042f6104a4366004614919565b610de1565b61042f6104b73660046147f0565b610e2d565b600754610404906001600160a01b031681565b6103e46104dd366004614741565b610ee3565b61033e6104f0366004614a0f565b610f7d565b610508610503366004614aac565b611163565b604080516001600160a01b039093168352602083019190915201610348565b6104047f000000000000000000000000000000000000000000000000000000000000000081565b61042f61055c366004614b57565b611193565b61042f61056f366004614c04565b6113d1565b6104047f000000000000000000000000000000000000000000000000000000000000000081565b6105ae6105a9366004614c5c565b6115a2565b60405163ffffffff9091168152602001610348565b6103aa6105d13660046147f0565b61163f565b6105df6101f481565b6040516bffffffffffffffffffffffff9091168152602001610348565b61060f61060a366004614c7f565b611678565b6040516103489190614d7c565b600554610404906001600160a01b031681565b61042f61063d366004614d8f565b6117a1565b610404610650366004614741565b611844565b610668610663366004614dd0565b61184f565b6040516001600160401b039091168152602001610348565b61042f611982565b61042f610696366004614e05565b6119f6565b6106686106a9366004614e47565b611b1c565b6000546001600160a01b0316610404565b61042f6106cd366004614919565b611e98565b600854610404906001600160a01b031681565b61042f6106f3366004614ecf565b611f5d565b61033e610706366004614efd565b612033565b6103aa610719366004614f7d565b612174565b61042f61072c366004614919565b612199565b61033e61073f366004614aac565b612413565b61033e610752366004614fa0565b61267d565b61042f610765366004615012565b612845565b61042f61077836600461507d565b612998565b61042f61078b3660046150b5565b612b32565b6103aa61079e366004614aac565b612bfb565b6103aa6107b1366004614919565b60046020526000908152604090205460ff1681565b61042f6107d4366004614ecf565b612cda565b6103aa6107e73660046150e3565b612d64565b61042f6107fa366004615111565b612d92565b61033e61080d366004614741565b60016020526000908152604090205481565b61042f61082d366004615178565b613136565b61042f610840366004614919565b6131e3565b6103aa610853366004614741565b6132cd565b60006001600160a01b0383166108c95760405162461bcd60e51b815260206004820152602b60248201527f455243313135353a2062616c616e636520717565727920666f7220746865207a60448201526a65726f206164647265737360a81b60648201526084015b60405180910390fd5b60006108d483611844565b9050836001600160a01b0316816001600160a01b0316036108f95760019150506108ff565b60009150505b92915050565b60008181526001602052604090205460a081901c60c082901c6109298383836133a5565b90959094509092509050565b60006001600160e01b03198216631b05885b60e31b148061096657506001600160e01b03198216630a85bd0160e11b145b8061098157506001600160e01b0319821663152a902d60e11b145b806108ff57506108ff826133db565b60008061099c83611844565b90506001600160a01b0381166109b55750600092915050565b6000838152600360205260409020546001600160a01b03165b9392505050565b60006109e082610905565b50915050603f196040821601610a0c5760405163a2a7201360e01b8152600481018390526024016108c0565b610a16838361342b565b505050565b6000808080610a2986610905565b925092509250846001600160a01b0316836001600160a01b03161480610a545750610a548386612d64565b80610a7857506001600160a01b038516610a6d87610990565b6001600160a01b0316145b8015610a8b5750610a89828261353b565b155b9695505050505050565b6005546040516303a24d0760e21b8152600481018390526060916001600160a01b031690630e89341c90602401600060405180830381865afa158015610adf573d6000803e3d6000fd5b505050506040513d6000823e601f3d908101601f191682016040526108ff91908101906151e0565b81610b12813361163f565b610b3357803360405163168ab55d60e31b81526004016108c0929190615257565b8260106000610b4183610905565b5091505063ffffffff8282161615610b6f5760405163a2a7201360e01b8152600481018490526024016108c0565b604051630295720760e31b8152600481018790526001600160401b03861660248201527f00000000000000000000000000000000000000000000000000000000000000006001600160a01b0316906314ab9038906044015b600060405180830381600087803b158015610be157600080fd5b505af1158015610bf5573d6000803e3d6000fd5b50505050505050505050565b6000336001600160a01b037f00000000000000000000000000000000000000000000000000000000000000001614610c4c5760405163032634a760e31b815260040160405180910390fd5b6000808080610c5d8688018861526e565b83516020850120939750919550935091508890808214610c9a576040516331970f3360e21b815260048101829052602481018390526044016108c0565b604051630a3b53db60e21b81526001600160a01b037f000000000000000000000000000000000000000000000000000000000000000016906328ed4f6c90610ce89085903090600401615257565b600060405180830381600087803b158015610d0257600080fd5b505af1158015610d16573d6000803e3d6000fd5b5050604051636b727d4360e11b8152600481018d90526000925062278d0091506001600160a01b037f0000000000000000000000000000000000000000000000000000000000000000169063d6e4fa8690602401602060405180830381865afa158015610d87573d6000803e3d6000fd5b505050506040513d601f19601f82011682018060405250810190610dab91906152d5565b610db59190615304565b9050610dc887878761ffff16848861356b565b50630a85bd0160e11b9c9b505050505050505050505050565b6000546001600160a01b03163314610e0b5760405162461bcd60e51b81526004016108c09061532b565b600580546001600160a01b0319166001600160a01b0392909216919091179055565b81610e38813361163f565b610e5957803360405163168ab55d60e31b81526004016108c0929190615257565b8260086000610e6783610905565b5091505063ffffffff8282161615610e955760405163a2a7201360e01b8152600481018490526024016108c0565b604051630c4b7b8560e11b81526001600160a01b037f00000000000000000000000000000000000000000000000000000000000000001690631896f70a90610bc79089908990600401615257565b60066020526000908152604090208054610efc90615360565b80601f0160208091040260200160405190810160405280929190818152602001828054610f2890615360565b8015610f755780601f10610f4a57610100808354040283529160200191610f75565b820191906000526020600020905b815481529060010190602001808311610f5857829003601f168201915b505050505081565b600087610f8a813361163f565b610fab57803360405163168ab55d60e31b81526004016108c0929190615257565b87516020890120610fbc8a8261367e565b9250610fc88a846136aa565b610fd283866137e8565b610fdd8a848b61381b565b50610fea8a8487876138e8565b9350610ff58361392e565b6110aa576040516305ef2c7f60e41b8152600481018b9052602481018290523060448201526001600160a01b0388811660648301526001600160401b03881660848301527f00000000000000000000000000000000000000000000000000000000000000001690635ef2c7f09060a401600060405180830381600087803b15801561107f57600080fd5b505af1158015611093573d6000803e3d6000fd5b505050506110a58a848b8b89896139e7565b611156565b6040516305ef2c7f60e41b8152600481018b9052602481018290523060448201526001600160a01b0388811660648301526001600160401b03881660848301527f00000000000000000000000000000000000000000000000000000000000000001690635ef2c7f09060a401600060405180830381600087803b15801561113057600080fd5b505af1158015611144573d6000803e3d6000fd5b505050506111568a848b8b8989613a1e565b5050979650505050505050565b6008546001600160a01b031660006127106111806101f48561539a565b61118a91906153b1565b90509250929050565b81518351146111f55760405162461bcd60e51b815260206004820152602860248201527f455243313135353a2069647320616e6420616d6f756e7473206c656e677468206044820152670dad2e6dac2e8c6d60c31b60648201526084016108c0565b6001600160a01b03841661121b5760405162461bcd60e51b81526004016108c0906153d3565b6001600160a01b03851633148061123757506112378533612d64565b61129e5760405162461bcd60e51b815260206004820152603260248201527f455243313135353a207472616e736665722063616c6c6572206973206e6f74206044820152711bdddb995c881b9bdc88185c1c1c9bdd995960721b60648201526084016108c0565b60005b83518110156113645760008482815181106112be576112be615418565b6020026020010151905060008483815181106112dc576112dc615418565b6020026020010151905060008060006112f485610905565b925092509250611305858383613ae2565b83600114801561132657508a6001600160a01b0316836001600160a01b0316145b6113425760405162461bcd60e51b81526004016108c09061542e565b61134e858b8484613b8b565b50505050508061135d90615478565b90506112a1565b50836001600160a01b0316856001600160a01b0316336001600160a01b03167f4a39dc06d4c0dbc64b70af90fd698a233a518aa5d07e595d983b8c0526c8f7fb86866040516113b4929190615491565b60405180910390a46113ca338686868686613bcd565b5050505050565b60006113dd858561367e565b90506113e981846137e8565b600080806113f684610905565b919450925090506001600160a01b03831615806114a557506040516302571be360e01b81526004810185905230906001600160a01b037f000000000000000000000000000000000000000000000000000000000000000016906302571be390602401602060405180830381865afa158015611475573d6000803e3d6000fd5b505050506040513d601f19601f8201168201806040525081019061149991906154bf565b6001600160a01b031614155b156114c357604051635374b59960e01b815260040160405180910390fd5b6000806114cf8a610905565b90935091508a905061150b576114e5863361163f565b61150657853360405163168ab55d60e31b81526004016108c0929190615257565b611536565b6115158a3361163f565b61153657893360405163168ab55d60e31b81526004016108c0929190615257565b611541868984613d28565b61154c878483613d63565b96506201000084161580159061157057508363ffffffff1688851763ffffffff1614155b156115915760405163a2a7201360e01b8152600481018790526024016108c0565b96831796610bf586868a868b613da9565b6000826115af813361163f565b6115d057803360405163168ab55d60e31b81526004016108c0929190615257565b83600260006115de83610905565b5091505063ffffffff828216161561160c5760405163a2a7201360e01b8152600481018490526024016108c0565b600080806116198a610905565b9250925092506116328a84848c61ffff16178485613da9565b5098975050505050505050565b600080808061164d86610905565b925092509250846001600160a01b0316836001600160a01b03161480610a785750610a788386612d64565b606081518351146116dd5760405162461bcd60e51b815260206004820152602960248201527f455243313135353a206163636f756e747320616e6420696473206c656e677468604482015268040dad2e6dac2e8c6d60bb1b60648201526084016108c0565b600083516001600160401b038111156116f8576116f8614936565b604051908082528060200260200182016040528015611721578160200160208202803683370190505b50905060005b84518110156117995761176c85828151811061174557611745615418565b602002602001015185838151811061175f5761175f615418565b6020026020010151610858565b82828151811061177e5761177e615418565b602090810291909101015261179281615478565b9050611727565b509392505050565b6000546001600160a01b031633146117cb5760405162461bcd60e51b81526004016108c09061532b565b60405163a9059cbb60e01b81526001600160a01b0383811660048301526024820183905284169063a9059cbb906044016020604051808303816000875af115801561181a573d6000803e3d6000fd5b505050506040513d601f19601f8201168201806040525081019061183e91906154dc565b50505050565b60006108ff82613e50565b60008061185c858561367e565b90506118678161392e565b61188457604051635374b59960e01b815260040160405180910390fd5b60006118908633610a1b565b9050801580156118a757506118a5823361163f565b155b156118c957813360405163168ab55d60e31b81526004016108c0929190615257565b600080806118d685610905565b925092509250831580156118ed5750620400008216155b1561190e5760405163a2a7201360e01b8152600481018690526024016108c0565b60006119198a610905565b92505050611928888383613d63565b97506119368685858b613e66565b6040516001600160401b038916815286907ff675815a0817338f93a7da433f6bd5f5542f1029b11b455191ac96c7f6a9b1329060200160405180910390a2509598975050505050505050565b6000546001600160a01b031633146119ac5760405162461bcd60e51b81526004016108c09061532b565b600080546040516001600160a01b03909116907f8be0079c531659141344cd1fd0a4f28419497f9722a3daafe3b4186f6b6457e0908390a3600080546001600160a01b0319169055565b611a0e600080516020615a1a8339815191528461367e565b611a18813361163f565b611a3957803360405163168ab55d60e31b81526004016108c0929190615257565b306001600160a01b03841603611a6d57604051632ca49b0d60e11b81526001600160a01b03841660048201526024016108c0565b611a8e611a88600080516020615a1a8339815191528661367e565b83613e7c565b604051632142170760e11b81523060048201526001600160a01b038481166024830152604482018690527f000000000000000000000000000000000000000000000000000000000000000016906342842e0e90606401600060405180830381600087803b158015611afe57600080fd5b505af1158015611b12573d6000803e3d6000fd5b5050505050505050565b6000808686604051611b2f9291906154f9565b6040519081900381206331a9108f60e11b82526004820181905291506000907f00000000000000000000000000000000000000000000000000000000000000006001600160a01b031690636352211e90602401602060405180830381865afa158015611b9f573d6000803e3d6000fd5b505050506040513d601f19601f82011682018060405250810190611bc391906154bf565b90506001600160a01b0381163314801590611c6b575060405163e985e9c560e01b81526001600160a01b0382811660048301523360248301527f0000000000000000000000000000000000000000000000000000000000000000169063e985e9c590604401602060405180830381865afa158015611c45573d6000803e3d6000fd5b505050506040513d601f19601f82011682018060405250810190611c6991906154dc565b155b15611ca457611c88600080516020615a1a8339815191528361367e565b3360405163168ab55d60e31b81526004016108c0929190615257565b6040516323b872dd60e01b81526001600160a01b038281166004830152306024830152604482018490527f000000000000000000000000000000000000000000000000000000000000000016906323b872dd90606401600060405180830381600087803b158015611d1457600080fd5b505af1158015611d28573d6000803e3d6000fd5b5050604051630a3b53db60e21b81526001600160a01b037f00000000000000000000000000000000000000000000000000000000000000001692506328ed4f6c9150611d7a9085903090600401615257565b600060405180830381600087803b158015611d9457600080fd5b505af1158015611da8573d6000803e3d6000fd5b5050604051636b727d4360e11b81526004810185905262278d0092507f00000000000000000000000000000000000000000000000000000000000000006001600160a01b0316915063d6e4fa8690602401602060405180830381865afa158015611e16573d6000803e3d6000fd5b505050506040513d601f19601f82011682018060405250810190611e3a91906152d5565b611e449190615304565b9250611e8d88888080601f0160208091040260200160405190810160405280939291908181526020018383808284376000920191909152508a9250505061ffff8816868861356b565b505095945050505050565b6000546001600160a01b03163314611ec25760405162461bcd60e51b81526004016108c09061532b565b6001600160a01b038116611f0b5760405162461bcd60e51b815260206004820152601060248201526f24b73b30b634b2103932b1b2b4bb32b960811b60448201526064016108c0565b600880546001600160a01b038381166001600160a01b0319831681179093556040519116919082907f67b490a6eb879b67b91826b576ca0a1ba79f82484d43c4e330e3948dac8182d790600090a35050565b6001600160a01b0382163303611fc75760405162461bcd60e51b815260206004820152602960248201527f455243313135353a2073657474696e6720617070726f76616c20737461747573604482015268103337b91039b2b63360b91b60648201526084016108c0565b3360008181526002602090815260408083206001600160a01b03871680855290835292819020805460ff191686151590811790915590519081529192917f17307eab39ab6107e8899845ad3d59bd9653f200f220920489ca2b5937696c31910160405180910390a35050565b3360009081526004602052604081205460ff166120625760405162461bcd60e51b81526004016108c090615509565b600087876040516120749291906154f9565b604051908190038120633f2891eb60e21b8252600482018190523060248301526044820187905291507f00000000000000000000000000000000000000000000000000000000000000006001600160a01b03169063fca247ac906064016020604051808303816000875af11580156120f0573d6000803e3d6000fd5b505050506040513d601f19601f8201168201806040525081019061211491906152d5565b915061216988888080601f0160208091040260200160405190810160405280939291908181526020018383808284376000920191909152508a9250505061ffff861661216362278d0087615304565b8861356b565b509695505050505050565b60008061218084610905565b50841663ffffffff908116908516149250505092915050565b6000546001600160a01b031633146121c35760405162461bcd60e51b81526004016108c09061532b565b6007546001600160a01b0316156122e35760075460405163a22cb46560e01b81526001600160a01b039182166004820152600060248201527f00000000000000000000000000000000000000000000000000000000000000009091169063a22cb46590604401600060405180830381600087803b15801561224357600080fd5b505af1158015612257573d6000803e3d6000fd5b505060075460405163a22cb46560e01b81526001600160a01b039182166004820152600060248201527f0000000000000000000000000000000000000000000000000000000000000000909116925063a22cb4659150604401600060405180830381600087803b1580156122ca57600080fd5b505af11580156122de573d6000803e3d6000fd5b505050505b600780546001600160a01b0319166001600160a01b038316908117909155156124105760075460405163a22cb46560e01b81526001600160a01b039182166004820152600160248201527f00000000000000000000000000000000000000000000000000000000000000009091169063a22cb46590604401600060405180830381600087803b15801561237557600080fd5b505af1158015612389573d6000803e3d6000fd5b505060075460405163a22cb46560e01b81526001600160a01b039182166004820152600160248201527f0000000000000000000000000000000000000000000000000000000000000000909116925063a22cb4659150604401600060405180830381600087803b1580156123fc57600080fd5b505af11580156113ca573d6000803e3d6000fd5b50565b3360009081526004602052604081205460ff166124425760405162461bcd60e51b81526004016108c090615509565b600061245c600080516020615a1a8339815191528561367e565b60405163c475abff60e01b815260048101869052602481018590529091506000906001600160a01b037f0000000000000000000000000000000000000000000000000000000000000000169063c475abff906044016020604051808303816000875af11580156124d0573d6000803e3d6000fd5b505050506040513d601f19601f820116820180604052508101906124f491906152d5565b6040516331a9108f60e11b8152600481018790529091507f00000000000000000000000000000000000000000000000000000000000000006001600160a01b031690636352211e90602401602060405180830381865afa925050508015612578575060408051601f3d908101601f19168201909252612575918101906154bf565b60015b6125855791506108ff9050565b6001600160a01b0381163014158061262f57506040516302571be360e01b81526004810184905230906001600160a01b037f000000000000000000000000000000000000000000000000000000000000000016906302571be390602401602060405180830381865afa1580156125ff573d6000803e3d6000fd5b505050506040513d601f19601f8201168201806040525081019061262391906154bf565b6001600160a01b031614155b1561263e575091506108ff9050565b50600061264e62278d0083615304565b60008481526001602052604090205490915060a081901c61267185838386613e66565b50919695505050505050565b60008661268a813361163f565b6126ab57803360405163168ab55d60e31b81526004016108c0929190615257565b600087876040516126bd9291906154f9565b604051809103902090506126d1898261367e565b92506126dd89846136aa565b6126e783866137e8565b600061272a8a858b8b8080601f01602080910402602001604051908101604052809392919081815260200183838082843760009201919091525061381b92505050565b90506127388a8588886138e8565b94506127438461392e565b6127f2576040516306ab592360e01b8152600481018b9052602481018390523060448201527f00000000000000000000000000000000000000000000000000000000000000006001600160a01b0316906306ab5923906064016020604051808303816000875af11580156127bb573d6000803e3d6000fd5b505050506040513d601f19601f820116820180604052508101906127df91906152d5565b506127ed8482898989613f6c565b612838565b6128388a858b8b8080601f0160208091040260200160405190810160405280939291908181526020018383808284376000920191909152508d92508c91508b9050613a1e565b5050509695505050505050565b600061288b600086868080601f0160208091040260200160405190810160405280939291908181526020018383808284376000920191909152509293925050613fae9050565b6007549091506001600160a01b03166128b75760405163093075b560e21b815260040160405180910390fd5b6128c1813361163f565b6128e257803360405163168ab55d60e31b81526004016108c0929190615257565b600080806128ef84610905565b91945092509050600061290185610990565b905061290c8561406d565b600760009054906101000a90046001600160a01b03166001600160a01b0316639198c2768a8a878787878e8e6040518963ffffffff1660e01b815260040161295b98979695949392919061557a565b600060405180830381600087803b15801561297557600080fd5b505af1158015612989573d6000803e3d6000fd5b50505050505050505050505050565b836129a3813361163f565b6129c457803360405163168ab55d60e31b81526004016108c0929190615257565b84601c60006129d283610905565b5091505063ffffffff8282161615612a005760405163a2a7201360e01b8152600481018490526024016108c0565b60405163cf40882360e01b8152600481018990523060248201526001600160a01b0387811660448301526001600160401b03871660648301527f0000000000000000000000000000000000000000000000000000000000000000169063cf40882390608401600060405180830381600087803b158015612a7f57600080fd5b505af1158015612a93573d6000803e3d6000fd5b5050506001600160a01b0388169050612afa576000612ab189610905565b509150506201ffff1962020000821601612ae957604051632ca49b0d60e11b81526001600160a01b03891660048201526024016108c0565b612af4896000613e7c565b50611b12565b6000612b0589611844565b9050612b2781898b60001c60016040518060200160405280600081525061410d565b505050505050505050565b612b3c838361367e565b612b46813361163f565b612b6757803360405163168ab55d60e31b81526004016108c0929190615257565b7f06d16ac657c939f0ae63510c07e847dcec67ec0a9585e6369de084b80ca4cbf38401612ba75760405163615a470360e01b815260040160405180910390fd5b6001600160a01b0382161580612bc557506001600160a01b03821630145b15612bee57604051632ca49b0d60e11b81526001600160a01b03831660048201526024016108c0565b61183e611a88858561367e565b600080612c08848461367e565b90506000612c158261392e565b9050600080516020615a1a8339815191528514612c355791506108ff9050565b6040516331a9108f60e11b8152600481018590527f00000000000000000000000000000000000000000000000000000000000000006001600160a01b031690636352211e90602401602060405180830381865afa925050508015612cb6575060408051601f3d908101601f19168201909252612cb3918101906154bf565b60015b612cc5576000925050506108ff565b6001600160a01b0316301492506108ff915050565b6000546001600160a01b03163314612d045760405162461bcd60e51b81526004016108c09061532b565b6001600160a01b038216600081815260046020908152604091829020805460ff191685151590811790915591519182527f4c97694570a07277810af7e5669ffd5f6a2d6b74b6e9a274b8b870fd5114cf8791015b60405180910390a25050565b6001600160a01b03918216600090815260026020908152604080832093909416825291909152205460ff1690565b600080612dd9600087878080601f01602080910402602001604051908101604052809392919081815260200183838082843760009201919091525092939250506141ef9050565b915091506000612e228288888080601f0160208091040260200160405190810160405280939291908181526020018383808284376000920191909152509293925050613fae9050565b90506000612e30828561367e565b6000818152600660205260409020909150612e4c888a83615628565b507f06d16ac657c939f0ae63510c07e847dcec67ec0a9585e6369de084b80ca4cbf38201612e8d5760405163615a470360e01b815260040160405180910390fd5b6040516302571be360e01b8152600481018290526000907f00000000000000000000000000000000000000000000000000000000000000006001600160a01b0316906302571be390602401602060405180830381865afa158015612ef5573d6000803e3d6000fd5b505050506040513d601f19601f82011682018060405250810190612f1991906154bf565b90506001600160a01b0381163314801590612fc1575060405163e985e9c560e01b81526001600160a01b0382811660048301523360248301527f0000000000000000000000000000000000000000000000000000000000000000169063e985e9c590604401602060405180830381865afa158015612f9b573d6000803e3d6000fd5b505050506040513d601f19601f82011682018060405250810190612fbf91906154dc565b155b15612fe357813360405163168ab55d60e31b81526004016108c0929190615257565b6001600160a01b0386161561307357604051630c4b7b8560e11b81526001600160a01b037f00000000000000000000000000000000000000000000000000000000000000001690631896f70a906130409085908a90600401615257565b600060405180830381600087803b15801561305a57600080fd5b505af115801561306e573d6000803e3d6000fd5b505050505b604051635b0fc9c360e01b81526001600160a01b037f00000000000000000000000000000000000000000000000000000000000000001690635b0fc9c3906130c19085903090600401615257565b600060405180830381600087803b1580156130db57600080fd5b505af11580156130ef573d6000803e3d6000fd5b50505050612b27828a8a8080601f01602080910402602001604051908101604052809392919081815260200183838082843760009201829052508d93509150819050613f6c565b6001600160a01b03841661315c5760405162461bcd60e51b81526004016108c0906153d3565b6001600160a01b03851633148061317857506131788533612d64565b6131d65760405162461bcd60e51b815260206004820152602960248201527f455243313135353a2063616c6c6572206973206e6f74206f776e6572206e6f7260448201526808185c1c1c9bdd995960ba1b60648201526084016108c0565b6113ca858585858561410d565b6000546001600160a01b0316331461320d5760405162461bcd60e51b81526004016108c09061532b565b6001600160a01b0381166132725760405162461bcd60e51b815260206004820152602660248201527f4f776e61626c653a206e6577206f776e657220697320746865207a65726f206160448201526564647265737360d01b60648201526084016108c0565b600080546040516001600160a01b03808516939216917f8be0079c531659141344cd1fd0a4f28419497f9722a3daafe3b4186f6b6457e091a3600080546001600160a01b0319166001600160a01b0392909216919091179055565b600081815260066020526040812080548291906132e990615360565b80601f016020809104026020016040519081016040528092919081815260200182805461331590615360565b80156133625780601f1061333757610100808354040283529160200191613362565b820191906000526020600020905b81548152906001019060200180831161334557829003601f168201915b50505050509050805160000361337b5750600092915050565b60008061338883826141ef565b909250905060006133998483613fae565b9050610a8b8184612bfb565b60008042836001600160401b031610156133d25761ffff19620100008516016133cd57600094505b600093505b50929391925050565b60006001600160e01b03198216636cdb3d1360e11b148061340c57506001600160e01b031982166303a24d0760e21b145b806108ff57506301ffc9a760e01b6001600160e01b03198316146108ff565b600061343682611844565b9050806001600160a01b0316836001600160a01b0316036134a35760405162461bcd60e51b815260206004820152602160248201527f4552433732313a20617070726f76616c20746f2063757272656e74206f776e656044820152603960f91b60648201526084016108c0565b336001600160a01b03821614806134bf57506134bf8133612d64565b6135315760405162461bcd60e51b815260206004820152603d60248201527f4552433732313a20617070726f76652063616c6c6572206973206e6f7420746f60448201527f6b656e206f776e6572206f7220617070726f76656420666f7220616c6c00000060648201526084016108c0565b610a1683836142a6565b6000620200008381161480156109ce57504261355a62278d00846156e7565b6001600160401b0316109392505050565b84516020860120600061358c600080516020615a1a8339815191528361367e565b905060006135b78860405180604001604052806006815260200164047361667560d81b815250614314565b60008381526006602052604090209091506135d28282615707565b506135e5828289620300008a1789613f6c565b6001600160a01b03841615611b1257604051630c4b7b8560e11b81526001600160a01b037f00000000000000000000000000000000000000000000000000000000000000001690631896f70a906136429085908890600401615257565b600060405180830381600087803b15801561365c57600080fd5b505af1158015613670573d6000803e3d6000fd5b505050505050505050505050565b604080516020808201949094528082019290925280518083038201815260609092019052805191012090565b600080806136b784610905565b91945092509050426001600160401b0382161080801561377a57506001600160a01b038416158061377a57506040516302571be360e01b8152600481018690526000906001600160a01b037f000000000000000000000000000000000000000000000000000000000000000016906302571be390602401602060405180830381865afa15801561374b573d6000803e3d6000fd5b505050506040513d601f19601f8201168201806040525081019061376f91906154bf565b6001600160a01b0316145b156137b957600061378a87610905565b5091505060208116156137b35760405163a2a7201360e01b8152600481018790526024016108c0565b506137e0565b620100008316156137e05760405163a2a7201360e01b8152600481018690526024016108c0565b505050505050565b63fffdffff81811763ffffffff16146138175760405163a2a7201360e01b8152600481018390526024016108c0565b5050565b606060006138c48360066000888152602001908152602001600020805461384190615360565b80601f016020809104026020016040519081016040528092919081815260200182805461386d90615360565b80156138ba5780601f1061388f576101008083540402835291602001916138ba565b820191906000526020600020905b81548152906001019060200180831161389d57829003601f168201915b5050505050614314565b60008581526006602052604090209091506138df8282615707565b50949350505050565b6000806138f485610905565b925050506000806139078860001c610905565b9250925050613917878784613d28565b613922858483613d63565b98975050505050505050565b60008061393a83611844565b6001600160a01b0316141580156108ff57506040516302571be360e01b81526004810183905230906001600160a01b037f000000000000000000000000000000000000000000000000000000000000000016906302571be390602401602060405180830381865afa1580156139b3573d6000803e3d6000fd5b505050506040513d601f19601f820116820180604052508101906139d791906154bf565b6001600160a01b03161492915050565b60008681526006602052604081208054613a0691879161384190615360565b9050613a158682868686613f6c565b50505050505050565b60008080613a2b88610905565b9250925092506000613a5588600660008d8152602001908152602001600020805461384190615360565b60008a8152600660205260409020805491925090613a7290615360565b9050600003613a95576000898152600660205260409020613a938282615707565b505b613aa489858886178589613da9565b6001600160a01b038716613ac257613abd896000613e7c565b610bf5565b610bf584888b60001c60016040518060200160405280600081525061410d565b6201ffff1962020000831601613b0257613aff62278d00826156e7565b90505b42816001600160401b03161015613b3b5762010000821615613b365760405162461bcd60e51b81526004016108c09061542e565b613b60565b6004821615613b605760405163a2a7201360e01b8152600481018490526024016108c0565b60408216600003610a16575050600090815260036020526040902080546001600160a01b0319169055565b60c0816001600160401b0316901b60a08363ffffffff16901b846001600160a01b03161717600160008681526020019081526020016000208190555050505050565b6001600160a01b0384163b156137e05760405163bc197c8160e01b81526001600160a01b0385169063bc197c8190613c1190899089908890889088906004016157c6565b6020604051808303816000875af1925050508015613c4c575060408051601f3d908101601f19168201909252613c4991810190615818565b60015b613cf857613c58615835565b806308c379a003613c915750613c6c615851565b80613c775750613c93565b8060405162461bcd60e51b81526004016108c091906147dd565b505b60405162461bcd60e51b815260206004820152603460248201527f455243313135353a207472616e7366657220746f206e6f6e20455243313135356044820152732932b1b2b4bb32b91034b6b83632b6b2b73a32b960611b60648201526084016108c0565b6001600160e01b0319811663bc197c8160e01b14613a155760405162461bcd60e51b81526004016108c0906158da565b63ffff00008216158015906001831615908290613d425750805b156113ca5760405163a2a7201360e01b8152600481018690526024016108c0565b6000816001600160401b0316846001600160401b03161115613d83578193505b826001600160401b0316846001600160401b03161015613da1578293505b509192915050565b613db585858584613e66565b60405163ffffffff8416815285907f39873f00c80f4f94b7bd1594aebcf650f003545b74824d57ddf4939e3ff3a34b9060200160405180910390a2816001600160401b0316816001600160401b031611156113ca576040516001600160401b038216815285907ff675815a0817338f93a7da433f6bd5f5542f1029b11b455191ac96c7f6a9b132906020015b60405180910390a25050505050565b600080613e5c83610905565b5090949350505050565b613e70848361438b565b61183e84848484613b8b565b613e87826001612174565b15613ea85760405163a2a7201360e01b8152600481018390526024016108c0565b613eb18261406d565b604051635b0fc9c360e01b81526001600160a01b037f00000000000000000000000000000000000000000000000000000000000000001690635b0fc9c390613eff9085908590600401615257565b600060405180830381600087803b158015613f1957600080fd5b505af1158015613f2d573d6000803e3d6000fd5b50506040516001600160a01b03841681528492507fee2ba1195c65bcf218a83d874335c6bf9d9067b4c672f3c3bf16cf40de7586c49150602001612d58565b613f78858484846143c4565b847f8ce7013e8abebc55c3890a68f5a27c67c3f7efa64e584de5fb22363c606fd34085858585604051613e419493929190615922565b6000806000613fbd85856141ef565b90925090508161402f5760018551613fd59190615969565b84146140235760405162461bcd60e51b815260206004820152601d60248201527f6e616d65686173683a204a756e6b20617420656e64206f66206e616d6500000060448201526064016108c0565b50600091506108ff9050565b6140398582613fae565b6040805160208101929092528101839052606001604051602081830303815290604052805190602001209250505092915050565b60008181526001602052604090205460a081901c60c082901c6140918383836133a5565b600086815260036020526040812080546001600160a01b03191690559093506140be915085908484613b8b565b60408051858152600160208201526000916001600160a01b0386169133917fc3d58168c5ae7397731d063d5bbf3d657854427343f4c083240f7aacaa2d0f62910160405180910390a450505050565b600080600061411b86610905565b92509250925061412c868383613ae2565b84600114801561414d5750876001600160a01b0316836001600160a01b0316145b6141695760405162461bcd60e51b81526004016108c09061542e565b866001600160a01b0316836001600160a01b03160361418a575050506113ca565b61419686888484613b8b565b60408051878152602081018790526001600160a01b03808a1692908b169133917fc3d58168c5ae7397731d063d5bbf3d657854427343f4c083240f7aacaa2d0f62910160405180910390a4611b12338989898989614438565b600080835183106142425760405162461bcd60e51b815260206004820152601e60248201527f726561644c6162656c3a20496e646578206f7574206f6620626f756e6473000060448201526064016108c0565b600084848151811061425657614256615418565b016020015160f81c905080156142825761427b8561427586600161597c565b836144f3565b9250614287565b600092505b614291818561597c565b61429c90600161597c565b9150509250929050565b600081815260036020526040902080546001600160a01b0319166001600160a01b03841690811790915581906142db82611844565b6001600160a01b03167f8c5be1e5ebec7d5bd14f71427d1e84f3dd0314c0f7b2291e5b200ac8c7c3b92560405160405180910390a45050565b606060018351101561433957604051631406d65b60e11b815260040160405180910390fd5b60ff8351111561435e578260405163e3ba295f60e01b81526004016108c091906147dd565b825183836040516020016143749392919061598f565b604051602081830303815290604052905092915050565b61ffff8116158015906143a357506201000181811614155b156138175760405163a2a7201360e01b8152600481018390526024016108c0565b6143ce848361438b565b6000848152600160205260409020546001600160a01b0381161561442c576143f58561406d565b6040516000815285907fee2ba1195c65bcf218a83d874335c6bf9d9067b4c672f3c3bf16cf40de7586c49060200160405180910390a25b6113ca85858585614517565b6001600160a01b0384163b156137e05760405163f23a6e6160e01b81526001600160a01b0385169063f23a6e619061447c90899089908890889088906004016159d4565b6020604051808303816000875af19250505080156144b7575060408051601f3d908101601f191682019092526144b491810190615818565b60015b6144c357613c58615835565b6001600160e01b0319811663f23a6e6160e01b14613a155760405162461bcd60e51b81526004016108c0906158da565b8251600090614502838561597c565b111561450d57600080fd5b5091016020012090565b836000808061452584610905565b9194509250905063ffff000082166001600160401b03808716908316111561454b578195505b42826001600160401b03161061456057958617955b6001600160a01b038416156145b75760405162461bcd60e51b815260206004820152601f60248201527f455243313135353a206d696e74206f66206578697374696e6720746f6b656e0060448201526064016108c0565b6001600160a01b0388166146175760405162461bcd60e51b815260206004820152602160248201527f455243313135353a206d696e7420746f20746865207a65726f206164647265736044820152607360f81b60648201526084016108c0565b306001600160a01b0389160361468c5760405162461bcd60e51b815260206004820152603460248201527f455243313135353a206e65774f776e65722063616e6e6f74206265207468652060448201527313985b5955dc985c1c195c8818dbdb9d1c9858dd60621b60648201526084016108c0565b61469885898989613b8b565b60408051868152600160208201526001600160a01b038a169160009133917fc3d58168c5ae7397731d063d5bbf3d657854427343f4c083240f7aacaa2d0f62910160405180910390a4612b273360008a88600160405180602001604052806000815250614438565b6001600160a01b038116811461241057600080fd5b6000806040838503121561472857600080fd5b823561473381614700565b946020939093013593505050565b60006020828403121561475357600080fd5b5035919050565b6001600160e01b03198116811461241057600080fd5b60006020828403121561478257600080fd5b81356109ce8161475a565b60005b838110156147a8578181015183820152602001614790565b50506000910152565b600081518084526147c981602086016020860161478d565b601f01601f19169290920160200192915050565b6020815260006109ce60208301846147b1565b6000806040838503121561480357600080fd5b82359150602083013561481581614700565b809150509250929050565b80356001600160401b038116811461483757600080fd5b919050565b6000806040838503121561484f57600080fd5b8235915061118a60208401614820565b60008083601f84011261487157600080fd5b5081356001600160401b0381111561488857600080fd5b6020830191508360208285010111156148a057600080fd5b9250929050565b6000806000806000608086880312156148bf57600080fd5b85356148ca81614700565b945060208601356148da81614700565b93506040860135925060608601356001600160401b038111156148fc57600080fd5b6149088882890161485f565b969995985093965092949392505050565b60006020828403121561492b57600080fd5b81356109ce81614700565b634e487b7160e01b600052604160045260246000fd5b601f8201601f191681016001600160401b038111828210171561497157614971614936565b6040525050565b60006001600160401b0382111561499157614991614936565b50601f01601f191660200190565b600082601f8301126149b057600080fd5b81356149bb81614978565b6040516149c8828261494c565b8281528560208487010111156149dd57600080fd5b82602086016020830137600092810160200192909252509392505050565b803563ffffffff8116811461483757600080fd5b600080600080600080600060e0888a031215614a2a57600080fd5b8735965060208801356001600160401b03811115614a4757600080fd5b614a538a828b0161499f565b9650506040880135614a6481614700565b94506060880135614a7481614700565b9350614a8260808901614820565b9250614a9060a089016149fb565b9150614a9e60c08901614820565b905092959891949750929550565b60008060408385031215614abf57600080fd5b50508035926020909101359150565b60006001600160401b03821115614ae757614ae7614936565b5060051b60200190565b600082601f830112614b0257600080fd5b81356020614b0f82614ace565b604051614b1c828261494c565b83815260059390931b8501820192828101915086841115614b3c57600080fd5b8286015b848110156121695780358352918301918301614b40565b600080600080600060a08688031215614b6f57600080fd5b8535614b7a81614700565b94506020860135614b8a81614700565b935060408601356001600160401b0380821115614ba657600080fd5b614bb289838a01614af1565b94506060880135915080821115614bc857600080fd5b614bd489838a01614af1565b93506080880135915080821115614bea57600080fd5b50614bf78882890161499f565b9150509295509295909350565b60008060008060808587031215614c1a57600080fd5b8435935060208501359250614c31604086016149fb565b9150614c3f60608601614820565b905092959194509250565b803561ffff8116811461483757600080fd5b60008060408385031215614c6f57600080fd5b8235915061118a60208401614c4a565b60008060408385031215614c9257600080fd5b82356001600160401b0380821115614ca957600080fd5b818501915085601f830112614cbd57600080fd5b81356020614cca82614ace565b604051614cd7828261494c565b83815260059390931b8501820192828101915089841115614cf757600080fd5b948201945b83861015614d1e578535614d0f81614700565b82529482019490820190614cfc565b96505086013592505080821115614d3457600080fd5b5061429c85828601614af1565b600081518084526020808501945080840160005b83811015614d7157815187529582019590820190600101614d55565b509495945050505050565b6020815260006109ce6020830184614d41565b600080600060608486031215614da457600080fd5b8335614daf81614700565b92506020840135614dbf81614700565b929592945050506040919091013590565b600080600060608486031215614de557600080fd5b8335925060208401359150614dfc60408501614820565b90509250925092565b600080600060608486031215614e1a57600080fd5b833592506020840135614e2c81614700565b91506040840135614e3c81614700565b809150509250925092565b600080600080600060808688031215614e5f57600080fd5b85356001600160401b03811115614e7557600080fd5b614e818882890161485f565b9096509450506020860135614e9581614700565b9250614ea360408701614c4a565b91506060860135614eb381614700565b809150509295509295909350565b801515811461241057600080fd5b60008060408385031215614ee257600080fd5b8235614eed81614700565b9150602083013561481581614ec1565b60008060008060008060a08789031215614f1657600080fd5b86356001600160401b03811115614f2c57600080fd5b614f3889828a0161485f565b9097509550506020870135614f4c81614700565b9350604087013592506060870135614f6381614700565b9150614f7160808801614c4a565b90509295509295509295565b60008060408385031215614f9057600080fd5b8235915061118a602084016149fb565b60008060008060008060a08789031215614fb957600080fd5b8635955060208701356001600160401b03811115614fd657600080fd5b614fe289828a0161485f565b9096509450506040870135614ff681614700565b9250615004606088016149fb565b9150614f7160808801614820565b6000806000806040858703121561502857600080fd5b84356001600160401b038082111561503f57600080fd5b61504b8883890161485f565b9096509450602087013591508082111561506457600080fd5b506150718782880161485f565b95989497509550505050565b6000806000806080858703121561509357600080fd5b8435935060208501356150a581614700565b92506040850135614c3181614700565b6000806000606084860312156150ca57600080fd5b83359250602084013591506040840135614e3c81614700565b600080604083850312156150f657600080fd5b823561510181614700565b9150602083013561481581614700565b6000806000806060858703121561512757600080fd5b84356001600160401b0381111561513d57600080fd5b6151498782880161485f565b909550935050602085013561515d81614700565b9150604085013561516d81614700565b939692955090935050565b600080600080600060a0868803121561519057600080fd5b853561519b81614700565b945060208601356151ab81614700565b9350604086013592506060860135915060808601356001600160401b038111156151d457600080fd5b614bf78882890161499f565b6000602082840312156151f257600080fd5b81516001600160401b0381111561520857600080fd5b8201601f8101841361521957600080fd5b805161522481614978565b604051615231828261494c565b82815286602084860101111561524657600080fd5b610a8b83602083016020870161478d565b9182526001600160a01b0316602082015260400190565b6000806000806080858703121561528457600080fd5b84356001600160401b0381111561529a57600080fd5b6152a68782880161499f565b94505060208501356152b781614700565b92506152c560408601614c4a565b9150606085013561516d81614700565b6000602082840312156152e757600080fd5b5051919050565b634e487b7160e01b600052601160045260246000fd5b6001600160401b03818116838216019080821115615324576153246152ee565b5092915050565b6020808252818101527f4f776e61626c653a2063616c6c6572206973206e6f7420746865206f776e6572604082015260600190565b600181811c9082168061537457607f821691505b60208210810361539457634e487b7160e01b600052602260045260246000fd5b50919050565b80820281158282048414176108ff576108ff6152ee565b6000826153ce57634e487b7160e01b600052601260045260246000fd5b500490565b60208082526025908201527f455243313135353a207472616e7366657220746f20746865207a65726f206164604082015264647265737360d81b606082015260800190565b634e487b7160e01b600052603260045260246000fd5b6020808252602a908201527f455243313135353a20696e73756666696369656e742062616c616e636520666f60408201526939103a3930b739b332b960b11b606082015260800190565b60006001820161548a5761548a6152ee565b5060010190565b6040815260006154a46040830185614d41565b82810360208401526154b68185614d41565b95945050505050565b6000602082840312156154d157600080fd5b81516109ce81614700565b6000602082840312156154ee57600080fd5b81516109ce81614ec1565b8183823760009101908152919050565b60208082526028908201527f436f6e74726f6c6c61626c653a2043616c6c6572206973206e6f74206120636f604082015267373a3937b63632b960c11b606082015260800190565b81835281816020850137506000828201602090810191909152601f909101601f19169091010190565b60c08152600061558e60c083018a8c615551565b6001600160a01b03898116602085015263ffffffff891660408501526001600160401b03881660608501528616608084015282810360a08401526155d3818587615551565b9b9a5050505050505050505050565b601f821115610a1657600081815260208120601f850160051c810160208610156156095750805b601f850160051c820191505b818110156137e057828155600101615615565b6001600160401b0383111561563f5761563f614936565b6156538361564d8354615360565b836155e2565b6000601f841160018114615687576000851561566f5750838201355b600019600387901b1c1916600186901b1783556113ca565b600083815260209020601f19861690835b828110156156b85786850135825560209485019460019092019101615698565b50868210156156d55760001960f88860031b161c19848701351681555b505060018560011b0183555050505050565b6001600160401b03828116828216039080821115615324576153246152ee565b81516001600160401b0381111561572057615720614936565b6157348161572e8454615360565b846155e2565b602080601f83116001811461576957600084156157515750858301515b600019600386901b1c1916600185901b1785556137e0565b600085815260208120601f198616915b8281101561579857888601518255948401946001909101908401615779565b50858210156157b65787850151600019600388901b60f8161c191681555b5050505050600190811b01905550565b6001600160a01b0386811682528516602082015260a0604082018190526000906157f290830186614d41565b82810360608401526158048186614d41565b9050828103608084015261392281856147b1565b60006020828403121561582a57600080fd5b81516109ce8161475a565b600060033d111561584e5760046000803e5060005160e01c5b90565b600060443d101561585f5790565b6040516003193d81016004833e81513d6001600160401b03816024840111818411171561588e57505050505090565b82850191508151818111156158a65750505050505090565b843d87010160208285010111156158c05750505050505090565b6158cf6020828601018761494c565b509095945050505050565b60208082526028908201527f455243313135353a204552433131353552656365697665722072656a656374656040820152676420746f6b656e7360c01b606082015260800190565b60808152600061593560808301876147b1565b6001600160a01b039590951660208301525063ffffffff9290921660408301526001600160401b0316606090910152919050565b818103818111156108ff576108ff6152ee565b808201808211156108ff576108ff6152ee565b60ff60f81b8460f81b168152600083516159b081600185016020880161478d565b8351908301906159c781600184016020880161478d565b0160010195945050505050565b6001600160a01b03868116825285166020820152604081018490526060810183905260a060808201819052600090615a0e908301846147b1565b97965050505050505056fef92e9539a836c60f519caef3f817b823139813f56a7a19c9621f7b47f35b340da2646970667358221220b91882941824813258d47c8b800be79a67b74c5f43fd638ce9802a05b2d8d6b364736f6c63430008110033",
  "devdoc": {
    "kind": "dev",
    "methods": {
      "allFusesBurned(bytes32,uint32)": {
        "params": {
          "fuseMask": "The fuses you want to check",
          "node": "Namehash of the name"
        },
        "returns": {
          "_0": "Boolean of whether or not all the selected fuses are burned"
        }
      },
      "approve(address,uint256)": {
        "params": {
          "to": "address to approve",
          "tokenId": "name to approve"
        }
      },
      "balanceOf(address,uint256)": {
        "details": "See {IERC1155-balanceOf}. Requirements: - `account` cannot be the zero address."
      },
      "balanceOfBatch(address[],uint256[])": {
        "details": "See {IERC1155-balanceOfBatch}. Requirements: - `accounts` and `ids` must have the same length."
      },
      "canExtendSubnames(bytes32,address)": {
        "params": {
          "addr": "which address to check permissions for",
          "node": "namehash of the name to check"
        },
        "returns": {
          "_0": "whether or not is owner/operator or approved"
        }
      },
      "canModifyName(bytes32,address)": {
        "params": {
          "addr": "which address to check permissions for",
          "node": "namehash of the name to check"
        },
        "returns": {
          "_0": "whether or not is owner or operator"
        }
      },
      "extendExpiry(bytes32,bytes32,uint64)": {
        "params": {
          "expiry": "When the name will expire in seconds since the Unix epoch",
          "labelhash": "Labelhash of the name, e.g. vitalik.xyz would be keccak256('vitalik')",
          "parentNode": "Parent namehash of the name e.g. vitalik.xyz would be namehash('xyz')"
        },
        "returns": {
          "_0": "New expiry"
        }
      },
      "getApproved(uint256)": {
        "params": {
          "id": "Namehash of the name"
        },
        "returns": {
          "operator": "Approved operator of a name"
        }
      },
      "getData(uint256)": {
        "params": {
          "id": "Namehash of the name"
        },
        "returns": {
          "expiry": "Expiry of the name",
          "fuses": "Fuses of the name",
          "owner": "Owner of the name"
        }
      },
      "isApprovedForAll(address,address)": {
        "details": "See {IERC1155-isApprovedForAll}."
      },
      "isWrapped(bytes32)": {
        "params": {
          "node": "Namehash of the name"
        },
        "returns": {
          "_0": "Boolean of whether or not the name is wrapped"
        }
      },
      "isWrapped(bytes32,bytes32)": {
        "params": {
          "labelhash": "Namehash of the name",
          "parentNode": "Namehash of the name"
        },
        "returns": {
          "_0": "Boolean of whether or not the name is wrapped"
        }
      },
      "owner()": {
        "details": "Returns the address of the current owner."
      },
      "ownerOf(uint256)": {
        "params": {
          "id": "Label as a string of the .eth domain to wrap"
        },
        "returns": {
          "owner": "The owner of the name"
        }
      },
      "recoverFunds(address,address,uint256)": {
        "details": "The contract is Ownable and only the owner can call the recover function.",
        "params": {
          "_amount": "The amount of tokens to recover.",
          "_to": "The address to send the tokens to.",
          "_token": "The address of the ERC20 token to recover"
        }
      },
      "registerAndWrapETH2LD(string,address,uint256,address,uint16)": {
        "details": "Registers a new .eth second-level domain and wraps it.      Only callable by authorised controllers.",
        "params": {
          "duration": "The duration, in seconds, to register the name for.",
          "label": "The label to register (Eg, 'foo' for 'foo.eth').",
          "ownerControlledFuses": "Initial owner-controlled fuses to set",
          "resolver": "The resolver address to set on the ENS registry (optional).",
          "wrappedOwner": "The owner of the wrapped name."
        },
        "returns": {
          "registrarExpiry": "The expiry date of the new name on the .eth registrar, in seconds since the Unix epoch."
        }
      },
      "renew(uint256,uint256)": {
        "details": "Only callable by authorised controllers.",
        "params": {
          "duration": "The number of seconds to renew the name for.",
          "tokenId": "The hash of the label to register (eg, `keccak256('foo')`, for 'foo.eth')."
        },
        "returns": {
          "expires": "The expiry date of the name on the .eth registrar, in seconds since the Unix epoch."
        }
      },
      "renounceOwnership()": {
        "details": "Leaves the contract without owner. It will not be possible to call `onlyOwner` functions anymore. Can only be called by the current owner. NOTE: Renouncing ownership will leave the contract without an owner, thereby removing any functionality that is only available to the owner."
      },
      "royaltyInfo(uint256,uint256)": {
        "params": {
          "salePrice": "The sale price of the NFT"
        },
        "returns": {
          "receiver": "Address to receive royalty",
          "royaltyAmount": "The royalty amount (5% of sale price)"
        }
      },
      "safeBatchTransferFrom(address,address,uint256[],uint256[],bytes)": {
        "details": "See {IERC1155-safeBatchTransferFrom}."
      },
      "safeTransferFrom(address,address,uint256,uint256,bytes)": {
        "details": "See {IERC1155-safeTransferFrom}."
      },
      "setApprovalForAll(address,bool)": {
        "details": "See {IERC1155-setApprovalForAll}."
      },
      "setChildFuses(bytes32,bytes32,uint32,uint64)": {
        "params": {
          "expiry": "When the name will expire in seconds since the Unix epoch",
          "fuses": "Fuses to burn",
          "labelhash": "Labelhash of the name, e.g. vitalik.xyz would be keccak256('vitalik')",
          "parentNode": "Parent namehash of the name e.g. vitalik.xyz would be namehash('xyz')"
        }
      },
      "setFuses(bytes32,uint16)": {
        "params": {
          "node": "Namehash of the name",
          "ownerControlledFuses": "Owner-controlled fuses to burn"
        },
        "returns": {
          "_0": "Old fuses"
        }
      },
      "setMetadataService(address)": {
        "params": {
          "_metadataService": "The new metadata service"
        }
      },
      "setRecord(bytes32,address,address,uint64)": {
        "params": {
          "node": "Namehash of the name to set a record for",
          "owner": "New owner in the registry",
          "resolver": "Resolver contract",
          "ttl": "Time to live in the registry"
        }
      },
      "setResolver(bytes32,address)": {
        "params": {
          "node": "namehash of the name",
          "resolver": "the resolver contract"
        }
      },
      "setRoyaltyReceiver(address)": {
        "params": {
          "_newReceiver": "New address to receive royalties"
        }
      },
      "setSubnodeOwner(bytes32,string,address,uint32,uint64)": {
        "params": {
          "expiry": "When the name will expire in seconds since the Unix epoch",
          "fuses": "Initial fuses for the wrapped subdomain",
          "label": "Label of the subdomain as a string",
          "owner": "New owner in the wrapper",
          "parentNode": "Parent namehash of the subdomain"
        },
        "returns": {
          "node": "Namehash of the subdomain"
        }
      },
      "setSubnodeRecord(bytes32,string,address,address,uint64,uint32,uint64)": {
        "params": {
          "expiry": "When the name will expire in seconds since the Unix epoch",
          "fuses": "initial fuses for the wrapped subdomain",
          "label": "label of the subdomain as a string",
          "owner": "new owner in the wrapper",
          "parentNode": "parent namehash of the subdomain",
          "resolver": "resolver contract in the registry",
          "ttl": "ttl in the registry"
        },
        "returns": {
          "node": "Namehash of the subdomain"
        }
      },
      "setTTL(bytes32,uint64)": {
        "params": {
          "node": "Namehash of the name",
          "ttl": "TTL in the registry"
        }
      },
      "setUpgradeContract(address)": {
        "details": "The default value of upgradeContract is the 0 address. Use the 0 address at any time to make the contract not upgradable.",
        "params": {
          "_upgradeAddress": "address of an upgraded contract"
        }
      },
      "transferOwnership(address)": {
        "details": "Transfers ownership of the contract to a new account (`newOwner`). Can only be called by the current owner."
      },
      "unwrap(bytes32,bytes32,address)": {
        "details": "Can be called by the owner in the wrapper or an authorised caller in the wrapper",
        "params": {
          "controller": "Sets the owner in the registry to this address",
          "labelhash": "Labelhash of the name, e.g. vitalik.xyz would be keccak256('vitalik')",
          "parentNode": "Parent namehash of the name e.g. vitalik.xyz would be namehash('xyz')"
        }
      },
      "unwrapETH2LD(bytes32,address,address)": {
        "details": "Can be called by the owner in the wrapper or an authorised caller in the wrapper",
        "params": {
          "controller": "Sets the owner in the registry to this address",
          "labelhash": "Labelhash of the .eth domain",
          "registrant": "Sets the owner in the .eth registrar to this address"
        }
      },
      "upgrade(bytes,bytes)": {
        "details": "Can be called by the owner or an authorised caller",
        "params": {
          "extraData": "Extra data to pass to the upgrade contract",
          "name": "The name to upgrade, in DNS format"
        }
      },
      "uri(uint256)": {
        "params": {
          "tokenId": "The id of the token"
        },
        "returns": {
          "_0": "string uri of the metadata service"
        }
      },
      "wrap(bytes,address,address)": {
        "details": "Can be called by the owner in the registry or an authorised caller in the registry",
        "params": {
          "name": "The name to wrap, in DNS format",
          "resolver": "Resolver contract",
          "wrappedOwner": "Owner of the name in this contract"
        }
      },
      "wrapETH2LD(string,address,uint16,address)": {
        "details": "Can be called by the owner of the name on the .eth registrar or an authorised caller on the registrar",
        "params": {
          "label": "Label as a string of the .eth domain to wrap",
          "ownerControlledFuses": "Initial owner-controlled fuses to set",
          "resolver": "Resolver contract address",
          "wrappedOwner": "Owner of the name in this contract"
        }
      }
    },
    "version": 1
  },
  "userdoc": {
    "kind": "user",
    "methods": {
      "allFusesBurned(bytes32,uint32)": {
        "notice": "Checks all Fuses in the mask are burned for the node"
      },
      "approve(address,uint256)": {
        "notice": "Approves an address for a name"
      },
      "canExtendSubnames(bytes32,address)": {
        "notice": "Checks if owner/operator or approved by owner"
      },
      "canModifyName(bytes32,address)": {
        "notice": "Checks if owner or operator of the owner"
      },
      "extendExpiry(bytes32,bytes32,uint64)": {
        "notice": "Extends expiry for a name"
      },
      "getApproved(uint256)": {
        "notice": "Gets the owner of a name"
      },
      "getData(uint256)": {
        "notice": "Gets the data for a name"
      },
      "isWrapped(bytes32)": {
        "notice": "Checks if a name is wrapped"
      },
      "isWrapped(bytes32,bytes32)": {
        "notice": "Checks if a name is wrapped in a more gas efficient way"
      },
      "ownerOf(uint256)": {
        "notice": "Gets the owner of a name"
      },
      "recoverFunds(address,address,uint256)": {
        "notice": "Recover ERC20 tokens sent to the contract by mistake."
      },
      "renew(uint256,uint256)": {
        "notice": "Renews a .eth second-level domain."
      },
      "royaltyInfo(uint256,uint256)": {
        "notice": "Returns royalty info for a given token and sale price"
      },
      "setChildFuses(bytes32,bytes32,uint32,uint64)": {
        "notice": "Sets fuses of a name that you own the parent of"
      },
      "setFuses(bytes32,uint16)": {
        "notice": "Sets fuses of a name"
      },
      "setMetadataService(address)": {
        "notice": "Set the metadata service. Only the owner can do this"
      },
      "setRecord(bytes32,address,address,uint64)": {
        "notice": "Sets records for the name in the ENS Registry"
      },
      "setResolver(bytes32,address)": {
        "notice": "Sets resolver contract in the registry"
      },
      "setRoyaltyReceiver(address)": {
        "notice": "Update the royalty receiver address"
      },
      "setSubnodeOwner(bytes32,string,address,uint32,uint64)": {
        "notice": "Sets the subdomain owner in the registry and then wraps the subdomain"
      },
      "setSubnodeRecord(bytes32,string,address,address,uint64,uint32,uint64)": {
        "notice": "Sets the subdomain owner in the registry with records and then wraps the subdomain"
      },
      "setTTL(bytes32,uint64)": {
        "notice": "Sets TTL in the registry"
      },
      "setUpgradeContract(address)": {
        "notice": "Set the address of the upgradeContract of the contract. only admin can do this"
      },
      "unwrap(bytes32,bytes32,address)": {
        "notice": "Unwraps a non .eth domain, of any kind. Could be a DNSSEC name vitalik.xyz or a subdomain"
      },
      "unwrapETH2LD(bytes32,address,address)": {
        "notice": "Unwraps a .eth domain. e.g. vitalik.eth"
      },
      "upgrade(bytes,bytes)": {
        "notice": "Upgrades a domain of any kind. Could be a .eth name vitalik.eth, a DNSSEC name vitalik.xyz, or a subdomain"
      },
      "uri(uint256)": {
        "notice": "Get the metadata uri"
      },
      "wrap(bytes,address,address)": {
        "notice": "Wraps a non .eth domain, of any kind. Could be a DNSSEC name vitalik.xyz or a subdomain"
      },
      "wrapETH2LD(string,address,uint16,address)": {
        "notice": "Wraps a .eth domain, creating a new token and sending the original ERC721 token to this contract"
      }
    },
    "version": 1
  },
  "storageLayout": {
    "storage": [
      {
        "astId": 491,
        "contract": "contracts/wrapper/NameWrapper.sol:NameWrapper",
        "label": "_owner",
        "offset": 0,
        "slot": "0",
        "type": "t_address"
      },
      {
        "astId": 32491,
        "contract": "contracts/wrapper/NameWrapper.sol:NameWrapper",
        "label": "_tokens",
        "offset": 0,
        "slot": "1",
        "type": "t_mapping(t_uint256,t_uint256)"
      },
      {
        "astId": 32497,
        "contract": "contracts/wrapper/NameWrapper.sol:NameWrapper",
        "label": "_operatorApprovals",
        "offset": 0,
        "slot": "2",
        "type": "t_mapping(t_address,t_mapping(t_address,t_bool))"
      },
      {
        "astId": 32501,
        "contract": "contracts/wrapper/NameWrapper.sol:NameWrapper",
        "label": "_tokenApprovals",
        "offset": 0,
        "slot": "3",
        "type": "t_mapping(t_uint256,t_address)"
      },
      {
        "astId": 32422,
        "contract": "contracts/wrapper/NameWrapper.sol:NameWrapper",
        "label": "controllers",
        "offset": 0,
        "slot": "4",
        "type": "t_mapping(t_address,t_bool)"
      },
      {
        "astId": 33969,
        "contract": "contracts/wrapper/NameWrapper.sol:NameWrapper",
        "label": "metadataService",
        "offset": 0,
        "slot": "5",
        "type": "t_contract(IMetadataService)33465"
      },
      {
        "astId": 33973,
        "contract": "contracts/wrapper/NameWrapper.sol:NameWrapper",
        "label": "names",
        "offset": 0,
        "slot": "6",
        "type": "t_mapping(t_bytes32,t_bytes_storage)"
      },
      {
        "astId": 33991,
        "contract": "contracts/wrapper/NameWrapper.sol:NameWrapper",
        "label": "upgradeContract",
        "offset": 0,
        "slot": "7",
        "type": "t_contract(INameWrapperUpgrade)33857"
      },
      {
        "astId": 34006,
        "contract": "contracts/wrapper/NameWrapper.sol:NameWrapper",
        "label": "royaltyReceiver",
        "offset": 0,
        "slot": "8",
        "type": "t_address"
      }
    ],
    "types": {
      "t_address": {
        "encoding": "inplace",
        "label": "address",
        "numberOfBytes": "20"
      },
      "t_bool": {
        "encoding": "inplace",
        "label": "bool",
        "numberOfBytes": "1"
      },
      "t_bytes32": {
        "encoding": "inplace",
        "label": "bytes32",
        "numberOfBytes": "32"
      },
      "t_bytes_storage": {
        "encoding": "bytes",
        "label": "bytes",
        "numberOfBytes": "32"
      },
      "t_contract(IMetadataService)33465": {
        "encoding": "inplace",
        "label": "contract IMetadataService",
        "numberOfBytes": "20"
      },
      "t_contract(INameWrapperUpgrade)33857": {
        "encoding": "inplace",
        "label": "contract INameWrapperUpgrade",
        "numberOfBytes": "20"
      },
      "t_mapping(t_address,t_bool)": {
        "encoding": "mapping",
        "key": "t_address",
        "label": "mapping(address => bool)",
        "numberOfBytes": "32",
        "value": "t_bool"
      },
      "t_mapping(t_address,t_mapping(t_address,t_bool))": {
        "encoding": "mapping",
        "key": "t_address",
        "label": "mapping(address => mapping(address => bool))",
        "numberOfBytes": "32",
        "value": "t_mapping(t_address,t_bool)"
      },
      "t_mapping(t_bytes32,t_bytes_storage)": {
        "encoding": "mapping",
        "key": "t_bytes32",
        "label": "mapping(bytes32 => bytes)",
        "numberOfBytes": "32",
        "value": "t_bytes_storage"
      },
      "t_mapping(t_uint256,t_address)": {
        "encoding": "mapping",
        "key": "t_uint256",
        "label": "mapping(uint256 => address)",
        "numberOfBytes": "32",
        "value": "t_address"
      },
      "t_mapping(t_uint256,t_uint256)": {
        "encoding": "mapping",
        "key": "t_uint256",
        "label": "mapping(uint256 => uint256)",
        "numberOfBytes": "32",
        "value": "t_uint256"
      },
      "t_uint256": {
        "encoding": "inplace",
        "label": "uint256",
        "numberOfBytes": "32"
      }
    }
  }
}