{
  "address": "0x13373Bb591f98661c96D2A0fb4F9B8481b57669D",
  "abi": [
    {
      "anonymous": false,
      "inputs": [
        {
          "indexed": true,
          "internalType": "bytes32",
          "name": "node",
          "type": "bytes32"
        },
        {
          "indexed": true,
          "internalType": "uint256",
          "name": "contentType",
          "type": "uint256"
        }
      ],
      "name": "ABIChanged",
      "type": "event"
    },
    {
      "anonymous": false,
      "inputs": [
        {
          "indexed": true,
          "internalType": "bytes32",
          "name": "node",
          "type": "bytes32"
        },
        {
          "indexed": false,
          "internalType": "address",
          "name": "a",
          "type": "address"
        }
      ],
      "name": "AddrChanged",
      "type": "event"
    },
    {
      "anonymous": false,
      "inputs": [
        {
          "indexed": true,
          "internalType": "bytes32",
          "name": "node",
          "type": "bytes32"
        },
        {
          "indexed": false,
          "internalType": "uint256",
          "name": "coinType",
          "type": "uint256"
        },
        {
          "indexed": false,
          "internalType": "bytes",
          "name": "newAddress",
          "type": "bytes"
        }
      ],
      "name": "AddressChanged",
      "type": "event"
    },
    {
      "anonymous": false,
      "inputs": [
        {
          "indexed": true,
          "internalType": "bytes32",
          "name": "node",
          "type": "bytes32"
        },
        {
          "indexed": false,
          "internalType": "bytes",
          "name": "hash",
          "type": "bytes"
        }
      ],
      "name": "ContenthashChanged",
      "type": "event"
    },
    {
      "anonymous": false,
      "inputs": [
        {
          "indexed": true,
          "internalType": "bytes32",
          "name": "node",
          "type": "bytes32"
        },
        {
          "indexed": false,
          "internalType": "bytes",
          "name": "name",
          "type": "bytes"
        },
        {
          "indexed": false,
          "internalType": "uint16",
          "name": "resource",
          "type": "uint16"
        },
        {
          "indexed": false,
          "internalType": "bytes",
          "name": "record",
          "type": "bytes"
        }
      ],
      "name": "DNSRecordChanged",
      "type": "event"
    },
    {
      "anonymous": false,
      "inputs": [
        {
          "indexed": true,
          "internalType": "bytes32",
          "name": "node",
          "type": "bytes32"
        },
        {
          "indexed": false,
          "internalType": "bytes",
          "name": "name",
          "type": "bytes"
        },
        {
          "indexed": false,
          "internalType": "uint16",
          "name": "resource",
          "type": "uint16"
        }
      ],
      "name": "DNSRecordDeleted",
      "type": "event"
    },
    {
      "anonymous": false,
      "inputs": [
        {
          "indexed": true,
          "internalType": "bytes32",
          "name": "node",
          "type": "bytes32"
        },
        {
          "indexed": false,
          "internalType": "bytes",
          "name": "lastzonehash",
          "type": "bytes"
        },
        {
          "indexed": false,
          "internalType": "bytes",
          "name": "zonehash",
          "type": "bytes"
        }
      ],
      "name": "DNSZonehashChanged",
      "type": "event"
    },
    {
      "anonymous": false,
      "inputs": [
        {
          "indexed": true,
          "internalType": "bytes32",
          "name": "node",
          "type": "bytes32"
        },
        {
          "indexed": true,
          "internalType": "bytes4",
          "name": "interfaceID",
          "type": "bytes4"
        },
        {
          "indexed": false,
          "internalType": "address",
          "name": "implementer",
          "type": "address"
        }
      ],
      "name": "InterfaceChanged",
      "type": "event"
    },
    {
      "anonymous": false,
      "inputs": [
        {
          "indexed": true,
          "internalType": "bytes32",
          "name": "node",
          "type": "bytes32"
        },
        {
          "indexed": false,
          "internalType": "string",
          "name": "name",
          "type": "string"
        }
      ],
      "name": "NameChanged",
      "type": "event"
    },
    {
      "anonymous": false,
      "inputs": [
        {
          "indexed": true,
          "internalType": "address",
          "name": "previousOwner",
          "type": "address"
        },
        {
          "indexed": true,
          "internalType": "address",
          "name": "newOwner",
          "type": "address"
        }
      ],
      "name": "OwnershipTransferred",
      "type": "event"
    },
    {
      "anonymous": false,
      "inputs": [
        {
          "indexed": true,
          "internalType": "bytes32",
          "name": "node",
          "type": "bytes32"
        },
        {
          "indexed": false,
          "internalType": "bytes32",
          "name": "x",
          "type": "bytes32"
        },
        {
          "indexed": false,
          "internalType": "bytes32",
          "name": "y",
          "type": "bytes32"
        }
      ],
      "name": "PubkeyChanged",
      "type": "event"
    },
    {
      "anonymous": false,
      "inputs": [
        {
          "indexed": true,
          "internalType": "bytes32",
          "name": "node",
          "type": "bytes32"
        },
        {
          "indexed": true,
          "internalType": "string",
          "name": "indexedKey",
          "type": "string"
        },
        {
          "indexed": false,
          "internalType": "string",
          "name": "key",
          "type": "string"
        },
        {
          "indexed": false,
          "internalType": "string",
          "name": "value",
          "type": "string"
        }
      ],
      "name": "TextChanged",
      "type": "event"
    },
    {
      "anonymous": false,
      "inputs": [
        {
          "indexed": true,
          "internalType": "bytes32",
          "name": "node",
          "type": "bytes32"
        },
        {
          "indexed": false,
          "internalType": "uint64",
          "name": "newVersion",
          "type": "uint64"
        }
      ],
      "name": "VersionChanged",
      "type": "event"
    },
    {
      "inputs": [
        {
          "internalType": "bytes32",
          "name": "node",
          "type": "bytes32"
        },
        {
          "internalType": "uint256",
          "name": "contentTypes",
          "type": "uint256"
        }
      ],
      "name": "ABI",
      "outputs": [
        {
          "internalType": "uint256",
          "name": "",
          "type": "uint256"
        },
        {
          "internalType": "bytes",
          "name": "",
          "type": "bytes"
        }
      ],
      "stateMutability": "view",
      "type": "function"
    },
    {
      "inputs": [
        {
          "internalType": "bytes32",
          "name": "node",
          "type": "bytes32"
        }
      ],
      "name": "addr",
      "outputs": [
        {
          "internalType": "address payable",
          "name": "",
          "type": "address"
        }
      ],
      "stateMutability": "view",
      "type": "function"
    },
    {
      "inputs": [
        {
          "internalType": "bytes32",
          "name": "node",
          "type": "bytes32"
        },
        {
          "internalType": "uint256",
          "name": "coinType",
          "type": "uint256"
        }
      ],
      "name": "addr",
      "outputs": [
        {
          "internalType": "bytes",
          "name": "",
          "type": "bytes"
        }
      ],
      "stateMutability": "view",
      "type": "function"
    },
    {
      "inputs": [
        {
          "internalType": "bytes32",
          "name": "node",
          "type": "bytes32"
        }
      ],
      "name": "clearRecords",
      "outputs": [],
      "stateMutability": "nonpayable",
      "type": "function"
    },
    {
      "inputs": [
        {
          "internalType": "bytes32",
          "name": "node",
          "type": "bytes32"
        }
      ],
      "name": "contenthash",
      "outputs": [
        {
          "internalType": "bytes",
          "name": "",
          "type": "bytes"
        }
      ],
      "stateMutability": "view",
      "type": "function"
    },
    {
      "inputs": [
        {
          "internalType": "bytes32",
          "name": "node",
          "type": "bytes32"
        },
        {
          "internalType": "bytes32",
          "name": "name",
          "type": "bytes32"
        },
        {
          "internalType": "uint16",
          "name": "resource",
          "type": "uint16"
        }
      ],
      "name": "dnsRecord",
      "outputs": [
        {
          "internalType": "bytes",
          "name": "",
          "type": "bytes"
        }
      ],
      "stateMutability": "view",
      "type": "function"
    },
    {
      "inputs": [
        {
          "internalType": "bytes32",
          "name": "node",
          "type": "bytes32"
        },
        {
          "internalType": "bytes32",
          "name": "name",
          "type": "bytes32"
        }
      ],
      "name": "hasDNSRecords",
      "outputs": [
        {
          "internalType": "bool",
          "name": "",
          "type": "bool"
        }
      ],
      "stateMutability": "view",
      "type": "function"
    },
    {
      "inputs": [
        {
          "internalType": "bytes32",
          "name": "node",
          "type": "bytes32"
        },
        {
          "internalType": "bytes4",
          "name": "interfaceID",
          "type": "bytes4"
        }
      ],
      "name": "interfaceImplementer",
      "outputs": [
        {
          "internalType": "address",
          "name": "",
          "type": "address"
        }
      ],
      "stateMutability": "view",
      "type": "function"
    },
    {
      "inputs": [
        {
          "internalType": "bytes32",
          "name": "node",
          "type": "bytes32"
        }
      ],
      "name": "name",
      "outputs": [
        {
          "internalType": "string",
          "name": "",
          "type": "string"
        }
      ],
      "stateMutability": "view",
      "type": "function"
    },
    {
      "inputs": [],
      "name": "owner",
      "outputs": [
        {
          "internalType": "address",
          "name": "",
          "type": "address"
        }
      ],
      "stateMutability": "view",
      "type": "function"
    },
    {
      "inputs": [
        {
          "internalType": "bytes32",
          "name": "node",
          "type": "bytes32"
        }
      ],
      "name": "pubkey",
      "outputs": [
        {
          "internalType": "bytes32",
          "name": "x",
          "type": "bytes32"
        },
        {
          "internalType": "bytes32",
          "name": "y",
          "type": "bytes32"
        }
      ],
      "stateMutability": "view",
      "type": "function"
    },
    {
      "inputs": [
        {
          "internalType": "bytes32",
          "name": "",
          "type": "bytes32"
        }
      ],
      "name": "recordVersions",
      "outputs": [
        {
          "internalType": "uint64",
          "name": "",
          "type": "uint64"
        }
      ],
      "stateMutability": "view",
      "type": "function"
    },
    {
      "inputs": [],
      "name": "renounceOwnership",
      "outputs": [],
      "stateMutability": "nonpayable",
      "type": "function"
    },
    {
      "inputs": [
        {
          "internalType": "bytes",
          "name": "",
          "type": "bytes"
        },
        {
          "internalType": "bytes",
          "name": "data",
          "type": "bytes"
        }
      ],
      "name": "resolve",
      "outputs": [
        {
          "internalType": "bytes",
          "name": "",
          "type": "bytes"
        }
      ],
      "stateMutability": "view",
      "type": "function"
    },
    {
      "inputs": [
        {
          "internalType": "bytes32",
          "name": "node",
          "type": "bytes32"
        },
        {
          "internalType": "uint256",
          "name": "contentType",
          "type": "uint256"
        },
        {
          "internalType": "bytes",
          "name": "data",
          "type": "bytes"
        }
      ],
      "name": "setABI",
      "outputs": [],
      "stateMutability": "nonpayable",
      "type": "function"
    },
    {
      "inputs": [
        {
          "internalType": "bytes32",
          "name": "node",
          "type": "bytes32"
        },
        {
          "internalType": "uint256",
          "name": "coinType",
          "type": "uint256"
        },
        {
          "internalType": "bytes",
          "name": "a",
          "type": "bytes"
        }
      ],
      "name": "setAddr",
      "outputs": [],
      "stateMutability": "nonpayable",
      "type": "function"
    },
    {
      "inputs": [
        {
          "internalType": "bytes32",
          "name": "node",
          "type": "bytes32"
        },
        {
          "internalType": "address",
          "name": "a",
          "type": "address"
        }
      ],
      "name": "setAddr",
      "outputs": [],
      "stateMutability": "nonpayable",
      "type": "function"
    },
    {
      "inputs": [
        {
          "internalType": "bytes32",
          "name": "node",
          "type": "bytes32"
        },
        {
          "internalType": "bytes",
          "name": "hash",
          "type": "bytes"
        }
      ],
      "name": "setContenthash",
      "outputs": [],
      "stateMutability": "nonpayable",
      "type": "function"
    },
    {
      "inputs": [
        {
          "internalType": "bytes32",
          "name": "node",
          "type": "bytes32"
        },
        {
          "internalType": "bytes",
          "name": "data",
          "type": "bytes"
        }
      ],
      "name": "setDNSRecords",
      "outputs": [],
      "stateMutability": "nonpayable",
      "type": "function"
    },
    {
      "inputs": [
        {
          "internalType": "bytes32",
          "name": "node",
          "type": "bytes32"
        },
        {
          "internalType": "bytes4",
          "name": "interfaceID",
          "type": "bytes4"
        },
        {
          "internalType": "address",
          "name": "implementer",
          "type": "address"
        }
      ],
      "name": "setInterface",
      "outputs": [],
      "stateMutability": "nonpayable",
      "type": "function"
    },
    {
      "inputs": [
        {
          "internalType": "bytes32",
          "name": "node",
          "type": "bytes32"
        },
        {
          "internalType": "string",
          "name": "newName",
          "type": "string"
        }
      ],
      "name": "setName",
      "outputs": [],
      "stateMutability": "nonpayable",
      "type": "function"
    },
    {
      "inputs": [
        {
          "internalType": "bytes32",
          "name": "node",
          "type": "bytes32"
        },
        {
          "internalType": "bytes32",
          "name": "x",
          "type": "bytes32"
        },
        {
          "internalType": "bytes32",
          "name": "y",
          "type": "bytes32"
        }
      ],
      "name": "setPubkey",
      "outputs": [],
      "stateMutability": "nonpayable",
      "type": "function"
    },
    {
      "inputs": [
        {
          "internalType": "bytes32",
          "name": "node",
          "type": "bytes32"
        },
        {
          "internalType": "string",
          "name": "key",
          "type": "string"
        },
        {
          "internalType": "string",
          "name": "value",
          "type": "string"
        }
      ],
      "name": "setText",
      "outputs": [],
      "stateMutability": "nonpayable",
      "type": "function"
    },
    {
      "inputs": [
        {
          "internalType": "bytes32",
          "name": "node",
          "type": "bytes32"
        },
        {
          "internalType": "bytes",
          "name": "hash",
          "type": "bytes"
        }
      ],
      "name": "setZonehash",
      "outputs": [],
      "stateMutability": "nonpayable",
      "type": "function"
    },
    {
      "inputs": [
        {
          "internalType": "bytes4",
          "name": "interfaceID",
          "type": "bytes4"
        }
      ],
      "name": "supportsInterface",
      "outputs": [
        {
          "internalType": "bool",
          "name": "",
          "type": "bool"
        }
      ],
      "stateMutability": "view",
      "type": "function"
    },
    {
      "inputs": [
        {
          "internalType": "bytes32",
          "name": "node",
          "type": "bytes32"
        },
        {
          "internalType": "string",
          "name": "key",
          "type": "string"
        }
      ],
      "name": "text",
      "outputs": [
        {
          "internalType": "string",
          "name": "",
          "type": "string"
        }
      ],
      "stateMutability": "view",
      "type": "function"
    },
    {
      "inputs": [
        {
          "internalType": "address",
          "name": "newOwner",
          "type": "address"
        }
      ],
      "name": "transferOwnership",
      "outputs": [],
      "stateMutability": "nonpayable",
      "type": "function"
    },
    {
      "inputs": [
        {
          "internalType": "bytes32",
          "name": "node",
          "type": "bytes32"
        }
      ],
      "name": "zonehash",
      "outputs": [
        {
          "internalType": "bytes",
          "name": "",
          "type": "bytes"
        }
      ],
      "stateMutability": "view",
      "type": "function"
    }
  ],
  "transactionHash": "0x6b8fbadbc1c07df70c7fbde0a8650de6da599ab529eaf51914f349646e1685ac",
  "args": [],
  "numDeployments": 2,
  "solcInputHash": "9eea083b7a59f5eb8a0619c17abebf76",
  "bytecode": "0x608060405234801561001057600080fd5b50600080546001600160a01b031916339081178255604051909182917f8be0079c531659141344cd1fd0a4f28419497f9722a3daafe3b4186f6b6457e0908290a3506127e4806100616000396000f3fe608060405234801561001057600080fd5b50600436106101c45760003560e01c8063715018a6116100f9578063c869023311610097578063d700ff3311610071578063d700ff331461044e578063e59d895d1461048f578063f1cb7e06146104a2578063f2fde38b146104b557600080fd5b8063c8690233146103cf578063ce3decdc14610428578063d5fa2b001461043b57600080fd5b80638da5cb5b116100d35780638da5cb5b146103855780639061b92314610396578063a8fa5682146103a9578063bc1c58d1146103bc57600080fd5b8063715018a614610357578063773722131461035f5780638b95dd711461037257600080fd5b80633603d7581161016657806359d1d43c1161014057806359d1d43c146102fe5780635c98042b1461031e578063623195b014610331578063691f34311461034457600080fd5b80633603d7581461028b5780633b3b57de1461029e5780634cbf6ba4146102b157600080fd5b8063124a319c116101a2578063124a319c146102195780632203ab561461024457806329cd62ea14610265578063304e6ade1461027857600080fd5b806301ffc9a7146101c95780630af179d7146101f157806310f13a8c14610206575b600080fd5b6101dc6101d7366004611f1f565b6104c8565b60405190151581526020015b60405180910390f35b6102046101ff366004611f7b565b6104d9565b005b610204610214366004611fc6565b6106ea565b61022c61022736600461203f565b6107be565b6040516001600160a01b0390911681526020016101e8565b61025761025236600461206b565b610a11565b6040516101e89291906120dd565b6102046102733660046120f6565b610b48565b610204610286366004611f7b565b610bef565b610204610299366004612122565b610c72565b61022c6102ac366004612122565b610d1b565b6101dc6102bf36600461206b565b6000828152600160209081526040808320546001600160401b031683526007825280832094835293815283822092825291909152205461ffff16151590565b61031161030c366004611f7b565b610d4e565b6040516101e8919061213b565b61031161032c366004612122565b610e2f565b61020461033f36600461214e565b610eef565b610311610352366004612122565b610f93565b610204610fce565b61020461036d366004611f7b565b611077565b610204610380366004612242565b6110fa565b6000546001600160a01b031661022c565b6103116103a4366004612291565b6111e2565b6103116103b73660046122f4565b61125b565b6103116103ca366004612122565b6112aa565b6104136103dd366004612122565b6000818152600160208181526040808420546001600160401b03168452600a825280842094845293905291902080549101549091565b604080519283526020830191909152016101e8565b610204610436366004611f7b565b6112e5565b61020461044936600461234b565b61142e565b61047761045c366004612122565b6001602052600090815260409020546001600160401b031681565b6040516001600160401b0390911681526020016101e8565b61020461049d36600461236e565b61145c565b6103116104b036600461206b565b61150a565b6102046104c33660046123aa565b6115d3565b60006104d3826116ed565b92915050565b60005483906001600160a01b031633146104f257600080fd5b6000848152600160209081526040808320548151601f87018490048402810184019092528582528392606092839285926001600160401b039091169183916105599183918d908d908190840183828082843760009201919091525092939250506117129050565b90505b80515160208201511015610683578661ffff166000036105c1578060400151965061058681611773565b94508460405160200161059991906123c5565b6040516020818303038152906040528051906020012092506105ba81611794565b9350610675565b60006105cc82611773565b9050816040015161ffff168861ffff161415806105f057506105ee86826117b0565b155b156106735761064c8c878a8e8e8080601f016020809104026020016040519081016040528093929190818152602001838380828437600092019190915250505060208801518d91506106439082906123f7565b8b51158a6117ce565b81604001519750816020015196508095508580519060200120935061067082611794565b94505b505b61067e81611a35565b61055c565b508351156106de576106de8a85888c8c8080601f0160208091040260200160405190810160405280939291908181526020018383808284376000920191909152508c92506106d591508290508f6123f7565b895115886117ce565b50505050505050505050565b60005485906001600160a01b0316331461070357600080fd5b6000868152600160209081526040808320546001600160401b03168352600b825280832089845290915290819020905184918491610744908990899061240a565b9081526020016040518091039020918261075f9291906124a2565b50848460405161077092919061240a565b6040518091039020867f448bc014f1536726cf8d54ff3d6481ed3cbc683c2591ca204274009afa09b1a1878787876040516107ae949392919061258a565b60405180910390a3505050505050565b6000828152600160209081526040808320546001600160401b031683526008825280832085845282528083206001600160e01b0319851684529091528120546001600160a01b031680156108135790506104d3565b600061081e85610d1b565b90506001600160a01b038116610839576000925050506104d3565b6040516301ffc9a760e01b602482015260009081906001600160a01b0384169060440160408051601f198184030181529181526020820180516001600160e01b03166301ffc9a760e01b1790525161089191906123c5565b600060405180830381855afa9150503d80600081146108cc576040519150601f19603f3d011682016040523d82523d6000602084013e6108d1565b606091505b50915091508115806108e4575060208151105b8061090e575080601f815181106108fd576108fd6125bc565b01602001516001600160f81b031916155b156109205760009450505050506104d3565b6040516001600160e01b0319871660248201526001600160a01b0384169060440160408051601f198184030181529181526020820180516001600160e01b03166301ffc9a760e01b1790525161097691906123c5565b600060405180830381855afa9150503d80600081146109b1576040519150601f19603f3d011682016040523d82523d6000602084013e6109b6565b606091505b5090925090508115806109ca575060208151105b806109f4575080601f815181106109e3576109e36125bc565b01602001516001600160f81b031916155b15610a065760009450505050506104d3565b509095945050505050565b6000828152600160208181526040808420546001600160401b031684526002825280842086855290915282206060915b848111610b285780851615801590610a71575060008181526020839052604081208054610a6d9061241a565b9050115b15610b205780826000838152602001908152602001600020808054610a959061241a565b80601f0160208091040260200160405190810160405280929190818152602001828054610ac19061241a565b8015610b0e5780601f10610ae357610100808354040283529160200191610b0e565b820191906000526020600020905b815481529060010190602001808311610af157829003601f168201915b50505050509050935093505050610b41565b60011b610a41565b5060006040518060200160405280600081525092509250505b9250929050565b60005483906001600160a01b03163314610b6157600080fd5b604080518082018252848152602080820185815260008881526001808452858220546001600160401b03168252600a84528582208a835290935284902092518355519101555184907f1d6f5e03d3f63eb58751986629a5439baee5079ff04f345becb66e23eb154e4690610be19086908690918252602082015260400190565b60405180910390a250505050565b60005483906001600160a01b03163314610c0857600080fd5b6000848152600160209081526040808320546001600160401b03168352600482528083208784529091529020610c3f8385836124a2565b50837fe379c1624ed7e714cc0937528a32359d69d5281337765313dba4e081b72d75788484604051610be19291906125d2565b60005481906001600160a01b03163314610c8b57600080fd5b600082815260016020526040812080546001600160401b031691610cae836125e6565b82546101009290920a6001600160401b038181021990931691831602179091556000848152600160209081526040918290205491519190921681528492507fc6621ccb8f3f5a04bb6502154b2caf6adf5983fe76dfef1cfc9c42e3579db444910160405180910390a25050565b600080610d2a8361210561150a565b90508051600003610d3e5750600092915050565b610d4781611b1d565b9392505050565b6000838152600160209081526040808320546001600160401b03168352600b825280832086845290915290819020905160609190610d8f908590859061240a565b90815260200160405180910390208054610da89061241a565b80601f0160208091040260200160405190810160405280929190818152602001828054610dd49061241a565b8015610e215780601f10610df657610100808354040283529160200191610e21565b820191906000526020600020905b815481529060010190602001808311610e0457829003601f168201915b505050505090509392505050565b6000818152600160209081526040808320546001600160401b03168352600582528083208484529091529020805460609190610e6a9061241a565b80601f0160208091040260200160405190810160405280929190818152602001828054610e969061241a565b8015610ee35780601f10610eb857610100808354040283529160200191610ee3565b820191906000526020600020905b815481529060010190602001808311610ec657829003601f168201915b50505050509050919050565b60005484906001600160a01b03163314610f0857600080fd5b83610f146001826123f7565b1615610f1f57600080fd5b6000858152600160209081526040808320546001600160401b031683526002825280832088845282528083208784529091529020610f5e8385836124a2565b50604051849086907faa121bbeef5f32f5961a2a28966e769023910fc9479059ee3495d4c1a696efe390600090a35050505050565b6000818152600160209081526040808320546001600160401b03168352600982528083208484529091529020805460609190610e6a9061241a565b6000546001600160a01b0316331461102d5760405162461bcd60e51b815260206004820181905260248201527f4f776e61626c653a2063616c6c6572206973206e6f7420746865206f776e657260448201526064015b60405180910390fd5b600080546040516001600160a01b03909116907f8be0079c531659141344cd1fd0a4f28419497f9722a3daafe3b4186f6b6457e0908390a3600080546001600160a01b0319169055565b60005483906001600160a01b0316331461109057600080fd5b6000848152600160209081526040808320546001600160401b031683526009825280832087845290915290206110c78385836124a2565b50837fb7d29e911041e8d9b843369e890bcb72c9388692ba48b65ac54e7214c4c348f78484604051610be19291906125d2565b60005483906001600160a01b0316331461111357600080fd5b837f65412581168e88a1e60c6459d7f44ae83ad0832e670826c05a4e2476b57af75284846040516111459291906120dd565b60405180910390a2612105830361119d57837f52d7d861f09ab3d26239d492e8968629f95e9e318cf0b73bfddc441522a15fd261118184611b1d565b6040516001600160a01b03909116815260200160405180910390a25b6000848152600160209081526040808320546001600160401b0316835260038252808320878452825280832086845290915290206111db838261260c565b5050505050565b6060600080306001600160a01b0316846040516111ff91906123c5565b600060405180830381855afa9150503d806000811461123a576040519150601f19603f3d011682016040523d82523d6000602084013e61123f565b606091505b509150915081156112535791506104d39050565b805160208201fd5b6000838152600160209081526040808320546001600160401b03168352600682528083208684528252808320858452825280832061ffff851684529091529020805460609190610da89061241a565b6000818152600160209081526040808320546001600160401b03168352600482528083208484529091529020805460609190610e6a9061241a565b60005483906001600160a01b031633146112fe57600080fd5b6000848152600160209081526040808320546001600160401b031680845260058352818420888552909252822080549192916113399061241a565b80601f01602080910402602001604051908101604052809291908181526020018280546113659061241a565b80156113b25780601f10611387576101008083540402835291602001916113b2565b820191906000526020600020905b81548152906001019060200180831161139557829003601f168201915b505050506001600160401b03841660009081526005602090815260408083208b845290915290209192506113e990508587836124a2565b50857f8f15ed4b723ef428f250961da8315675b507046737e19319fc1a4d81bfe87f8582878760405161141e939291906126cb565b60405180910390a2505050505050565b60005482906001600160a01b0316331461144757600080fd5b6114578361210561038085611b3c565b505050565b60005483906001600160a01b0316331461147557600080fd5b6000848152600160209081526040808320546001600160401b031683526008825280832087845282528083206001600160e01b031987168085529083529281902080546001600160a01b0319166001600160a01b038716908117909155905190815286917f7c69f06bea0bdef565b709e93a147836b0063ba2dd89f02d0b7e8d931e6a6daa910160405180910390a350505050565b6000828152600160209081526040808320546001600160401b03168352600382528083208584528252808320848452909152902080546060919061154d9061241a565b80601f01602080910402602001604051908101604052809291908181526020018280546115799061241a565b80156115c65780601f1061159b576101008083540402835291602001916115c6565b820191906000526020600020905b8154815290600101906020018083116115a957829003601f168201915b5050505050905092915050565b6000546001600160a01b0316331461162d5760405162461bcd60e51b815260206004820181905260248201527f4f776e61626c653a2063616c6c6572206973206e6f7420746865206f776e65726044820152606401611024565b6001600160a01b0381166116925760405162461bcd60e51b815260206004820152602660248201527f4f776e61626c653a206e6577206f776e657220697320746865207a65726f206160448201526564647265737360d01b6064820152608401611024565b600080546040516001600160a01b03808516939216917f8be0079c531659141344cd1fd0a4f28419497f9722a3daafe3b4186f6b6457e091a3600080546001600160a01b0319166001600160a01b0392909216919091179055565b60006001600160e01b03198216631674750f60e21b14806104d357506104d382611b6c565b6117606040518060e001604052806060815260200160008152602001600061ffff168152602001600061ffff168152602001600063ffffffff16815260200160008152602001600081525090565b82815260c081018290526104d381611a35565b602081015181516060916104d39161178b9082611b91565b84519190611bf3565b60a081015160c08201516060916104d39161178b9082906123f7565b600081518351148015610d475750610d478360008460008751611c69565b8651602088012060006117e2878787611bf3565b90508315611909576001600160401b03831660009081526006602090815260408083208d84528252808320858452825280832061ffff8c1684529091529020805461182c9061241a565b15905061188a576001600160401b03831660009081526007602090815260408083208d845282528083208584529091528120805461ffff169161186e836126fb565b91906101000a81548161ffff021916908361ffff160217905550505b6001600160401b03831660009081526006602090815260408083208d84528252808320858452825280832061ffff8c16845290915281206118ca91611eac565b897f03528ed0c2a3ebc993b12ce3c16bb382f9c7d88ef7d8a1bf290eaf35955a12078a8a6040516118fc929190612719565b60405180910390a26106de565b6001600160401b03831660009081526006602090815260408083208d84528252808320858452825280832061ffff8c1684529091529020805461194b9061241a565b90506000036119ab576001600160401b03831660009081526007602090815260408083208d845282528083208584529091528120805461ffff169161198f8361273f565b91906101000a81548161ffff021916908361ffff160217905550505b6001600160401b03831660009081526006602090815260408083208d84528252808320858452825280832061ffff8c16845290915290206119ec828261260c565b50897f52a608b3303a48862d07a73d82fa221318c0027fbbcfb1b2329bface3f19ff2b8a8a84604051611a2193929190612756565b60405180910390a250505050505050505050565b60c08101516020820181905281515111611a4c5750565b6000611a6082600001518360200151611b91565b8260200151611a6f9190612785565b8251909150611a7e9082611c8c565b61ffff166040830152611a92600282612785565b8251909150611aa19082611c8c565b61ffff166060830152611ab5600282612785565b8251909150611ac49082611cb4565b63ffffffff166080830152611ada600482612785565b8251909150600090611aec9083611c8c565b61ffff169050611afd600283612785565b60a084018190529150611b108183612785565b60c0909301929092525050565b60008151601414611b2d57600080fd5b5060200151600160601b900490565b604080516014808252818301909252606091602082018180368337505050600160601b9290920260208301525090565b60006001600160e01b0319821663c869023360e01b14806104d357506104d382611cde565b6000815b83518110611ba557611ba5612798565b6000611bb18583611d03565b60ff169050611bc1816001612785565b611bcb9083612785565b915080600003611bdb5750611be1565b50611b95565b611beb83826123f7565b949350505050565b8251606090611c028385612785565b1115611c0d57600080fd5b6000826001600160401b03811115611c2757611c276121a0565b6040519080825280601f01601f191660200182016040528015611c51576020820181803683370190505b50905060208082019086860101610a06828287611d27565b6000611c76848484611d7d565b611c81878785611d7d565b149695505050505050565b8151600090611c9c836002612785565b1115611ca757600080fd5b50016002015161ffff1690565b8151600090611cc4836004612785565b1115611ccf57600080fd5b50016004015163ffffffff1690565b60006001600160e01b0319821663691f343160e01b14806104d357506104d382611da1565b6000828281518110611d1757611d176125bc565b016020015160f81c905092915050565b60208110611d5f5781518352611d3e602084612785565b9250611d4b602083612785565b9150611d586020826123f7565b9050611d27565b905182516020929092036101000a6000190180199091169116179052565b8251600090611d8c8385612785565b1115611d9757600080fd5b5091016020012090565b60006001600160e01b031982166304928c6760e21b14806104d357506104d38260006001600160e01b0319821663547d2b4160e11b1480611df257506001600160e01b03198216635c98042b60e01b145b806104d357506104d38260006001600160e01b0319821663bc1c58d160e01b14806104d357506104d38260006001600160e01b03198216631d9dabef60e11b1480611e4d57506001600160e01b031982166378e5bf0360e11b145b806104d357506104d38260006001600160e01b03198216631101d5ab60e11b14806104d357506104d38260006001600160e01b0319821663d700ff3360e01b14806104d357506301ffc9a760e01b6001600160e01b03198316146104d3565b508054611eb89061241a565b6000825580601f10611ec8575050565b601f016020900490600052602060002090810190611ee69190611ee9565b50565b5b80821115611efe5760008155600101611eea565b5090565b80356001600160e01b031981168114611f1a57600080fd5b919050565b600060208284031215611f3157600080fd5b610d4782611f02565b60008083601f840112611f4c57600080fd5b5081356001600160401b03811115611f6357600080fd5b602083019150836020828501011115610b4157600080fd5b600080600060408486031215611f9057600080fd5b8335925060208401356001600160401b03811115611fad57600080fd5b611fb986828701611f3a565b9497909650939450505050565b600080600080600060608688031215611fde57600080fd5b8535945060208601356001600160401b0380821115611ffc57600080fd5b61200889838a01611f3a565b9096509450604088013591508082111561202157600080fd5b5061202e88828901611f3a565b969995985093965092949392505050565b6000806040838503121561205257600080fd5b8235915061206260208401611f02565b90509250929050565b6000806040838503121561207e57600080fd5b50508035926020909101359150565b60005b838110156120a8578181015183820152602001612090565b50506000910152565b600081518084526120c981602086016020860161208d565b601f01601f19169290920160200192915050565b828152604060208201526000611beb60408301846120b1565b60008060006060848603121561210b57600080fd5b505081359360208301359350604090920135919050565b60006020828403121561213457600080fd5b5035919050565b602081526000610d4760208301846120b1565b6000806000806060858703121561216457600080fd5b843593506020850135925060408501356001600160401b0381111561218857600080fd5b61219487828801611f3a565b95989497509550505050565b634e487b7160e01b600052604160045260246000fd5b600082601f8301126121c757600080fd5b81356001600160401b03808211156121e1576121e16121a0565b604051601f8301601f19908116603f01168101908282118183101715612209576122096121a0565b8160405283815286602085880101111561222257600080fd5b836020870160208301376000602085830101528094505050505092915050565b60008060006060848603121561225757600080fd5b833592506020840135915060408401356001600160401b0381111561227b57600080fd5b612287868287016121b6565b9150509250925092565b600080604083850312156122a457600080fd5b82356001600160401b03808211156122bb57600080fd5b6122c7868387016121b6565b935060208501359150808211156122dd57600080fd5b506122ea858286016121b6565b9150509250929050565b60008060006060848603121561230957600080fd5b8335925060208401359150604084013561ffff8116811461232957600080fd5b809150509250925092565b80356001600160a01b0381168114611f1a57600080fd5b6000806040838503121561235e57600080fd5b8235915061206260208401612334565b60008060006060848603121561238357600080fd5b8335925061239360208501611f02565b91506123a160408501612334565b90509250925092565b6000602082840312156123bc57600080fd5b610d4782612334565b600082516123d781846020870161208d565b9190910192915050565b634e487b7160e01b600052601160045260246000fd5b818103818111156104d3576104d36123e1565b8183823760009101908152919050565b600181811c9082168061242e57607f821691505b60208210810361244e57634e487b7160e01b600052602260045260246000fd5b50919050565b601f82111561145757600081815260208120601f850160051c8101602086101561247b5750805b601f850160051c820191505b8181101561249a57828155600101612487565b505050505050565b6001600160401b038311156124b9576124b96121a0565b6124cd836124c7835461241a565b83612454565b6000601f84116001811461250157600085156124e95750838201355b600019600387901b1c1916600186901b1783556111db565b600083815260209020601f19861690835b828110156125325786850135825560209485019460019092019101612512565b508682101561254f5760001960f88860031b161c19848701351681555b505060018560011b0183555050505050565b81835281816020850137506000828201602090810191909152601f909101601f19169091010190565b60408152600061259e604083018688612561565b82810360208401526125b1818587612561565b979650505050505050565b634e487b7160e01b600052603260045260246000fd5b602081526000611beb602083018486612561565b60006001600160401b03808316818103612602576126026123e1565b6001019392505050565b81516001600160401b03811115612625576126256121a0565b61263981612633845461241a565b84612454565b602080601f83116001811461266e57600084156126565750858301515b600019600386901b1c1916600185901b17855561249a565b600085815260208120601f198616915b8281101561269d5788860151825594840194600190910190840161267e565b50858210156126bb5787850151600019600388901b60f8161c191681555b5050505050600190811b01905550565b6040815260006126de60408301866120b1565b82810360208401526126f1818587612561565b9695505050505050565b600061ffff82168061270f5761270f6123e1565b6000190192915050565b60408152600061272c60408301856120b1565b905061ffff831660208301529392505050565b600061ffff808316818103612602576126026123e1565b60608152600061276960608301866120b1565b61ffff8516602084015282810360408401526126f181856120b1565b808201808211156104d3576104d36123e1565b634e487b7160e01b600052600160045260246000fdfea26469706673582212200a0ce4108b78e8caae21978f9c9a1894aca3cf1412eb7ec34bd59df757a0949264736f6c63430008140033",
  "devdoc": {
    "kind": "dev",
    "methods": {
      "ABI(bytes32,uint256)": {
        "params": {
          "contentTypes": "A bitwise OR of the ABI formats accepted by the caller.",
          "node": "The ENS node to query"
        },
        "returns": {
          "_0": "contentType The content type of the return value",
          "_1": "data The ABI data"
        }
      },
      "addr(bytes32)": {
        "params": {
          "node": "The ENS node to query."
        },
        "returns": {
          "_0": "The associated address."
        }
      },
      "clearRecords(bytes32)": {
        "params": {
          "node": "The node to update."
        }
      },
      "contenthash(bytes32)": {
        "params": {
          "node": "The ENS node to query."
        },
        "returns": {
          "_0": "The associated contenthash."
        }
      },
      "dnsRecord(bytes32,bytes32,uint16)": {
        "params": {
          "name": "the keccak-256 hash of the fully-qualified name for which to fetch the record",
          "node": "the namehash of the node for which to fetch the record",
          "resource": "the ID of the resource as per https://en.wikipedia.org/wiki/List_of_DNS_record_types"
        },
        "returns": {
          "_0": "the DNS record in wire format if present, otherwise empty"
        }
      },
      "hasDNSRecords(bytes32,bytes32)": {
        "params": {
          "name": "the namehash of the node for which to check the records",
          "node": "the namehash of the node for which to check the records"
        }
      },
      "interfaceImplementer(bytes32,bytes4)": {
        "params": {
          "interfaceID": "The EIP 165 interface ID to check for.",
          "node": "The ENS node to query."
        },
        "returns": {
          "_0": "The address that implements this interface, or 0 if the interface is unsupported."
        }
      },
      "name(bytes32)": {
        "params": {
          "node": "The ENS node to query."
        },
        "returns": {
          "_0": "The associated name."
        }
      },
      "owner()": {
        "details": "Returns the address of the current owner."
      },
      "pubkey(bytes32)": {
        "params": {
          "node": "The ENS node to query"
        },
        "returns": {
          "x": "The X coordinate of the curve point for the public key.",
          "y": "The Y coordinate of the curve point for the public key."
        }
      },
      "renounceOwnership()": {
        "details": "Leaves the contract without owner. It will not be possible to call `onlyOwner` functions anymore. Can only be called by the current owner. NOTE: Renouncing ownership will leave the contract without an owner, thereby removing any functionality that is only available to the owner."
      },
      "setABI(bytes32,uint256,bytes)": {
        "params": {
          "contentType": "The content type of the ABI",
          "data": "The ABI data.",
          "node": "The node to update."
        }
      },
      "setAddr(bytes32,address)": {
        "params": {
          "a": "The address to set.",
          "node": "The node to update."
        }
      },
      "setContenthash(bytes32,bytes)": {
        "params": {
          "hash": "The contenthash to set",
          "node": "The node to update."
        }
      },
      "setDNSRecords(bytes32,bytes)": {
        "params": {
          "data": "the DNS wire format records to set",
          "node": "the namehash of the node for which to set the records"
        }
      },
      "setInterface(bytes32,bytes4,address)": {
        "params": {
          "implementer": "The address of a contract that implements this interface for this node.",
          "interfaceID": "The EIP 165 interface ID.",
          "node": "The node to update."
        }
      },
      "setName(bytes32,string)": {
        "params": {
          "node": "The node to update."
        }
      },
      "setPubkey(bytes32,bytes32,bytes32)": {
        "params": {
          "node": "The ENS node to query",
          "x": "the X coordinate of the curve point for the public key.",
          "y": "the Y coordinate of the curve point for the public key."
        }
      },
      "setText(bytes32,string,string)": {
        "params": {
          "key": "The key to set.",
          "node": "The node to update.",
          "value": "The text data value to set."
        }
      },
      "setZonehash(bytes32,bytes)": {
        "params": {
          "hash": "The zonehash to set",
          "node": "The node to update."
        }
      },
      "text(bytes32,string)": {
        "params": {
          "key": "The text data key to query.",
          "node": "The ENS node to query."
        },
        "returns": {
          "_0": "The associated text data."
        }
      },
      "transferOwnership(address)": {
        "details": "Transfers ownership of the contract to a new account (`newOwner`). Can only be called by the current owner."
      },
      "zonehash(bytes32)": {
        "params": {
          "node": "The ENS node to query."
        },
        "returns": {
          "_0": "The associated contenthash."
        }
      }
    },
    "version": 1
  },
  "userdoc": {
    "kind": "user",
    "methods": {
      "ABI(bytes32,uint256)": {
        "notice": "Returns the ABI associated with an ENS node. Defined in EIP205."
      },
      "addr(bytes32)": {
        "notice": "Returns the address associated with an ENS node."
      },
      "clearRecords(bytes32)": {
        "notice": "Increments the record version associated with an ENS node. May only be called by the owner of that node in the ENS registry."
      },
      "contenthash(bytes32)": {
        "notice": "Returns the contenthash associated with an ENS node."
      },
      "dnsRecord(bytes32,bytes32,uint16)": {
        "notice": "Obtain a DNS record."
      },
      "hasDNSRecords(bytes32,bytes32)": {
        "notice": "Check if a given node has records."
      },
      "interfaceImplementer(bytes32,bytes4)": {
        "notice": "Returns the address of a contract that implements the specified interface for this name. If an implementer has not been set for this interfaceID and name, the resolver will query the contract at `addr()`. If `addr()` is set, a contract exists at that address, and that contract implements EIP165 and returns `true` for the specified interfaceID, its address will be returned."
      },
      "name(bytes32)": {
        "notice": "Returns the name associated with an ENS node, for reverse records. Defined in EIP181."
      },
      "pubkey(bytes32)": {
        "notice": "Returns the SECP256k1 public key associated with an ENS node. Defined in EIP 619."
      },
      "setABI(bytes32,uint256,bytes)": {
        "notice": "Sets the ABI associated with an ENS node. Nodes may have one ABI of each content type. To remove an ABI, set it to the empty string."
      },
      "setAddr(bytes32,address)": {
        "notice": "Sets the address associated with an ENS node. May only be called by the owner of that node in the ENS registry."
      },
      "setContenthash(bytes32,bytes)": {
        "notice": "Sets the contenthash associated with an ENS node. May only be called by the owner of that node in the ENS registry."
      },
      "setDNSRecords(bytes32,bytes)": {
        "notice": "Set one or more DNS records.  Records are supplied in wire-format. Records with the same node/name/resource must be supplied one after the other to ensure the data is updated correctly. For example, if the data was supplied:     a.example.com IN A 1.2.3.4     a.example.com IN A 5.6.7.8     www.example.com IN CNAME a.example.com. then this would store the two A records for a.example.com correctly as a single RRSET, however if the data was supplied:     a.example.com IN A 1.2.3.4     www.example.com IN CNAME a.example.com.     a.example.com IN A 5.6.7.8 then this would store the first A record, the CNAME, then the second A record which would overwrite the first."
      },
      "setInterface(bytes32,bytes4,address)": {
        "notice": "Sets an interface associated with a name. Setting the address to 0 restores the default behaviour of querying the contract at `addr()` for interface support."
      },
      "setName(bytes32,string)": {
        "notice": "Sets the name associated with an ENS node, for reverse records. May only be called by the owner of that node in the ENS registry."
      },
      "setPubkey(bytes32,bytes32,bytes32)": {
        "notice": "Sets the SECP256k1 public key associated with an ENS node."
      },
      "setText(bytes32,string,string)": {
        "notice": "Sets the text data associated with an ENS node and key. May only be called by the owner of that node in the ENS registry."
      },
      "setZonehash(bytes32,bytes)": {
        "notice": "setZonehash sets the hash for the zone. May only be called by the owner of that node in the ENS registry."
      },
      "text(bytes32,string)": {
        "notice": "Returns the text data associated with an ENS node and key."
      },
      "zonehash(bytes32)": {
        "notice": "zonehash obtains the hash for the zone."
      }
    },
    "notice": "A simple resolver anyone can use; only allows the owner of a node to set its address.",
    "version": 1
  },
  "storageLayout": {
    "storage": [
      {
        "astId": 476,
        "contract": "contracts/resolvers/OwnedResolver.sol:OwnedResolver",
        "label": "_owner",
        "offset": 0,
        "slot": "0",
        "type": "t_address"
      },
      {
        "astId": 18064,
        "contract": "contracts/resolvers/OwnedResolver.sol:OwnedResolver",
        "label": "recordVersions",
        "offset": 0,
        "slot": "1",
        "type": "t_mapping(t_bytes32,t_uint64)"
      },
      {
        "astId": 18143,
        "contract": "contracts/resolvers/OwnedResolver.sol:OwnedResolver",
        "label": "versionable_abis",
        "offset": 0,
        "slot": "2",
        "type": "t_mapping(t_uint64,t_mapping(t_bytes32,t_mapping(t_uint256,t_bytes_storage)))"
      },
      {
        "astId": 18297,
        "contract": "contracts/resolvers/OwnedResolver.sol:OwnedResolver",
        "label": "versionable_addresses",
        "offset": 0,
        "slot": "3",
        "type": "t_mapping(t_uint64,t_mapping(t_bytes32,t_mapping(t_uint256,t_bytes_storage)))"
      },
      {
        "astId": 18488,
        "contract": "contracts/resolvers/OwnedResolver.sol:OwnedResolver",
        "label": "versionable_hashes",
        "offset": 0,
        "slot": "4",
        "type": "t_mapping(t_uint64,t_mapping(t_bytes32,t_bytes_storage))"
      },
      {
        "astId": 18578,
        "contract": "contracts/resolvers/OwnedResolver.sol:OwnedResolver",
        "label": "versionable_zonehashes",
        "offset": 0,
        "slot": "5",
        "type": "t_mapping(t_uint64,t_mapping(t_bytes32,t_bytes_storage))"
      },
      {
        "astId": 18588,
        "contract": "contracts/resolvers/OwnedResolver.sol:OwnedResolver",
        "label": "versionable_records",
        "offset": 0,
        "slot": "6",
        "type": "t_mapping(t_uint64,t_mapping(t_bytes32,t_mapping(t_bytes32,t_mapping(t_uint16,t_bytes_storage))))"
      },
      {
        "astId": 18596,
        "contract": "contracts/resolvers/OwnedResolver.sol:OwnedResolver",
        "label": "versionable_nameEntriesCount",
        "offset": 0,
        "slot": "7",
        "type": "t_mapping(t_uint64,t_mapping(t_bytes32,t_mapping(t_bytes32,t_uint16)))"
      },
      {
        "astId": 19320,
        "contract": "contracts/resolvers/OwnedResolver.sol:OwnedResolver",
        "label": "versionable_interfaces",
        "offset": 0,
        "slot": "8",
        "type": "t_mapping(t_uint64,t_mapping(t_bytes32,t_mapping(t_bytes4,t_address)))"
      },
      {
        "astId": 19512,
        "contract": "contracts/resolvers/OwnedResolver.sol:OwnedResolver",
        "label": "versionable_names",
        "offset": 0,
        "slot": "9",
        "type": "t_mapping(t_uint64,t_mapping(t_bytes32,t_string_storage))"
      },
      {
        "astId": 19599,
        "contract": "contracts/resolvers/OwnedResolver.sol:OwnedResolver",
        "label": "versionable_pubkeys",
        "offset": 0,
        "slot": "10",
        "type": "t_mapping(t_uint64,t_mapping(t_bytes32,t_struct(PublicKey)19592_storage))"
      },
      {
        "astId": 19702,
        "contract": "contracts/resolvers/OwnedResolver.sol:OwnedResolver",
        "label": "versionable_texts",
        "offset": 0,
        "slot": "11",
        "type": "t_mapping(t_uint64,t_mapping(t_bytes32,t_mapping(t_string_memory_ptr,t_string_storage)))"
      }
    ],
    "types": {
      "t_address": {
        "encoding": "inplace",
        "label": "address",
        "numberOfBytes": "20"
      },
      "t_bytes32": {
        "encoding": "inplace",
        "label": "bytes32",
        "numberOfBytes": "32"
      },
      "t_bytes4": {
        "encoding": "inplace",
        "label": "bytes4",
        "numberOfBytes": "4"
      },
      "t_bytes_storage": {
        "encoding": "bytes",
        "label": "bytes",
        "numberOfBytes": "32"
      },
      "t_mapping(t_bytes32,t_bytes_storage)": {
        "encoding": "mapping",
        "key": "t_bytes32",
        "label": "mapping(bytes32 => bytes)",
        "numberOfBytes": "32",
        "value": "t_bytes_storage"
      },
      "t_mapping(t_bytes32,t_mapping(t_bytes32,t_mapping(t_uint16,t_bytes_storage)))": {
        "encoding": "mapping",
        "key": "t_bytes32",
        "label": "mapping(bytes32 => mapping(bytes32 => mapping(uint16 => bytes)))",
        "numberOfBytes": "32",
        "value": "t_mapping(t_bytes32,t_mapping(t_uint16,t_bytes_storage))"
      },
      "t_mapping(t_bytes32,t_mapping(t_bytes32,t_uint16))": {
        "encoding": "mapping",
        "key": "t_bytes32",
        "label": "mapping(bytes32 => mapping(bytes32 => uint16))",
        "numberOfBytes": "32",
        "value": "t_mapping(t_bytes32,t_uint16)"
      },
      "t_mapping(t_bytes32,t_mapping(t_bytes4,t_address))": {
        "encoding": "mapping",
        "key": "t_bytes32",
        "label": "mapping(bytes32 => mapping(bytes4 => address))",
        "numberOfBytes": "32",
        "value": "t_mapping(t_bytes4,t_address)"
      },
      "t_mapping(t_bytes32,t_mapping(t_string_memory_ptr,t_string_storage))": {
        "encoding": "mapping",
        "key": "t_bytes32",
        "label": "mapping(bytes32 => mapping(string => string))",
        "numberOfBytes": "32",
        "value": "t_mapping(t_string_memory_ptr,t_string_storage)"
      },
      "t_mapping(t_bytes32,t_mapping(t_uint16,t_bytes_storage))": {
        "encoding": "mapping",
        "key": "t_bytes32",
        "label": "mapping(bytes32 => mapping(uint16 => bytes))",
        "numberOfBytes": "32",
        "value": "t_mapping(t_uint16,t_bytes_storage)"
      },
      "t_mapping(t_bytes32,t_mapping(t_uint256,t_bytes_storage))": {
        "encoding": "mapping",
        "key": "t_bytes32",
        "label": "mapping(bytes32 => mapping(uint256 => bytes))",
        "numberOfBytes": "32",
        "value": "t_mapping(t_uint256,t_bytes_storage)"
      },
      "t_mapping(t_bytes32,t_string_storage)": {
        "encoding": "mapping",
        "key": "t_bytes32",
        "label": "mapping(bytes32 => string)",
        "numberOfBytes": "32",
        "value": "t_string_storage"
      },
      "t_mapping(t_bytes32,t_struct(PublicKey)19592_storage)": {
        "encoding": "mapping",
        "key": "t_bytes32",
        "label": "mapping(bytes32 => struct PubkeyResolver.PublicKey)",
        "numberOfBytes": "32",
        "value": "t_struct(PublicKey)19592_storage"
      },
      "t_mapping(t_bytes32,t_uint16)": {
        "encoding": "mapping",
        "key": "t_bytes32",
        "label": "mapping(bytes32 => uint16)",
        "numberOfBytes": "32",
        "value": "t_uint16"
      },
      "t_mapping(t_bytes32,t_uint64)": {
        "encoding": "mapping",
        "key": "t_bytes32",
        "label": "mapping(bytes32 => uint64)",
        "numberOfBytes": "32",
        "value": "t_uint64"
      },
      "t_mapping(t_bytes4,t_address)": {
        "encoding": "mapping",
        "key": "t_bytes4",
        "label": "mapping(bytes4 => address)",
        "numberOfBytes": "32",
        "value": "t_address"
      },
      "t_mapping(t_string_memory_ptr,t_string_storage)": {
        "encoding": "mapping",
        "key": "t_string_memory_ptr",
        "label": "mapping(string => string)",
        "numberOfBytes": "32",
        "value": "t_string_storage"
      },
      "t_mapping(t_uint16,t_bytes_storage)": {
        "encoding": "mapping",
        "key": "t_uint16",
        "label": "mapping(uint16 => bytes)",
        "numberOfBytes": "32",
        "value": "t_bytes_storage"
      },
      "t_mapping(t_uint256,t_bytes_storage)": {
        "encoding": "mapping",
        "key": "t_uint256",
        "label": "mapping(uint256 => bytes)",
        "numberOfBytes": "32",
        "value": "t_bytes_storage"
      },
      "t_mapping(t_uint64,t_mapping(t_bytes32,t_bytes_storage))": {
        "encoding": "mapping",
        "key": "t_uint64",
        "label": "mapping(uint64 => mapping(bytes32 => bytes))",
        "numberOfBytes": "32",
        "value": "t_mapping(t_bytes32,t_bytes_storage)"
      },
      "t_mapping(t_uint64,t_mapping(t_bytes32,t_mapping(t_bytes32,t_mapping(t_uint16,t_bytes_storage))))": {
        "encoding": "mapping",
        "key": "t_uint64",
        "label": "mapping(uint64 => mapping(bytes32 => mapping(bytes32 => mapping(uint16 => bytes))))",
        "numberOfBytes": "32",
        "value": "t_mapping(t_bytes32,t_mapping(t_bytes32,t_mapping(t_uint16,t_bytes_storage)))"
      },
      "t_mapping(t_uint64,t_mapping(t_bytes32,t_mapping(t_bytes32,t_uint16)))": {
        "encoding": "mapping",
        "key": "t_uint64",
        "label": "mapping(uint64 => mapping(bytes32 => mapping(bytes32 => uint16)))",
        "numberOfBytes": "32",
        "value": "t_mapping(t_bytes32,t_mapping(t_bytes32,t_uint16))"
      },
      "t_mapping(t_uint64,t_mapping(t_bytes32,t_mapping(t_bytes4,t_address)))": {
        "encoding": "mapping",
        "key": "t_uint64",
        "label": "mapping(uint64 => mapping(bytes32 => mapping(bytes4 => address)))",
        "numberOfBytes": "32",
        "value": "t_mapping(t_bytes32,t_mapping(t_bytes4,t_address))"
      },
      "t_mapping(t_uint64,t_mapping(t_bytes32,t_mapping(t_string_memory_ptr,t_string_storage)))": {
        "encoding": "mapping",
        "key": "t_uint64",
        "label": "mapping(uint64 => mapping(bytes32 => mapping(string => string)))",
        "numberOfBytes": "32",
        "value": "t_mapping(t_bytes32,t_mapping(t_string_memory_ptr,t_string_storage))"
      },
      "t_mapping(t_uint64,t_mapping(t_bytes32,t_mapping(t_uint256,t_bytes_storage)))": {
        "encoding": "mapping",
        "key": "t_uint64",
        "label": "mapping(uint64 => mapping(bytes32 => mapping(uint256 => bytes)))",
        "numberOfBytes": "32",
        "value": "t_mapping(t_bytes32,t_mapping(t_uint256,t_bytes_storage))"
      },
      "t_mapping(t_uint64,t_mapping(t_bytes32,t_string_storage))": {
        "encoding": "mapping",
        "key": "t_uint64",
        "label": "mapping(uint64 => mapping(bytes32 => string))",
        "numberOfBytes": "32",
        "value": "t_mapping(t_bytes32,t_string_storage)"
      },
      "t_mapping(t_uint64,t_mapping(t_bytes32,t_struct(PublicKey)19592_storage))": {
        "encoding": "mapping",
        "key": "t_uint64",
        "label": "mapping(uint64 => mapping(bytes32 => struct PubkeyResolver.PublicKey))",
        "numberOfBytes": "32",
        "value": "t_mapping(t_bytes32,t_struct(PublicKey)19592_storage)"
      },
      "t_string_memory_ptr": {
        "encoding": "bytes",
        "label": "string",
        "numberOfBytes": "32"
      },
      "t_string_storage": {
        "encoding": "bytes",
        "label": "string",
        "numberOfBytes": "32"
      },
      "t_struct(PublicKey)19592_storage": {
        "encoding": "inplace",
        "label": "struct PubkeyResolver.PublicKey",
        "members": [
          {
            "astId": 19589,
            "contract": "contracts/resolvers/OwnedResolver.sol:OwnedResolver",
            "label": "x",
            "offset": 0,
            "slot": "0",
            "type": "t_bytes32"
          },
          {
            "astId": 19591,
            "contract": "contracts/resolvers/OwnedResolver.sol:OwnedResolver",
            "label": "y",
            "offset": 0,
            "slot": "1",
            "type": "t_bytes32"
          }
        ],
        "numberOfBytes": "64"
      },
      "t_uint16": {
        "encoding": "inplace",
        "label": "uint16",
        "numberOfBytes": "2"
      },
      "t_uint256": {
        "encoding": "inplace",
        "label": "uint256",
        "numberOfBytes": "32"
      },
      "t_uint64": {
        "encoding": "inplace",
        "label": "uint64",
        "numberOfBytes": "8"
      }
    }
  }
}