{
  "address": "0x7AFc4332ECd5F15fDF7c6Cd6BD7b6E4F316C10a0",
  "abi": [
    {
      "inputs": [],
      "stateMutability": "nonpayable",
      "type": "constructor"
    },
    {
      "anonymous": false,
      "inputs": [
        {
          "indexed": true,
          "internalType": "address",
          "name": "previousOwner",
          "type": "address"
        },
        {
          "indexed": true,
          "internalType": "address",
          "name": "newOwner",
          "type": "address"
        }
      ],
      "name": "OwnershipTransferred",
      "type": "event"
    },
    {
      "anonymous": false,
      "inputs": [
        {
          "indexed": true,
          "internalType": "string",
          "name": "name",
          "type": "string"
        },
        {
          "indexed": false,
          "internalType": "bool",
          "name": "useAuction",
          "type": "bool"
        },
        {
          "indexed": false,
          "internalType": "uint256",
          "name": "fixedPrice",
          "type": "uint256"
        }
      ],
      "name": "PremiumNameAdded",
      "type": "event"
    },
    {
      "anonymous": false,
      "inputs": [
        {
          "indexed": true,
          "internalType": "string",
          "name": "name",
          "type": "string"
        }
      ],
      "name": "PremiumNameRemoved",
      "type": "event"
    },
    {
      "inputs": [
        {
          "internalType": "string",
          "name": "name",
          "type": "string"
        }
      ],
      "name": "addPremiumName",
      "outputs": [],
      "stateMutability": "nonpayable",
      "type": "function"
    },
    {
      "inputs": [
        {
          "internalType": "string",
          "name": "name",
          "type": "string"
        },
        {
          "internalType": "uint256",
          "name": "price",
          "type": "uint256"
        }
      ],
      "name": "addPremiumNameWithPrice",
      "outputs": [],
      "stateMutability": "nonpayable",
      "type": "function"
    },
    {
      "inputs": [
        {
          "internalType": "string[]",
          "name": "names",
          "type": "string[]"
        }
      ],
      "name": "addPremiumNamesBatch",
      "outputs": [],
      "stateMutability": "nonpayable",
      "type": "function"
    },
    {
      "inputs": [
        {
          "internalType": "bytes32",
          "name": "",
          "type": "bytes32"
        }
      ],
      "name": "fixedPremiumPrices",
      "outputs": [
        {
          "internalType": "uint256",
          "name": "",
          "type": "uint256"
        }
      ],
      "stateMutability": "view",
      "type": "function"
    },
    {
      "inputs": [
        {
          "internalType": "string",
          "name": "name",
          "type": "string"
        }
      ],
      "name": "getPremiumInfo",
      "outputs": [
        {
          "internalType": "bool",
          "name": "isPremiumName",
          "type": "bool"
        },
        {
          "internalType": "bool",
          "name": "requiresAuction",
          "type": "bool"
        },
        {
          "internalType": "uint256",
          "name": "fixedPrice",
          "type": "uint256"
        }
      ],
      "stateMutability": "view",
      "type": "function"
    },
    {
      "inputs": [
        {
          "internalType": "string",
          "name": "name",
          "type": "string"
        }
      ],
      "name": "isPremium",
      "outputs": [
        {
          "internalType": "bool",
          "name": "",
          "type": "bool"
        }
      ],
      "stateMutability": "view",
      "type": "function"
    },
    {
      "inputs": [],
      "name": "owner",
      "outputs": [
        {
          "internalType": "address",
          "name": "",
          "type": "address"
        }
      ],
      "stateMutability": "view",
      "type": "function"
    },
    {
      "inputs": [
        {
          "internalType": "bytes32",
          "name": "",
          "type": "bytes32"
        }
      ],
      "name": "premiumNames",
      "outputs": [
        {
          "internalType": "bool",
          "name": "",
          "type": "bool"
        }
      ],
      "stateMutability": "view",
      "type": "function"
    },
    {
      "inputs": [
        {
          "internalType": "string",
          "name": "name",
          "type": "string"
        }
      ],
      "name": "removePremiumName",
      "outputs": [],
      "stateMutability": "nonpayable",
      "type": "function"
    },
    {
      "inputs": [],
      "name": "renounceOwnership",
      "outputs": [],
      "stateMutability": "nonpayable",
      "type": "function"
    },
    {
      "inputs": [
        {
          "internalType": "address",
          "name": "newOwner",
          "type": "address"
        }
      ],
      "name": "transferOwnership",
      "outputs": [],
      "stateMutability": "nonpayable",
      "type": "function"
    }
  ],
  "transactionHash": "0x28fb00ac0bf9322d4572625740470b3eef08cb43a54c683989480125cb8e5d66",
  "args": [],
  "numDeployments": 1,
  "solcInputHash": "51c396074905eafbf23ffb9db0ffdf7f",
  "bytecode": "0x608060405234801561001057600080fd5b50600080546001600160a01b031916339081178255604051909182917f8be0079c531659141344cd1fd0a4f28419497f9722a3daafe3b4186f6b6457e0908290a3506109ab806100616000396000f3fe608060405234801561001057600080fd5b50600436106100a95760003560e01c80639d186a06116100715780639d186a061461014c578063aa5c67cb1461015f578063bb810f1b14610172578063c7fa75fe14610185578063d2412e29146101b5578063f2fde38b146101c857600080fd5b80634eb76db0146100ae5780635954e6f3146100c3578063715018a6146100f6578063760a6aaa146100fe5780638da5cb5b14610131575b600080fd5b6100c16100bc366004610760565b6101db565b005b6100e36100d13660046107a2565b60026020526000908152604090205481565b6040519081526020015b60405180910390f35b6100c1610290565b61012161010c3660046107a2565b60016020526000908152604090205460ff1681565b60405190151581526020016100ed565b6000546040516001600160a01b0390911681526020016100ed565b61012161015a366004610760565b610304565b6100c161016d3660046107bb565b61033e565b6100c1610180366004610830565b61045a565b610198610193366004610760565b61051c565b6040805193151584529115156020840152908201526060016100ed565b6100c16101c3366004610760565b610577565b6100c16101d636600461087c565b61062d565b6000546001600160a01b0316331461020e5760405162461bcd60e51b8152600401610205906108ac565b60405180910390fd5b600082826040516102209291906108e1565b60408051918290038220600081815260016020908152838220805460ff191690556002905291822091909155915061025b90849084906108e1565b604051908190038120907f3e8bbed9168cefcd0fb985475bdffcf2ae881e6103dd619ce3c150d3b1fa0fbd90600090a2505050565b6000546001600160a01b031633146102ba5760405162461bcd60e51b8152600401610205906108ac565b600080546040516001600160a01b03909116907f8be0079c531659141344cd1fd0a4f28419497f9722a3daafe3b4186f6b6457e0908390a3600080546001600160a01b0319169055565b600060016000848460405161031a9291906108e1565b604080519182900390912082526020820192909252016000205460ff169392505050565b6000546001600160a01b031633146103685760405162461bcd60e51b8152600401610205906108ac565b60005b81811015610455576000838383818110610387576103876108f1565b90506020028101906103999190610907565b6040516103a79291906108e1565b6040805191829003909120600081815260016020819052929020805460ff191690921790915590508383838181106103e1576103e16108f1565b90506020028101906103f39190610907565b6040516104019291906108e1565b604080519182900382206001835260006020840152917fade8574437fa14a6d54b68cca7287ca85b0a2e1afcc9c7877a780f5ed86da6b8910160405180910390a2508061044d8161094e565b91505061036b565b505050565b6000546001600160a01b031633146104845760405162461bcd60e51b8152600401610205906108ac565b600083836040516104969291906108e1565b60408051918290038220600081815260016020818152848320805460ff1916909217909155600290529190912084905591506104d590859085906108e1565b604080519182900382206000835260208301859052917fade8574437fa14a6d54b68cca7287ca85b0a2e1afcc9c7877a780f5ed86da6b8910160405180910390a250505050565b60008060008085856040516105329291906108e1565b60408051918290039091206000818152600160209081528382205460029091529290205460ff9092169550909250905083801561056d575081155b9250509250925092565b6000546001600160a01b031633146105a15760405162461bcd60e51b8152600401610205906108ac565b600082826040516105b39291906108e1565b60408051918290038220600081815260016020819052929020805460ff191690921790915591506105e790849084906108e1565b604080519182900382206001835260006020840152917fade8574437fa14a6d54b68cca7287ca85b0a2e1afcc9c7877a780f5ed86da6b8910160405180910390a2505050565b6000546001600160a01b031633146106575760405162461bcd60e51b8152600401610205906108ac565b6001600160a01b0381166106bc5760405162461bcd60e51b815260206004820152602660248201527f4f776e61626c653a206e6577206f776e657220697320746865207a65726f206160448201526564647265737360d01b6064820152608401610205565b600080546040516001600160a01b03808516939216917f8be0079c531659141344cd1fd0a4f28419497f9722a3daafe3b4186f6b6457e091a3600080546001600160a01b0319166001600160a01b0392909216919091179055565b60008083601f84011261072957600080fd5b50813567ffffffffffffffff81111561074157600080fd5b60208301915083602082850101111561075957600080fd5b9250929050565b6000806020838503121561077357600080fd5b823567ffffffffffffffff81111561078a57600080fd5b61079685828601610717565b90969095509350505050565b6000602082840312156107b457600080fd5b5035919050565b600080602083850312156107ce57600080fd5b823567ffffffffffffffff808211156107e657600080fd5b818501915085601f8301126107fa57600080fd5b81358181111561080957600080fd5b8660208260051b850101111561081e57600080fd5b60209290920196919550909350505050565b60008060006040848603121561084557600080fd5b833567ffffffffffffffff81111561085c57600080fd5b61086886828701610717565b909790965060209590950135949350505050565b60006020828403121561088e57600080fd5b81356001600160a01b03811681146108a557600080fd5b9392505050565b6020808252818101527f4f776e61626c653a2063616c6c6572206973206e6f7420746865206f776e6572604082015260600190565b8183823760009101908152919050565b634e487b7160e01b600052603260045260246000fd5b6000808335601e1984360301811261091e57600080fd5b83018035915067ffffffffffffffff82111561093957600080fd5b60200191503681900382131561075957600080fd5b60006001820161096e57634e487b7160e01b600052601160045260246000fd5b506001019056fea2646970667358221220ea6cc9f7c6a456e7127bf5145323254270eb7c92adb954d6e9fabbc61b06551864736f6c63430008140033",
  "devdoc": {
    "details": "The registrar controller should check this before allowing direct registration",
    "kind": "dev",
    "methods": {
      "addPremiumName(string)": {
        "params": {
          "name": "The name to reserve for auction"
        }
      },
      "addPremiumNameWithPrice(string,uint256)": {
        "params": {
          "name": "The name to add",
          "price": "Fixed price in USD (18 decimals)"
        }
      },
      "addPremiumNamesBatch(string[])": {
        "params": {
          "names": "Array of names to add"
        }
      },
      "getPremiumInfo(string)": {
        "params": {
          "name": "The name to check"
        },
        "returns": {
          "fixedPrice": "Fixed price (0 if auction required)",
          "isPremiumName": "Whether the name is in premium registry",
          "requiresAuction": "Whether name must be purchased via auction"
        }
      },
      "isPremium(string)": {
        "params": {
          "name": "The name to check"
        },
        "returns": {
          "_0": "isPremium Whether the name is premium"
        }
      },
      "owner()": {
        "details": "Returns the address of the current owner."
      },
      "removePremiumName(string)": {
        "params": {
          "name": "The name to remove"
        }
      },
      "renounceOwnership()": {
        "details": "Leaves the contract without owner. It will not be possible to call `onlyOwner` functions anymore. Can only be called by the current owner. NOTE: Renouncing ownership will leave the contract without an owner, thereby removing any functionality that is only available to the owner."
      },
      "transferOwnership(address)": {
        "details": "Transfers ownership of the contract to a new account (`newOwner`). Can only be called by the current owner."
      }
    },
    "title": "PremiumNameRegistry",
    "version": 1
  },
  "userdoc": {
    "kind": "user",
    "methods": {
      "addPremiumName(string)": {
        "notice": "Add a premium name (auction only)"
      },
      "addPremiumNameWithPrice(string,uint256)": {
        "notice": "Add a premium name with fixed price instead of auction"
      },
      "addPremiumNamesBatch(string[])": {
        "notice": "Batch add premium names for auction"
      },
      "fixedPremiumPrices(bytes32)": {
        "notice": "nameHash => customPrice (0 = use auction)"
      },
      "getPremiumInfo(string)": {
        "notice": "Get premium status and pricing info"
      },
      "isPremium(string)": {
        "notice": "Check if a name is premium"
      },
      "premiumNames(bytes32)": {
        "notice": "nameHash => isPremium"
      },
      "removePremiumName(string)": {
        "notice": "Remove a premium name from registry"
      }
    },
    "notice": "Registry of premium names reserved for auction",
    "version": 1
  },
  "storageLayout": {
    "storage": [
      {
        "astId": 492,
        "contract": "contracts/auction/PremiumNameRegistry.sol:PremiumNameRegistry",
        "label": "_owner",
        "offset": 0,
        "slot": "0",
        "type": "t_address"
      },
      {
        "astId": 8533,
        "contract": "contracts/auction/PremiumNameRegistry.sol:PremiumNameRegistry",
        "label": "premiumNames",
        "offset": 0,
        "slot": "1",
        "type": "t_mapping(t_bytes32,t_bool)"
      },
      {
        "astId": 8538,
        "contract": "contracts/auction/PremiumNameRegistry.sol:PremiumNameRegistry",
        "label": "fixedPremiumPrices",
        "offset": 0,
        "slot": "2",
        "type": "t_mapping(t_bytes32,t_uint256)"
      }
    ],
    "types": {
      "t_address": {
        "encoding": "inplace",
        "label": "address",
        "numberOfBytes": "20"
      },
      "t_bool": {
        "encoding": "inplace",
        "label": "bool",
        "numberOfBytes": "1"
      },
      "t_bytes32": {
        "encoding": "inplace",
        "label": "bytes32",
        "numberOfBytes": "32"
      },
      "t_mapping(t_bytes32,t_bool)": {
        "encoding": "mapping",
        "key": "t_bytes32",
        "label": "mapping(bytes32 => bool)",
        "numberOfBytes": "32",
        "value": "t_bool"
      },
      "t_mapping(t_bytes32,t_uint256)": {
        "encoding": "mapping",
        "key": "t_bytes32",
        "label": "mapping(bytes32 => uint256)",
        "numberOfBytes": "32",
        "value": "t_uint256"
      },
      "t_uint256": {
        "encoding": "inplace",
        "label": "uint256",
        "numberOfBytes": "32"
      }
    }
  }
}