{
  "address": "0x43D667D367A48368Ee6CA072cD96b09a19Ee342b",
  "abi": [
    {
      "inputs": [
        {
          "internalType": "address",
          "name": "_signer",
          "type": "address"
        },
        {
          "internalType": "address",
          "name": "_nameWrapper",
          "type": "address"
        },
        {
          "internalType": "address",
          "name": "_baseRegistrar",
          "type": "address"
        }
      ],
      "stateMutability": "nonpayable",
      "type": "constructor"
    },
    {
      "inputs": [],
      "name": "ExpiredSignature",
      "type": "error"
    },
    {
      "inputs": [],
      "name": "InvalidAddress",
      "type": "error"
    },
    {
      "inputs": [],
      "name": "InvalidSignature",
      "type": "error"
    },
    {
      "inputs": [],
      "name": "NonceAlreadyUsed",
      "type": "error"
    },
    {
      "inputs": [],
      "name": "NotController",
      "type": "error"
    },
    {
      "inputs": [],
      "name": "SelfReferral",
      "type": "error"
    },
    {
      "inputs": [],
      "name": "TransferFailed",
      "type": "error"
    },
    {
      "anonymous": false,
      "inputs": [
        {
          "indexed": true,
          "internalType": "address",
          "name": "controller",
          "type": "address"
        },
        {
          "indexed": false,
          "internalType": "bool",
          "name": "allowed",
          "type": "bool"
        }
      ],
      "name": "ControllerUpdated",
      "type": "event"
    },
    {
      "anonymous": false,
      "inputs": [
        {
          "indexed": true,
          "internalType": "address",
          "name": "to",
          "type": "address"
        },
        {
          "indexed": false,
          "internalType": "uint256",
          "name": "amount",
          "type": "uint256"
        }
      ],
      "name": "ExcessRefunded",
      "type": "event"
    },
    {
      "anonymous": false,
      "inputs": [
        {
          "indexed": true,
          "internalType": "address",
          "name": "previousOwner",
          "type": "address"
        },
        {
          "indexed": true,
          "internalType": "address",
          "name": "newOwner",
          "type": "address"
        }
      ],
      "name": "OwnershipTransferred",
      "type": "event"
    },
    {
      "anonymous": false,
      "inputs": [
        {
          "indexed": true,
          "internalType": "address",
          "name": "referrer",
          "type": "address"
        },
        {
          "indexed": true,
          "internalType": "address",
          "name": "registrant",
          "type": "address"
        },
        {
          "indexed": true,
          "internalType": "bytes32",
          "name": "nameHash",
          "type": "bytes32"
        },
        {
          "indexed": false,
          "internalType": "uint256",
          "name": "amount",
          "type": "uint256"
        },
        {
          "indexed": false,
          "internalType": "address",
          "name": "token",
          "type": "address"
        },
        {
          "indexed": false,
          "internalType": "bool",
          "name": "isFiat",
          "type": "bool"
        }
      ],
      "name": "ReferralPaid",
      "type": "event"
    },
    {
      "anonymous": false,
      "inputs": [
        {
          "indexed": true,
          "internalType": "bytes32",
          "name": "nameHash",
          "type": "bytes32"
        },
        {
          "indexed": true,
          "internalType": "bytes32",
          "name": "referrerCodeHash",
          "type": "bytes32"
        },
        {
          "indexed": true,
          "internalType": "address",
          "name": "referrer",
          "type": "address"
        }
      ],
      "name": "ReferrerAssigned",
      "type": "event"
    },
    {
      "anonymous": false,
      "inputs": [
        {
          "indexed": true,
          "internalType": "address",
          "name": "referrer",
          "type": "address"
        },
        {
          "indexed": true,
          "internalType": "bytes32",
          "name": "nameHash",
          "type": "bytes32"
        },
        {
          "indexed": true,
          "internalType": "bytes32",
          "name": "referrerCodeHash",
          "type": "bytes32"
        },
        {
          "indexed": false,
          "internalType": "uint256",
          "name": "amount",
          "type": "uint256"
        },
        {
          "indexed": false,
          "internalType": "address",
          "name": "token",
          "type": "address"
        },
        {
          "indexed": false,
          "internalType": "bool",
          "name": "isFiat",
          "type": "bool"
        }
      ],
      "name": "RenewalReferralPaid",
      "type": "event"
    },
    {
      "anonymous": false,
      "inputs": [
        {
          "indexed": true,
          "internalType": "bytes32",
          "name": "nameHash",
          "type": "bytes32"
        },
        {
          "indexed": true,
          "internalType": "bytes32",
          "name": "referrerCodeHash",
          "type": "bytes32"
        },
        {
          "indexed": false,
          "internalType": "address",
          "name": "originalReferrer",
          "type": "address"
        },
        {
          "indexed": false,
          "internalType": "address",
          "name": "currentOwner",
          "type": "address"
        },
        {
          "indexed": false,
          "internalType": "string",
          "name": "reason",
          "type": "string"
        }
      ],
      "name": "RenewalReferralSkipped",
      "type": "event"
    },
    {
      "anonymous": false,
      "inputs": [
        {
          "indexed": false,
          "internalType": "address",
          "name": "oldSigner",
          "type": "address"
        },
        {
          "indexed": false,
          "internalType": "address",
          "name": "newSigner",
          "type": "address"
        }
      ],
      "name": "SignerUpdated",
      "type": "event"
    },
    {
      "inputs": [],
      "name": "BASE_PCT",
      "outputs": [
        {
          "internalType": "uint256",
          "name": "",
          "type": "uint256"
        }
      ],
      "stateMutability": "view",
      "type": "function"
    },
    {
      "inputs": [],
      "name": "BONUS_PCT",
      "outputs": [
        {
          "internalType": "uint256",
          "name": "",
          "type": "uint256"
        }
      ],
      "stateMutability": "view",
      "type": "function"
    },
    {
      "inputs": [],
      "name": "BONUS_THRESHOLD",
      "outputs": [
        {
          "internalType": "uint256",
          "name": "",
          "type": "uint256"
        }
      ],
      "stateMutability": "view",
      "type": "function"
    },
    {
      "inputs": [],
      "name": "baseRegistrar",
      "outputs": [
        {
          "internalType": "contract IBaseRegistrar",
          "name": "",
          "type": "address"
        }
      ],
      "stateMutability": "view",
      "type": "function"
    },
    {
      "inputs": [
        {
          "internalType": "address",
          "name": "",
          "type": "address"
        }
      ],
      "name": "controllers",
      "outputs": [
        {
          "internalType": "bool",
          "name": "",
          "type": "bool"
        }
      ],
      "stateMutability": "view",
      "type": "function"
    },
    {
      "inputs": [
        {
          "internalType": "address[]",
          "name": "referrers",
          "type": "address[]"
        },
        {
          "internalType": "uint256[]",
          "name": "amounts",
          "type": "uint256[]"
        }
      ],
      "name": "distributeFiatEarnings",
      "outputs": [],
      "stateMutability": "payable",
      "type": "function"
    },
    {
      "inputs": [
        {
          "internalType": "bytes32",
          "name": "",
          "type": "bytes32"
        }
      ],
      "name": "domainReferrals",
      "outputs": [
        {
          "internalType": "bytes32",
          "name": "referrerCodeHash",
          "type": "bytes32"
        },
        {
          "internalType": "address",
          "name": "originalReferrer",
          "type": "address"
        }
      ],
      "stateMutability": "view",
      "type": "function"
    },
    {
      "inputs": [
        {
          "internalType": "bytes32",
          "name": "nameHash",
          "type": "bytes32"
        }
      ],
      "name": "getDomainReferralInfo",
      "outputs": [
        {
          "internalType": "bytes32",
          "name": "referrerCodeHash",
          "type": "bytes32"
        },
        {
          "internalType": "address",
          "name": "originalReferrer",
          "type": "address"
        },
        {
          "internalType": "bool",
          "name": "isCurrentlyValid",
          "type": "bool"
        },
        {
          "internalType": "address",
          "name": "currentCodeOwner",
          "type": "address"
        },
        {
          "internalType": "string",
          "name": "validityReason",
          "type": "string"
        }
      ],
      "stateMutability": "view",
      "type": "function"
    },
    {
      "inputs": [
        {
          "internalType": "address",
          "name": "referrer",
          "type": "address"
        }
      ],
      "name": "getReferralPct",
      "outputs": [
        {
          "internalType": "uint256",
          "name": "",
          "type": "uint256"
        }
      ],
      "stateMutability": "view",
      "type": "function"
    },
    {
      "inputs": [
        {
          "internalType": "bytes32",
          "name": "referrerCodeHash",
          "type": "bytes32"
        },
        {
          "internalType": "address",
          "name": "originalReferrer",
          "type": "address"
        }
      ],
      "name": "isReferrerValid",
      "outputs": [
        {
          "internalType": "bool",
          "name": "valid",
          "type": "bool"
        },
        {
          "internalType": "address",
          "name": "currentOwner",
          "type": "address"
        },
        {
          "internalType": "string",
          "name": "reason",
          "type": "string"
        }
      ],
      "stateMutability": "view",
      "type": "function"
    },
    {
      "inputs": [],
      "name": "nameWrapper",
      "outputs": [
        {
          "internalType": "contract INameWrapper",
          "name": "",
          "type": "address"
        }
      ],
      "stateMutability": "view",
      "type": "function"
    },
    {
      "inputs": [],
      "name": "owner",
      "outputs": [
        {
          "internalType": "address",
          "name": "",
          "type": "address"
        }
      ],
      "stateMutability": "view",
      "type": "function"
    },
    {
      "inputs": [
        {
          "internalType": "address",
          "name": "",
          "type": "address"
        }
      ],
      "name": "pendingFiatEarnings",
      "outputs": [
        {
          "internalType": "uint256",
          "name": "",
          "type": "uint256"
        }
      ],
      "stateMutability": "view",
      "type": "function"
    },
    {
      "inputs": [
        {
          "components": [
            {
              "internalType": "address",
              "name": "referrer",
              "type": "address"
            },
            {
              "internalType": "address",
              "name": "registrant",
              "type": "address"
            },
            {
              "internalType": "bytes32",
              "name": "nameHash",
              "type": "bytes32"
            },
            {
              "internalType": "bytes32",
              "name": "referrerCodeHash",
              "type": "bytes32"
            },
            {
              "internalType": "uint256",
              "name": "deadline",
              "type": "uint256"
            },
            {
              "internalType": "bytes32",
              "name": "nonce",
              "type": "bytes32"
            }
          ],
          "internalType": "struct ReferralVerifier.ReferralData",
          "name": "data",
          "type": "tuple"
        },
        {
          "internalType": "bytes",
          "name": "signature",
          "type": "bytes"
        },
        {
          "internalType": "uint256",
          "name": "totalPrice",
          "type": "uint256"
        },
        {
          "internalType": "address",
          "name": "token",
          "type": "address"
        },
        {
          "internalType": "bool",
          "name": "isFiat",
          "type": "bool"
        }
      ],
      "name": "processReferral",
      "outputs": [
        {
          "internalType": "uint256",
          "name": "paidAmount",
          "type": "uint256"
        }
      ],
      "stateMutability": "payable",
      "type": "function"
    },
    {
      "inputs": [
        {
          "internalType": "bytes32",
          "name": "nameHash",
          "type": "bytes32"
        },
        {
          "internalType": "uint256",
          "name": "totalPrice",
          "type": "uint256"
        },
        {
          "internalType": "address",
          "name": "token",
          "type": "address"
        },
        {
          "internalType": "bool",
          "name": "isFiat",
          "type": "bool"
        }
      ],
      "name": "processRenewalReferral",
      "outputs": [
        {
          "internalType": "uint256",
          "name": "paidAmount",
          "type": "uint256"
        }
      ],
      "stateMutability": "payable",
      "type": "function"
    },
    {
      "inputs": [
        {
          "internalType": "address",
          "name": "",
          "type": "address"
        }
      ],
      "name": "referralCount",
      "outputs": [
        {
          "internalType": "uint256",
          "name": "",
          "type": "uint256"
        }
      ],
      "stateMutability": "view",
      "type": "function"
    },
    {
      "inputs": [],
      "name": "renounceOwnership",
      "outputs": [],
      "stateMutability": "nonpayable",
      "type": "function"
    },
    {
      "inputs": [
        {
          "internalType": "address",
          "name": "_baseRegistrar",
          "type": "address"
        }
      ],
      "name": "setBaseRegistrar",
      "outputs": [],
      "stateMutability": "nonpayable",
      "type": "function"
    },
    {
      "inputs": [
        {
          "internalType": "address",
          "name": "controller",
          "type": "address"
        },
        {
          "internalType": "bool",
          "name": "allowed",
          "type": "bool"
        }
      ],
      "name": "setController",
      "outputs": [],
      "stateMutability": "nonpayable",
      "type": "function"
    },
    {
      "inputs": [
        {
          "internalType": "address",
          "name": "_nameWrapper",
          "type": "address"
        }
      ],
      "name": "setNameWrapper",
      "outputs": [],
      "stateMutability": "nonpayable",
      "type": "function"
    },
    {
      "inputs": [
        {
          "internalType": "address",
          "name": "_signer",
          "type": "address"
        }
      ],
      "name": "setSigner",
      "outputs": [],
      "stateMutability": "nonpayable",
      "type": "function"
    },
    {
      "inputs": [],
      "name": "signer",
      "outputs": [
        {
          "internalType": "address",
          "name": "",
          "type": "address"
        }
      ],
      "stateMutability": "view",
      "type": "function"
    },
    {
      "inputs": [
        {
          "internalType": "address",
          "name": "",
          "type": "address"
        }
      ],
      "name": "totalEarnings",
      "outputs": [
        {
          "internalType": "uint256",
          "name": "",
          "type": "uint256"
        }
      ],
      "stateMutability": "view",
      "type": "function"
    },
    {
      "inputs": [
        {
          "internalType": "address",
          "name": "newOwner",
          "type": "address"
        }
      ],
      "name": "transferOwnership",
      "outputs": [],
      "stateMutability": "nonpayable",
      "type": "function"
    },
    {
      "inputs": [],
      "name": "untrackedFiatEarnings",
      "outputs": [
        {
          "internalType": "uint256",
          "name": "",
          "type": "uint256"
        }
      ],
      "stateMutability": "view",
      "type": "function"
    },
    {
      "inputs": [
        {
          "internalType": "bytes32",
          "name": "",
          "type": "bytes32"
        }
      ],
      "name": "usedNonces",
      "outputs": [
        {
          "internalType": "bool",
          "name": "",
          "type": "bool"
        }
      ],
      "stateMutability": "view",
      "type": "function"
    },
    {
      "inputs": [
        {
          "components": [
            {
              "internalType": "address",
              "name": "referrer",
              "type": "address"
            },
            {
              "internalType": "address",
              "name": "registrant",
              "type": "address"
            },
            {
              "internalType": "bytes32",
              "name": "nameHash",
              "type": "bytes32"
            },
            {
              "internalType": "bytes32",
              "name": "referrerCodeHash",
              "type": "bytes32"
            },
            {
              "internalType": "uint256",
              "name": "deadline",
              "type": "uint256"
            },
            {
              "internalType": "bytes32",
              "name": "nonce",
              "type": "bytes32"
            }
          ],
          "internalType": "struct ReferralVerifier.ReferralData",
          "name": "data",
          "type": "tuple"
        },
        {
          "internalType": "bytes",
          "name": "signature",
          "type": "bytes"
        }
      ],
      "name": "verifySignature",
      "outputs": [
        {
          "internalType": "bool",
          "name": "",
          "type": "bool"
        }
      ],
      "stateMutability": "view",
      "type": "function"
    },
    {
      "inputs": [],
      "name": "withdrawStuckETH",
      "outputs": [],
      "stateMutability": "nonpayable",
      "type": "function"
    },
    {
      "inputs": [
        {
          "internalType": "address",
          "name": "token",
          "type": "address"
        }
      ],
      "name": "withdrawStuckTokens",
      "outputs": [],
      "stateMutability": "nonpayable",
      "type": "function"
    },
    {
      "stateMutability": "payable",
      "type": "receive"
    }
  ],
  "transactionHash": "0xb320e20c3afa9577f3ac31281a420696d245dd11e01e1246a84b75dae526310e",
  "args": [
    "0xD83deFbA240568040b39bb2C8B4DB7dB02d40593",
    "0x0Ba17Ee6c8d745F5bDB710Fead7d85ceE17E5622",
    "0x1A7EB9815b6B1014A542CE0628D8FC65Bc5Cb653"
  ],
  "numDeployments": 2,
  "solcInputHash": "0e58c48cf2a74f35c9c47466938f7dad",
  "bytecode": "0x60806040523480156200001157600080fd5b50604051620027743803806200277483398101604081905262000034916200014d565b600080546001600160a01b031916339081178255604051909182917f8be0079c531659141344cd1fd0a4f28419497f9722a3daafe3b4186f6b6457e0908290a3506001600160a01b0383166200009d5760405163e6c4247b60e01b815260040160405180910390fd5b6001600160a01b038216620000c55760405163e6c4247b60e01b815260040160405180910390fd5b6001600160a01b038116620000ed5760405163e6c4247b60e01b815260040160405180910390fd5b600180546001600160a01b039485166001600160a01b03199182161790915560028054938516938216939093179092556003805491909316911617905562000197565b80516001600160a01b03811681146200014857600080fd5b919050565b6000806000606084860312156200016357600080fd5b6200016e8462000130565b92506200017e6020850162000130565b91506200018e6040850162000130565b90509250925092565b6125cd80620001a76000396000f3fe6080604052600436106101c65760003560e01c806374f04565116100f7578063cb96372811610095578063e0dba60f11610064578063e0dba60f14610561578063f2fde38b14610581578063f5648a4f146105a1578063feb61724146105b657600080fd5b8063cb963728146104c4578063d5e2c0cd146104e4578063da8c229e14610504578063db74559b1461053457600080fd5b80638da5cb5b116100d15780638da5cb5b1461043f578063952393501461045d578063a8e5fbc01461048e578063b72e8edd146104ae57600080fd5b806374f04565146103985780637c44e651146103b8578063851170051461041257600080fd5b806344a5a810116101645780636a8be89e1161013e5780636a8be89e1461032e5780636c19e7831461034e5780636f6a61391461036e578063715018a61461038357600080fd5b806344a5a810146102d757806357ddc25a146102ea5780635bb74a401461031957600080fd5b806322db4143116101a057806322db41431461023a578063238ac9331461024f578063246cdac914610287578063371412f1146102b757600080fd5b806302ab9706146101d2578063176e7380146102125780631abe9bd91461022557600080fd5b366101cd57005b600080fd5b3480156101de57600080fd5b506101ff6101ed36600461202f565b60096020526000908152604090205481565b6040519081526020015b60405180910390f35b6101ff61022036600461205a565b6105e6565b6102386102333660046120f0565b610807565b005b34801561024657600080fd5b506101ff600581565b34801561025b57600080fd5b5060015461026f906001600160a01b031681565b6040516001600160a01b039091168152602001610209565b34801561029357600080fd5b506102a76102a23660046121b6565b610a22565b6040519015158152602001610209565b3480156102c357600080fd5b506102386102d236600461202f565b610afa565b6101ff6102e536600461220a565b610b6d565b3480156102f657600080fd5b5061030a610305366004612291565b610fe7565b60405161020993929190612311565b34801561032557600080fd5b506101ff601981565b34801561033a57600080fd5b5061023861034936600461202f565b6111d0565b34801561035a57600080fd5b5061023861036936600461202f565b611243565b34801561037a57600080fd5b506101ff601e81565b34801561038f57600080fd5b506102386112fd565b3480156103a457600080fd5b5060035461026f906001600160a01b031681565b3480156103c457600080fd5b506103f56103d336600461233d565b600760205260009081526040902080546001909101546001600160a01b031682565b604080519283526001600160a01b03909116602083015201610209565b34801561041e57600080fd5b506101ff61042d36600461202f565b60066020526000908152604090205481565b34801561044b57600080fd5b506000546001600160a01b031661026f565b34801561046957600080fd5b5061047d61047836600461233d565b611371565b604051610209959493929190612356565b34801561049a57600080fd5b5060025461026f906001600160a01b031681565b3480156104ba57600080fd5b506101ff60085481565b3480156104d057600080fd5b506102386104df36600461202f565b6113cd565b3480156104f057600080fd5b506101ff6104ff36600461202f565b611488565b34801561051057600080fd5b506102a761051f36600461202f565b600a6020526000908152604090205460ff1681565b34801561054057600080fd5b506101ff61054f36600461202f565b60056020526000908152604090205481565b34801561056d57600080fd5b5061023861057c366004612390565b6114b9565b34801561058d57600080fd5b5061023861059c36600461202f565b611569565b3480156105ad57600080fd5b50610238611653565b3480156105c257600080fd5b506102a76105d136600461233d565b60046020526000908152604090205460ff1681565b336000908152600a602052604081205460ff1615801561061157506000546001600160a01b03163314155b1561062f576040516323019e6760e01b815260040160405180910390fd5b600085815260076020908152604091829020825180840190935280548352600101546001600160a01b03169082018190526106775761066d84611712565b60009150506107ff565b600080600061068e84600001518560200151610fe7565b925092509250826106f4578360000151897f05cce9fb524e8faf93cbaf78512a9e3e73a0658cfdc3cb26b86e4b4f30ce67ec866020015185856040516106d6939291906123be565b60405180910390a36106e787611712565b60009450505050506107ff565b6020808501516001600160a01b03166000908152600591829052604081205490911115610722576019610725565b601e5b90506064610733828b612400565b61073d9190612417565b9550856006600087602001516001600160a01b03166001600160a01b0316815260200190815260200160002060008282546107789190612439565b9091555050602085015161078e90878a8a611839565b84600001518a86602001516001600160a01b03167fea55646bc5ccc9edb50cbc57abd9e73a073f771979b80d2086f16360c848f2a5898c8c6040516107f1939291909283526001600160a01b039190911660208301521515604082015260600190565b60405180910390a450505050505b949350505050565b6000546001600160a01b0316331461083a5760405162461bcd60e51b81526004016108319061244c565b60405180910390fd5b82811461087b5760405162461bcd60e51b815260206004820152600f60248201526e098cadccee8d040dad2e6dac2e8c6d608b1b6044820152606401610831565b6000805b84811015610a0357600086868381811061089b5761089b612481565b90506020020160208101906108b0919061202f565b905060008585848181106108c6576108c6612481565b90506020020135905060096000836001600160a01b03166001600160a01b031681526020019081526020016000205481111561091757506001600160a01b0381166000908152600960205260409020545b80156109ee576001600160a01b03821660009081526009602052604081208054839290610945908490612497565b9091555061095590508185612439565b93506000826001600160a01b03168260405160006040518083038185875af1925050503d80600081146109a4576040519150601f19603f3d011682016040523d82523d6000602084013e6109a9565b606091505b50509050806109ec5760405162461bcd60e51b815260206004820152600f60248201526e151c985b9cd9995c8819985a5b1959608a1b6044820152606401610831565b505b505080806109fb906124aa565b91505061087f565b508060086000828254610a169190612497565b90915550505050505050565b600080610a32602086018661202f565b610a42604087016020880161202f565b8660400135876060013588608001358960a001354630604051602001610a6f9897969594939291906124c3565b6040516020818303038152906040528051906020012090506000610a9282611b40565b600154604080516020601f89018190048102820181019092528781529293506001600160a01b0390911691610ae4918491908990899081908401838280828437600092019190915250611b9392505050565b6001600160a01b031614925050505b9392505050565b6000546001600160a01b03163314610b245760405162461bcd60e51b81526004016108319061244c565b6001600160a01b038116610b4b5760405163e6c4247b60e01b815260040160405180910390fd5b600280546001600160a01b0319166001600160a01b0392909216919091179055565b336000908152600a602052604081205460ff16158015610b9857506000546001600160a01b03163314155b15610bb6576040516323019e6760e01b815260040160405180910390fd5b6000610bc5602089018961202f565b6001600160a01b031603610be457610bdc83611712565b506000610fdd565b610bf4604088016020890161202f565b6001600160a01b0316610c0a602089018961202f565b6001600160a01b031603610c3157604051632af47b8760e11b815260040160405180910390fd5b8660800135421115610c565760405163df4cc36d60e01b815260040160405180910390fd5b60a087013560009081526004602052604090205460ff1615610c8a57604051623f613760e71b815260040160405180910390fd5b6000610c99602089018961202f565b610ca960408a0160208b0161202f565b89604001358a606001358b608001358c60a001354630604051602001610cd69897969594939291906124c3565b6040516020818303038152906040528051906020012090506000610cf982611b40565b90506000610d3d828a8a8080601f016020809104026020016040519081016040528093929190818152602001838380828437600092019190915250611b9392505050565b6001549091506001600160a01b03808316911614610d6e57604051638baa579f60e01b815260040160405180910390fd5b60a08a01356000908152600460209081526040808320805460ff19166001908117909155818e01358452600790925290912001546001600160a01b0316610e64576040805180820190915260608b01358152602080820190610dd2908d018d61202f565b6001600160a01b0390811690915260408c8101356000908152600760209081529190208351815592810151600190930180546001600160a01b03191693909216929092179055610e24908b018b61202f565b6001600160a01b03168a606001358b604001357f99871367a2a52c63a90d0acf1752ff1e30b56e1e9a19a428af0877f8ee485c7460405160405180910390a45b600060058082610e7760208f018f61202f565b6001600160a01b03166001600160a01b03168152602001908152602001600020541015610ea5576019610ea8565b601e5b90506064610eb6828a612400565b610ec09190612417565b945060056000610ed360208e018e61202f565b6001600160a01b0316815260208101919091526040016000908120805491610efa836124aa565b9091555085905060066000610f1260208f018f61202f565b6001600160a01b03166001600160a01b031681526020019081526020016000206000828254610f419190612439565b90915550610f5f9050610f5760208d018d61202f565b868989611839565b60408b01803590610f739060208e0161202f565b6001600160a01b0316610f8960208e018e61202f565b604080518981526001600160a01b038c811660208301528b151582840152915192909116917f14c8a59c54eb13a2e230089d31e60d7f059c16dda5c37dcc8488eb667ed5cad69181900360600190a4505050505b9695505050505050565b6002546040516331a9108f60e11b815260048101849052600091829160609186916001600160a01b0390911690636352211e90602401602060405180830381865afa925050508015611056575060408051601f3d908101601f1916820190925261105391810190612515565b60015b611094575050604080518082019091526015815274111bdb585a5b88191bd95cc81b9bdd08195e1a5cdd605a1b6020820152600092508291506111c9565b9250600354604051636b727d4360e11b81526000916001600160a01b03169063d6e4fa86906110cb90859060040190815260200190565b602060405180830381865afa1580156110e8573d6000803e3d6000fd5b505050506040513d601f19601f8201168201806040525081019061110c9190612532565b90508042111561115757505060408051808201909152601781527f526566657272616c20646f6d61696e206578706972656400000000000000000060208201526000935090506111c9565b856001600160a01b0316846001600160a01b0316146111b157505060408051808201909152601e81527f5265666572726572206e6f206c6f6e676572206f776e7320646f6d61696e000060208201526000935090506111c9565b50506040805160208101909152600081526001935090505b9250925092565b6000546001600160a01b031633146111fa5760405162461bcd60e51b81526004016108319061244c565b6001600160a01b0381166112215760405163e6c4247b60e01b815260040160405180910390fd5b600380546001600160a01b0319166001600160a01b0392909216919091179055565b6000546001600160a01b0316331461126d5760405162461bcd60e51b81526004016108319061244c565b6001600160a01b0381166112945760405163e6c4247b60e01b815260040160405180910390fd5b600154604080516001600160a01b03928316815291831660208301527f2d025324f0a785e8c12d0a0d91a9caa49df4ef20ff87e0df7213a1d4f3157beb910160405180910390a1600180546001600160a01b0319166001600160a01b0392909216919091179055565b6000546001600160a01b031633146113275760405162461bcd60e51b81526004016108319061244c565b600080546040516001600160a01b03909116907f8be0079c531659141344cd1fd0a4f28419497f9722a3daafe3b4186f6b6457e0908390a3600080546001600160a01b0319169055565b6000818152600760209081526040808320815180830190925280548083526001909101546001600160a01b03169282018390529290819060609084156113c3576113bb8686610fe7565b919550935091505b5091939590929450565b6000546001600160a01b031633146113f75760405162461bcd60e51b81526004016108319061244c565b61148561140c6000546001600160a01b031690565b6040516370a0823160e01b81523060048201526001600160a01b038416906370a0823190602401602060405180830381865afa158015611450573d6000803e3d6000fd5b505050506040513d601f19601f820116820180604052508101906114749190612532565b6001600160a01b0384169190611c3d565b50565b6001600160a01b038116600090815260056020819052604082205410156114b05760196114b3565b601e5b92915050565b6000546001600160a01b031633146114e35760405162461bcd60e51b81526004016108319061244c565b6001600160a01b03821661150a5760405163e6c4247b60e01b815260040160405180910390fd5b6001600160a01b0382166000818152600a6020908152604091829020805460ff191685151590811790915591519182527ff6d2c45d43180fa060c7458a5fe9d3e06119fac321af298342df4db8919bd2ee910160405180910390a25050565b6000546001600160a01b031633146115935760405162461bcd60e51b81526004016108319061244c565b6001600160a01b0381166115f85760405162461bcd60e51b815260206004820152602660248201527f4f776e61626c653a206e6577206f776e657220697320746865207a65726f206160448201526564647265737360d01b6064820152608401610831565b600080546040516001600160a01b03808516939216917f8be0079c531659141344cd1fd0a4f28419497f9722a3daafe3b4186f6b6457e091a3600080546001600160a01b0319166001600160a01b0392909216919091179055565b6000546001600160a01b0316331461167d5760405162461bcd60e51b81526004016108319061244c565b600080546040516001600160a01b039091169047908381818185875af1925050503d80600081146116ca576040519150601f19603f3d011682016040523d82523d6000602084013e6116cf565b606091505b50509050806114855760405162461bcd60e51b815260206004820152600f60248201526e15da5d1a191c985dc819985a5b1959608a1b6044820152606401610831565b6001600160a01b0381166117b257341561148557604051600090339034908381818185875af1925050503d8060008114611768576040519150601f19603f3d011682016040523d82523d6000602084013e61176d565b606091505b50509050806117ae5760405162461bcd60e51b815260206004820152600d60248201526c1499599d5b990819985a5b1959609a1b6044820152606401610831565b5050565b6040516370a0823160e01b81523060048201526000906001600160a01b038316906370a0823190602401602060405180830381865afa1580156117f9573d6000803e3d6000fd5b505050506040513d601f19601f8201168201806040525081019061181d9190612532565b905080156117ae576117ae6001600160a01b0383163383611c3d565b801561188b576001600160a01b03841660009081526009602052604081208054859290611867908490612439565b9250508190555082600860008282546118809190612439565b90915550611b3a9050565b6001600160a01b038216611a3e57823410156118e95760405162461bcd60e51b815260206004820152601d60248201527f496e73756666696369656e742045544820666f7220726566657272616c0000006044820152606401610831565b6000846001600160a01b03168460405160006040518083038185875af1925050503d8060008114611936576040519150601f19603f3d011682016040523d82523d6000602084013e61193b565b606091505b505090508061195d576040516312171d8360e31b815260040160405180910390fd5b60006119698534612497565b90508015611a3757604051600090339083908381818185875af1925050503d80600081146119b3576040519150601f19603f3d011682016040523d82523d6000602084013e6119b8565b606091505b5050905080611a005760405162461bcd60e51b8152602060048201526014602482015273115e18d95cdcc81c99599d5b990819985a5b195960621b6044820152606401610831565b60405182815233907f2c003babc9bab745cd44b6d4ba45ddf77bdbda4a59d52e1fc805dfb0d8895c7e9060200160405180910390a2505b5050611b3a565b6040516370a0823160e01b81523060048201526000906001600160a01b038416906370a0823190602401602060405180830381865afa158015611a85573d6000803e3d6000fd5b505050506040513d601f19601f82011682018060405250810190611aa99190612532565b905083811015611afb5760405162461bcd60e51b815260206004820181905260248201527f496e73756666696369656e7420746f6b656e7320666f7220726566657272616c6044820152606401610831565b611b0f6001600160a01b0384168686611c3d565b6000611b1b8583612497565b90508015611b3757611b376001600160a01b0385163383611c3d565b50505b50505050565b6040517f19457468657265756d205369676e6564204d6573736167653a0a3332000000006020820152603c8101829052600090605c01604051602081830303815290604052805190602001209050919050565b6000806000808451604103611bbc5750505060208201516040830151606084015160001a611c31565b8451604003611be95750505060408201516020830151906001600160ff1b0381169060ff1c601b01611c31565b60405162461bcd60e51b815260206004820152601f60248201527f45434453413a20696e76616c6964207369676e6174757265206c656e677468006044820152606401610831565b610fdd86828585611c94565b604080516001600160a01b038416602482015260448082018490528251808303909101815260649091019091526020810180516001600160e01b031663a9059cbb60e01b179052611c8f908490611e3d565b505050565b60007f7fffffffffffffffffffffffffffffff5d576e7357a4501ddfe92f46681b20a0821115611d115760405162461bcd60e51b815260206004820152602260248201527f45434453413a20696e76616c6964207369676e6174757265202773272076616c604482015261756560f01b6064820152608401610831565b8360ff16601b1480611d2657508360ff16601c145b611d7d5760405162461bcd60e51b815260206004820152602260248201527f45434453413a20696e76616c6964207369676e6174757265202776272076616c604482015261756560f01b6064820152608401610831565b6040805160008082526020820180845288905260ff871692820192909252606081018590526080810184905260019060a0016020604051602081039080840390855afa158015611dd1573d6000803e3d6000fd5b5050604051601f1901519150506001600160a01b038116611e345760405162461bcd60e51b815260206004820152601860248201527f45434453413a20696e76616c6964207369676e617475726500000000000000006044820152606401610831565b95945050505050565b6000611e92826040518060400160405280602081526020017f5361666545524332303a206c6f772d6c6576656c2063616c6c206661696c6564815250856001600160a01b0316611f0f9092919063ffffffff16565b805190915015611c8f5780806020019051810190611eb0919061254b565b611c8f5760405162461bcd60e51b815260206004820152602a60248201527f5361666545524332303a204552433230206f7065726174696f6e20646964206e6044820152691bdd081cdd58d8d9595960b21b6064820152608401610831565b60606107ff848460008585843b611f685760405162461bcd60e51b815260206004820152601d60248201527f416464726573733a2063616c6c20746f206e6f6e2d636f6e74726163740000006044820152606401610831565b600080866001600160a01b03168587604051611f849190612568565b60006040518083038185875af1925050503d8060008114611fc1576040519150601f19603f3d011682016040523d82523d6000602084013e611fc6565b606091505b5091509150611fd6828286611fe1565b979650505050505050565b60608315611ff0575081610af3565b8251156120005782518084602001fd5b8160405162461bcd60e51b81526004016108319190612584565b6001600160a01b038116811461148557600080fd5b60006020828403121561204157600080fd5b8135610af38161201a565b801515811461148557600080fd5b6000806000806080858703121561207057600080fd5b843593506020850135925060408501356120898161201a565b915060608501356120998161204c565b939692955090935050565b60008083601f8401126120b657600080fd5b50813567ffffffffffffffff8111156120ce57600080fd5b6020830191508360208260051b85010111156120e957600080fd5b9250929050565b6000806000806040858703121561210657600080fd5b843567ffffffffffffffff8082111561211e57600080fd5b61212a888389016120a4565b9096509450602087013591508082111561214357600080fd5b50612150878288016120a4565b95989497509550505050565b600060c0828403121561216e57600080fd5b50919050565b60008083601f84011261218657600080fd5b50813567ffffffffffffffff81111561219e57600080fd5b6020830191508360208285010111156120e957600080fd5b600080600060e084860312156121cb57600080fd5b6121d5858561215c565b925060c084013567ffffffffffffffff8111156121f157600080fd5b6121fd86828701612174565b9497909650939450505050565b600080600080600080610140878903121561222457600080fd5b61222e888861215c565b955060c087013567ffffffffffffffff81111561224a57600080fd5b61225689828a01612174565b90965094505060e087013592506101008701356122728161201a565b91506101208701356122838161204c565b809150509295509295509295565b600080604083850312156122a457600080fd5b8235915060208301356122b68161201a565b809150509250929050565b60005b838110156122dc5781810151838201526020016122c4565b50506000910152565b600081518084526122fd8160208601602086016122c1565b601f01601f19169290920160200192915050565b83151581526001600160a01b0383166020820152606060408201819052600090611e34908301846122e5565b60006020828403121561234f57600080fd5b5035919050565b8581526001600160a01b03858116602083015284151560408301528316606082015260a060808201819052600090611fd6908301846122e5565b600080604083850312156123a357600080fd5b82356123ae8161201a565b915060208301356122b68161204c565b6001600160a01b03848116825283166020820152606060408201819052600090611e34908301846122e5565b634e487b7160e01b600052601160045260246000fd5b80820281158282048414176114b3576114b36123ea565b60008261243457634e487b7160e01b600052601260045260246000fd5b500490565b808201808211156114b3576114b36123ea565b6020808252818101527f4f776e61626c653a2063616c6c6572206973206e6f7420746865206f776e6572604082015260600190565b634e487b7160e01b600052603260045260246000fd5b818103818111156114b3576114b36123ea565b6000600182016124bc576124bc6123ea565b5060010190565b6bffffffffffffffffffffffff196060998a1b8116825297891b88166014820152602881019690965260488601949094526068850192909252608884015260a883015290921b1660c882015260dc0190565b60006020828403121561252757600080fd5b8151610af38161201a565b60006020828403121561254457600080fd5b5051919050565b60006020828403121561255d57600080fd5b8151610af38161204c565b6000825161257a8184602087016122c1565b9190910192915050565b602081526000610af360208301846122e556fea2646970667358221220b5543957d6439169726f18cc98c964474e9c58dcee92bac5b38ef5ae32ddf65864736f6c63430008140033",
  "devdoc": {
    "kind": "dev",
    "methods": {
      "owner()": {
        "details": "Returns the address of the current owner."
      },
      "renounceOwnership()": {
        "details": "Leaves the contract without owner. It will not be possible to call `onlyOwner` functions anymore. Can only be called by the current owner. NOTE: Renouncing ownership will leave the contract without an owner, thereby removing any functionality that is only available to the owner."
      },
      "transferOwnership(address)": {
        "details": "Transfers ownership of the contract to a new account (`newOwner`). Can only be called by the current owner."
      }
    },
    "version": 1
  },
  "userdoc": {
    "kind": "user",
    "methods": {
      "distributeFiatEarnings(address[],uint256[])": {
        "notice": "Batch distribute fiat earnings"
      },
      "isReferrerValid(bytes32,address)": {
        "notice": "Check if a referrer still owns their referral code domain"
      },
      "processReferral((address,address,bytes32,bytes32,uint256,bytes32),bytes,uint256,address,bool)": {
        "notice": "Process referral for NEW registrations (requires signature)"
      },
      "processRenewalReferral(bytes32,uint256,address,bool)": {
        "notice": "Process referral for RENEWALS (checks if referrer still owns their domain)"
      }
    },
    "version": 1
  },
  "storageLayout": {
    "storage": [
      {
        "astId": 492,
        "contract": "contracts/ethregistrar/ReferralVerifier.sol:ReferralVerifier",
        "label": "_owner",
        "offset": 0,
        "slot": "0",
        "type": "t_address"
      },
      {
        "astId": 20643,
        "contract": "contracts/ethregistrar/ReferralVerifier.sol:ReferralVerifier",
        "label": "signer",
        "offset": 0,
        "slot": "1",
        "type": "t_address"
      },
      {
        "astId": 20646,
        "contract": "contracts/ethregistrar/ReferralVerifier.sol:ReferralVerifier",
        "label": "nameWrapper",
        "offset": 0,
        "slot": "2",
        "type": "t_contract(INameWrapper)20618"
      },
      {
        "astId": 20649,
        "contract": "contracts/ethregistrar/ReferralVerifier.sol:ReferralVerifier",
        "label": "baseRegistrar",
        "offset": 0,
        "slot": "3",
        "type": "t_contract(IBaseRegistrar)20626"
      },
      {
        "astId": 20653,
        "contract": "contracts/ethregistrar/ReferralVerifier.sol:ReferralVerifier",
        "label": "usedNonces",
        "offset": 0,
        "slot": "4",
        "type": "t_mapping(t_bytes32,t_bool)"
      },
      {
        "astId": 20657,
        "contract": "contracts/ethregistrar/ReferralVerifier.sol:ReferralVerifier",
        "label": "referralCount",
        "offset": 0,
        "slot": "5",
        "type": "t_mapping(t_address,t_uint256)"
      },
      {
        "astId": 20661,
        "contract": "contracts/ethregistrar/ReferralVerifier.sol:ReferralVerifier",
        "label": "totalEarnings",
        "offset": 0,
        "slot": "6",
        "type": "t_mapping(t_address,t_uint256)"
      },
      {
        "astId": 20671,
        "contract": "contracts/ethregistrar/ReferralVerifier.sol:ReferralVerifier",
        "label": "domainReferrals",
        "offset": 0,
        "slot": "7",
        "type": "t_mapping(t_bytes32,t_struct(ReferralInfo)20666_storage)"
      },
      {
        "astId": 20673,
        "contract": "contracts/ethregistrar/ReferralVerifier.sol:ReferralVerifier",
        "label": "untrackedFiatEarnings",
        "offset": 0,
        "slot": "8",
        "type": "t_uint256"
      },
      {
        "astId": 20677,
        "contract": "contracts/ethregistrar/ReferralVerifier.sol:ReferralVerifier",
        "label": "pendingFiatEarnings",
        "offset": 0,
        "slot": "9",
        "type": "t_mapping(t_address,t_uint256)"
      },
      {
        "astId": 20681,
        "contract": "contracts/ethregistrar/ReferralVerifier.sol:ReferralVerifier",
        "label": "controllers",
        "offset": 0,
        "slot": "10",
        "type": "t_mapping(t_address,t_bool)"
      }
    ],
    "types": {
      "t_address": {
        "encoding": "inplace",
        "label": "address",
        "numberOfBytes": "20"
      },
      "t_bool": {
        "encoding": "inplace",
        "label": "bool",
        "numberOfBytes": "1"
      },
      "t_bytes32": {
        "encoding": "inplace",
        "label": "bytes32",
        "numberOfBytes": "32"
      },
      "t_contract(IBaseRegistrar)20626": {
        "encoding": "inplace",
        "label": "contract IBaseRegistrar",
        "numberOfBytes": "20"
      },
      "t_contract(INameWrapper)20618": {
        "encoding": "inplace",
        "label": "contract INameWrapper",
        "numberOfBytes": "20"
      },
      "t_mapping(t_address,t_bool)": {
        "encoding": "mapping",
        "key": "t_address",
        "label": "mapping(address => bool)",
        "numberOfBytes": "32",
        "value": "t_bool"
      },
      "t_mapping(t_address,t_uint256)": {
        "encoding": "mapping",
        "key": "t_address",
        "label": "mapping(address => uint256)",
        "numberOfBytes": "32",
        "value": "t_uint256"
      },
      "t_mapping(t_bytes32,t_bool)": {
        "encoding": "mapping",
        "key": "t_bytes32",
        "label": "mapping(bytes32 => bool)",
        "numberOfBytes": "32",
        "value": "t_bool"
      },
      "t_mapping(t_bytes32,t_struct(ReferralInfo)20666_storage)": {
        "encoding": "mapping",
        "key": "t_bytes32",
        "label": "mapping(bytes32 => struct ReferralVerifier.ReferralInfo)",
        "numberOfBytes": "32",
        "value": "t_struct(ReferralInfo)20666_storage"
      },
      "t_struct(ReferralInfo)20666_storage": {
        "encoding": "inplace",
        "label": "struct ReferralVerifier.ReferralInfo",
        "members": [
          {
            "astId": 20663,
            "contract": "contracts/ethregistrar/ReferralVerifier.sol:ReferralVerifier",
            "label": "referrerCodeHash",
            "offset": 0,
            "slot": "0",
            "type": "t_bytes32"
          },
          {
            "astId": 20665,
            "contract": "contracts/ethregistrar/ReferralVerifier.sol:ReferralVerifier",
            "label": "originalReferrer",
            "offset": 0,
            "slot": "1",
            "type": "t_address"
          }
        ],
        "numberOfBytes": "64"
      },
      "t_uint256": {
        "encoding": "inplace",
        "label": "uint256",
        "numberOfBytes": "32"
      }
    }
  }
}