{
  "address": "0xAd0edb8cf7Cd9BF8ca11Fc8A9593c15a922D8870",
  "abi": [
    {
      "inputs": [
        {
          "internalType": "contract ENS",
          "name": "ensAddr",
          "type": "address"
        }
      ],
      "stateMutability": "nonpayable",
      "type": "constructor"
    },
    {
      "anonymous": false,
      "inputs": [
        {
          "indexed": true,
          "internalType": "address",
          "name": "controller",
          "type": "address"
        },
        {
          "indexed": false,
          "internalType": "bool",
          "name": "enabled",
          "type": "bool"
        }
      ],
      "name": "ControllerChanged",
      "type": "event"
    },
    {
      "anonymous": false,
      "inputs": [
        {
          "indexed": true,
          "internalType": "contract NameResolver",
          "name": "resolver",
          "type": "address"
        }
      ],
      "name": "DefaultResolverChanged",
      "type": "event"
    },
    {
      "anonymous": false,
      "inputs": [
        {
          "indexed": true,
          "internalType": "address",
          "name": "previousOwner",
          "type": "address"
        },
        {
          "indexed": true,
          "internalType": "address",
          "name": "newOwner",
          "type": "address"
        }
      ],
      "name": "OwnershipTransferred",
      "type": "event"
    },
    {
      "anonymous": false,
      "inputs": [
        {
          "indexed": true,
          "internalType": "address",
          "name": "addr",
          "type": "address"
        },
        {
          "indexed": true,
          "internalType": "bytes32",
          "name": "node",
          "type": "bytes32"
        }
      ],
      "name": "ReverseClaimed",
      "type": "event"
    },
    {
      "inputs": [
        {
          "internalType": "address",
          "name": "owner",
          "type": "address"
        }
      ],
      "name": "claim",
      "outputs": [
        {
          "internalType": "bytes32",
          "name": "",
          "type": "bytes32"
        }
      ],
      "stateMutability": "nonpayable",
      "type": "function"
    },
    {
      "inputs": [
        {
          "internalType": "address",
          "name": "addr",
          "type": "address"
        },
        {
          "internalType": "address",
          "name": "owner",
          "type": "address"
        },
        {
          "internalType": "address",
          "name": "resolver",
          "type": "address"
        }
      ],
      "name": "claimForAddr",
      "outputs": [
        {
          "internalType": "bytes32",
          "name": "",
          "type": "bytes32"
        }
      ],
      "stateMutability": "nonpayable",
      "type": "function"
    },
    {
      "inputs": [
        {
          "internalType": "address",
          "name": "owner",
          "type": "address"
        },
        {
          "internalType": "address",
          "name": "resolver",
          "type": "address"
        }
      ],
      "name": "claimWithResolver",
      "outputs": [
        {
          "internalType": "bytes32",
          "name": "",
          "type": "bytes32"
        }
      ],
      "stateMutability": "nonpayable",
      "type": "function"
    },
    {
      "inputs": [
        {
          "internalType": "address",
          "name": "",
          "type": "address"
        }
      ],
      "name": "controllers",
      "outputs": [
        {
          "internalType": "bool",
          "name": "",
          "type": "bool"
        }
      ],
      "stateMutability": "view",
      "type": "function"
    },
    {
      "inputs": [],
      "name": "defaultResolver",
      "outputs": [
        {
          "internalType": "contract NameResolver",
          "name": "",
          "type": "address"
        }
      ],
      "stateMutability": "view",
      "type": "function"
    },
    {
      "inputs": [],
      "name": "ens",
      "outputs": [
        {
          "internalType": "contract ENS",
          "name": "",
          "type": "address"
        }
      ],
      "stateMutability": "view",
      "type": "function"
    },
    {
      "inputs": [
        {
          "internalType": "address",
          "name": "addr",
          "type": "address"
        }
      ],
      "name": "node",
      "outputs": [
        {
          "internalType": "bytes32",
          "name": "",
          "type": "bytes32"
        }
      ],
      "stateMutability": "pure",
      "type": "function"
    },
    {
      "inputs": [],
      "name": "owner",
      "outputs": [
        {
          "internalType": "address",
          "name": "",
          "type": "address"
        }
      ],
      "stateMutability": "view",
      "type": "function"
    },
    {
      "inputs": [],
      "name": "renounceOwnership",
      "outputs": [],
      "stateMutability": "nonpayable",
      "type": "function"
    },
    {
      "inputs": [
        {
          "internalType": "address",
          "name": "controller",
          "type": "address"
        },
        {
          "internalType": "bool",
          "name": "enabled",
          "type": "bool"
        }
      ],
      "name": "setController",
      "outputs": [],
      "stateMutability": "nonpayable",
      "type": "function"
    },
    {
      "inputs": [
        {
          "internalType": "address",
          "name": "resolver",
          "type": "address"
        }
      ],
      "name": "setDefaultResolver",
      "outputs": [],
      "stateMutability": "nonpayable",
      "type": "function"
    },
    {
      "inputs": [
        {
          "internalType": "string",
          "name": "name",
          "type": "string"
        }
      ],
      "name": "setName",
      "outputs": [
        {
          "internalType": "bytes32",
          "name": "",
          "type": "bytes32"
        }
      ],
      "stateMutability": "nonpayable",
      "type": "function"
    },
    {
      "inputs": [
        {
          "internalType": "address",
          "name": "addr",
          "type": "address"
        },
        {
          "internalType": "address",
          "name": "owner",
          "type": "address"
        },
        {
          "internalType": "address",
          "name": "resolver",
          "type": "address"
        },
        {
          "internalType": "string",
          "name": "name",
          "type": "string"
        }
      ],
      "name": "setNameForAddr",
      "outputs": [
        {
          "internalType": "bytes32",
          "name": "",
          "type": "bytes32"
        }
      ],
      "stateMutability": "nonpayable",
      "type": "function"
    },
    {
      "inputs": [
        {
          "internalType": "address",
          "name": "newOwner",
          "type": "address"
        }
      ],
      "name": "transferOwnership",
      "outputs": [],
      "stateMutability": "nonpayable",
      "type": "function"
    }
  ],
  "transactionHash": "0x4510e0bb28e6056e1e24f91541655db4d63a6963c06435fcac52e44fa4a374e2",
  "args": [
    "0x60b5c974D939C56A0b02EAaC197F57e0B3cf937b"
  ],
  "numDeployments": 1,
  "solcInputHash": "c1d243d6e41074649143109163110e26",
  "bytecode": "0x60a060405234801561001057600080fd5b50604051610f1f380380610f1f83398101604081905261002f9161019c565b600080546001600160a01b031916339081178255604051909182917f8be0079c531659141344cd1fd0a4f28419497f9722a3daafe3b4186f6b6457e0908290a3506001600160a01b03811660808190526040516302571be360e01b81527f91d1777781884d03a6757a803996e38de2a42967fb37eeaca72729271025a9e26004820152600091906302571be390602401602060405180830381865afa1580156100dc573d6000803e3d6000fd5b505050506040513d601f19601f82011682018060405250810190610100919061019c565b90506001600160a01b0381161561017d57604051630f41a04d60e11b81523360048201526001600160a01b03821690631e83409a906024016020604051808303816000875af1158015610157573d6000803e3d6000fd5b505050506040513d601f19601f8201168201806040525081019061017b91906101c0565b505b50506101d9565b6001600160a01b038116811461019957600080fd5b50565b6000602082840312156101ae57600080fd5b81516101b981610184565b9392505050565b6000602082840312156101d257600080fd5b5051919050565b608051610d1d6102026000396000818161012d015281816102d701526104d50152610d1d6000f3fe608060405234801561001057600080fd5b50600436106100ea5760003560e01c80638da5cb5b1161008c578063c66485b211610066578063c66485b2146101e1578063da8c229e146101f4578063e0dba60f14610227578063f2fde38b1461023a57600080fd5b80638da5cb5b146101aa578063bffbe61c146101bb578063c47f0027146101ce57600080fd5b806365669631116100c85780636566963114610167578063715018a61461017a5780637a806d6b14610184578063828eab0e1461019757600080fd5b80630f5a5466146100ef5780631e83409a146101155780633f15457f14610128575b600080fd5b6101026100fd3660046109f0565b61024d565b6040519081526020015b60405180910390f35b610102610123366004610a29565b610261565b61014f7f000000000000000000000000000000000000000000000000000000000000000081565b6040516001600160a01b03909116815260200161010c565b610102610175366004610a46565b610283565b61018261053c565b005b610102610192366004610b34565b6105b0565b60025461014f906001600160a01b031681565b6000546001600160a01b031661014f565b6101026101c9366004610a29565b61062b565b6101026101dc366004610ba9565b610686565b6101826101ef366004610a29565b6106a3565b610217610202366004610a29565b60016020526000908152604090205460ff1681565b604051901515815260200161010c565b610182610235366004610bf4565b610786565b610182610248366004610a29565b61080f565b600061025a338484610283565b9392505050565b60025460009061027d90339084906001600160a01b0316610283565b92915050565b6000836001600160a01b0381163314806102ac57503360009081526001602052604090205460ff165b80610342575060405163e985e9c560e01b81526001600160a01b0382811660048301523360248301527f0000000000000000000000000000000000000000000000000000000000000000169063e985e9c590604401602060405180830381865afa15801561031e573d6000803e3d6000fd5b505050506040513d601f19601f820116820180604052508101906103429190610c22565b806103515750610351816108f9565b6103ee5760405162461bcd60e51b815260206004820152605b60248201527f526576657273655265676973747261723a2043616c6c6572206973206e6f742060448201527f6120636f6e74726f6c6c6572206f7220617574686f726973656420627920616460648201527f6472657373206f7220746865206164647265737320697473656c660000000000608482015260a4015b60405180910390fd5b60006103f986610972565b604080517f91d1777781884d03a6757a803996e38de2a42967fb37eeaca72729271025a9e2602080830191909152818301849052825180830384018152606090920192839052815191012091925081906001600160a01b038916907f6ada868dd3058cf77a48a74489fd7963688e5464b2b0fa957ace976243270e9290600090a36040516305ef2c7f60e41b81527f91d1777781884d03a6757a803996e38de2a42967fb37eeaca72729271025a9e26004820152602481018390526001600160a01b0387811660448301528681166064830152600060848301527f00000000000000000000000000000000000000000000000000000000000000001690635ef2c7f09060a401600060405180830381600087803b15801561051957600080fd5b505af115801561052d573d6000803e3d6000fd5b50929998505050505050505050565b6000546001600160a01b031633146105665760405162461bcd60e51b81526004016103e590610c3f565b600080546040516001600160a01b03909116907f8be0079c531659141344cd1fd0a4f28419497f9722a3daafe3b4186f6b6457e0908390a3600080546001600160a01b0319169055565b6000806105be868686610283565b604051637737221360e01b81529091506001600160a01b038516906377372213906105ef9084908790600401610c74565b600060405180830381600087803b15801561060957600080fd5b505af115801561061d573d6000803e3d6000fd5b509298975050505050505050565b60007f91d1777781884d03a6757a803996e38de2a42967fb37eeaca72729271025a9e261065783610972565b604080516020810193909352820152606001604051602081830303815290604052805190602001209050919050565b60025460009061027d90339081906001600160a01b0316856105b0565b6000546001600160a01b031633146106cd5760405162461bcd60e51b81526004016103e590610c3f565b6001600160a01b03811661073c5760405162461bcd60e51b815260206004820152603060248201527f526576657273655265676973747261723a205265736f6c76657220616464726560448201526f07373206d757374206e6f7420626520360841b60648201526084016103e5565b600280546001600160a01b0319166001600160a01b0383169081179091556040517feae17a84d9eb83d8c8eb317f9e7d64857bc363fa51674d996c023f4340c577cf90600090a250565b6000546001600160a01b031633146107b05760405162461bcd60e51b81526004016103e590610c3f565b6001600160a01b038216600081815260016020908152604091829020805460ff191685151590811790915591519182527f4c97694570a07277810af7e5669ffd5f6a2d6b74b6e9a274b8b870fd5114cf87910160405180910390a25050565b6000546001600160a01b031633146108395760405162461bcd60e51b81526004016103e590610c3f565b6001600160a01b03811661089e5760405162461bcd60e51b815260206004820152602660248201527f4f776e61626c653a206e6577206f776e657220697320746865207a65726f206160448201526564647265737360d01b60648201526084016103e5565b600080546040516001600160a01b03808516939216917f8be0079c531659141344cd1fd0a4f28419497f9722a3daafe3b4186f6b6457e091a3600080546001600160a01b0319166001600160a01b0392909216919091179055565b6000816001600160a01b0316638da5cb5b6040518163ffffffff1660e01b8152600401602060405180830381865afa925050508015610955575060408051601f3d908101601f1916820190925261095291810190610cca565b60015b61096157506000919050565b6001600160a01b0316331492915050565b600060285b80156109cc57600019016f181899199a1a9b1b9c1cb0b131b232b360811b600f84161a8153601090920491600019016f181899199a1a9b1b9c1cb0b131b232b360811b600f84161a8153601083049250610977565b50506028600020919050565b6001600160a01b03811681146109ed57600080fd5b50565b60008060408385031215610a0357600080fd5b8235610a0e816109d8565b91506020830135610a1e816109d8565b809150509250929050565b600060208284031215610a3b57600080fd5b813561025a816109d8565b600080600060608486031215610a5b57600080fd5b8335610a66816109d8565b92506020840135610a76816109d8565b91506040840135610a86816109d8565b809150509250925092565b634e487b7160e01b600052604160045260246000fd5b600082601f830112610ab857600080fd5b813567ffffffffffffffff80821115610ad357610ad3610a91565b604051601f8301601f19908116603f01168101908282118183101715610afb57610afb610a91565b81604052838152866020858801011115610b1457600080fd5b836020870160208301376000602085830101528094505050505092915050565b60008060008060808587031215610b4a57600080fd5b8435610b55816109d8565b93506020850135610b65816109d8565b92506040850135610b75816109d8565b9150606085013567ffffffffffffffff811115610b9157600080fd5b610b9d87828801610aa7565b91505092959194509250565b600060208284031215610bbb57600080fd5b813567ffffffffffffffff811115610bd257600080fd5b610bde84828501610aa7565b949350505050565b80151581146109ed57600080fd5b60008060408385031215610c0757600080fd5b8235610c12816109d8565b91506020830135610a1e81610be6565b600060208284031215610c3457600080fd5b815161025a81610be6565b6020808252818101527f4f776e61626c653a2063616c6c6572206973206e6f7420746865206f776e6572604082015260600190565b82815260006020604081840152835180604085015260005b81811015610ca857858101830151858201606001528201610c8c565b506000606082860101526060601f19601f830116850101925050509392505050565b600060208284031215610cdc57600080fd5b815161025a816109d856fea264697066735822122042718d7999c3206f86370ac27b0cbadf89c0d1ecb8867922e280d5a54f8313cd64736f6c63430008110033",
  "devdoc": {
    "kind": "dev",
    "methods": {
      "claim(address)": {
        "details": "Transfers ownership of the reverse ENS record associated with the      calling account.",
        "params": {
          "owner": "The address to set as the owner of the reverse record in ENS."
        },
        "returns": {
          "_0": "The ENS node hash of the reverse record."
        }
      },
      "claimForAddr(address,address,address)": {
        "details": "Transfers ownership of the reverse ENS record associated with the      calling account.",
        "params": {
          "addr": "The reverse record to set",
          "owner": "The address to set as the owner of the reverse record in ENS.",
          "resolver": "The resolver of the reverse node"
        },
        "returns": {
          "_0": "The ENS node hash of the reverse record."
        }
      },
      "claimWithResolver(address,address)": {
        "details": "Transfers ownership of the reverse ENS record associated with the      calling account.",
        "params": {
          "owner": "The address to set as the owner of the reverse record in ENS.",
          "resolver": "The address of the resolver to set; 0 to leave unchanged."
        },
        "returns": {
          "_0": "The ENS node hash of the reverse record."
        }
      },
      "constructor": {
        "details": "Constructor",
        "params": {
          "ensAddr": "The address of the ENS registry."
        }
      },
      "node(address)": {
        "details": "Returns the node hash for a given account's reverse records.",
        "params": {
          "addr": "The address to hash"
        },
        "returns": {
          "_0": "The ENS node hash."
        }
      },
      "owner()": {
        "details": "Returns the address of the current owner."
      },
      "renounceOwnership()": {
        "details": "Leaves the contract without owner. It will not be possible to call `onlyOwner` functions anymore. Can only be called by the current owner. NOTE: Renouncing ownership will leave the contract without an owner, thereby removing any functionality that is only available to the owner."
      },
      "setName(string)": {
        "details": "Sets the `name()` record for the reverse ENS record associated with the calling account. First updates the resolver to the default reverse resolver if necessary.",
        "params": {
          "name": "The name to set for this address."
        },
        "returns": {
          "_0": "The ENS node hash of the reverse record."
        }
      },
      "setNameForAddr(address,address,address,string)": {
        "details": "Sets the `name()` record for the reverse ENS record associated with the account provided. Updates the resolver to a designated resolver Only callable by controllers and authorised users",
        "params": {
          "addr": "The reverse record to set",
          "name": "The name to set for this address.",
          "owner": "The owner of the reverse node",
          "resolver": "The resolver of the reverse node"
        },
        "returns": {
          "_0": "The ENS node hash of the reverse record."
        }
      },
      "transferOwnership(address)": {
        "details": "Transfers ownership of the contract to a new account (`newOwner`). Can only be called by the current owner."
      }
    },
    "version": 1
  },
  "userdoc": {
    "kind": "user",
    "methods": {},
    "version": 1
  },
  "storageLayout": {
    "storage": [
      {
        "astId": 491,
        "contract": "contracts/reverseRegistrar/ReverseRegistrar.sol:ReverseRegistrar",
        "label": "_owner",
        "offset": 0,
        "slot": "0",
        "type": "t_address"
      },
      {
        "astId": 26375,
        "contract": "contracts/reverseRegistrar/ReverseRegistrar.sol:ReverseRegistrar",
        "label": "controllers",
        "offset": 0,
        "slot": "1",
        "type": "t_mapping(t_address,t_bool)"
      },
      {
        "astId": 26047,
        "contract": "contracts/reverseRegistrar/ReverseRegistrar.sol:ReverseRegistrar",
        "label": "defaultResolver",
        "offset": 0,
        "slot": "2",
        "type": "t_contract(NameResolver)26029"
      }
    ],
    "types": {
      "t_address": {
        "encoding": "inplace",
        "label": "address",
        "numberOfBytes": "20"
      },
      "t_bool": {
        "encoding": "inplace",
        "label": "bool",
        "numberOfBytes": "1"
      },
      "t_contract(NameResolver)26029": {
        "encoding": "inplace",
        "label": "contract NameResolver",
        "numberOfBytes": "20"
      },
      "t_mapping(t_address,t_bool)": {
        "encoding": "mapping",
        "key": "t_address",
        "label": "mapping(address => bool)",
        "numberOfBytes": "32",
        "value": "t_bool"
      }
    }
  }
}