{
  "address": "0x66a779e85F762B387478b4309398b174527eE358",
  "abi": [
    {
      "inputs": [
        {
          "internalType": "contract ENS",
          "name": "_ens",
          "type": "address"
        },
        {
          "internalType": "contract INameWrapper",
          "name": "wrapperAddress",
          "type": "address"
        },
        {
          "internalType": "address",
          "name": "_trustedAgentController",
          "type": "address"
        },
        {
          "internalType": "address",
          "name": "_trustedReverseRegistrar",
          "type": "address"
        }
      ],
      "stateMutability": "nonpayable",
      "type": "constructor"
    },
    {
      "anonymous": false,
      "inputs": [
        {
          "indexed": true,
          "internalType": "bytes32",
          "name": "node",
          "type": "bytes32"
        },
        {
          "indexed": true,
          "internalType": "uint256",
          "name": "contentType",
          "type": "uint256"
        }
      ],
      "name": "ABIChanged",
      "type": "event"
    },
    {
      "anonymous": false,
      "inputs": [
        {
          "indexed": true,
          "internalType": "bytes32",
          "name": "node",
          "type": "bytes32"
        },
        {
          "indexed": false,
          "internalType": "address",
          "name": "a",
          "type": "address"
        }
      ],
      "name": "AddrChanged",
      "type": "event"
    },
    {
      "anonymous": false,
      "inputs": [
        {
          "indexed": true,
          "internalType": "bytes32",
          "name": "node",
          "type": "bytes32"
        },
        {
          "indexed": false,
          "internalType": "uint256",
          "name": "coinType",
          "type": "uint256"
        },
        {
          "indexed": false,
          "internalType": "bytes",
          "name": "newAddress",
          "type": "bytes"
        }
      ],
      "name": "AddressChanged",
      "type": "event"
    },
    {
      "anonymous": false,
      "inputs": [
        {
          "indexed": true,
          "internalType": "bytes32",
          "name": "node",
          "type": "bytes32"
        },
        {
          "indexed": false,
          "internalType": "string",
          "name": "uri",
          "type": "string"
        }
      ],
      "name": "AgentMetadataChanged",
      "type": "event"
    },
    {
      "anonymous": false,
      "inputs": [
        {
          "indexed": true,
          "internalType": "address",
          "name": "owner",
          "type": "address"
        },
        {
          "indexed": true,
          "internalType": "address",
          "name": "operator",
          "type": "address"
        },
        {
          "indexed": false,
          "internalType": "bool",
          "name": "approved",
          "type": "bool"
        }
      ],
      "name": "ApprovalForAll",
      "type": "event"
    },
    {
      "anonymous": false,
      "inputs": [
        {
          "indexed": false,
          "internalType": "address",
          "name": "owner",
          "type": "address"
        },
        {
          "indexed": true,
          "internalType": "bytes32",
          "name": "node",
          "type": "bytes32"
        },
        {
          "indexed": true,
          "internalType": "address",
          "name": "delegate",
          "type": "address"
        },
        {
          "indexed": true,
          "internalType": "bool",
          "name": "approved",
          "type": "bool"
        }
      ],
      "name": "Approved",
      "type": "event"
    },
    {
      "anonymous": false,
      "inputs": [
        {
          "indexed": true,
          "internalType": "bytes32",
          "name": "node",
          "type": "bytes32"
        },
        {
          "indexed": false,
          "internalType": "bytes",
          "name": "hash",
          "type": "bytes"
        }
      ],
      "name": "ContenthashChanged",
      "type": "event"
    },
    {
      "anonymous": false,
      "inputs": [
        {
          "indexed": true,
          "internalType": "bytes32",
          "name": "node",
          "type": "bytes32"
        },
        {
          "indexed": false,
          "internalType": "bytes",
          "name": "name",
          "type": "bytes"
        },
        {
          "indexed": false,
          "internalType": "uint16",
          "name": "resource",
          "type": "uint16"
        },
        {
          "indexed": false,
          "internalType": "bytes",
          "name": "record",
          "type": "bytes"
        }
      ],
      "name": "DNSRecordChanged",
      "type": "event"
    },
    {
      "anonymous": false,
      "inputs": [
        {
          "indexed": true,
          "internalType": "bytes32",
          "name": "node",
          "type": "bytes32"
        },
        {
          "indexed": false,
          "internalType": "bytes",
          "name": "name",
          "type": "bytes"
        },
        {
          "indexed": false,
          "internalType": "uint16",
          "name": "resource",
          "type": "uint16"
        }
      ],
      "name": "DNSRecordDeleted",
      "type": "event"
    },
    {
      "anonymous": false,
      "inputs": [
        {
          "indexed": true,
          "internalType": "bytes32",
          "name": "node",
          "type": "bytes32"
        },
        {
          "indexed": false,
          "internalType": "bytes",
          "name": "lastzonehash",
          "type": "bytes"
        },
        {
          "indexed": false,
          "internalType": "bytes",
          "name": "zonehash",
          "type": "bytes"
        }
      ],
      "name": "DNSZonehashChanged",
      "type": "event"
    },
    {
      "anonymous": false,
      "inputs": [
        {
          "indexed": true,
          "internalType": "bytes32",
          "name": "node",
          "type": "bytes32"
        },
        {
          "indexed": true,
          "internalType": "bytes4",
          "name": "interfaceID",
          "type": "bytes4"
        },
        {
          "indexed": false,
          "internalType": "address",
          "name": "implementer",
          "type": "address"
        }
      ],
      "name": "InterfaceChanged",
      "type": "event"
    },
    {
      "anonymous": false,
      "inputs": [
        {
          "indexed": true,
          "internalType": "bytes32",
          "name": "node",
          "type": "bytes32"
        },
        {
          "indexed": false,
          "internalType": "string",
          "name": "name",
          "type": "string"
        }
      ],
      "name": "NameChanged",
      "type": "event"
    },
    {
      "anonymous": false,
      "inputs": [
        {
          "indexed": true,
          "internalType": "bytes32",
          "name": "node",
          "type": "bytes32"
        },
        {
          "indexed": false,
          "internalType": "uint256",
          "name": "chainId",
          "type": "uint256"
        },
        {
          "indexed": false,
          "internalType": "address",
          "name": "addr",
          "type": "address"
        }
      ],
      "name": "PaymentAddressChanged",
      "type": "event"
    },
    {
      "anonymous": false,
      "inputs": [
        {
          "indexed": true,
          "internalType": "bytes32",
          "name": "node",
          "type": "bytes32"
        },
        {
          "indexed": false,
          "internalType": "bool",
          "name": "enabled",
          "type": "bool"
        }
      ],
      "name": "PaymentEnabledChanged",
      "type": "event"
    },
    {
      "anonymous": false,
      "inputs": [
        {
          "indexed": true,
          "internalType": "bytes32",
          "name": "node",
          "type": "bytes32"
        },
        {
          "indexed": false,
          "internalType": "bytes32",
          "name": "x",
          "type": "bytes32"
        },
        {
          "indexed": false,
          "internalType": "bytes32",
          "name": "y",
          "type": "bytes32"
        }
      ],
      "name": "PubkeyChanged",
      "type": "event"
    },
    {
      "anonymous": false,
      "inputs": [
        {
          "indexed": true,
          "internalType": "bytes32",
          "name": "node",
          "type": "bytes32"
        },
        {
          "indexed": true,
          "internalType": "string",
          "name": "indexedKey",
          "type": "string"
        },
        {
          "indexed": false,
          "internalType": "string",
          "name": "key",
          "type": "string"
        },
        {
          "indexed": false,
          "internalType": "string",
          "name": "value",
          "type": "string"
        }
      ],
      "name": "TextChanged",
      "type": "event"
    },
    {
      "anonymous": false,
      "inputs": [
        {
          "indexed": true,
          "internalType": "bytes32",
          "name": "node",
          "type": "bytes32"
        },
        {
          "indexed": false,
          "internalType": "uint64",
          "name": "newVersion",
          "type": "uint64"
        }
      ],
      "name": "VersionChanged",
      "type": "event"
    },
    {
      "anonymous": false,
      "inputs": [
        {
          "indexed": true,
          "internalType": "bytes32",
          "name": "node",
          "type": "bytes32"
        },
        {
          "indexed": false,
          "internalType": "string",
          "name": "endpoint",
          "type": "string"
        }
      ],
      "name": "X402EndpointChanged",
      "type": "event"
    },
    {
      "inputs": [
        {
          "internalType": "bytes32",
          "name": "node",
          "type": "bytes32"
        },
        {
          "internalType": "uint256",
          "name": "contentTypes",
          "type": "uint256"
        }
      ],
      "name": "ABI",
      "outputs": [
        {
          "internalType": "uint256",
          "name": "",
          "type": "uint256"
        },
        {
          "internalType": "bytes",
          "name": "",
          "type": "bytes"
        }
      ],
      "stateMutability": "view",
      "type": "function"
    },
    {
      "inputs": [
        {
          "internalType": "bytes32",
          "name": "node",
          "type": "bytes32"
        }
      ],
      "name": "addr",
      "outputs": [
        {
          "internalType": "address payable",
          "name": "",
          "type": "address"
        }
      ],
      "stateMutability": "view",
      "type": "function"
    },
    {
      "inputs": [
        {
          "internalType": "bytes32",
          "name": "node",
          "type": "bytes32"
        },
        {
          "internalType": "uint256",
          "name": "coinType",
          "type": "uint256"
        }
      ],
      "name": "addr",
      "outputs": [
        {
          "internalType": "bytes",
          "name": "",
          "type": "bytes"
        }
      ],
      "stateMutability": "view",
      "type": "function"
    },
    {
      "inputs": [
        {
          "internalType": "bytes32",
          "name": "node",
          "type": "bytes32"
        }
      ],
      "name": "agentMetadata",
      "outputs": [
        {
          "internalType": "string",
          "name": "",
          "type": "string"
        }
      ],
      "stateMutability": "view",
      "type": "function"
    },
    {
      "inputs": [
        {
          "internalType": "bytes32",
          "name": "node",
          "type": "bytes32"
        },
        {
          "internalType": "address",
          "name": "delegate",
          "type": "address"
        },
        {
          "internalType": "bool",
          "name": "approved",
          "type": "bool"
        }
      ],
      "name": "approve",
      "outputs": [],
      "stateMutability": "nonpayable",
      "type": "function"
    },
    {
      "inputs": [
        {
          "internalType": "bytes32",
          "name": "node",
          "type": "bytes32"
        }
      ],
      "name": "clearRecords",
      "outputs": [],
      "stateMutability": "nonpayable",
      "type": "function"
    },
    {
      "inputs": [
        {
          "internalType": "bytes32",
          "name": "node",
          "type": "bytes32"
        }
      ],
      "name": "contenthash",
      "outputs": [
        {
          "internalType": "bytes",
          "name": "",
          "type": "bytes"
        }
      ],
      "stateMutability": "view",
      "type": "function"
    },
    {
      "inputs": [
        {
          "internalType": "bytes32",
          "name": "node",
          "type": "bytes32"
        },
        {
          "internalType": "bytes32",
          "name": "name",
          "type": "bytes32"
        },
        {
          "internalType": "uint16",
          "name": "resource",
          "type": "uint16"
        }
      ],
      "name": "dnsRecord",
      "outputs": [
        {
          "internalType": "bytes",
          "name": "",
          "type": "bytes"
        }
      ],
      "stateMutability": "view",
      "type": "function"
    },
    {
      "inputs": [
        {
          "internalType": "bytes32",
          "name": "node",
          "type": "bytes32"
        },
        {
          "internalType": "bytes32",
          "name": "name",
          "type": "bytes32"
        }
      ],
      "name": "hasDNSRecords",
      "outputs": [
        {
          "internalType": "bool",
          "name": "",
          "type": "bool"
        }
      ],
      "stateMutability": "view",
      "type": "function"
    },
    {
      "inputs": [
        {
          "internalType": "bytes32",
          "name": "node",
          "type": "bytes32"
        },
        {
          "internalType": "bytes4",
          "name": "interfaceID",
          "type": "bytes4"
        }
      ],
      "name": "interfaceImplementer",
      "outputs": [
        {
          "internalType": "address",
          "name": "",
          "type": "address"
        }
      ],
      "stateMutability": "view",
      "type": "function"
    },
    {
      "inputs": [
        {
          "internalType": "address",
          "name": "owner",
          "type": "address"
        },
        {
          "internalType": "bytes32",
          "name": "node",
          "type": "bytes32"
        },
        {
          "internalType": "address",
          "name": "delegate",
          "type": "address"
        }
      ],
      "name": "isApprovedFor",
      "outputs": [
        {
          "internalType": "bool",
          "name": "",
          "type": "bool"
        }
      ],
      "stateMutability": "view",
      "type": "function"
    },
    {
      "inputs": [
        {
          "internalType": "address",
          "name": "account",
          "type": "address"
        },
        {
          "internalType": "address",
          "name": "operator",
          "type": "address"
        }
      ],
      "name": "isApprovedForAll",
      "outputs": [
        {
          "internalType": "bool",
          "name": "",
          "type": "bool"
        }
      ],
      "stateMutability": "view",
      "type": "function"
    },
    {
      "inputs": [
        {
          "internalType": "bytes[]",
          "name": "data",
          "type": "bytes[]"
        }
      ],
      "name": "multicall",
      "outputs": [
        {
          "internalType": "bytes[]",
          "name": "results",
          "type": "bytes[]"
        }
      ],
      "stateMutability": "nonpayable",
      "type": "function"
    },
    {
      "inputs": [
        {
          "internalType": "bytes32",
          "name": "nodehash",
          "type": "bytes32"
        },
        {
          "internalType": "bytes[]",
          "name": "data",
          "type": "bytes[]"
        }
      ],
      "name": "multicallWithNodeCheck",
      "outputs": [
        {
          "internalType": "bytes[]",
          "name": "results",
          "type": "bytes[]"
        }
      ],
      "stateMutability": "nonpayable",
      "type": "function"
    },
    {
      "inputs": [
        {
          "internalType": "bytes32",
          "name": "node",
          "type": "bytes32"
        }
      ],
      "name": "name",
      "outputs": [
        {
          "internalType": "string",
          "name": "",
          "type": "string"
        }
      ],
      "stateMutability": "view",
      "type": "function"
    },
    {
      "inputs": [
        {
          "internalType": "bytes32",
          "name": "node",
          "type": "bytes32"
        },
        {
          "internalType": "uint256",
          "name": "chainId",
          "type": "uint256"
        }
      ],
      "name": "paymentAddress",
      "outputs": [
        {
          "internalType": "address",
          "name": "",
          "type": "address"
        }
      ],
      "stateMutability": "view",
      "type": "function"
    },
    {
      "inputs": [
        {
          "internalType": "bytes32",
          "name": "node",
          "type": "bytes32"
        }
      ],
      "name": "paymentEnabled",
      "outputs": [
        {
          "internalType": "bool",
          "name": "",
          "type": "bool"
        }
      ],
      "stateMutability": "view",
      "type": "function"
    },
    {
      "inputs": [
        {
          "internalType": "bytes32",
          "name": "node",
          "type": "bytes32"
        }
      ],
      "name": "pubkey",
      "outputs": [
        {
          "internalType": "bytes32",
          "name": "x",
          "type": "bytes32"
        },
        {
          "internalType": "bytes32",
          "name": "y",
          "type": "bytes32"
        }
      ],
      "stateMutability": "view",
      "type": "function"
    },
    {
      "inputs": [
        {
          "internalType": "bytes32",
          "name": "",
          "type": "bytes32"
        }
      ],
      "name": "recordVersions",
      "outputs": [
        {
          "internalType": "uint64",
          "name": "",
          "type": "uint64"
        }
      ],
      "stateMutability": "view",
      "type": "function"
    },
    {
      "inputs": [
        {
          "internalType": "bytes32",
          "name": "node",
          "type": "bytes32"
        },
        {
          "internalType": "uint256",
          "name": "contentType",
          "type": "uint256"
        },
        {
          "internalType": "bytes",
          "name": "data",
          "type": "bytes"
        }
      ],
      "name": "setABI",
      "outputs": [],
      "stateMutability": "nonpayable",
      "type": "function"
    },
    {
      "inputs": [
        {
          "internalType": "bytes32",
          "name": "node",
          "type": "bytes32"
        },
        {
          "internalType": "uint256",
          "name": "coinType",
          "type": "uint256"
        },
        {
          "internalType": "bytes",
          "name": "a",
          "type": "bytes"
        }
      ],
      "name": "setAddr",
      "outputs": [],
      "stateMutability": "nonpayable",
      "type": "function"
    },
    {
      "inputs": [
        {
          "internalType": "bytes32",
          "name": "node",
          "type": "bytes32"
        },
        {
          "internalType": "address",
          "name": "a",
          "type": "address"
        }
      ],
      "name": "setAddr",
      "outputs": [],
      "stateMutability": "nonpayable",
      "type": "function"
    },
    {
      "inputs": [
        {
          "internalType": "bytes32",
          "name": "node",
          "type": "bytes32"
        },
        {
          "internalType": "string",
          "name": "uri",
          "type": "string"
        }
      ],
      "name": "setAgentMetadata",
      "outputs": [],
      "stateMutability": "nonpayable",
      "type": "function"
    },
    {
      "inputs": [
        {
          "internalType": "address",
          "name": "operator",
          "type": "address"
        },
        {
          "internalType": "bool",
          "name": "approved",
          "type": "bool"
        }
      ],
      "name": "setApprovalForAll",
      "outputs": [],
      "stateMutability": "nonpayable",
      "type": "function"
    },
    {
      "inputs": [
        {
          "internalType": "bytes32",
          "name": "node",
          "type": "bytes32"
        },
        {
          "internalType": "bytes",
          "name": "hash",
          "type": "bytes"
        }
      ],
      "name": "setContenthash",
      "outputs": [],
      "stateMutability": "nonpayable",
      "type": "function"
    },
    {
      "inputs": [
        {
          "internalType": "bytes32",
          "name": "node",
          "type": "bytes32"
        },
        {
          "internalType": "bytes",
          "name": "data",
          "type": "bytes"
        }
      ],
      "name": "setDNSRecords",
      "outputs": [],
      "stateMutability": "nonpayable",
      "type": "function"
    },
    {
      "inputs": [
        {
          "internalType": "bytes32",
          "name": "node",
          "type": "bytes32"
        },
        {
          "internalType": "bytes4",
          "name": "interfaceID",
          "type": "bytes4"
        },
        {
          "internalType": "address",
          "name": "implementer",
          "type": "address"
        }
      ],
      "name": "setInterface",
      "outputs": [],
      "stateMutability": "nonpayable",
      "type": "function"
    },
    {
      "inputs": [
        {
          "internalType": "bytes32",
          "name": "node",
          "type": "bytes32"
        },
        {
          "internalType": "string",
          "name": "newName",
          "type": "string"
        }
      ],
      "name": "setName",
      "outputs": [],
      "stateMutability": "nonpayable",
      "type": "function"
    },
    {
      "inputs": [
        {
          "internalType": "bytes32",
          "name": "node",
          "type": "bytes32"
        },
        {
          "internalType": "uint256",
          "name": "chainId",
          "type": "uint256"
        },
        {
          "internalType": "address",
          "name": "addr",
          "type": "address"
        }
      ],
      "name": "setPaymentAddress",
      "outputs": [],
      "stateMutability": "nonpayable",
      "type": "function"
    },
    {
      "inputs": [
        {
          "internalType": "bytes32",
          "name": "node",
          "type": "bytes32"
        },
        {
          "internalType": "bool",
          "name": "enabled",
          "type": "bool"
        }
      ],
      "name": "setPaymentEnabled",
      "outputs": [],
      "stateMutability": "nonpayable",
      "type": "function"
    },
    {
      "inputs": [
        {
          "internalType": "bytes32",
          "name": "node",
          "type": "bytes32"
        },
        {
          "internalType": "bytes32",
          "name": "x",
          "type": "bytes32"
        },
        {
          "internalType": "bytes32",
          "name": "y",
          "type": "bytes32"
        }
      ],
      "name": "setPubkey",
      "outputs": [],
      "stateMutability": "nonpayable",
      "type": "function"
    },
    {
      "inputs": [
        {
          "internalType": "bytes32",
          "name": "node",
          "type": "bytes32"
        },
        {
          "internalType": "string",
          "name": "key",
          "type": "string"
        },
        {
          "internalType": "string",
          "name": "value",
          "type": "string"
        }
      ],
      "name": "setText",
      "outputs": [],
      "stateMutability": "nonpayable",
      "type": "function"
    },
    {
      "inputs": [
        {
          "internalType": "bytes32",
          "name": "node",
          "type": "bytes32"
        },
        {
          "internalType": "string",
          "name": "endpoint",
          "type": "string"
        }
      ],
      "name": "setX402Endpoint",
      "outputs": [],
      "stateMutability": "nonpayable",
      "type": "function"
    },
    {
      "inputs": [
        {
          "internalType": "bytes32",
          "name": "node",
          "type": "bytes32"
        },
        {
          "internalType": "bytes",
          "name": "hash",
          "type": "bytes"
        }
      ],
      "name": "setZonehash",
      "outputs": [],
      "stateMutability": "nonpayable",
      "type": "function"
    },
    {
      "inputs": [
        {
          "internalType": "bytes32",
          "name": "node",
          "type": "bytes32"
        }
      ],
      "name": "supportedChains",
      "outputs": [
        {
          "internalType": "uint256[]",
          "name": "",
          "type": "uint256[]"
        }
      ],
      "stateMutability": "view",
      "type": "function"
    },
    {
      "inputs": [
        {
          "internalType": "bytes4",
          "name": "interfaceID",
          "type": "bytes4"
        }
      ],
      "name": "supportsInterface",
      "outputs": [
        {
          "internalType": "bool",
          "name": "",
          "type": "bool"
        }
      ],
      "stateMutability": "view",
      "type": "function"
    },
    {
      "inputs": [
        {
          "internalType": "bytes32",
          "name": "node",
          "type": "bytes32"
        },
        {
          "internalType": "string",
          "name": "key",
          "type": "string"
        }
      ],
      "name": "text",
      "outputs": [
        {
          "internalType": "string",
          "name": "",
          "type": "string"
        }
      ],
      "stateMutability": "view",
      "type": "function"
    },
    {
      "inputs": [
        {
          "internalType": "bytes32",
          "name": "node",
          "type": "bytes32"
        }
      ],
      "name": "x402Endpoint",
      "outputs": [
        {
          "internalType": "string",
          "name": "",
          "type": "string"
        }
      ],
      "stateMutability": "view",
      "type": "function"
    },
    {
      "inputs": [
        {
          "internalType": "bytes32",
          "name": "node",
          "type": "bytes32"
        }
      ],
      "name": "zonehash",
      "outputs": [
        {
          "internalType": "bytes",
          "name": "",
          "type": "bytes"
        }
      ],
      "stateMutability": "view",
      "type": "function"
    }
  ],
  "transactionHash": "0x72e75058dcde5f4e90372e3d312b5ff55bd0b4ae1a03aec51db11fe2216934e0",
  "args": [
    "0xA590B208e7F2e62a3987424D2E1b00cd62986fAd",
    "0x90d848F20589437EF2e05a91130aEEA253512736",
    "0x59cd36ada823a03A34431F0A881B9b4eAb9d70f9",
    "0x38171C9Dc51c5F9b2Be96b8fde3D0CA8C6050eAA"
  ],
  "numDeployments": 1,
  "solcInputHash": "9eea083b7a59f5eb8a0619c17abebf76",
  "bytecode": "0x6101006040523480156200001257600080fd5b50604051620035083803806200350883398101604081905262000035916200017a565b6040516302571be360e01b81527f91d1777781884d03a6757a803996e38de2a42967fb37eeaca72729271025a9e26004820152849033906000906001600160a01b038416906302571be390602401602060405180830381865afa158015620000a1573d6000803e3d6000fd5b505050506040513d601f19601f82011682018060405250810190620000c79190620001e2565b604051630f41a04d60e11b81526001600160a01b03848116600483015291925090821690631e83409a906024016020604051808303816000875af115801562000114573d6000803e3d6000fd5b505050506040513d601f19601f820116820180604052508101906200013a919062000209565b5050506001600160a01b039485166080525091831660a052821660c0521660e05262000223565b6001600160a01b03811681146200017757600080fd5b50565b600080600080608085870312156200019157600080fd5b84516200019e8162000161565b6020860151909450620001b18162000161565b6040860151909350620001c48162000161565b6060860151909250620001d78162000161565b939692955090935050565b600060208284031215620001f557600080fd5b8151620002028162000161565b9392505050565b6000602082840312156200021c57600080fd5b5051919050565b60805160a05160c05160e0516132a4620002646000396000611b0a01526000611ad8015260008181611bc90152611c1601526000611b5201526132a46000f3fe608060405234801561001057600080fd5b506004361061023d5760003560e01c8063773722131161013b578063c8690233116100b8578063e32954eb1161007c578063e32954eb14610618578063e59d895d1461062b578063e985e9c51461063e578063f1cb7e061461067a578063fe110c3c1461068d57600080fd5b8063c869023314610539578063ce3decdc14610591578063d5fa2b00146105a4578063d700ff33146105b7578063daec0377146105f857600080fd5b8063a6b23e0f116100ff578063a6b23e0f1461048c578063a8fa5682146104af578063a9784b3e146104c2578063ac9650d814610506578063bc1c58d11461052657600080fd5b8063773722131461042d5780638b95dd71146104405780638e347dde14610453578063a22cb46514610466578063a4b91a011461047957600080fd5b8063304e6ade116101c95780635c98042b1161018d5780635c98042b146103ce578063623195b0146103e1578063691f3431146103f45780636a3d2f57146104075780636db251d11461041a57600080fd5b8063304e6ade1461032a5780633603d7581461033d5780633b3b57de146103505780634cbf6ba41461036357806359d1d43c146103ae57600080fd5b8063124a319c11610210578063124a319c146102bd5780632203ab56146102d05780632518df12146102f157806329cd62ea1461030457806329fff7fe1461031757600080fd5b806301905b171461024257806301ffc9a7146102725780630af179d71461029557806310f13a8c146102aa575b600080fd5b6102556102503660046126f7565b6106a0565b6040516001600160a01b0390911681526020015b60405180910390f35b610285610280366004612736565b6106ca565b6040519015158152602001610269565b6102a86102a3366004612792565b6106d5565b005b6102a86102b83660046127dd565b6108de565b6102556102cb366004612856565b6109aa565b6102e36102de3660046126f7565b610bfb565b6040516102699291906128d2565b6102a86102ff366004612792565b610d31565b6102a86103123660046128eb565b610d9e565b6102a8610325366004612927565b610e2e565b6102a8610338366004612792565b610e99565b6102a861034b36600461294a565b610f14565b61025561035e36600461294a565b610fb5565b6102856103713660046126f7565b600082815260208181526040808320546001600160401b031683526006825280832094835293815283822092825291909152205461ffff16151590565b6103c16103bc366004612792565b610fe8565b6040516102699190612963565b6103c16103dc36600461294a565b6110c7565b6102a86103ef366004612976565b611185565b6103c161040236600461294a565b611221565b6103c161041536600461294a565b61125a565b6103c161042836600461294a565b611277565b6102a861043b366004612792565b611294565b6102a861044e3660046129de565b61130f565b6102a8610461366004612792565b6113ef565b6102a8610474366004612ab6565b61144e565b6102a8610487366004612ae2565b611517565b61028561049a36600461294a565b6000908152600e602052604090205460ff1690565b6103c16104bd366004612b20565b6115e4565b6102856104d0366004612b60565b6001600160a01b039283166000908152601260209081526040808320948352938152838220929094168152925290205460ff1690565b610519610514366004612bdb565b611631565b6040516102699190612c1c565b6103c161053436600461294a565b61163f565b61057c61054736600461294a565b600081815260208181526040808320546001600160401b03168352600982528083209383529290522080546001909101549091565b60408051928352602083019190915201610269565b6102a861059f366004612792565b611678565b6102a86105b2366004612c7e565b6117b9565b6105e06105c536600461294a565b6000602081905290815260409020546001600160401b031681565b6040516001600160401b039091168152602001610269565b61060b61060636600461294a565b6117e1565b6040516102699190612cae565b610519610626366004612cf2565b611842565b6102a8610639366004612d30565b611857565b61028561064c366004612d65565b6001600160a01b03918216600090815260116020908152604080832093909416825291909152205460ff1690565b6103c16106883660046126f7565b6118fd565b6102a861069b366004612d93565b6119c4565b6000828152600c602090815260408083208484529091529020546001600160a01b03165b92915050565b60006106c482611aa6565b826106df81611acb565b6106e857600080fd5b600084815260208181526040808320548151601f87018490048402810184019092528582528392606092839285926001600160401b0390911691839161074d9183918d908d90819084018382808284376000920191909152509293925050611d009050565b90505b80515160208201511015610877578661ffff166000036107b5578060400151965061077a81611d61565b94508460405160200161078d9190612dc1565b6040516020818303038152906040528051906020012092506107ae81611d82565b9350610869565b60006107c082611d61565b9050816040015161ffff168861ffff161415806107e457506107e28682611d9e565b155b15610867576108408c878a8e8e8080601f016020809104026020016040519081016040528093929190818152602001838380828437600092019190915250505060208801518d9150610837908290612df3565b8b51158a611dbc565b81604001519750816020015196508095508580519060200120935061086482611d82565b94505b505b61087281612023565b610750565b508351156108d2576108d28a85888c8c8080601f0160208091040260200160405190810160405280939291908181526020018383808284376000920191909152508c92506108c991508290508f612df3565b89511588611dbc565b50505050505050505050565b846108e881611acb565b6108f157600080fd5b600086815260208181526040808320546001600160401b03168352600a8252808320898452909152908190209051849184916109309089908990612e06565b9081526020016040518091039020918261094b929190612e9e565b50848460405161095c929190612e06565b6040518091039020867f448bc014f1536726cf8d54ff3d6481ed3cbc683c2591ca204274009afa09b1a18787878760405161099a9493929190612f86565b60405180910390a3505050505050565b600082815260208181526040808320546001600160401b031683526007825280832085845282528083206001600160e01b0319851684529091528120546001600160a01b031680156109fd5790506106c4565b6000610a0885610fb5565b90506001600160a01b038116610a23576000925050506106c4565b6040516301ffc9a760e01b602482015260009081906001600160a01b0384169060440160408051601f198184030181529181526020820180516001600160e01b03166301ffc9a760e01b17905251610a7b9190612dc1565b600060405180830381855afa9150503d8060008114610ab6576040519150601f19603f3d011682016040523d82523d6000602084013e610abb565b606091505b5091509150811580610ace575060208151105b80610af8575080601f81518110610ae757610ae7612fb8565b01602001516001600160f81b031916155b15610b0a5760009450505050506106c4565b6040516001600160e01b0319871660248201526001600160a01b0384169060440160408051601f198184030181529181526020820180516001600160e01b03166301ffc9a760e01b17905251610b609190612dc1565b600060405180830381855afa9150503d8060008114610b9b576040519150601f19603f3d011682016040523d82523d6000602084013e610ba0565b606091505b509092509050811580610bb4575060208151105b80610bde575080601f81518110610bcd57610bcd612fb8565b01602001516001600160f81b031916155b15610bf05760009450505050506106c4565b509095945050505050565b600082815260208181526040808320546001600160401b03168352600180835281842086855290925282206060915b848111610d115780851615801590610c5a575060008181526020839052604081208054610c5690612e16565b9050115b15610d095780826000838152602001908152602001600020808054610c7e90612e16565b80601f0160208091040260200160405190810160405280929190818152602001828054610caa90612e16565b8015610cf75780601f10610ccc57610100808354040283529160200191610cf7565b820191906000526020600020905b815481529060010190602001808311610cda57829003601f168201915b50505050509050935093505050610d2a565b60011b610c2a565b5060006040518060200160405280600081525092509250505b9250929050565b82610d3b81611acb565b610d4457600080fd5b6000848152600d60205260409020610d5d838583612e9e565b50837f343864beafe15573dcafdf62267e4ae9d9bed67cb35493c8147859105d67a1e08484604051610d90929190612fce565b60405180910390a250505050565b82610da881611acb565b610db157600080fd5b60408051808201825284815260208082018581526000888152808352848120546001600160401b031681526009835284812089825283528490209251835551600190920191909155815185815290810184905285917f1d6f5e03d3f63eb58751986629a5439baee5079ff04f345becb66e23eb154e469101610d90565b81610e3881611acb565b610e4157600080fd5b6000838152600e6020908152604091829020805460ff1916851515908117909155915191825284917fd11bfb2c3971ab263603f704dc1ad6cc96e384ae08f0ae92f69ea08fffe31295910160405180910390a2505050565b82610ea381611acb565b610eac57600080fd5b600084815260208181526040808320546001600160401b03168352600382528083208784529091529020610ee1838583612e9e565b50837fe379c1624ed7e714cc0937528a32359d69d5281337765313dba4e081b72d75788484604051610d90929190612fce565b80610f1e81611acb565b610f2757600080fd5b600082815260208190526040812080546001600160401b031691610f4a83612fe2565b82546101009290920a6001600160401b03818102199093169183160217909155600084815260208181526040918290205491519190921681528492507fc6621ccb8f3f5a04bb6502154b2caf6adf5983fe76dfef1cfc9c42e3579db444910160405180910390a25050565b600080610fc4836121056118fd565b90508051600003610fd85750600092915050565b610fe18161210b565b9392505050565b600083815260208181526040808320546001600160401b03168352600a8252808320868452909152908190209051606091906110279085908590612e06565b9081526020016040518091039020805461104090612e16565b80601f016020809104026020016040519081016040528092919081815260200182805461106c90612e16565b80156110b95780601f1061108e576101008083540402835291602001916110b9565b820191906000526020600020905b81548152906001019060200180831161109c57829003601f168201915b505050505090509392505050565b600081815260208181526040808320546001600160401b0316835260048252808320848452909152902080546060919061110090612e16565b80601f016020809104026020016040519081016040528092919081815260200182805461112c90612e16565b80156111795780601f1061114e57610100808354040283529160200191611179565b820191906000526020600020905b81548152906001019060200180831161115c57829003601f168201915b50505050509050919050565b8361118f81611acb565b61119857600080fd5b836111a4600182612df3565b16156111af57600080fd5b600085815260208181526040808320546001600160401b0316835260018252808320888452825280832087845290915290206111ec838583612e9e565b50604051849086907faa121bbeef5f32f5961a2a28966e769023910fc9479059ee3495d4c1a696efe390600090a35050505050565b600081815260208181526040808320546001600160401b0316835260088252808320848452909152902080546060919061110090612e16565b6000818152600d6020526040902080546060919061110090612e16565b6000818152600b6020526040902080546060919061110090612e16565b8261129e81611acb565b6112a757600080fd5b600084815260208181526040808320546001600160401b031683526008825280832087845290915290206112dc838583612e9e565b50837fb7d29e911041e8d9b843369e890bcb72c9388692ba48b65ac54e7214c4c348f78484604051610d90929190612fce565b8261131981611acb565b61132257600080fd5b837f65412581168e88a1e60c6459d7f44ae83ad0832e670826c05a4e2476b57af75284846040516113549291906128d2565b60405180910390a261210583036113ac57837f52d7d861f09ab3d26239d492e8968629f95e9e318cf0b73bfddc441522a15fd26113908461210b565b6040516001600160a01b03909116815260200160405180910390a25b600084815260208181526040808320546001600160401b0316835260028252808320878452825280832086845290915290206113e88382613008565b5050505050565b826113f981611acb565b61140257600080fd5b6000848152600b6020526040902061141b838583612e9e565b50837fd505bcf4da0da69a1999d3bf6ba9d42bfc810668b7031af45a28458c9b372b1f8484604051610d90929190612fce565b6001600160a01b03821633036114ab5760405162461bcd60e51b815260206004820152601960248201527f53657474696e6720617070726f76616c20666f722073656c660000000000000060448201526064015b60405180910390fd5b3360008181526011602090815260408083206001600160a01b03871680855290835292819020805460ff191686151590811790915590519081529192917f17307eab39ab6107e8899845ad3d59bd9653f200f220920489ca2b5937696c31910160405180910390a35050565b6001600160a01b038216330361156f5760405162461bcd60e51b815260206004820152601960248201527f53657474696e672064656c656761746520666f722073656c660000000000000060448201526064016114a2565b33600081815260126020908152604080832087845282528083206001600160a01b03871680855290835292819020805460ff191686151590811790915590519384529286917ff0ddb3b04746704017f9aa8bd728fcc2c1d11675041205350018915f5e4750a0910160405180910390a4505050565b600083815260208181526040808320546001600160401b03168352600582528083208684528252808320858452825280832061ffff85168452909152902080546060919061104090612e16565b6060610fe16000848461212a565b600081815260208181526040808320546001600160401b0316835260038252808320848452909152902080546060919061110090612e16565b8261168281611acb565b61168b57600080fd5b600084815260208181526040808320546001600160401b031680845260048352818420888552909252822080549192916116c490612e16565b80601f01602080910402602001604051908101604052809291908181526020018280546116f090612e16565b801561173d5780601f106117125761010080835404028352916020019161173d565b820191906000526020600020905b81548152906001019060200180831161172057829003601f168201915b505050506001600160401b03841660009081526004602090815260408083208b845290915290209192506117749050858783612e9e565b50857f8f15ed4b723ef428f250961da8315675b507046737e19319fc1a4d81bfe87f858287876040516117a9939291906130c7565b60405180910390a2505050505050565b816117c381611acb565b6117cc57600080fd5b6117dc8361210561044e856122f9565b505050565b6000818152600f602090815260409182902080548351818402810184019094528084526060939283018282801561117957602002820191906000526020600020905b8154815260200190600101908083116118235750505050509050919050565b606061184f84848461212a565b949350505050565b8261186181611acb565b61186a57600080fd5b600084815260208181526040808320546001600160401b031683526007825280832087845282528083206001600160e01b031987168085529083529281902080546001600160a01b0319166001600160a01b038716908117909155905190815286917f7c69f06bea0bdef565b709e93a147836b0063ba2dd89f02d0b7e8d931e6a6daa910160405180910390a350505050565b600082815260208181526040808320546001600160401b03168352600282528083208584528252808320848452909152902080546060919061193e90612e16565b80601f016020809104026020016040519081016040528092919081815260200182805461196a90612e16565b80156119b75780601f1061198c576101008083540402835291602001916119b7565b820191906000526020600020905b81548152906001019060200180831161199a57829003601f168201915b5050505050905092915050565b826119ce81611acb565b6119d757600080fd5b6000848152600c60209081526040808320868452825280832080546001600160a01b0319166001600160a01b0387161790558683526010825280832086845290915290205460ff16611a66576000848152600f602090815260408083208054600181810183559185528385200187905587845260108352818420878552909252909120805460ff191690911790555b604080518481526001600160a01b038416602082015285917f44cc3275e316dd7a8aa4fc705746216580a676316f58f4a56506072c28824a2c9101610d90565b60006001600160e01b0319821663068341e760e01b14806106c457506106c482612329565b6000336001600160a01b037f0000000000000000000000000000000000000000000000000000000000000000161480611b2c5750336001600160a01b037f000000000000000000000000000000000000000000000000000000000000000016145b15611b3957506001919050565b6040516302571be360e01b8152600481018390526000907f00000000000000000000000000000000000000000000000000000000000000006001600160a01b0316906302571be390602401602060405180830381865afa158015611ba1573d6000803e3d6000fd5b505050506040513d601f19601f82011682018060405250810190611bc591906130f7565b90507f00000000000000000000000000000000000000000000000000000000000000006001600160a01b0316816001600160a01b031603611c8c576040516331a9108f60e11b8152600481018490527f00000000000000000000000000000000000000000000000000000000000000006001600160a01b031690636352211e90602401602060405180830381865afa158015611c65573d6000803e3d6000fd5b505050506040513d601f19601f82011682018060405250810190611c8991906130f7565b90505b6001600160a01b038116331480611cc657506001600160a01b038116600090815260116020908152604080832033845290915290205460ff165b80610fe157506001600160a01b0381166000908152601260209081526040808320868452825280832033845290915290205460ff16610fe1565b611d4e6040518060e001604052806060815260200160008152602001600061ffff168152602001600061ffff168152602001600063ffffffff16815260200160008152602001600081525090565b82815260c081018290526106c481612023565b602081015181516060916106c491611d79908261234e565b845191906123a8565b60a081015160c08201516060916106c491611d79908290612df3565b600081518351148015610fe15750610fe1836000846000875161241e565b865160208801206000611dd08787876123a8565b90508315611ef7576001600160401b03831660009081526005602090815260408083208d84528252808320858452825280832061ffff8c16845290915290208054611e1a90612e16565b159050611e78576001600160401b03831660009081526006602090815260408083208d845282528083208584529091528120805461ffff1691611e5c83613114565b91906101000a81548161ffff021916908361ffff160217905550505b6001600160401b03831660009081526005602090815260408083208d84528252808320858452825280832061ffff8c1684529091528120611eb8916126a1565b897f03528ed0c2a3ebc993b12ce3c16bb382f9c7d88ef7d8a1bf290eaf35955a12078a8a604051611eea929190613132565b60405180910390a26108d2565b6001600160401b03831660009081526005602090815260408083208d84528252808320858452825280832061ffff8c16845290915290208054611f3990612e16565b9050600003611f99576001600160401b03831660009081526006602090815260408083208d845282528083208584529091528120805461ffff1691611f7d83613158565b91906101000a81548161ffff021916908361ffff160217905550505b6001600160401b03831660009081526005602090815260408083208d84528252808320858452825280832061ffff8c1684529091529020611fda8282613008565b50897f52a608b3303a48862d07a73d82fa221318c0027fbbcfb1b2329bface3f19ff2b8a8a8460405161200f9392919061316f565b60405180910390a250505050505050505050565b60c0810151602082018190528151511161203a5750565b600061204e8260000151836020015161234e565b826020015161205d919061319e565b825190915061206c9082612441565b61ffff16604083015261208060028261319e565b825190915061208f9082612441565b61ffff1660608301526120a360028261319e565b82519091506120b29082612469565b63ffffffff1660808301526120c860048261319e565b82519091506000906120da9083612441565b61ffff1690506120eb60028361319e565b60a0840181905291506120fe818361319e565b60c0909301929092525050565b6000815160141461211b57600080fd5b5060200151600160601b900490565b6060816001600160401b03811115612144576121446129c8565b60405190808252806020026020018201604052801561217757816020015b60608152602001906001900390816121625790505b50905060005b828110156122f157841561223957600084848381811061219f5761219f612fb8565b90506020028101906121b191906131b1565b6121c0916024916004916131f7565b6121c991613221565b90508581146122375760405162461bcd60e51b815260206004820152603460248201527f6d756c746963616c6c3a20416c6c207265636f726473206d7573742068617665604482015273040c240dac2e8c6d0d2dcce40dcc2dacad0c2e6d60631b60648201526084016114a2565b505b6000803086868581811061224f5761224f612fb8565b905060200281019061226191906131b1565b60405161226f929190612e06565b600060405180830381855af49150503d80600081146122aa576040519150601f19603f3d011682016040523d82523d6000602084013e6122af565b606091505b5091509150816122be57600080fd5b808484815181106122d1576122d1612fb8565b6020026020010181905250505080806122e99061323f565b91505061217d565b509392505050565b604080516014808252818301909252606091602082018180368337505050600160601b9290920260208301525090565b60006001600160e01b03198216631674750f60e21b14806106c457506106c482612493565b6000815b8351811061236257612362613258565b600061236e85836124b8565b60ff16905061237e81600161319e565b612388908361319e565b915080600003612398575061239e565b50612352565b61184f8382612df3565b82516060906123b7838561319e565b11156123c257600080fd5b6000826001600160401b038111156123dc576123dc6129c8565b6040519080825280601f01601f191660200182016040528015612406576020820181803683370190505b50905060208082019086860101610bf08282876124dc565b600061242b848484612532565b612436878785612532565b149695505050505050565b815160009061245183600261319e565b111561245c57600080fd5b50016002015161ffff1690565b815160009061247983600461319e565b111561248457600080fd5b50016004015163ffffffff1690565b60006001600160e01b0319821663c869023360e01b14806106c457506106c482612556565b60008282815181106124cc576124cc612fb8565b016020015160f81c905092915050565b6020811061251457815183526124f360208461319e565b925061250060208361319e565b915061250d602082612df3565b90506124dc565b905182516020929092036101000a6000190180199091169116179052565b8251600090612541838561319e565b111561254c57600080fd5b5091016020012090565b60006001600160e01b0319821663691f343160e01b14806106c457506106c48260006001600160e01b031982166304928c6760e21b14806106c457506106c48260006001600160e01b0319821663547d2b4160e11b14806125c757506001600160e01b03198216635c98042b60e01b145b806106c457506106c48260006001600160e01b0319821663bc1c58d160e01b14806106c457506106c48260006001600160e01b03198216631d9dabef60e11b148061262257506001600160e01b031982166378e5bf0360e11b145b806106c457506106c48260006001600160e01b03198216631101d5ab60e11b14806106c457506106c48260006001600160e01b0319821663d700ff3360e01b14806106c457506106c48260006001600160e01b03198216634fbf043360e01b14806106c457506301ffc9a760e01b6001600160e01b03198316146106c4565b5080546126ad90612e16565b6000825580601f106126bd575050565b601f0160209004906000526020600020908101906126db91906126de565b50565b5b808211156126f357600081556001016126df565b5090565b6000806040838503121561270a57600080fd5b50508035926020909101359150565b80356001600160e01b03198116811461273157600080fd5b919050565b60006020828403121561274857600080fd5b610fe182612719565b60008083601f84011261276357600080fd5b5081356001600160401b0381111561277a57600080fd5b602083019150836020828501011115610d2a57600080fd5b6000806000604084860312156127a757600080fd5b8335925060208401356001600160401b038111156127c457600080fd5b6127d086828701612751565b9497909650939450505050565b6000806000806000606086880312156127f557600080fd5b8535945060208601356001600160401b038082111561281357600080fd5b61281f89838a01612751565b9096509450604088013591508082111561283857600080fd5b5061284588828901612751565b969995985093965092949392505050565b6000806040838503121561286957600080fd5b8235915061287960208401612719565b90509250929050565b60005b8381101561289d578181015183820152602001612885565b50506000910152565b600081518084526128be816020860160208601612882565b601f01601f19169290920160200192915050565b82815260406020820152600061184f60408301846128a6565b60008060006060848603121561290057600080fd5b505081359360208301359350604090920135919050565b8035801515811461273157600080fd5b6000806040838503121561293a57600080fd5b8235915061287960208401612917565b60006020828403121561295c57600080fd5b5035919050565b602081526000610fe160208301846128a6565b6000806000806060858703121561298c57600080fd5b843593506020850135925060408501356001600160401b038111156129b057600080fd5b6129bc87828801612751565b95989497509550505050565b634e487b7160e01b600052604160045260246000fd5b6000806000606084860312156129f357600080fd5b833592506020840135915060408401356001600160401b0380821115612a1857600080fd5b818601915086601f830112612a2c57600080fd5b813581811115612a3e57612a3e6129c8565b604051601f8201601f19908116603f01168101908382118183101715612a6657612a666129c8565b81604052828152896020848701011115612a7f57600080fd5b8260208601602083013760006020848301015280955050505050509250925092565b6001600160a01b03811681146126db57600080fd5b60008060408385031215612ac957600080fd5b8235612ad481612aa1565b915061287960208401612917565b600080600060608486031215612af757600080fd5b833592506020840135612b0981612aa1565b9150612b1760408501612917565b90509250925092565b600080600060608486031215612b3557600080fd5b8335925060208401359150604084013561ffff81168114612b5557600080fd5b809150509250925092565b600080600060608486031215612b7557600080fd5b8335612b8081612aa1565b9250602084013591506040840135612b5581612aa1565b60008083601f840112612ba957600080fd5b5081356001600160401b03811115612bc057600080fd5b6020830191508360208260051b8501011115610d2a57600080fd5b60008060208385031215612bee57600080fd5b82356001600160401b03811115612c0457600080fd5b612c1085828601612b97565b90969095509350505050565b6000602080830181845280855180835260408601915060408160051b870101925083870160005b82811015612c7157603f19888603018452612c5f8583516128a6565b94509285019290850190600101612c43565b5092979650505050505050565b60008060408385031215612c9157600080fd5b823591506020830135612ca381612aa1565b809150509250929050565b6020808252825182820181905260009190848201906040850190845b81811015612ce657835183529284019291840191600101612cca565b50909695505050505050565b600080600060408486031215612d0757600080fd5b8335925060208401356001600160401b03811115612d2457600080fd5b6127d086828701612b97565b600080600060608486031215612d4557600080fd5b83359250612d5560208501612719565b91506040840135612b5581612aa1565b60008060408385031215612d7857600080fd5b8235612d8381612aa1565b91506020830135612ca381612aa1565b600080600060608486031215612da857600080fd5b83359250602084013591506040840135612b5581612aa1565b60008251612dd3818460208701612882565b9190910192915050565b634e487b7160e01b600052601160045260246000fd5b818103818111156106c4576106c4612ddd565b8183823760009101908152919050565b600181811c90821680612e2a57607f821691505b602082108103612e4a57634e487b7160e01b600052602260045260246000fd5b50919050565b601f8211156117dc57600081815260208120601f850160051c81016020861015612e775750805b601f850160051c820191505b81811015612e9657828155600101612e83565b505050505050565b6001600160401b03831115612eb557612eb56129c8565b612ec983612ec38354612e16565b83612e50565b6000601f841160018114612efd5760008515612ee55750838201355b600019600387901b1c1916600186901b1783556113e8565b600083815260209020601f19861690835b82811015612f2e5786850135825560209485019460019092019101612f0e565b5086821015612f4b5760001960f88860031b161c19848701351681555b505060018560011b0183555050505050565b81835281816020850137506000828201602090810191909152601f909101601f19169091010190565b604081526000612f9a604083018688612f5d565b8281036020840152612fad818587612f5d565b979650505050505050565b634e487b7160e01b600052603260045260246000fd5b60208152600061184f602083018486612f5d565b60006001600160401b03808316818103612ffe57612ffe612ddd565b6001019392505050565b81516001600160401b03811115613021576130216129c8565b6130358161302f8454612e16565b84612e50565b602080601f83116001811461306a57600084156130525750858301515b600019600386901b1c1916600185901b178555612e96565b600085815260208120601f198616915b828110156130995788860151825594840194600190910190840161307a565b50858210156130b75787850151600019600388901b60f8161c191681555b5050505050600190811b01905550565b6040815260006130da60408301866128a6565b82810360208401526130ed818587612f5d565b9695505050505050565b60006020828403121561310957600080fd5b8151610fe181612aa1565b600061ffff82168061312857613128612ddd565b6000190192915050565b60408152600061314560408301856128a6565b905061ffff831660208301529392505050565b600061ffff808316818103612ffe57612ffe612ddd565b60608152600061318260608301866128a6565b61ffff8516602084015282810360408401526130ed81856128a6565b808201808211156106c4576106c4612ddd565b6000808335601e198436030181126131c857600080fd5b8301803591506001600160401b038211156131e257600080fd5b602001915036819003821315610d2a57600080fd5b6000808585111561320757600080fd5b8386111561321457600080fd5b5050820193919092039150565b803560208310156106c457600019602084900360031b1b1692915050565b60006001820161325157613251612ddd565b5060010190565b634e487b7160e01b600052600160045260246000fdfea2646970667358221220004dd04a02636422eda1d3851a00c03d1faa43c3c27e2d2c891d9f73495836e664736f6c63430008140033",
  "devdoc": {
    "details": "Extends the standard PublicResolver with PaymentResolver for agent payments",
    "kind": "dev",
    "methods": {
      "ABI(bytes32,uint256)": {
        "params": {
          "contentTypes": "A bitwise OR of the ABI formats accepted by the caller.",
          "node": "The ENS node to query"
        },
        "returns": {
          "_0": "contentType The content type of the return value",
          "_1": "data The ABI data"
        }
      },
      "addr(bytes32)": {
        "params": {
          "node": "The ENS node to query."
        },
        "returns": {
          "_0": "The associated address."
        }
      },
      "agentMetadata(bytes32)": {
        "params": {
          "node": "The node to query"
        },
        "returns": {
          "_0": "The metadata URI"
        }
      },
      "approve(bytes32,address,bool)": {
        "params": {
          "approved": "Whether to approve or revoke",
          "delegate": "The delegate address",
          "node": "The name node"
        }
      },
      "clearRecords(bytes32)": {
        "params": {
          "node": "The node to update."
        }
      },
      "contenthash(bytes32)": {
        "params": {
          "node": "The ENS node to query."
        },
        "returns": {
          "_0": "The associated contenthash."
        }
      },
      "dnsRecord(bytes32,bytes32,uint16)": {
        "params": {
          "name": "the keccak-256 hash of the fully-qualified name for which to fetch the record",
          "node": "the namehash of the node for which to fetch the record",
          "resource": "the ID of the resource as per https://en.wikipedia.org/wiki/List_of_DNS_record_types"
        },
        "returns": {
          "_0": "the DNS record in wire format if present, otherwise empty"
        }
      },
      "hasDNSRecords(bytes32,bytes32)": {
        "params": {
          "name": "the namehash of the node for which to check the records",
          "node": "the namehash of the node for which to check the records"
        }
      },
      "interfaceImplementer(bytes32,bytes4)": {
        "params": {
          "interfaceID": "The EIP 165 interface ID to check for.",
          "node": "The ENS node to query."
        },
        "returns": {
          "_0": "The address that implements this interface, or 0 if the interface is unsupported."
        }
      },
      "isApprovedFor(address,bytes32,address)": {
        "params": {
          "delegate": "The delegate address",
          "node": "The name node",
          "owner": "The owner address"
        },
        "returns": {
          "_0": "True if approved"
        }
      },
      "isApprovedForAll(address,address)": {
        "params": {
          "account": "The owner address",
          "operator": "The operator address"
        },
        "returns": {
          "_0": "True if approved"
        }
      },
      "name(bytes32)": {
        "params": {
          "node": "The ENS node to query."
        },
        "returns": {
          "_0": "The associated name."
        }
      },
      "paymentAddress(bytes32,uint256)": {
        "params": {
          "chainId": "The chain ID",
          "node": "The node to query"
        },
        "returns": {
          "_0": "The payment address"
        }
      },
      "paymentEnabled(bytes32)": {
        "params": {
          "node": "The node to query"
        },
        "returns": {
          "_0": "True if payments are enabled"
        }
      },
      "pubkey(bytes32)": {
        "params": {
          "node": "The ENS node to query"
        },
        "returns": {
          "x": "The X coordinate of the curve point for the public key.",
          "y": "The Y coordinate of the curve point for the public key."
        }
      },
      "setABI(bytes32,uint256,bytes)": {
        "params": {
          "contentType": "The content type of the ABI",
          "data": "The ABI data.",
          "node": "The node to update."
        }
      },
      "setAddr(bytes32,address)": {
        "params": {
          "a": "The address to set.",
          "node": "The node to update."
        }
      },
      "setAgentMetadata(bytes32,string)": {
        "params": {
          "node": "The node to update",
          "uri": "The metadata URI (IPFS, HTTP, etc.)"
        }
      },
      "setApprovalForAll(address,bool)": {
        "params": {
          "approved": "Whether to approve or revoke",
          "operator": "The operator address"
        }
      },
      "setContenthash(bytes32,bytes)": {
        "params": {
          "hash": "The contenthash to set",
          "node": "The node to update."
        }
      },
      "setDNSRecords(bytes32,bytes)": {
        "params": {
          "data": "the DNS wire format records to set",
          "node": "the namehash of the node for which to set the records"
        }
      },
      "setInterface(bytes32,bytes4,address)": {
        "params": {
          "implementer": "The address of a contract that implements this interface for this node.",
          "interfaceID": "The EIP 165 interface ID.",
          "node": "The node to update."
        }
      },
      "setName(bytes32,string)": {
        "params": {
          "node": "The node to update."
        }
      },
      "setPaymentAddress(bytes32,uint256,address)": {
        "params": {
          "addr": "The payment address",
          "chainId": "The chain ID",
          "node": "The node to update"
        }
      },
      "setPaymentEnabled(bytes32,bool)": {
        "params": {
          "enabled": "Whether to enable payments",
          "node": "The node to update"
        }
      },
      "setPubkey(bytes32,bytes32,bytes32)": {
        "params": {
          "node": "The ENS node to query",
          "x": "the X coordinate of the curve point for the public key.",
          "y": "the Y coordinate of the curve point for the public key."
        }
      },
      "setText(bytes32,string,string)": {
        "params": {
          "key": "The key to set.",
          "node": "The node to update.",
          "value": "The text data value to set."
        }
      },
      "setX402Endpoint(bytes32,string)": {
        "params": {
          "endpoint": "The x402 endpoint URL",
          "node": "The node to update"
        }
      },
      "setZonehash(bytes32,bytes)": {
        "params": {
          "hash": "The zonehash to set",
          "node": "The node to update."
        }
      },
      "supportedChains(bytes32)": {
        "params": {
          "node": "The node to query"
        },
        "returns": {
          "_0": "Array of supported chain IDs"
        }
      },
      "text(bytes32,string)": {
        "params": {
          "key": "The text data key to query.",
          "node": "The ENS node to query."
        },
        "returns": {
          "_0": "The associated text data."
        }
      },
      "x402Endpoint(bytes32)": {
        "params": {
          "node": "The node to query"
        },
        "returns": {
          "_0": "The x402 endpoint URL"
        }
      },
      "zonehash(bytes32)": {
        "params": {
          "node": "The ENS node to query."
        },
        "returns": {
          "_0": "The associated contenthash."
        }
      }
    },
    "stateVariables": {
      "_operatorApprovals": {
        "details": "(owner, operator) => approved"
      },
      "_tokenApprovals": {
        "details": "(owner, node, delegate) => approved"
      }
    },
    "title": "AgentPublicResolver",
    "version": 1
  },
  "userdoc": {
    "kind": "user",
    "methods": {
      "ABI(bytes32,uint256)": {
        "notice": "Returns the ABI associated with an ENS node. Defined in EIP205."
      },
      "addr(bytes32)": {
        "notice": "Returns the address associated with an ENS node."
      },
      "agentMetadata(bytes32)": {
        "notice": "Get the agent metadata URI for a node"
      },
      "approve(bytes32,address,bool)": {
        "notice": "Approve a delegate for a specific name"
      },
      "clearRecords(bytes32)": {
        "notice": "Increments the record version associated with an ENS node. May only be called by the owner of that node in the ENS registry."
      },
      "contenthash(bytes32)": {
        "notice": "Returns the contenthash associated with an ENS node."
      },
      "dnsRecord(bytes32,bytes32,uint16)": {
        "notice": "Obtain a DNS record."
      },
      "hasDNSRecords(bytes32,bytes32)": {
        "notice": "Check if a given node has records."
      },
      "interfaceImplementer(bytes32,bytes4)": {
        "notice": "Returns the address of a contract that implements the specified interface for this name. If an implementer has not been set for this interfaceID and name, the resolver will query the contract at `addr()`. If `addr()` is set, a contract exists at that address, and that contract implements EIP165 and returns `true` for the specified interfaceID, its address will be returned."
      },
      "isApprovedFor(address,bytes32,address)": {
        "notice": "Check if a delegate is approved for a specific name"
      },
      "isApprovedForAll(address,address)": {
        "notice": "Check if an operator is approved for all names"
      },
      "name(bytes32)": {
        "notice": "Returns the name associated with an ENS node, for reverse records. Defined in EIP181."
      },
      "paymentAddress(bytes32,uint256)": {
        "notice": "Get the payment address for a node on a specific chain"
      },
      "paymentEnabled(bytes32)": {
        "notice": "Check if payments are enabled for a node"
      },
      "pubkey(bytes32)": {
        "notice": "Returns the SECP256k1 public key associated with an ENS node. Defined in EIP 619."
      },
      "setABI(bytes32,uint256,bytes)": {
        "notice": "Sets the ABI associated with an ENS node. Nodes may have one ABI of each content type. To remove an ABI, set it to the empty string."
      },
      "setAddr(bytes32,address)": {
        "notice": "Sets the address associated with an ENS node. May only be called by the owner of that node in the ENS registry."
      },
      "setAgentMetadata(bytes32,string)": {
        "notice": "Set the agent metadata URI for a node"
      },
      "setApprovalForAll(address,bool)": {
        "notice": "Set approval for an operator to manage all names"
      },
      "setContenthash(bytes32,bytes)": {
        "notice": "Sets the contenthash associated with an ENS node. May only be called by the owner of that node in the ENS registry."
      },
      "setDNSRecords(bytes32,bytes)": {
        "notice": "Set one or more DNS records.  Records are supplied in wire-format. Records with the same node/name/resource must be supplied one after the other to ensure the data is updated correctly. For example, if the data was supplied:     a.example.com IN A 1.2.3.4     a.example.com IN A 5.6.7.8     www.example.com IN CNAME a.example.com. then this would store the two A records for a.example.com correctly as a single RRSET, however if the data was supplied:     a.example.com IN A 1.2.3.4     www.example.com IN CNAME a.example.com.     a.example.com IN A 5.6.7.8 then this would store the first A record, the CNAME, then the second A record which would overwrite the first."
      },
      "setInterface(bytes32,bytes4,address)": {
        "notice": "Sets an interface associated with a name. Setting the address to 0 restores the default behaviour of querying the contract at `addr()` for interface support."
      },
      "setName(bytes32,string)": {
        "notice": "Sets the name associated with an ENS node, for reverse records. May only be called by the owner of that node in the ENS registry."
      },
      "setPaymentAddress(bytes32,uint256,address)": {
        "notice": "Set the payment address for a node on a specific chain"
      },
      "setPaymentEnabled(bytes32,bool)": {
        "notice": "Enable or disable payments for a node"
      },
      "setPubkey(bytes32,bytes32,bytes32)": {
        "notice": "Sets the SECP256k1 public key associated with an ENS node."
      },
      "setText(bytes32,string,string)": {
        "notice": "Sets the text data associated with an ENS node and key. May only be called by the owner of that node in the ENS registry."
      },
      "setX402Endpoint(bytes32,string)": {
        "notice": "Set the x402 payment endpoint for a node"
      },
      "setZonehash(bytes32,bytes)": {
        "notice": "setZonehash sets the hash for the zone. May only be called by the owner of that node in the ENS registry."
      },
      "supportedChains(bytes32)": {
        "notice": "Get all supported chain IDs for a node"
      },
      "text(bytes32,string)": {
        "notice": "Returns the text data associated with an ENS node and key."
      },
      "x402Endpoint(bytes32)": {
        "notice": "Get the x402 payment endpoint for a node"
      },
      "zonehash(bytes32)": {
        "notice": "zonehash obtains the hash for the zone."
      }
    },
    "notice": "Full-featured resolver with all standard profiles plus payment support",
    "version": 1
  },
  "storageLayout": {
    "storage": [
      {
        "astId": 18064,
        "contract": "contracts/agent-registrar/resolvers/AgentPublicResolver.sol:AgentPublicResolver",
        "label": "recordVersions",
        "offset": 0,
        "slot": "0",
        "type": "t_mapping(t_bytes32,t_uint64)"
      },
      {
        "astId": 18143,
        "contract": "contracts/agent-registrar/resolvers/AgentPublicResolver.sol:AgentPublicResolver",
        "label": "versionable_abis",
        "offset": 0,
        "slot": "1",
        "type": "t_mapping(t_uint64,t_mapping(t_bytes32,t_mapping(t_uint256,t_bytes_storage)))"
      },
      {
        "astId": 18297,
        "contract": "contracts/agent-registrar/resolvers/AgentPublicResolver.sol:AgentPublicResolver",
        "label": "versionable_addresses",
        "offset": 0,
        "slot": "2",
        "type": "t_mapping(t_uint64,t_mapping(t_bytes32,t_mapping(t_uint256,t_bytes_storage)))"
      },
      {
        "astId": 18488,
        "contract": "contracts/agent-registrar/resolvers/AgentPublicResolver.sol:AgentPublicResolver",
        "label": "versionable_hashes",
        "offset": 0,
        "slot": "3",
        "type": "t_mapping(t_uint64,t_mapping(t_bytes32,t_bytes_storage))"
      },
      {
        "astId": 18578,
        "contract": "contracts/agent-registrar/resolvers/AgentPublicResolver.sol:AgentPublicResolver",
        "label": "versionable_zonehashes",
        "offset": 0,
        "slot": "4",
        "type": "t_mapping(t_uint64,t_mapping(t_bytes32,t_bytes_storage))"
      },
      {
        "astId": 18588,
        "contract": "contracts/agent-registrar/resolvers/AgentPublicResolver.sol:AgentPublicResolver",
        "label": "versionable_records",
        "offset": 0,
        "slot": "5",
        "type": "t_mapping(t_uint64,t_mapping(t_bytes32,t_mapping(t_bytes32,t_mapping(t_uint16,t_bytes_storage))))"
      },
      {
        "astId": 18596,
        "contract": "contracts/agent-registrar/resolvers/AgentPublicResolver.sol:AgentPublicResolver",
        "label": "versionable_nameEntriesCount",
        "offset": 0,
        "slot": "6",
        "type": "t_mapping(t_uint64,t_mapping(t_bytes32,t_mapping(t_bytes32,t_uint16)))"
      },
      {
        "astId": 19320,
        "contract": "contracts/agent-registrar/resolvers/AgentPublicResolver.sol:AgentPublicResolver",
        "label": "versionable_interfaces",
        "offset": 0,
        "slot": "7",
        "type": "t_mapping(t_uint64,t_mapping(t_bytes32,t_mapping(t_bytes4,t_address)))"
      },
      {
        "astId": 19512,
        "contract": "contracts/agent-registrar/resolvers/AgentPublicResolver.sol:AgentPublicResolver",
        "label": "versionable_names",
        "offset": 0,
        "slot": "8",
        "type": "t_mapping(t_uint64,t_mapping(t_bytes32,t_string_storage))"
      },
      {
        "astId": 19599,
        "contract": "contracts/agent-registrar/resolvers/AgentPublicResolver.sol:AgentPublicResolver",
        "label": "versionable_pubkeys",
        "offset": 0,
        "slot": "9",
        "type": "t_mapping(t_uint64,t_mapping(t_bytes32,t_struct(PublicKey)19592_storage))"
      },
      {
        "astId": 19702,
        "contract": "contracts/agent-registrar/resolvers/AgentPublicResolver.sol:AgentPublicResolver",
        "label": "versionable_texts",
        "offset": 0,
        "slot": "10",
        "type": "t_mapping(t_uint64,t_mapping(t_bytes32,t_mapping(t_string_memory_ptr,t_string_storage)))"
      },
      {
        "astId": 7079,
        "contract": "contracts/agent-registrar/resolvers/AgentPublicResolver.sol:AgentPublicResolver",
        "label": "_x402Endpoints",
        "offset": 0,
        "slot": "11",
        "type": "t_mapping(t_bytes32,t_string_storage)"
      },
      {
        "astId": 7086,
        "contract": "contracts/agent-registrar/resolvers/AgentPublicResolver.sol:AgentPublicResolver",
        "label": "_paymentAddresses",
        "offset": 0,
        "slot": "12",
        "type": "t_mapping(t_bytes32,t_mapping(t_uint256,t_address))"
      },
      {
        "astId": 7091,
        "contract": "contracts/agent-registrar/resolvers/AgentPublicResolver.sol:AgentPublicResolver",
        "label": "_agentMetadata",
        "offset": 0,
        "slot": "13",
        "type": "t_mapping(t_bytes32,t_string_storage)"
      },
      {
        "astId": 7096,
        "contract": "contracts/agent-registrar/resolvers/AgentPublicResolver.sol:AgentPublicResolver",
        "label": "_paymentEnabled",
        "offset": 0,
        "slot": "14",
        "type": "t_mapping(t_bytes32,t_bool)"
      },
      {
        "astId": 7102,
        "contract": "contracts/agent-registrar/resolvers/AgentPublicResolver.sol:AgentPublicResolver",
        "label": "_supportedChains",
        "offset": 0,
        "slot": "15",
        "type": "t_mapping(t_bytes32,t_array(t_uint256)dyn_storage)"
      },
      {
        "astId": 7109,
        "contract": "contracts/agent-registrar/resolvers/AgentPublicResolver.sol:AgentPublicResolver",
        "label": "_chainExists",
        "offset": 0,
        "slot": "16",
        "type": "t_mapping(t_bytes32,t_mapping(t_uint256,t_bool))"
      },
      {
        "astId": 6705,
        "contract": "contracts/agent-registrar/resolvers/AgentPublicResolver.sol:AgentPublicResolver",
        "label": "_operatorApprovals",
        "offset": 0,
        "slot": "17",
        "type": "t_mapping(t_address,t_mapping(t_address,t_bool))"
      },
      {
        "astId": 6714,
        "contract": "contracts/agent-registrar/resolvers/AgentPublicResolver.sol:AgentPublicResolver",
        "label": "_tokenApprovals",
        "offset": 0,
        "slot": "18",
        "type": "t_mapping(t_address,t_mapping(t_bytes32,t_mapping(t_address,t_bool)))"
      }
    ],
    "types": {
      "t_address": {
        "encoding": "inplace",
        "label": "address",
        "numberOfBytes": "20"
      },
      "t_array(t_uint256)dyn_storage": {
        "base": "t_uint256",
        "encoding": "dynamic_array",
        "label": "uint256[]",
        "numberOfBytes": "32"
      },
      "t_bool": {
        "encoding": "inplace",
        "label": "bool",
        "numberOfBytes": "1"
      },
      "t_bytes32": {
        "encoding": "inplace",
        "label": "bytes32",
        "numberOfBytes": "32"
      },
      "t_bytes4": {
        "encoding": "inplace",
        "label": "bytes4",
        "numberOfBytes": "4"
      },
      "t_bytes_storage": {
        "encoding": "bytes",
        "label": "bytes",
        "numberOfBytes": "32"
      },
      "t_mapping(t_address,t_bool)": {
        "encoding": "mapping",
        "key": "t_address",
        "label": "mapping(address => bool)",
        "numberOfBytes": "32",
        "value": "t_bool"
      },
      "t_mapping(t_address,t_mapping(t_address,t_bool))": {
        "encoding": "mapping",
        "key": "t_address",
        "label": "mapping(address => mapping(address => bool))",
        "numberOfBytes": "32",
        "value": "t_mapping(t_address,t_bool)"
      },
      "t_mapping(t_address,t_mapping(t_bytes32,t_mapping(t_address,t_bool)))": {
        "encoding": "mapping",
        "key": "t_address",
        "label": "mapping(address => mapping(bytes32 => mapping(address => bool)))",
        "numberOfBytes": "32",
        "value": "t_mapping(t_bytes32,t_mapping(t_address,t_bool))"
      },
      "t_mapping(t_bytes32,t_array(t_uint256)dyn_storage)": {
        "encoding": "mapping",
        "key": "t_bytes32",
        "label": "mapping(bytes32 => uint256[])",
        "numberOfBytes": "32",
        "value": "t_array(t_uint256)dyn_storage"
      },
      "t_mapping(t_bytes32,t_bool)": {
        "encoding": "mapping",
        "key": "t_bytes32",
        "label": "mapping(bytes32 => bool)",
        "numberOfBytes": "32",
        "value": "t_bool"
      },
      "t_mapping(t_bytes32,t_bytes_storage)": {
        "encoding": "mapping",
        "key": "t_bytes32",
        "label": "mapping(bytes32 => bytes)",
        "numberOfBytes": "32",
        "value": "t_bytes_storage"
      },
      "t_mapping(t_bytes32,t_mapping(t_address,t_bool))": {
        "encoding": "mapping",
        "key": "t_bytes32",
        "label": "mapping(bytes32 => mapping(address => bool))",
        "numberOfBytes": "32",
        "value": "t_mapping(t_address,t_bool)"
      },
      "t_mapping(t_bytes32,t_mapping(t_bytes32,t_mapping(t_uint16,t_bytes_storage)))": {
        "encoding": "mapping",
        "key": "t_bytes32",
        "label": "mapping(bytes32 => mapping(bytes32 => mapping(uint16 => bytes)))",
        "numberOfBytes": "32",
        "value": "t_mapping(t_bytes32,t_mapping(t_uint16,t_bytes_storage))"
      },
      "t_mapping(t_bytes32,t_mapping(t_bytes32,t_uint16))": {
        "encoding": "mapping",
        "key": "t_bytes32",
        "label": "mapping(bytes32 => mapping(bytes32 => uint16))",
        "numberOfBytes": "32",
        "value": "t_mapping(t_bytes32,t_uint16)"
      },
      "t_mapping(t_bytes32,t_mapping(t_bytes4,t_address))": {
        "encoding": "mapping",
        "key": "t_bytes32",
        "label": "mapping(bytes32 => mapping(bytes4 => address))",
        "numberOfBytes": "32",
        "value": "t_mapping(t_bytes4,t_address)"
      },
      "t_mapping(t_bytes32,t_mapping(t_string_memory_ptr,t_string_storage))": {
        "encoding": "mapping",
        "key": "t_bytes32",
        "label": "mapping(bytes32 => mapping(string => string))",
        "numberOfBytes": "32",
        "value": "t_mapping(t_string_memory_ptr,t_string_storage)"
      },
      "t_mapping(t_bytes32,t_mapping(t_uint16,t_bytes_storage))": {
        "encoding": "mapping",
        "key": "t_bytes32",
        "label": "mapping(bytes32 => mapping(uint16 => bytes))",
        "numberOfBytes": "32",
        "value": "t_mapping(t_uint16,t_bytes_storage)"
      },
      "t_mapping(t_bytes32,t_mapping(t_uint256,t_address))": {
        "encoding": "mapping",
        "key": "t_bytes32",
        "label": "mapping(bytes32 => mapping(uint256 => address))",
        "numberOfBytes": "32",
        "value": "t_mapping(t_uint256,t_address)"
      },
      "t_mapping(t_bytes32,t_mapping(t_uint256,t_bool))": {
        "encoding": "mapping",
        "key": "t_bytes32",
        "label": "mapping(bytes32 => mapping(uint256 => bool))",
        "numberOfBytes": "32",
        "value": "t_mapping(t_uint256,t_bool)"
      },
      "t_mapping(t_bytes32,t_mapping(t_uint256,t_bytes_storage))": {
        "encoding": "mapping",
        "key": "t_bytes32",
        "label": "mapping(bytes32 => mapping(uint256 => bytes))",
        "numberOfBytes": "32",
        "value": "t_mapping(t_uint256,t_bytes_storage)"
      },
      "t_mapping(t_bytes32,t_string_storage)": {
        "encoding": "mapping",
        "key": "t_bytes32",
        "label": "mapping(bytes32 => string)",
        "numberOfBytes": "32",
        "value": "t_string_storage"
      },
      "t_mapping(t_bytes32,t_struct(PublicKey)19592_storage)": {
        "encoding": "mapping",
        "key": "t_bytes32",
        "label": "mapping(bytes32 => struct PubkeyResolver.PublicKey)",
        "numberOfBytes": "32",
        "value": "t_struct(PublicKey)19592_storage"
      },
      "t_mapping(t_bytes32,t_uint16)": {
        "encoding": "mapping",
        "key": "t_bytes32",
        "label": "mapping(bytes32 => uint16)",
        "numberOfBytes": "32",
        "value": "t_uint16"
      },
      "t_mapping(t_bytes32,t_uint64)": {
        "encoding": "mapping",
        "key": "t_bytes32",
        "label": "mapping(bytes32 => uint64)",
        "numberOfBytes": "32",
        "value": "t_uint64"
      },
      "t_mapping(t_bytes4,t_address)": {
        "encoding": "mapping",
        "key": "t_bytes4",
        "label": "mapping(bytes4 => address)",
        "numberOfBytes": "32",
        "value": "t_address"
      },
      "t_mapping(t_string_memory_ptr,t_string_storage)": {
        "encoding": "mapping",
        "key": "t_string_memory_ptr",
        "label": "mapping(string => string)",
        "numberOfBytes": "32",
        "value": "t_string_storage"
      },
      "t_mapping(t_uint16,t_bytes_storage)": {
        "encoding": "mapping",
        "key": "t_uint16",
        "label": "mapping(uint16 => bytes)",
        "numberOfBytes": "32",
        "value": "t_bytes_storage"
      },
      "t_mapping(t_uint256,t_address)": {
        "encoding": "mapping",
        "key": "t_uint256",
        "label": "mapping(uint256 => address)",
        "numberOfBytes": "32",
        "value": "t_address"
      },
      "t_mapping(t_uint256,t_bool)": {
        "encoding": "mapping",
        "key": "t_uint256",
        "label": "mapping(uint256 => bool)",
        "numberOfBytes": "32",
        "value": "t_bool"
      },
      "t_mapping(t_uint256,t_bytes_storage)": {
        "encoding": "mapping",
        "key": "t_uint256",
        "label": "mapping(uint256 => bytes)",
        "numberOfBytes": "32",
        "value": "t_bytes_storage"
      },
      "t_mapping(t_uint64,t_mapping(t_bytes32,t_bytes_storage))": {
        "encoding": "mapping",
        "key": "t_uint64",
        "label": "mapping(uint64 => mapping(bytes32 => bytes))",
        "numberOfBytes": "32",
        "value": "t_mapping(t_bytes32,t_bytes_storage)"
      },
      "t_mapping(t_uint64,t_mapping(t_bytes32,t_mapping(t_bytes32,t_mapping(t_uint16,t_bytes_storage))))": {
        "encoding": "mapping",
        "key": "t_uint64",
        "label": "mapping(uint64 => mapping(bytes32 => mapping(bytes32 => mapping(uint16 => bytes))))",
        "numberOfBytes": "32",
        "value": "t_mapping(t_bytes32,t_mapping(t_bytes32,t_mapping(t_uint16,t_bytes_storage)))"
      },
      "t_mapping(t_uint64,t_mapping(t_bytes32,t_mapping(t_bytes32,t_uint16)))": {
        "encoding": "mapping",
        "key": "t_uint64",
        "label": "mapping(uint64 => mapping(bytes32 => mapping(bytes32 => uint16)))",
        "numberOfBytes": "32",
        "value": "t_mapping(t_bytes32,t_mapping(t_bytes32,t_uint16))"
      },
      "t_mapping(t_uint64,t_mapping(t_bytes32,t_mapping(t_bytes4,t_address)))": {
        "encoding": "mapping",
        "key": "t_uint64",
        "label": "mapping(uint64 => mapping(bytes32 => mapping(bytes4 => address)))",
        "numberOfBytes": "32",
        "value": "t_mapping(t_bytes32,t_mapping(t_bytes4,t_address))"
      },
      "t_mapping(t_uint64,t_mapping(t_bytes32,t_mapping(t_string_memory_ptr,t_string_storage)))": {
        "encoding": "mapping",
        "key": "t_uint64",
        "label": "mapping(uint64 => mapping(bytes32 => mapping(string => string)))",
        "numberOfBytes": "32",
        "value": "t_mapping(t_bytes32,t_mapping(t_string_memory_ptr,t_string_storage))"
      },
      "t_mapping(t_uint64,t_mapping(t_bytes32,t_mapping(t_uint256,t_bytes_storage)))": {
        "encoding": "mapping",
        "key": "t_uint64",
        "label": "mapping(uint64 => mapping(bytes32 => mapping(uint256 => bytes)))",
        "numberOfBytes": "32",
        "value": "t_mapping(t_bytes32,t_mapping(t_uint256,t_bytes_storage))"
      },
      "t_mapping(t_uint64,t_mapping(t_bytes32,t_string_storage))": {
        "encoding": "mapping",
        "key": "t_uint64",
        "label": "mapping(uint64 => mapping(bytes32 => string))",
        "numberOfBytes": "32",
        "value": "t_mapping(t_bytes32,t_string_storage)"
      },
      "t_mapping(t_uint64,t_mapping(t_bytes32,t_struct(PublicKey)19592_storage))": {
        "encoding": "mapping",
        "key": "t_uint64",
        "label": "mapping(uint64 => mapping(bytes32 => struct PubkeyResolver.PublicKey))",
        "numberOfBytes": "32",
        "value": "t_mapping(t_bytes32,t_struct(PublicKey)19592_storage)"
      },
      "t_string_memory_ptr": {
        "encoding": "bytes",
        "label": "string",
        "numberOfBytes": "32"
      },
      "t_string_storage": {
        "encoding": "bytes",
        "label": "string",
        "numberOfBytes": "32"
      },
      "t_struct(PublicKey)19592_storage": {
        "encoding": "inplace",
        "label": "struct PubkeyResolver.PublicKey",
        "members": [
          {
            "astId": 19589,
            "contract": "contracts/agent-registrar/resolvers/AgentPublicResolver.sol:AgentPublicResolver",
            "label": "x",
            "offset": 0,
            "slot": "0",
            "type": "t_bytes32"
          },
          {
            "astId": 19591,
            "contract": "contracts/agent-registrar/resolvers/AgentPublicResolver.sol:AgentPublicResolver",
            "label": "y",
            "offset": 0,
            "slot": "1",
            "type": "t_bytes32"
          }
        ],
        "numberOfBytes": "64"
      },
      "t_uint16": {
        "encoding": "inplace",
        "label": "uint16",
        "numberOfBytes": "2"
      },
      "t_uint256": {
        "encoding": "inplace",
        "label": "uint256",
        "numberOfBytes": "32"
      },
      "t_uint64": {
        "encoding": "inplace",
        "label": "uint64",
        "numberOfBytes": "8"
      }
    }
  }
}