{
  "address": "0xCAfd2aCA95B79Ce2De0047F2309FCaB33Da75E9C",
  "abi": [
    {
      "inputs": [
        {
          "internalType": "contract ENS",
          "name": "_ens",
          "type": "address"
        },
        {
          "internalType": "bytes32",
          "name": "_baseNode",
          "type": "bytes32"
        }
      ],
      "stateMutability": "nonpayable",
      "type": "constructor"
    },
    {
      "anonymous": false,
      "inputs": [
        {
          "indexed": true,
          "internalType": "address",
          "name": "owner",
          "type": "address"
        },
        {
          "indexed": true,
          "internalType": "address",
          "name": "approved",
          "type": "address"
        },
        {
          "indexed": true,
          "internalType": "uint256",
          "name": "tokenId",
          "type": "uint256"
        }
      ],
      "name": "Approval",
      "type": "event"
    },
    {
      "anonymous": false,
      "inputs": [
        {
          "indexed": true,
          "internalType": "address",
          "name": "owner",
          "type": "address"
        },
        {
          "indexed": true,
          "internalType": "address",
          "name": "operator",
          "type": "address"
        },
        {
          "indexed": false,
          "internalType": "bool",
          "name": "approved",
          "type": "bool"
        }
      ],
      "name": "ApprovalForAll",
      "type": "event"
    },
    {
      "anonymous": false,
      "inputs": [
        {
          "indexed": true,
          "internalType": "address",
          "name": "controller",
          "type": "address"
        }
      ],
      "name": "ControllerAdded",
      "type": "event"
    },
    {
      "anonymous": false,
      "inputs": [
        {
          "indexed": true,
          "internalType": "address",
          "name": "controller",
          "type": "address"
        }
      ],
      "name": "ControllerRemoved",
      "type": "event"
    },
    {
      "anonymous": false,
      "inputs": [
        {
          "indexed": true,
          "internalType": "uint256",
          "name": "id",
          "type": "uint256"
        },
        {
          "indexed": true,
          "internalType": "address",
          "name": "owner",
          "type": "address"
        },
        {
          "indexed": false,
          "internalType": "uint256",
          "name": "expires",
          "type": "uint256"
        }
      ],
      "name": "NameMigrated",
      "type": "event"
    },
    {
      "anonymous": false,
      "inputs": [
        {
          "indexed": true,
          "internalType": "uint256",
          "name": "id",
          "type": "uint256"
        },
        {
          "indexed": true,
          "internalType": "address",
          "name": "owner",
          "type": "address"
        },
        {
          "indexed": false,
          "internalType": "uint256",
          "name": "expires",
          "type": "uint256"
        }
      ],
      "name": "NameRegistered",
      "type": "event"
    },
    {
      "anonymous": false,
      "inputs": [
        {
          "indexed": true,
          "internalType": "uint256",
          "name": "id",
          "type": "uint256"
        },
        {
          "indexed": false,
          "internalType": "uint256",
          "name": "expires",
          "type": "uint256"
        }
      ],
      "name": "NameRenewed",
      "type": "event"
    },
    {
      "anonymous": false,
      "inputs": [
        {
          "indexed": true,
          "internalType": "address",
          "name": "previousOwner",
          "type": "address"
        },
        {
          "indexed": true,
          "internalType": "address",
          "name": "newOwner",
          "type": "address"
        }
      ],
      "name": "OwnershipTransferred",
      "type": "event"
    },
    {
      "anonymous": false,
      "inputs": [
        {
          "indexed": true,
          "internalType": "address",
          "name": "oldReceiver",
          "type": "address"
        },
        {
          "indexed": true,
          "internalType": "address",
          "name": "newReceiver",
          "type": "address"
        }
      ],
      "name": "RoyaltyReceiverUpdated",
      "type": "event"
    },
    {
      "anonymous": false,
      "inputs": [
        {
          "indexed": true,
          "internalType": "address",
          "name": "from",
          "type": "address"
        },
        {
          "indexed": true,
          "internalType": "address",
          "name": "to",
          "type": "address"
        },
        {
          "indexed": true,
          "internalType": "uint256",
          "name": "tokenId",
          "type": "uint256"
        }
      ],
      "name": "Transfer",
      "type": "event"
    },
    {
      "inputs": [],
      "name": "GRACE_PERIOD",
      "outputs": [
        {
          "internalType": "uint256",
          "name": "",
          "type": "uint256"
        }
      ],
      "stateMutability": "view",
      "type": "function"
    },
    {
      "inputs": [],
      "name": "LIFETIME",
      "outputs": [
        {
          "internalType": "uint256",
          "name": "",
          "type": "uint256"
        }
      ],
      "stateMutability": "view",
      "type": "function"
    },
    {
      "inputs": [],
      "name": "ROYALTY_BPS",
      "outputs": [
        {
          "internalType": "uint96",
          "name": "",
          "type": "uint96"
        }
      ],
      "stateMutability": "view",
      "type": "function"
    },
    {
      "inputs": [
        {
          "internalType": "address",
          "name": "controller",
          "type": "address"
        }
      ],
      "name": "addController",
      "outputs": [],
      "stateMutability": "nonpayable",
      "type": "function"
    },
    {
      "inputs": [
        {
          "internalType": "address",
          "name": "to",
          "type": "address"
        },
        {
          "internalType": "uint256",
          "name": "tokenId",
          "type": "uint256"
        }
      ],
      "name": "approve",
      "outputs": [],
      "stateMutability": "nonpayable",
      "type": "function"
    },
    {
      "inputs": [
        {
          "internalType": "uint256",
          "name": "id",
          "type": "uint256"
        }
      ],
      "name": "available",
      "outputs": [
        {
          "internalType": "bool",
          "name": "",
          "type": "bool"
        }
      ],
      "stateMutability": "view",
      "type": "function"
    },
    {
      "inputs": [
        {
          "internalType": "address",
          "name": "owner",
          "type": "address"
        }
      ],
      "name": "balanceOf",
      "outputs": [
        {
          "internalType": "uint256",
          "name": "",
          "type": "uint256"
        }
      ],
      "stateMutability": "view",
      "type": "function"
    },
    {
      "inputs": [],
      "name": "baseNode",
      "outputs": [
        {
          "internalType": "bytes32",
          "name": "",
          "type": "bytes32"
        }
      ],
      "stateMutability": "view",
      "type": "function"
    },
    {
      "inputs": [
        {
          "internalType": "address",
          "name": "",
          "type": "address"
        }
      ],
      "name": "controllers",
      "outputs": [
        {
          "internalType": "bool",
          "name": "",
          "type": "bool"
        }
      ],
      "stateMutability": "view",
      "type": "function"
    },
    {
      "inputs": [],
      "name": "ens",
      "outputs": [
        {
          "internalType": "contract ENS",
          "name": "",
          "type": "address"
        }
      ],
      "stateMutability": "view",
      "type": "function"
    },
    {
      "inputs": [
        {
          "internalType": "uint256",
          "name": "tokenId",
          "type": "uint256"
        }
      ],
      "name": "getApproved",
      "outputs": [
        {
          "internalType": "address",
          "name": "",
          "type": "address"
        }
      ],
      "stateMutability": "view",
      "type": "function"
    },
    {
      "inputs": [
        {
          "internalType": "address",
          "name": "owner",
          "type": "address"
        },
        {
          "internalType": "address",
          "name": "operator",
          "type": "address"
        }
      ],
      "name": "isApprovedForAll",
      "outputs": [
        {
          "internalType": "bool",
          "name": "",
          "type": "bool"
        }
      ],
      "stateMutability": "view",
      "type": "function"
    },
    {
      "inputs": [],
      "name": "name",
      "outputs": [
        {
          "internalType": "string",
          "name": "",
          "type": "string"
        }
      ],
      "stateMutability": "view",
      "type": "function"
    },
    {
      "inputs": [
        {
          "internalType": "uint256",
          "name": "id",
          "type": "uint256"
        }
      ],
      "name": "nameExpires",
      "outputs": [
        {
          "internalType": "uint256",
          "name": "",
          "type": "uint256"
        }
      ],
      "stateMutability": "view",
      "type": "function"
    },
    {
      "inputs": [],
      "name": "owner",
      "outputs": [
        {
          "internalType": "address",
          "name": "",
          "type": "address"
        }
      ],
      "stateMutability": "view",
      "type": "function"
    },
    {
      "inputs": [
        {
          "internalType": "uint256",
          "name": "tokenId",
          "type": "uint256"
        }
      ],
      "name": "ownerOf",
      "outputs": [
        {
          "internalType": "address",
          "name": "",
          "type": "address"
        }
      ],
      "stateMutability": "view",
      "type": "function"
    },
    {
      "inputs": [
        {
          "internalType": "uint256",
          "name": "id",
          "type": "uint256"
        },
        {
          "internalType": "address",
          "name": "owner",
          "type": "address"
        }
      ],
      "name": "reclaim",
      "outputs": [],
      "stateMutability": "nonpayable",
      "type": "function"
    },
    {
      "inputs": [
        {
          "internalType": "uint256",
          "name": "id",
          "type": "uint256"
        },
        {
          "internalType": "address",
          "name": "owner",
          "type": "address"
        },
        {
          "internalType": "uint256",
          "name": "duration",
          "type": "uint256"
        }
      ],
      "name": "register",
      "outputs": [
        {
          "internalType": "uint256",
          "name": "",
          "type": "uint256"
        }
      ],
      "stateMutability": "nonpayable",
      "type": "function"
    },
    {
      "inputs": [
        {
          "internalType": "uint256",
          "name": "id",
          "type": "uint256"
        },
        {
          "internalType": "address",
          "name": "owner",
          "type": "address"
        },
        {
          "internalType": "uint256",
          "name": "duration",
          "type": "uint256"
        }
      ],
      "name": "registerOnly",
      "outputs": [
        {
          "internalType": "uint256",
          "name": "",
          "type": "uint256"
        }
      ],
      "stateMutability": "nonpayable",
      "type": "function"
    },
    {
      "inputs": [
        {
          "internalType": "address",
          "name": "controller",
          "type": "address"
        }
      ],
      "name": "removeController",
      "outputs": [],
      "stateMutability": "nonpayable",
      "type": "function"
    },
    {
      "inputs": [
        {
          "internalType": "uint256",
          "name": "id",
          "type": "uint256"
        },
        {
          "internalType": "uint256",
          "name": "duration",
          "type": "uint256"
        }
      ],
      "name": "renew",
      "outputs": [
        {
          "internalType": "uint256",
          "name": "",
          "type": "uint256"
        }
      ],
      "stateMutability": "nonpayable",
      "type": "function"
    },
    {
      "inputs": [],
      "name": "renounceOwnership",
      "outputs": [],
      "stateMutability": "nonpayable",
      "type": "function"
    },
    {
      "inputs": [
        {
          "internalType": "uint256",
          "name": "",
          "type": "uint256"
        },
        {
          "internalType": "uint256",
          "name": "salePrice",
          "type": "uint256"
        }
      ],
      "name": "royaltyInfo",
      "outputs": [
        {
          "internalType": "address",
          "name": "receiver",
          "type": "address"
        },
        {
          "internalType": "uint256",
          "name": "royaltyAmount",
          "type": "uint256"
        }
      ],
      "stateMutability": "view",
      "type": "function"
    },
    {
      "inputs": [],
      "name": "royaltyReceiver",
      "outputs": [
        {
          "internalType": "address",
          "name": "",
          "type": "address"
        }
      ],
      "stateMutability": "view",
      "type": "function"
    },
    {
      "inputs": [
        {
          "internalType": "address",
          "name": "from",
          "type": "address"
        },
        {
          "internalType": "address",
          "name": "to",
          "type": "address"
        },
        {
          "internalType": "uint256",
          "name": "tokenId",
          "type": "uint256"
        }
      ],
      "name": "safeTransferFrom",
      "outputs": [],
      "stateMutability": "nonpayable",
      "type": "function"
    },
    {
      "inputs": [
        {
          "internalType": "address",
          "name": "from",
          "type": "address"
        },
        {
          "internalType": "address",
          "name": "to",
          "type": "address"
        },
        {
          "internalType": "uint256",
          "name": "tokenId",
          "type": "uint256"
        },
        {
          "internalType": "bytes",
          "name": "_data",
          "type": "bytes"
        }
      ],
      "name": "safeTransferFrom",
      "outputs": [],
      "stateMutability": "nonpayable",
      "type": "function"
    },
    {
      "inputs": [
        {
          "internalType": "address",
          "name": "operator",
          "type": "address"
        },
        {
          "internalType": "bool",
          "name": "approved",
          "type": "bool"
        }
      ],
      "name": "setApprovalForAll",
      "outputs": [],
      "stateMutability": "nonpayable",
      "type": "function"
    },
    {
      "inputs": [
        {
          "internalType": "address",
          "name": "resolver",
          "type": "address"
        }
      ],
      "name": "setResolver",
      "outputs": [],
      "stateMutability": "nonpayable",
      "type": "function"
    },
    {
      "inputs": [
        {
          "internalType": "address",
          "name": "_newReceiver",
          "type": "address"
        }
      ],
      "name": "setRoyaltyReceiver",
      "outputs": [],
      "stateMutability": "nonpayable",
      "type": "function"
    },
    {
      "inputs": [
        {
          "internalType": "bytes4",
          "name": "interfaceID",
          "type": "bytes4"
        }
      ],
      "name": "supportsInterface",
      "outputs": [
        {
          "internalType": "bool",
          "name": "",
          "type": "bool"
        }
      ],
      "stateMutability": "view",
      "type": "function"
    },
    {
      "inputs": [],
      "name": "symbol",
      "outputs": [
        {
          "internalType": "string",
          "name": "",
          "type": "string"
        }
      ],
      "stateMutability": "view",
      "type": "function"
    },
    {
      "inputs": [
        {
          "internalType": "uint256",
          "name": "tokenId",
          "type": "uint256"
        }
      ],
      "name": "tokenURI",
      "outputs": [
        {
          "internalType": "string",
          "name": "",
          "type": "string"
        }
      ],
      "stateMutability": "view",
      "type": "function"
    },
    {
      "inputs": [
        {
          "internalType": "address",
          "name": "from",
          "type": "address"
        },
        {
          "internalType": "address",
          "name": "to",
          "type": "address"
        },
        {
          "internalType": "uint256",
          "name": "tokenId",
          "type": "uint256"
        }
      ],
      "name": "transferFrom",
      "outputs": [],
      "stateMutability": "nonpayable",
      "type": "function"
    },
    {
      "inputs": [
        {
          "internalType": "address",
          "name": "newOwner",
          "type": "address"
        }
      ],
      "name": "transferOwnership",
      "outputs": [],
      "stateMutability": "nonpayable",
      "type": "function"
    }
  ],
  "transactionHash": "0xee5c15ce6cb1c252b5727f1bfa2efa850a1498af039e3916e5f51b11cf397cde",
  "args": [
    "0xA590B208e7F2e62a3987424D2E1b00cd62986fAd",
    "0xe3f6fa8ec34a0592261cf8313365d7f76784e190d0c33fbd4d51f8461a9b8e54"
  ],
  "numDeployments": 1,
  "solcInputHash": "0e58c48cf2a74f35c9c47466938f7dad",
  "bytecode": "0x60806040523480156200001157600080fd5b506040516200240b3803806200240b8339810160408190526200003491620000fd565b60408051602080820183526000808352835191820190935282815290916200005d8382620001de565b5060016200006c8282620001de565b505050600062000081620000f960201b60201c565b600680546001600160a01b0319166001600160a01b038316908117909155604051919250906000907f8be0079c531659141344cd1fd0a4f28419497f9722a3daafe3b4186f6b6457e0908290a350600980546001600160a01b0319166001600160a01b039390931692909217909155600a55620002aa565b3390565b600080604083850312156200011157600080fd5b82516001600160a01b03811681146200012957600080fd5b6020939093015192949293505050565b634e487b7160e01b600052604160045260246000fd5b600181811c908216806200016457607f821691505b6020821081036200018557634e487b7160e01b600052602260045260246000fd5b50919050565b601f821115620001d957600081815260208120601f850160051c81016020861015620001b45750805b601f850160051c820191505b81811015620001d557828155600101620001c0565b5050505b505050565b81516001600160401b03811115620001fa57620001fa62000139565b62000212816200020b84546200014f565b846200018b565b602080601f8311600181146200024a5760008415620002315750858301515b600019600386901b1c1916600185901b178555620001d5565b600085815260208120601f198616915b828110156200027b578886015182559484019460019091019084016200025a565b50858210156200029a5787850151600019600388901b60f8161c191681555b5050505050600190811b01905550565b61215180620002ba6000396000f3fe608060405234801561001057600080fd5b50600436106102065760003560e01c806395d89b411161011a578063c87b56dd116100ad578063ddf7fcb01161007c578063ddf7fcb014610498578063e985e9c5146104a1578063f2fde38b146104dd578063f6a74ed7146104f0578063fca247ac1461050357600080fd5b8063c87b56dd14610436578063d3c576d814610449578063d6e4fa8614610455578063da8c229e1461047557600080fd5b8063a7fc7a07116100e9578063a7fc7a07146103f3578063b88d4fde14610406578063c1a287e214610419578063c475abff1461042357600080fd5b806395d89b41146103b257806396e494e8146103ba5780639fbc8713146103cd578063a22cb465146103e057600080fd5b80633f15457f1161019d5780636352211e1161016c5780636352211e1461036057806370a0823114610373578063715018a6146103865780638da5cb5b1461038e5780638dc251e31461039f57600080fd5b80633f15457f1461030157806342842e0e1461031457806349c657db146103275780634e543b261461034d57600080fd5b80630e297b45116101d95780630e297b451461028857806323b872dd146102a957806328ed4f6c146102bc5780632a55205a146102cf57600080fd5b806301ffc9a71461020b57806306fdde0314610233578063081812fc14610248578063095ea7b314610273575b600080fd5b61021e610219366004611b82565b610516565b60405190151581526020015b60405180910390f35b61023b610583565b60405161022a9190611bef565b61025b610256366004611c02565b610615565b6040516001600160a01b03909116815260200161022a565b610286610281366004611c30565b6106a2565b005b61029b610296366004611c5c565b6107b7565b60405190815260200161022a565b6102866102b7366004611c94565b6107ce565b6102866102ca366004611cc4565b6107ff565b6102e26102dd366004611cf4565b610918565b604080516001600160a01b03909316835260208301919091520161022a565b60095461025b906001600160a01b031681565b610286610322366004611c94565b610948565b6103306101f481565b6040516bffffffffffffffffffffffff909116815260200161022a565b61028661035b366004611d16565b610963565b61025b61036e366004611c02565b6109fa565b61029b610381366004611d16565b610a1d565b610286610aa4565b6006546001600160a01b031661025b565b6102866103ad366004611d16565b610b18565b61023b610bdd565b61021e6103c8366004611c02565b610bec565b60075461025b906001600160a01b031681565b6102866103ee366004611d33565b610c12565b610286610401366004611d16565b610cd6565b610286610414366004611d7c565b610d4c565b61029b62278d0081565b61029b610431366004611cf4565b610d84565b61023b610444366004611c02565b610fef565b61029b640757b12c0081565b61029b610463366004611c02565b60009081526008602052604090205490565b61021e610483366004611d16565b600b6020526000908152604090205460ff1681565b61029b600a5481565b61021e6104af366004611e5c565b6001600160a01b03918216600090815260056020908152604080832093909416825291909152205460ff1690565b6102866104eb366004611d16565b6110c7565b6102866104fe366004611d16565b6111b2565b61029b610511366004611c5c565b611225565b60006001600160e01b031982166301ffc9a760e01b148061054757506001600160e01b031982166380ac58cd60e01b145b8061056257506001600160e01b03198216630a3b53db60e21b145b8061057d57506001600160e01b0319821663152a902d60e11b145b92915050565b60606000805461059290611e8a565b80601f01602080910402602001604051908101604052809291908181526020018280546105be90611e8a565b801561060b5780601f106105e05761010080835404028352916020019161060b565b820191906000526020600020905b8154815290600101906020018083116105ee57829003601f168201915b5050505050905090565b600061062082611234565b6106865760405162461bcd60e51b815260206004820152602c60248201527f4552433732313a20617070726f76656420717565727920666f72206e6f6e657860448201526b34b9ba32b73a103a37b5b2b760a11b60648201526084015b60405180910390fd5b506000908152600460205260409020546001600160a01b031690565b60006106ad82611253565b9050806001600160a01b0316836001600160a01b03160361071a5760405162461bcd60e51b815260206004820152602160248201527f4552433732313a20617070726f76616c20746f2063757272656e74206f776e656044820152603960f91b606482015260840161067d565b336001600160a01b0382161480610736575061073681336104af565b6107a85760405162461bcd60e51b815260206004820152603860248201527f4552433732313a20617070726f76652063616c6c6572206973206e6f74206f7760448201527f6e6572206e6f7220617070726f76656420666f7220616c6c0000000000000000606482015260840161067d565b6107b283836112ca565b505050565b60006107c68484846000611338565b949350505050565b6107d8338261154e565b6107f45760405162461bcd60e51b815260040161067d90611ec4565b6107b28383836115c9565b600954600a546040516302571be360e01b8152600481019190915230916001600160a01b0316906302571be390602401602060405180830381865afa15801561084c573d6000803e3d6000fd5b505050506040513d601f19601f820116820180604052508101906108709190611f15565b6001600160a01b03161461088357600080fd5b61088d338361154e565b61089657600080fd5b600954600a546040516306ab592360e01b81526004810191909152602481018490526001600160a01b038381166044830152909116906306ab5923906064016020604051808303816000875af11580156108f4573d6000803e3d6000fd5b505050506040513d601f19601f820116820180604052508101906107b29190611f32565b6007546001600160a01b031660006127106109356101f485611f61565b61093f9190611f8e565b90509250929050565b6107b283838360405180602001604052806000815250610d4c565b6006546001600160a01b0316331461098d5760405162461bcd60e51b815260040161067d90611fa2565b600954600a54604051630c4b7b8560e11b815260048101919091526001600160a01b03838116602483015290911690631896f70a90604401600060405180830381600087803b1580156109df57600080fd5b505af11580156109f3573d6000803e3d6000fd5b5050505050565b6000818152600860205260408120544210610a1457600080fd5b61057d82611253565b60006001600160a01b038216610a885760405162461bcd60e51b815260206004820152602a60248201527f4552433732313a2062616c616e636520717565727920666f7220746865207a65604482015269726f206164647265737360b01b606482015260840161067d565b506001600160a01b031660009081526003602052604090205490565b6006546001600160a01b03163314610ace5760405162461bcd60e51b815260040161067d90611fa2565b6006546040516000916001600160a01b0316907f8be0079c531659141344cd1fd0a4f28419497f9722a3daafe3b4186f6b6457e0908390a3600680546001600160a01b0319169055565b6006546001600160a01b03163314610b425760405162461bcd60e51b815260040161067d90611fa2565b6001600160a01b038116610b8b5760405162461bcd60e51b815260206004820152601060248201526f24b73b30b634b2103932b1b2b4bb32b960811b604482015260640161067d565b600780546001600160a01b038381166001600160a01b0319831681179093556040519116919082907f67b490a6eb879b67b91826b576ca0a1ba79f82484d43c4e330e3948dac8182d790600090a35050565b60606001805461059290611e8a565b6000818152600860205260408120544290610c0b9062278d0090611fd7565b1092915050565b336001600160a01b03831603610c6a5760405162461bcd60e51b815260206004820152601960248201527f4552433732313a20617070726f766520746f2063616c6c657200000000000000604482015260640161067d565b3360008181526005602090815260408083206001600160a01b03871680855290835292819020805460ff191686151590811790915590519081529192917f17307eab39ab6107e8899845ad3d59bd9653f200f220920489ca2b5937696c31910160405180910390a35050565b6006546001600160a01b03163314610d005760405162461bcd60e51b815260040161067d90611fa2565b6001600160a01b0381166000818152600b6020526040808220805460ff19166001179055517f0a8bb31534c0ed46f380cb867bd5c803a189ced9a764e30b3a4991a9901d74749190a250565b610d56338361154e565b610d725760405162461bcd60e51b815260040161067d90611ec4565b610d7e84848484611769565b50505050565b600954600a546040516302571be360e01b8152600481019190915260009130916001600160a01b03909116906302571be390602401602060405180830381865afa158015610dd6573d6000803e3d6000fd5b505050506040513d601f19601f82011682018060405250810190610dfa9190611f15565b6001600160a01b031614610e0d57600080fd5b336000908152600b602052604090205460ff16610e2957600080fd5b6000838152600860205260409020544290610e489062278d0090611fd7565b1015610e5357600080fd5b600083815260086020526040902054640757b12bff1901610eb65760405162461bcd60e51b815260206004820181905260248201527f4c69666574696d65206e616d65732063616e6e6f742062652072656e65776564604482015260640161067d565b610ec362278d0083611fd7565b60008481526008602052604090205462278d0090610ee2908590611fd7565b610eec9190611fd7565b11610ef657600080fd5b81640757b12c0003610f6b5760008381526008602052604090819020640757b12c0090819055905184917f9b87a00e30f1ac65d898f070f8a3488fe60517182d0a2098e1b4b93a54aa9bd691610f4e91815260200190565b60405180910390a25060008281526008602052604090205461057d565b60008381526008602052604081208054849290610f89908490611fd7565b9091555050827f9b87a00e30f1ac65d898f070f8a3488fe60517182d0a2098e1b4b93a54aa9bd66008600086815260200190815260200160002054604051610fd391815260200190565b60405180910390a2505060009081526008602052604090205490565b6060610ffa82611234565b61105e5760405162461bcd60e51b815260206004820152602f60248201527f4552433732314d657461646174613a2055524920717565727920666f72206e6f60448201526e3732bc34b9ba32b73a103a37b5b2b760891b606482015260840161067d565b600061107560408051602081019091526000815290565b9050600081511161109557604051806020016040528060008152506110c0565b8061109f8461179c565b6040516020016110b0929190611fea565b6040516020818303038152906040525b9392505050565b6006546001600160a01b031633146110f15760405162461bcd60e51b815260040161067d90611fa2565b6001600160a01b0381166111565760405162461bcd60e51b815260206004820152602660248201527f4f776e61626c653a206e6577206f776e657220697320746865207a65726f206160448201526564647265737360d01b606482015260840161067d565b6006546040516001600160a01b038084169216907f8be0079c531659141344cd1fd0a4f28419497f9722a3daafe3b4186f6b6457e090600090a3600680546001600160a01b0319166001600160a01b0392909216919091179055565b6006546001600160a01b031633146111dc5760405162461bcd60e51b815260040161067d90611fa2565b6001600160a01b0381166000818152600b6020526040808220805460ff19169055517f33d83959be2573f5453b12eb9d43b3499bc57d96bd2f067ba44803c859e811139190a250565b60006107c68484846001611338565b6000818152600260205260408120546001600160a01b0316151561057d565b6000818152600260205260408120546001600160a01b03168061057d5760405162461bcd60e51b815260206004820152602960248201527f4552433732313a206f776e657220717565727920666f72206e6f6e657869737460448201526832b73a103a37b5b2b760b91b606482015260840161067d565b600081815260046020526040902080546001600160a01b0319166001600160a01b03841690811790915581906112ff82611253565b6001600160a01b03167f8c5be1e5ebec7d5bd14f71427d1e84f3dd0314c0f7b2291e5b200ac8c7c3b92560405160405180910390a45050565b600954600a546040516302571be360e01b8152600481019190915260009130916001600160a01b03909116906302571be390602401602060405180830381865afa15801561138a573d6000803e3d6000fd5b505050506040513d601f19601f820116820180604052508101906113ae9190611f15565b6001600160a01b0316146113c157600080fd5b336000908152600b602052604090205460ff166113dd57600080fd5b6113e685610bec565b6113ef57600080fd5b6113fc62278d0042611fd7565b62278d0061140a8542611fd7565b6114149190611fd7565b1161141e57600080fd5b600083640757b12c00036114385750640757b12c00611445565b6114428442611fd7565b90505b600086815260086020526040902081905561145f86611234565b1561146d5761146d8661189d565b6114778587611938565b821561150157600954600a546040516306ab592360e01b81526004810191909152602481018890526001600160a01b038781166044830152909116906306ab5923906064016020604051808303816000875af11580156114db573d6000803e3d6000fd5b505050506040513d601f19601f820116820180604052508101906114ff9190611f32565b505b846001600160a01b0316867fb3d987963d01b2f68493b4bdb130988f157ea43070d4ad840fee0466ed9370d98360405161153d91815260200190565b60405180910390a395945050505050565b60008061155a836109fa565b9050806001600160a01b0316846001600160a01b031614806115955750836001600160a01b031661158a84610615565b6001600160a01b0316145b806107c657506001600160a01b0380821660009081526005602090815260408083209388168352929052205460ff166107c6565b826001600160a01b03166115dc82611253565b6001600160a01b0316146116445760405162461bcd60e51b815260206004820152602960248201527f4552433732313a207472616e73666572206f6620746f6b656e2074686174206960448201526839903737ba1037bbb760b91b606482015260840161067d565b6001600160a01b0382166116a65760405162461bcd60e51b8152602060048201526024808201527f4552433732313a207472616e7366657220746f20746865207a65726f206164646044820152637265737360e01b606482015260840161067d565b6116b16000826112ca565b6001600160a01b03831660009081526003602052604081208054600192906116da908490612019565b90915550506001600160a01b0382166000908152600360205260408120805460019290611708908490611fd7565b909155505060008181526002602052604080822080546001600160a01b0319166001600160a01b0386811691821790925591518493918716917fddf252ad1be2c89b69c2b068fc378daa952ba7f163c4a11628f55a4df523b3ef91a4505050565b6117748484846115c9565b61178084848484611a6b565b610d7e5760405162461bcd60e51b815260040161067d9061202c565b6060816000036117c35750506040805180820190915260018152600360fc1b602082015290565b8160005b81156117ed57806117d78161207e565b91506117e69050600a83611f8e565b91506117c7565b60008167ffffffffffffffff81111561180857611808611d66565b6040519080825280601f01601f191660200182016040528015611832576020820181803683370190505b5090505b84156107c657611847600183612019565b9150611854600a86612097565b61185f906030611fd7565b60f81b818381518110611874576118746120ab565b60200101906001600160f81b031916908160001a905350611896600a86611f8e565b9450611836565b60006118a882611253565b90506118b56000836112ca565b6001600160a01b03811660009081526003602052604081208054600192906118de908490612019565b909155505060008281526002602052604080822080546001600160a01b0319169055518391906001600160a01b038416907fddf252ad1be2c89b69c2b068fc378daa952ba7f163c4a11628f55a4df523b3ef908390a45050565b6001600160a01b03821661198e5760405162461bcd60e51b815260206004820181905260248201527f4552433732313a206d696e7420746f20746865207a65726f2061646472657373604482015260640161067d565b61199781611234565b156119e45760405162461bcd60e51b815260206004820152601c60248201527f4552433732313a20746f6b656e20616c7265616479206d696e74656400000000604482015260640161067d565b6001600160a01b0382166000908152600360205260408120805460019290611a0d908490611fd7565b909155505060008181526002602052604080822080546001600160a01b0319166001600160a01b03861690811790915590518392907fddf252ad1be2c89b69c2b068fc378daa952ba7f163c4a11628f55a4df523b3ef908290a45050565b60006001600160a01b0384163b15611b6157604051630a85bd0160e11b81526001600160a01b0385169063150b7a0290611aaf9033908990889088906004016120c1565b6020604051808303816000875af1925050508015611aea575060408051601f3d908101601f19168201909252611ae7918101906120fe565b60015b611b47573d808015611b18576040519150601f19603f3d011682016040523d82523d6000602084013e611b1d565b606091505b508051600003611b3f5760405162461bcd60e51b815260040161067d9061202c565b805181602001fd5b6001600160e01b031916630a85bd0160e11b1490506107c6565b5060016107c6565b6001600160e01b031981168114611b7f57600080fd5b50565b600060208284031215611b9457600080fd5b81356110c081611b69565b60005b83811015611bba578181015183820152602001611ba2565b50506000910152565b60008151808452611bdb816020860160208601611b9f565b601f01601f19169290920160200192915050565b6020815260006110c06020830184611bc3565b600060208284031215611c1457600080fd5b5035919050565b6001600160a01b0381168114611b7f57600080fd5b60008060408385031215611c4357600080fd5b8235611c4e81611c1b565b946020939093013593505050565b600080600060608486031215611c7157600080fd5b833592506020840135611c8381611c1b565b929592945050506040919091013590565b600080600060608486031215611ca957600080fd5b8335611cb481611c1b565b92506020840135611c8381611c1b565b60008060408385031215611cd757600080fd5b823591506020830135611ce981611c1b565b809150509250929050565b60008060408385031215611d0757600080fd5b50508035926020909101359150565b600060208284031215611d2857600080fd5b81356110c081611c1b565b60008060408385031215611d4657600080fd5b8235611d5181611c1b565b915060208301358015158114611ce957600080fd5b634e487b7160e01b600052604160045260246000fd5b60008060008060808587031215611d9257600080fd5b8435611d9d81611c1b565b93506020850135611dad81611c1b565b925060408501359150606085013567ffffffffffffffff80821115611dd157600080fd5b818701915087601f830112611de557600080fd5b813581811115611df757611df7611d66565b604051601f8201601f19908116603f01168101908382118183101715611e1f57611e1f611d66565b816040528281528a6020848701011115611e3857600080fd5b82602086016020830137600060208483010152809550505050505092959194509250565b60008060408385031215611e6f57600080fd5b8235611e7a81611c1b565b91506020830135611ce981611c1b565b600181811c90821680611e9e57607f821691505b602082108103611ebe57634e487b7160e01b600052602260045260246000fd5b50919050565b60208082526031908201527f4552433732313a207472616e736665722063616c6c6572206973206e6f74206f6040820152701ddb995c881b9bdc88185c1c1c9bdd9959607a1b606082015260800190565b600060208284031215611f2757600080fd5b81516110c081611c1b565b600060208284031215611f4457600080fd5b5051919050565b634e487b7160e01b600052601160045260246000fd5b808202811582820484141761057d5761057d611f4b565b634e487b7160e01b600052601260045260246000fd5b600082611f9d57611f9d611f78565b500490565b6020808252818101527f4f776e61626c653a2063616c6c6572206973206e6f7420746865206f776e6572604082015260600190565b8082018082111561057d5761057d611f4b565b60008351611ffc818460208801611b9f565b835190830190612010818360208801611b9f565b01949350505050565b8181038181111561057d5761057d611f4b565b60208082526032908201527f4552433732313a207472616e7366657220746f206e6f6e20455243373231526560408201527131b2b4bb32b91034b6b83632b6b2b73a32b960711b606082015260800190565b60006001820161209057612090611f4b565b5060010190565b6000826120a6576120a6611f78565b500690565b634e487b7160e01b600052603260045260246000fd5b6001600160a01b03858116825284166020820152604081018390526080606082018190526000906120f490830184611bc3565b9695505050505050565b60006020828403121561211057600080fd5b81516110c081611b6956fea2646970667358221220a4636603997eefee6e79b2a15c0d8055a0d7529ae533fe9f3ddec6b13dec430b64736f6c63430008140033",
  "devdoc": {
    "events": {
      "Approval(address,address,uint256)": {
        "details": "Emitted when `owner` enables `approved` to manage the `tokenId` token."
      },
      "ApprovalForAll(address,address,bool)": {
        "details": "Emitted when `owner` enables or disables (`approved`) `operator` to manage all of its assets."
      },
      "Transfer(address,address,uint256)": {
        "details": "Emitted when `tokenId` token is transferred from `from` to `to`."
      }
    },
    "kind": "dev",
    "methods": {
      "approve(address,uint256)": {
        "details": "See {IERC721-approve}."
      },
      "balanceOf(address)": {
        "details": "See {IERC721-balanceOf}."
      },
      "getApproved(uint256)": {
        "details": "See {IERC721-getApproved}."
      },
      "isApprovedForAll(address,address)": {
        "details": "See {IERC721-isApprovedForAll}."
      },
      "name()": {
        "details": "See {IERC721Metadata-name}."
      },
      "owner()": {
        "details": "Returns the address of the current owner."
      },
      "ownerOf(uint256)": {
        "details": "Gets the owner of the specified token ID. Names become unowned      when their registration expires.",
        "params": {
          "tokenId": "uint256 ID of the token to query the owner of"
        },
        "returns": {
          "_0": "address currently marked as the owner of the given token ID"
        }
      },
      "reclaim(uint256,address)": {
        "details": "Reclaim ownership of a name in ENS, if you own it in the registrar."
      },
      "register(uint256,address,uint256)": {
        "details": "Register a name.",
        "params": {
          "duration": "Duration in seconds for the registration.",
          "id": "The token ID (keccak256 of the label).",
          "owner": "The address that should own the registration."
        }
      },
      "registerOnly(uint256,address,uint256)": {
        "details": "Register a name, without modifying the registry.",
        "params": {
          "duration": "Duration in seconds for the registration.",
          "id": "The token ID (keccak256 of the label).",
          "owner": "The address that should own the registration."
        }
      },
      "renounceOwnership()": {
        "details": "Leaves the contract without owner. It will not be possible to call `onlyOwner` functions anymore. Can only be called by the current owner. NOTE: Renouncing ownership will leave the contract without an owner, thereby removing any functionality that is only available to the owner."
      },
      "royaltyInfo(uint256,uint256)": {
        "params": {
          "salePrice": "The sale price of the NFT"
        },
        "returns": {
          "receiver": "Address to receive royalty",
          "royaltyAmount": "The royalty amount (5% of sale price)"
        }
      },
      "safeTransferFrom(address,address,uint256)": {
        "details": "See {IERC721-safeTransferFrom}."
      },
      "safeTransferFrom(address,address,uint256,bytes)": {
        "details": "See {IERC721-safeTransferFrom}."
      },
      "setApprovalForAll(address,bool)": {
        "details": "See {IERC721-setApprovalForAll}."
      },
      "setRoyaltyReceiver(address)": {
        "params": {
          "_newReceiver": "New address to receive royalties"
        }
      },
      "symbol()": {
        "details": "See {IERC721Metadata-symbol}."
      },
      "tokenURI(uint256)": {
        "details": "See {IERC721Metadata-tokenURI}."
      },
      "transferFrom(address,address,uint256)": {
        "details": "See {IERC721-transferFrom}."
      },
      "transferOwnership(address)": {
        "details": "Transfers ownership of the contract to a new account (`newOwner`). Can only be called by the current owner."
      }
    },
    "version": 1
  },
  "userdoc": {
    "kind": "user",
    "methods": {
      "royaltyInfo(uint256,uint256)": {
        "notice": "Returns royalty info for a given token and sale price"
      },
      "setRoyaltyReceiver(address)": {
        "notice": "Update the royalty receiver address"
      }
    },
    "version": 1
  },
  "storageLayout": {
    "storage": [
      {
        "astId": 2180,
        "contract": "contracts/ethregistrar/BaseRegistrarImplementation.sol:BaseRegistrarImplementation",
        "label": "_name",
        "offset": 0,
        "slot": "0",
        "type": "t_string_storage"
      },
      {
        "astId": 2182,
        "contract": "contracts/ethregistrar/BaseRegistrarImplementation.sol:BaseRegistrarImplementation",
        "label": "_symbol",
        "offset": 0,
        "slot": "1",
        "type": "t_string_storage"
      },
      {
        "astId": 2186,
        "contract": "contracts/ethregistrar/BaseRegistrarImplementation.sol:BaseRegistrarImplementation",
        "label": "_owners",
        "offset": 0,
        "slot": "2",
        "type": "t_mapping(t_uint256,t_address)"
      },
      {
        "astId": 2190,
        "contract": "contracts/ethregistrar/BaseRegistrarImplementation.sol:BaseRegistrarImplementation",
        "label": "_balances",
        "offset": 0,
        "slot": "3",
        "type": "t_mapping(t_address,t_uint256)"
      },
      {
        "astId": 2194,
        "contract": "contracts/ethregistrar/BaseRegistrarImplementation.sol:BaseRegistrarImplementation",
        "label": "_tokenApprovals",
        "offset": 0,
        "slot": "4",
        "type": "t_mapping(t_uint256,t_address)"
      },
      {
        "astId": 2200,
        "contract": "contracts/ethregistrar/BaseRegistrarImplementation.sol:BaseRegistrarImplementation",
        "label": "_operatorApprovals",
        "offset": 0,
        "slot": "5",
        "type": "t_mapping(t_address,t_mapping(t_address,t_bool))"
      },
      {
        "astId": 492,
        "contract": "contracts/ethregistrar/BaseRegistrarImplementation.sol:BaseRegistrarImplementation",
        "label": "_owner",
        "offset": 0,
        "slot": "6",
        "type": "t_address"
      },
      {
        "astId": 16866,
        "contract": "contracts/ethregistrar/BaseRegistrarImplementation.sol:BaseRegistrarImplementation",
        "label": "royaltyReceiver",
        "offset": 0,
        "slot": "7",
        "type": "t_address"
      },
      {
        "astId": 16876,
        "contract": "contracts/ethregistrar/BaseRegistrarImplementation.sol:BaseRegistrarImplementation",
        "label": "expiries",
        "offset": 0,
        "slot": "8",
        "type": "t_mapping(t_uint256,t_uint256)"
      },
      {
        "astId": 16879,
        "contract": "contracts/ethregistrar/BaseRegistrarImplementation.sol:BaseRegistrarImplementation",
        "label": "ens",
        "offset": 0,
        "slot": "9",
        "type": "t_contract(ENS)23230"
      },
      {
        "astId": 16881,
        "contract": "contracts/ethregistrar/BaseRegistrarImplementation.sol:BaseRegistrarImplementation",
        "label": "baseNode",
        "offset": 0,
        "slot": "10",
        "type": "t_bytes32"
      },
      {
        "astId": 16885,
        "contract": "contracts/ethregistrar/BaseRegistrarImplementation.sol:BaseRegistrarImplementation",
        "label": "controllers",
        "offset": 0,
        "slot": "11",
        "type": "t_mapping(t_address,t_bool)"
      }
    ],
    "types": {
      "t_address": {
        "encoding": "inplace",
        "label": "address",
        "numberOfBytes": "20"
      },
      "t_bool": {
        "encoding": "inplace",
        "label": "bool",
        "numberOfBytes": "1"
      },
      "t_bytes32": {
        "encoding": "inplace",
        "label": "bytes32",
        "numberOfBytes": "32"
      },
      "t_contract(ENS)23230": {
        "encoding": "inplace",
        "label": "contract ENS",
        "numberOfBytes": "20"
      },
      "t_mapping(t_address,t_bool)": {
        "encoding": "mapping",
        "key": "t_address",
        "label": "mapping(address => bool)",
        "numberOfBytes": "32",
        "value": "t_bool"
      },
      "t_mapping(t_address,t_mapping(t_address,t_bool))": {
        "encoding": "mapping",
        "key": "t_address",
        "label": "mapping(address => mapping(address => bool))",
        "numberOfBytes": "32",
        "value": "t_mapping(t_address,t_bool)"
      },
      "t_mapping(t_address,t_uint256)": {
        "encoding": "mapping",
        "key": "t_address",
        "label": "mapping(address => uint256)",
        "numberOfBytes": "32",
        "value": "t_uint256"
      },
      "t_mapping(t_uint256,t_address)": {
        "encoding": "mapping",
        "key": "t_uint256",
        "label": "mapping(uint256 => address)",
        "numberOfBytes": "32",
        "value": "t_address"
      },
      "t_mapping(t_uint256,t_uint256)": {
        "encoding": "mapping",
        "key": "t_uint256",
        "label": "mapping(uint256 => uint256)",
        "numberOfBytes": "32",
        "value": "t_uint256"
      },
      "t_string_storage": {
        "encoding": "bytes",
        "label": "string",
        "numberOfBytes": "32"
      },
      "t_uint256": {
        "encoding": "inplace",
        "label": "uint256",
        "numberOfBytes": "32"
      }
    }
  }
}