{
  "address": "0x03211E9f74E6A37e1CFe6aD274da7E1324cA142D",
  "abi": [
    {
      "inputs": [
        {
          "internalType": "address",
          "name": "_nameWrapper",
          "type": "address"
        },
        {
          "internalType": "address",
          "name": "_resolver",
          "type": "address"
        },
        {
          "internalType": "address",
          "name": "_usdc",
          "type": "address"
        },
        {
          "internalType": "address",
          "name": "_treasury",
          "type": "address"
        }
      ],
      "stateMutability": "nonpayable",
      "type": "constructor"
    },
    {
      "inputs": [],
      "name": "AuctionAlreadyExists",
      "type": "error"
    },
    {
      "inputs": [],
      "name": "AuctionAlreadySettled",
      "type": "error"
    },
    {
      "inputs": [],
      "name": "AuctionEnded",
      "type": "error"
    },
    {
      "inputs": [],
      "name": "AuctionNotEnded",
      "type": "error"
    },
    {
      "inputs": [],
      "name": "AuctionNotStarted",
      "type": "error"
    },
    {
      "inputs": [
        {
          "internalType": "uint256",
          "name": "minBid",
          "type": "uint256"
        }
      ],
      "name": "BidTooLow",
      "type": "error"
    },
    {
      "inputs": [],
      "name": "DurationTooLong",
      "type": "error"
    },
    {
      "inputs": [],
      "name": "DurationTooShort",
      "type": "error"
    },
    {
      "inputs": [],
      "name": "HasBids",
      "type": "error"
    },
    {
      "inputs": [],
      "name": "NoBids",
      "type": "error"
    },
    {
      "inputs": [],
      "name": "NothingToWithdraw",
      "type": "error"
    },
    {
      "inputs": [],
      "name": "ReserveMustBePositive",
      "type": "error"
    },
    {
      "inputs": [],
      "name": "TransferFailed",
      "type": "error"
    },
    {
      "inputs": [],
      "name": "WrongPaymentType",
      "type": "error"
    },
    {
      "anonymous": false,
      "inputs": [
        {
          "indexed": true,
          "internalType": "uint256",
          "name": "auctionId",
          "type": "uint256"
        }
      ],
      "name": "AuctionCancelled",
      "type": "event"
    },
    {
      "anonymous": false,
      "inputs": [
        {
          "indexed": true,
          "internalType": "uint256",
          "name": "auctionId",
          "type": "uint256"
        },
        {
          "indexed": false,
          "internalType": "string",
          "name": "name",
          "type": "string"
        },
        {
          "indexed": false,
          "internalType": "uint256",
          "name": "reservePrice",
          "type": "uint256"
        },
        {
          "indexed": false,
          "internalType": "uint256",
          "name": "startTime",
          "type": "uint256"
        },
        {
          "indexed": false,
          "internalType": "uint256",
          "name": "endTime",
          "type": "uint256"
        },
        {
          "indexed": false,
          "internalType": "bool",
          "name": "isUSDC",
          "type": "bool"
        }
      ],
      "name": "AuctionCreated",
      "type": "event"
    },
    {
      "anonymous": false,
      "inputs": [
        {
          "indexed": true,
          "internalType": "uint256",
          "name": "auctionId",
          "type": "uint256"
        },
        {
          "indexed": false,
          "internalType": "uint256",
          "name": "newEndTime",
          "type": "uint256"
        }
      ],
      "name": "AuctionExtended",
      "type": "event"
    },
    {
      "anonymous": false,
      "inputs": [
        {
          "indexed": true,
          "internalType": "uint256",
          "name": "auctionId",
          "type": "uint256"
        },
        {
          "indexed": true,
          "internalType": "address",
          "name": "winner",
          "type": "address"
        },
        {
          "indexed": false,
          "internalType": "uint256",
          "name": "amount",
          "type": "uint256"
        }
      ],
      "name": "AuctionSettled",
      "type": "event"
    },
    {
      "anonymous": false,
      "inputs": [
        {
          "indexed": true,
          "internalType": "uint256",
          "name": "auctionId",
          "type": "uint256"
        },
        {
          "indexed": true,
          "internalType": "address",
          "name": "bidder",
          "type": "address"
        },
        {
          "indexed": false,
          "internalType": "uint256",
          "name": "amount",
          "type": "uint256"
        }
      ],
      "name": "BidPlaced",
      "type": "event"
    },
    {
      "anonymous": false,
      "inputs": [
        {
          "indexed": true,
          "internalType": "address",
          "name": "previousOwner",
          "type": "address"
        },
        {
          "indexed": true,
          "internalType": "address",
          "name": "newOwner",
          "type": "address"
        }
      ],
      "name": "OwnershipTransferred",
      "type": "event"
    },
    {
      "inputs": [],
      "name": "MAX_AUCTION_DURATION",
      "outputs": [
        {
          "internalType": "uint256",
          "name": "",
          "type": "uint256"
        }
      ],
      "stateMutability": "view",
      "type": "function"
    },
    {
      "inputs": [],
      "name": "MIN_AUCTION_DURATION",
      "outputs": [
        {
          "internalType": "uint256",
          "name": "",
          "type": "uint256"
        }
      ],
      "stateMutability": "view",
      "type": "function"
    },
    {
      "inputs": [],
      "name": "MIN_BID_INCREMENT_BPS",
      "outputs": [
        {
          "internalType": "uint256",
          "name": "",
          "type": "uint256"
        }
      ],
      "stateMutability": "view",
      "type": "function"
    },
    {
      "inputs": [],
      "name": "TIME_EXTENSION",
      "outputs": [
        {
          "internalType": "uint256",
          "name": "",
          "type": "uint256"
        }
      ],
      "stateMutability": "view",
      "type": "function"
    },
    {
      "inputs": [
        {
          "internalType": "bytes32",
          "name": "",
          "type": "bytes32"
        }
      ],
      "name": "activeAuctions",
      "outputs": [
        {
          "internalType": "uint256",
          "name": "",
          "type": "uint256"
        }
      ],
      "stateMutability": "view",
      "type": "function"
    },
    {
      "inputs": [
        {
          "internalType": "uint256",
          "name": "",
          "type": "uint256"
        }
      ],
      "name": "auctions",
      "outputs": [
        {
          "internalType": "string",
          "name": "name",
          "type": "string"
        },
        {
          "internalType": "address",
          "name": "seller",
          "type": "address"
        },
        {
          "internalType": "uint256",
          "name": "reservePrice",
          "type": "uint256"
        },
        {
          "internalType": "uint256",
          "name": "startTime",
          "type": "uint256"
        },
        {
          "internalType": "uint256",
          "name": "endTime",
          "type": "uint256"
        },
        {
          "internalType": "uint256",
          "name": "highestBid",
          "type": "uint256"
        },
        {
          "internalType": "address",
          "name": "highestBidder",
          "type": "address"
        },
        {
          "internalType": "bool",
          "name": "settled",
          "type": "bool"
        },
        {
          "internalType": "bool",
          "name": "isUSDC",
          "type": "bool"
        }
      ],
      "stateMutability": "view",
      "type": "function"
    },
    {
      "inputs": [
        {
          "internalType": "uint256",
          "name": "auctionId",
          "type": "uint256"
        }
      ],
      "name": "bid",
      "outputs": [],
      "stateMutability": "payable",
      "type": "function"
    },
    {
      "inputs": [
        {
          "internalType": "uint256",
          "name": "auctionId",
          "type": "uint256"
        },
        {
          "internalType": "uint256",
          "name": "amount",
          "type": "uint256"
        }
      ],
      "name": "bidUSDC",
      "outputs": [],
      "stateMutability": "nonpayable",
      "type": "function"
    },
    {
      "inputs": [
        {
          "internalType": "uint256",
          "name": "auctionId",
          "type": "uint256"
        }
      ],
      "name": "cancelAuction",
      "outputs": [],
      "stateMutability": "nonpayable",
      "type": "function"
    },
    {
      "inputs": [
        {
          "internalType": "string",
          "name": "name",
          "type": "string"
        },
        {
          "internalType": "uint256",
          "name": "reservePrice",
          "type": "uint256"
        },
        {
          "internalType": "uint256",
          "name": "duration",
          "type": "uint256"
        },
        {
          "internalType": "bool",
          "name": "isUSDC",
          "type": "bool"
        }
      ],
      "name": "createAuction",
      "outputs": [
        {
          "internalType": "uint256",
          "name": "auctionId",
          "type": "uint256"
        }
      ],
      "stateMutability": "nonpayable",
      "type": "function"
    },
    {
      "inputs": [
        {
          "internalType": "string[]",
          "name": "names",
          "type": "string[]"
        },
        {
          "internalType": "uint256[]",
          "name": "reservePrices",
          "type": "uint256[]"
        },
        {
          "internalType": "uint256",
          "name": "duration",
          "type": "uint256"
        },
        {
          "internalType": "bool",
          "name": "isUSDC",
          "type": "bool"
        }
      ],
      "name": "createAuctionBatch",
      "outputs": [],
      "stateMutability": "nonpayable",
      "type": "function"
    },
    {
      "inputs": [
        {
          "internalType": "uint256",
          "name": "auctionId",
          "type": "uint256"
        }
      ],
      "name": "getAuction",
      "outputs": [
        {
          "internalType": "string",
          "name": "name",
          "type": "string"
        },
        {
          "internalType": "uint256",
          "name": "reservePrice",
          "type": "uint256"
        },
        {
          "internalType": "uint256",
          "name": "startTime",
          "type": "uint256"
        },
        {
          "internalType": "uint256",
          "name": "endTime",
          "type": "uint256"
        },
        {
          "internalType": "uint256",
          "name": "highestBid",
          "type": "uint256"
        },
        {
          "internalType": "address",
          "name": "highestBidder",
          "type": "address"
        },
        {
          "internalType": "bool",
          "name": "settled",
          "type": "bool"
        },
        {
          "internalType": "bool",
          "name": "isUSDC",
          "type": "bool"
        }
      ],
      "stateMutability": "view",
      "type": "function"
    },
    {
      "inputs": [
        {
          "internalType": "uint256",
          "name": "auctionId",
          "type": "uint256"
        }
      ],
      "name": "getMinBid",
      "outputs": [
        {
          "internalType": "uint256",
          "name": "",
          "type": "uint256"
        }
      ],
      "stateMutability": "view",
      "type": "function"
    },
    {
      "inputs": [
        {
          "internalType": "string",
          "name": "name",
          "type": "string"
        }
      ],
      "name": "hasActiveAuction",
      "outputs": [
        {
          "internalType": "bool",
          "name": "",
          "type": "bool"
        }
      ],
      "stateMutability": "view",
      "type": "function"
    },
    {
      "inputs": [],
      "name": "nameWrapper",
      "outputs": [
        {
          "internalType": "contract INameWrapper",
          "name": "",
          "type": "address"
        }
      ],
      "stateMutability": "view",
      "type": "function"
    },
    {
      "inputs": [],
      "name": "nextAuctionId",
      "outputs": [
        {
          "internalType": "uint256",
          "name": "",
          "type": "uint256"
        }
      ],
      "stateMutability": "view",
      "type": "function"
    },
    {
      "inputs": [],
      "name": "owner",
      "outputs": [
        {
          "internalType": "address",
          "name": "",
          "type": "address"
        }
      ],
      "stateMutability": "view",
      "type": "function"
    },
    {
      "inputs": [
        {
          "internalType": "address",
          "name": "",
          "type": "address"
        },
        {
          "internalType": "uint256",
          "name": "",
          "type": "uint256"
        }
      ],
      "name": "pendingReturns",
      "outputs": [
        {
          "internalType": "uint256",
          "name": "",
          "type": "uint256"
        }
      ],
      "stateMutability": "view",
      "type": "function"
    },
    {
      "inputs": [],
      "name": "renounceOwnership",
      "outputs": [],
      "stateMutability": "nonpayable",
      "type": "function"
    },
    {
      "inputs": [],
      "name": "resolver",
      "outputs": [
        {
          "internalType": "address",
          "name": "",
          "type": "address"
        }
      ],
      "stateMutability": "view",
      "type": "function"
    },
    {
      "inputs": [
        {
          "internalType": "address",
          "name": "_treasury",
          "type": "address"
        }
      ],
      "name": "setTreasury",
      "outputs": [],
      "stateMutability": "nonpayable",
      "type": "function"
    },
    {
      "inputs": [
        {
          "internalType": "uint256",
          "name": "auctionId",
          "type": "uint256"
        }
      ],
      "name": "settle",
      "outputs": [],
      "stateMutability": "nonpayable",
      "type": "function"
    },
    {
      "inputs": [
        {
          "internalType": "address",
          "name": "newOwner",
          "type": "address"
        }
      ],
      "name": "transferOwnership",
      "outputs": [],
      "stateMutability": "nonpayable",
      "type": "function"
    },
    {
      "inputs": [],
      "name": "treasury",
      "outputs": [
        {
          "internalType": "address",
          "name": "",
          "type": "address"
        }
      ],
      "stateMutability": "view",
      "type": "function"
    },
    {
      "inputs": [],
      "name": "usdc",
      "outputs": [
        {
          "internalType": "contract IERC20",
          "name": "",
          "type": "address"
        }
      ],
      "stateMutability": "view",
      "type": "function"
    },
    {
      "inputs": [
        {
          "internalType": "uint256",
          "name": "auctionId",
          "type": "uint256"
        }
      ],
      "name": "withdraw",
      "outputs": [],
      "stateMutability": "nonpayable",
      "type": "function"
    },
    {
      "stateMutability": "payable",
      "type": "receive"
    }
  ],
  "transactionHash": "0x8ed6890b4251b82fb5b334e5ccc07c155a03c850748b9f7d6f775ffeb284ee43",
  "args": [
    "0x90d848F20589437EF2e05a91130aEEA253512736",
    "0xC2b1d0B9a4c1D836394211364818dA42d26a7e7A",
    "0x833589fCD6eDb6E08f4c7C32D4f71b54bdA02913",
    "0xD83deFbA240568040b39bb2C8B4DB7dB02d40593"
  ],
  "numDeployments": 2,
  "solcInputHash": "e78c9fcb7e677a1e72453841fc635733",
  "bytecode": "0x60e06040523480156200001157600080fd5b50604051620023ad380380620023ad8339810160408190526200003491620000ca565b600080546001600160a01b031916339081178255604051909182917f8be0079c531659141344cd1fd0a4f28419497f9722a3daafe3b4186f6b6457e0908290a350600180556001600160a01b0393841660805291831660a052821660c052600280546001600160a01b0319169190921617905562000127565b80516001600160a01b0381168114620000c557600080fd5b919050565b60008060008060808587031215620000e157600080fd5b620000ec85620000ad565b9350620000fc60208601620000ad565b92506200010c60408601620000ad565b91506200011c60608601620000ad565b905092959194509250565b60805160a05160c0516122336200017a6000396000818161028a0152818161066c015281816106bf0152610f540152600081816101a30152611052015260008181610451015261101901526122336000f3fe6080604052600436106101855760003560e01c806378bd7935116100d1578063b15039ab1161008a578063ebf90af411610064578063ebf90af4146104d8578063f0f44260146104f8578063f2fde38b14610518578063fc5284821461053857600080fd5b8063b15039ab14610473578063c2f50a7a146104ab578063d2a7d499146104c257600080fd5b806378bd79351461038d5780637f21d498146103c15780638da5cb5b146103e15780638df82800146103ff57806396b5a7551461041f578063a8e5fbc01461043f57600080fd5b80633fb351781161013e5780635498304c116101185780635498304c146102f6578063571a26a01461032357806361d027b314610358578063715018a61461037857600080fd5b80633fb35178146102ac578063454a2ab3146102c357806349da3ce9146102d657600080fd5b806304f3bcec1461019157806314414cc0146101e25780632ddbd42c146102065780632e1a7d4d14610228578063369a932e146102485780633e413bee1461027857600080fd5b3661018c57005b600080fd5b34801561019d57600080fd5b506101c57f000000000000000000000000000000000000000000000000000000000000000081565b6040516001600160a01b0390911681526020015b60405180910390f35b3480156101ee57600080fd5b506101f86101f481565b6040519081526020016101d9565b34801561021257600080fd5b5061022661022136600461197e565b61054e565b005b34801561023457600080fd5b506102266102433660046119a0565b61074f565b34801561025457600080fd5b50610268610263366004611a02565b61083e565b60405190151581526020016101d9565b34801561028457600080fd5b506101c57f000000000000000000000000000000000000000000000000000000000000000081565b3480156102b857600080fd5b506101f862278d0081565b6102266102d13660046119a0565b6108b9565b3480156102e257600080fd5b506102266102f1366004611a9a565b610a7c565b34801561030257600080fd5b506101f86103113660046119a0565b60056020526000908152604090205481565b34801561032f57600080fd5b5061034361033e3660046119a0565b610bb6565b6040516101d999989796959493929190611b76565b34801561036457600080fd5b506002546101c5906001600160a01b031681565b34801561038457600080fd5b50610226610c9e565b34801561039957600080fd5b506103ad6103a83660046119a0565b610d12565b6040516101d9989796959493929190611bde565b3480156103cd57600080fd5b506101f86103dc3660046119a0565b610e1c565b3480156103ed57600080fd5b506000546001600160a01b03166101c5565b34801561040b57600080fd5b5061022661041a3660046119a0565b610e33565b34801561042b57600080fd5b5061022661043a3660046119a0565b611109565b34801561044b57600080fd5b506101c57f000000000000000000000000000000000000000000000000000000000000000081565b34801561047f57600080fd5b506101f861048e366004611c52565b600660209081526000928352604080842090915290825290205481565b3480156104b757600080fd5b506101f86201518081565b3480156104ce57600080fd5b506101f861025881565b3480156104e457600080fd5b506101f86104f3366004611c7c565b611207565b34801561050457600080fd5b50610226610513366004611ce7565b6114ac565b34801561052457600080fd5b50610226610533366004611ce7565b6114f8565b34801561054457600080fd5b506101f860045481565b6002600154036105795760405162461bcd60e51b815260040161057090611d02565b60405180910390fd5b600260015560008281526003602052604090206006810154600160a81b900460ff166105b857604051632df9076f60e11b815260040160405180910390fd5b80600301544210156105dd576040516301dff5d560e71b815260040160405180910390fd5b806004015442106106015760405163283a4a6160e21b815260040160405180910390fd5b6006810154600160a01b900460ff161561062e57604051634f4fee1760e01b815260040160405180910390fd5b6000610639826115e2565b90508083101561065f576040516331173c6560e01b815260048101829052602401610570565b6106946001600160a01b037f000000000000000000000000000000000000000000000000000000000000000016333086611626565b60068201546001600160a01b0316156106e957600682015460058301546106e9916001600160a01b037f0000000000000000000000000000000000000000000000000000000000000000811692911690611697565b600582018390556006820180546001600160a01b0319163317905561070e84836116cc565b604051838152339085907f0e54eff26401bf69b81b26f60bd85ef47f5d85275c1d268d84f68d6897431c479060200160405180910390a35050600180555050565b6002600154036107715760405162461bcd60e51b815260040161057090611d02565b6002600155336000908152600660209081526040808320848452909152812054908190036107b257604051630686827b60e51b815260040160405180910390fd5b3360008181526006602090815260408083208684529091528082208290555190919083908381818185875af1925050503d806000811461080e576040519150601f19603f3d011682016040523d82523d6000602084013e610813565b606091505b5050905080610835576040516312171d8360e31b815260040160405180910390fd5b50506001805550565b6000808383604051610851929190611d39565b6040805191829003909120600081815260056020529182205490925090819003610880576000925050506108b3565b60008181526003602052604090206006810154600160a01b900460ff161580156108ad5750806004015442105b93505050505b92915050565b6002600154036108db5760405162461bcd60e51b815260040161057090611d02565b600260015560008181526003602052604090206006810154600160a81b900460ff161561091b57604051632df9076f60e11b815260040160405180910390fd5b8060030154421015610940576040516301dff5d560e71b815260040160405180910390fd5b806004015442106109645760405163283a4a6160e21b815260040160405180910390fd5b6006810154600160a01b900460ff161561099157604051634f4fee1760e01b815260040160405180910390fd5b600061099c826115e2565b9050803410156109c2576040516331173c6560e01b815260048101829052602401610570565b60068201546001600160a01b031615610a175760058201546006808401546001600160a01b03166000908152602091825260408082208783529092529081208054909190610a11908490611d5f565b90915550505b3460058301556006820180546001600160a01b03191633179055610a3b83836116cc565b604051348152339084907f0e54eff26401bf69b81b26f60bd85ef47f5d85275c1d268d84f68d6897431c47906020015b60405180910390a350506001805550565b6000546001600160a01b03163314610aa65760405162461bcd60e51b815260040161057090611d72565b848314610ae75760405162461bcd60e51b815260206004820152600f60248201526e098cadccee8d040dad2e6dac2e8c6d608b1b6044820152606401610570565b60005b85811015610bad573063ebf90af4888884818110610b0a57610b0a611da7565b9050602002810190610b1c9190611dbd565b888886818110610b2e57610b2e611da7565b9050602002013587876040518663ffffffff1660e01b8152600401610b57959493929190611e2d565b6020604051808303816000875af1158015610b76573d6000803e3d6000fd5b505050506040513d601f19601f82011682018060405250810190610b9a9190611e60565b5080610ba581611e79565b915050610aea565b50505050505050565b600360205260009081526040902080548190610bd190611e92565b80601f0160208091040260200160405190810160405280929190818152602001828054610bfd90611e92565b8015610c4a5780601f10610c1f57610100808354040283529160200191610c4a565b820191906000526020600020905b815481529060010190602001808311610c2d57829003601f168201915b5050506001840154600285015460038601546004870154600588015460069098015496976001600160a01b03948516979396509194509290919081169060ff600160a01b8204811691600160a81b90041689565b6000546001600160a01b03163314610cc85760405162461bcd60e51b815260040161057090611d72565b600080546040516001600160a01b03909116907f8be0079c531659141344cd1fd0a4f28419497f9722a3daafe3b4186f6b6457e0908390a3600080546001600160a01b0319169055565b600081815260036020819052604082206002810154918101546004820154600583015460068401548454606097968796879687968796879687969495869590949392916001600160a01b0381169160ff600160a01b8304811692600160a81b900416908890610d8090611e92565b80601f0160208091040260200160405190810160405280929190818152602001828054610dac90611e92565b8015610df95780601f10610dce57610100808354040283529160200191610df9565b820191906000526020600020905b815481529060010190602001808311610ddc57829003601f168201915b505050505097509850985098509850985098509850985050919395975091939597565b60008181526003602052604081206108b3906115e2565b600260015403610e555760405162461bcd60e51b815260040161057090611d02565b600260015560008181526003602052604090206004810154421015610e8d57604051636463738960e01b815260040160405180910390fd5b6006810154600160a01b900460ff1615610eba57604051634f4fee1760e01b815260040160405180910390fd5b60068101546001600160a01b0316610ee55760405163c3bc404360e01b815260040160405180910390fd5b60068101805460ff60a01b1916600160a01b179055604051600090610f0b908390611ecc565b604080519182900390912060008181526005602052918220919091556006830154909150600160a81b900460ff1615610f83576002546005830154610f7e916001600160a01b037f0000000000000000000000000000000000000000000000000000000000000000811692911690611697565b610ffd565b60025460058301546040516000926001600160a01b031691908381818185875af1925050503d8060008114610fd4576040519150601f19603f3d011682016040523d82523d6000602084013e610fd9565b606091505b5050905080610ffb576040516312171d8360e31b815260040160405180910390fd5b505b6006820154604051635200a4c160e11b81526001600160a01b037f000000000000000000000000000000000000000000000000000000000000000081169263a40149829261107d9287921690640757b12c00907f000000000000000000000000000000000000000000000000000000000000000090600090600401611f42565b6020604051808303816000875af115801561109c573d6000803e3d6000fd5b505050506040513d601f19601f820116820180604052508101906110c09190611e60565b50600682015460058301546040519081526001600160a01b039091169084907fc9f72b276a388619c6d185d146697036241880c36654b1a3ffdad07c24038d9990602001610a6b565b6000546001600160a01b031633146111335760405162461bcd60e51b815260040161057090611d72565b60008181526003602052604090206006810154600160a01b900460ff161561116e57604051634f4fee1760e01b815260040160405180910390fd5b60068101546001600160a01b03161561119a5760405163c8e6b38f60e01b815260040160405180910390fd5b60068101805460ff60a01b1916600160a01b1790556040516000906111c0908390611ecc565b6040805191829003822060008181526005602052918220829055925084917f2809c7e17bf978fbc7194c0a694b638c4215e9140cacc6c38ca36010b45697df9190a2505050565b600080546001600160a01b031633146112325760405162461bcd60e51b815260040161057090611d72565b62015180831015611256576040516325c3636760e01b815260040160405180910390fd5b62278d0083111561127a57604051634a94fa8360e11b815260040160405180910390fd5b8360000361129b57604051636830d52960e11b815260040160405180910390fd5b600086866040516112ad929190611d39565b6040518091039020905060056000828152602001908152602001600020546000146112ea57604051628b039960e31b815260040160405180910390fd5b6004600081546112f990611e79565b9182905550604080516101406020601f8b01819004028201810190925261012081018981529294509182918a908a9081908501838280828437600092019190915250505090825250336020820152604081018790524260608201819052608090910190611367908790611d5f565b8152600060208083018290526040808401839052606084018390528715156080909401939093528582526003905220815181906113a4908261206a565b506020828101516001830180546001600160a01b039283166001600160a01b03199091161790556040808501516002850155606085015160038501556080850151600485015560a085015160058086019190915560c08601516006909501805460e0880151610100909801511515600160a81b0260ff60a81b19981515600160a01b026001600160a81b0319909216979095169690961795909517959095169190911790925560008481529290529020829055817f2f6a609966aac8b4b6f191df467c0bda70c9786a7a66951ca1ca8e9e30e22dff888888426114878a82611d5f565b8960405161149a9695949392919061212a565b60405180910390a25095945050505050565b6000546001600160a01b031633146114d65760405162461bcd60e51b815260040161057090611d72565b600280546001600160a01b0319166001600160a01b0392909216919091179055565b6000546001600160a01b031633146115225760405162461bcd60e51b815260040161057090611d72565b6001600160a01b0381166115875760405162461bcd60e51b815260206004820152602660248201527f4f776e61626c653a206e6577206f776e657220697320746865207a65726f206160448201526564647265737360d01b6064820152608401610570565b600080546040516001600160a01b03808516939216917f8be0079c531659141344cd1fd0a4f28419497f9722a3daafe3b4186f6b6457e091a3600080546001600160a01b0319166001600160a01b0392909216919091179055565b600081600501546000036115f857506002015490565b6127106101f4836005015461160d9190612165565b611617919061217c565b82600501546108b39190611d5f565b6040516001600160a01b03808516602483015283166044820152606481018290526116919085906323b872dd60e01b906084015b60408051601f198184030181529190526020810180516001600160e01b03166001600160e01b031990931692909217909152611732565b50505050565b6040516001600160a01b0383166024820152604481018290526116c790849063a9059cbb60e01b9060640161165a565b505050565b6102584282600401546116df919061219e565b101561172e576116f161025842611d5f565b6004820181905560405190815282907f6e912a3a9105bdd2af817ba5adc14e6c127c1035b5b648faa29ca0d58ab8ff4e9060200160405180910390a25b5050565b6000611787826040518060400160405280602081526020017f5361666545524332303a206c6f772d6c6576656c2063616c6c206661696c6564815250856001600160a01b03166118049092919063ffffffff16565b8051909150156116c757808060200190518101906117a591906121b1565b6116c75760405162461bcd60e51b815260206004820152602a60248201527f5361666545524332303a204552433230206f7065726174696f6e20646964206e6044820152691bdd081cdd58d8d9595960b21b6064820152608401610570565b6060611813848460008561181d565b90505b9392505050565b60608247101561187e5760405162461bcd60e51b815260206004820152602660248201527f416464726573733a20696e73756666696369656e742062616c616e636520666f6044820152651c8818d85b1b60d21b6064820152608401610570565b843b6118cc5760405162461bcd60e51b815260206004820152601d60248201527f416464726573733a2063616c6c20746f206e6f6e2d636f6e74726163740000006044820152606401610570565b600080866001600160a01b031685876040516118e891906121ce565b60006040518083038185875af1925050503d8060008114611925576040519150601f19603f3d011682016040523d82523d6000602084013e61192a565b606091505b509150915061193a828286611945565b979650505050505050565b60608315611954575081611816565b8251156119645782518084602001fd5b8160405162461bcd60e51b815260040161057091906121ea565b6000806040838503121561199157600080fd5b50508035926020909101359150565b6000602082840312156119b257600080fd5b5035919050565b60008083601f8401126119cb57600080fd5b50813567ffffffffffffffff8111156119e357600080fd5b6020830191508360208285010111156119fb57600080fd5b9250929050565b60008060208385031215611a1557600080fd5b823567ffffffffffffffff811115611a2c57600080fd5b611a38858286016119b9565b90969095509350505050565b60008083601f840112611a5657600080fd5b50813567ffffffffffffffff811115611a6e57600080fd5b6020830191508360208260051b85010111156119fb57600080fd5b8015158114611a9757600080fd5b50565b60008060008060008060808789031215611ab357600080fd5b863567ffffffffffffffff80821115611acb57600080fd5b611ad78a838b01611a44565b90985096506020890135915080821115611af057600080fd5b50611afd89828a01611a44565b909550935050604087013591506060870135611b1881611a89565b809150509295509295509295565b60005b83811015611b41578181015183820152602001611b29565b50506000910152565b60008151808452611b62816020860160208601611b26565b601f01601f19169290920160200192915050565b6000610120808352611b8a8184018d611b4a565b6001600160a01b039b8c166020850152604084019a909a5250506060810196909652608086019490945260a085019290925290941660c083015292151560e082015291151561010090920191909152919050565b6000610100808352611bf28184018c611b4a565b602084019a909a5250506040810196909652606086019490945260808501929092526001600160a01b031660a0840152151560c0830152151560e090910152919050565b80356001600160a01b0381168114611c4d57600080fd5b919050565b60008060408385031215611c6557600080fd5b611c6e83611c36565b946020939093013593505050565b600080600080600060808688031215611c9457600080fd5b853567ffffffffffffffff811115611cab57600080fd5b611cb7888289016119b9565b90965094505060208601359250604086013591506060860135611cd981611a89565b809150509295509295909350565b600060208284031215611cf957600080fd5b61181682611c36565b6020808252601f908201527f5265656e7472616e637947756172643a207265656e7472616e742063616c6c00604082015260600190565b8183823760009101908152919050565b634e487b7160e01b600052601160045260246000fd5b808201808211156108b3576108b3611d49565b6020808252818101527f4f776e61626c653a2063616c6c6572206973206e6f7420746865206f776e6572604082015260600190565b634e487b7160e01b600052603260045260246000fd5b6000808335601e19843603018112611dd457600080fd5b83018035915067ffffffffffffffff821115611def57600080fd5b6020019150368190038213156119fb57600080fd5b81835281816020850137506000828201602090810191909152601f909101601f19169091010190565b608081526000611e41608083018789611e04565b6020830195909552506040810192909252151560609091015292915050565b600060208284031215611e7257600080fd5b5051919050565b600060018201611e8b57611e8b611d49565b5060010190565b600181811c90821680611ea657607f821691505b602082108103611ec657634e487b7160e01b600052602260045260246000fd5b50919050565b6000808354611eda81611e92565b60018281168015611ef25760018114611f0757611f36565b60ff1984168752821515830287019450611f36565b8760005260208060002060005b85811015611f2d5781548a820152908401908201611f14565b50505082870194505b50929695505050505050565b60a081526000808754611f5481611e92565b8060a086015260c0600180841660008114611f765760018114611f9057611fc1565b60ff1985168884015283151560051b880183019550611fc1565b8c60005260208060002060005b86811015611fb85781548b8201870152908401908201611f9d565b8a018501975050505b505050506001600160a01b0388166020850152509050846040830152611ff260608301856001600160a01b03169052565b61ffff831660808301529695505050505050565b634e487b7160e01b600052604160045260246000fd5b601f8211156116c757600081815260208120601f850160051c810160208610156120435750805b601f850160051c820191505b818110156120625782815560010161204f565b505050505050565b815167ffffffffffffffff81111561208457612084612006565b612098816120928454611e92565b8461201c565b602080601f8311600181146120cd57600084156120b55750858301515b600019600386901b1c1916600185901b178555612062565b600085815260208120601f198616915b828110156120fc578886015182559484019460019091019084016120dd565b508582101561211a5787850151600019600388901b60f8161c191681555b5050505050600190811b01905550565b60a08152600061213e60a08301888a611e04565b90508560208301528460408301528360608301528215156080830152979650505050505050565b80820281158282048414176108b3576108b3611d49565b60008261219957634e487b7160e01b600052601260045260246000fd5b500490565b818103818111156108b3576108b3611d49565b6000602082840312156121c357600080fd5b815161181681611a89565b600082516121e0818460208701611b26565b9190910192915050565b6020815260006118166020830184611b4a56fea2646970667358221220c1c995dd084bee244a19751265ac75b1b293219a352b187ec46f6a5a45e91e4f64736f6c63430008140033",
  "devdoc": {
    "details": "Supports ETH and USDC bidding with anti-sniping protection",
    "kind": "dev",
    "methods": {
      "bid(uint256)": {
        "params": {
          "auctionId": "The auction to bid on"
        }
      },
      "bidUSDC(uint256,uint256)": {
        "params": {
          "amount": "USDC amount (6 decimals)",
          "auctionId": "The auction to bid on"
        }
      },
      "cancelAuction(uint256)": {
        "params": {
          "auctionId": "The auction to cancel"
        }
      },
      "createAuction(string,uint256,uint256,bool)": {
        "params": {
          "duration": "Auction duration in seconds",
          "isUSDC": "Whether to accept USDC instead of ETH",
          "name": "Domain name (without .id)",
          "reservePrice": "Minimum bid"
        }
      },
      "owner()": {
        "details": "Returns the address of the current owner."
      },
      "renounceOwnership()": {
        "details": "Leaves the contract without owner. It will not be possible to call `onlyOwner` functions anymore. Can only be called by the current owner. NOTE: Renouncing ownership will leave the contract without an owner, thereby removing any functionality that is only available to the owner."
      },
      "settle(uint256)": {
        "params": {
          "auctionId": "The auction to settle"
        }
      },
      "transferOwnership(address)": {
        "details": "Transfers ownership of the contract to a new account (`newOwner`). Can only be called by the current owner."
      },
      "withdraw(uint256)": {
        "params": {
          "auctionId": "The auction to withdraw from"
        }
      }
    },
    "title": "IDDomainAuction",
    "version": 1
  },
  "userdoc": {
    "kind": "user",
    "methods": {
      "activeAuctions(bytes32)": {
        "notice": "nameHash => auctionId (for active auctions)"
      },
      "auctions(uint256)": {
        "notice": "auctionId => Auction"
      },
      "bid(uint256)": {
        "notice": "Place a bid on an ETH auction"
      },
      "bidUSDC(uint256,uint256)": {
        "notice": "Place a bid with USDC"
      },
      "cancelAuction(uint256)": {
        "notice": "Cancel an auction with no bids"
      },
      "createAuction(string,uint256,uint256,bool)": {
        "notice": "Create a new auction for a premium name"
      },
      "createAuctionBatch(string[],uint256[],uint256,bool)": {
        "notice": "Batch create auctions for multiple names"
      },
      "getAuction(uint256)": {
        "notice": "Get auction details"
      },
      "getMinBid(uint256)": {
        "notice": "Get minimum next bid for an auction"
      },
      "hasActiveAuction(string)": {
        "notice": "Check if name has active auction"
      },
      "pendingReturns(address,uint256)": {
        "notice": "bidder => auctionId => amount (for refunds)"
      },
      "settle(uint256)": {
        "notice": "Settle an ended auction and register the name to winner"
      },
      "withdraw(uint256)": {
        "notice": "Withdraw pending returns from being outbid"
      }
    },
    "notice": "English auction system for premium .id domain names",
    "version": 1
  },
  "storageLayout": {
    "storage": [
      {
        "astId": 7,
        "contract": "contracts/auction/IDDomainAuction.sol:IDDomainAuction",
        "label": "_owner",
        "offset": 0,
        "slot": "0",
        "type": "t_address"
      },
      {
        "astId": 120,
        "contract": "contracts/auction/IDDomainAuction.sol:IDDomainAuction",
        "label": "_status",
        "offset": 0,
        "slot": "1",
        "type": "t_uint256"
      },
      {
        "astId": 1200,
        "contract": "contracts/auction/IDDomainAuction.sol:IDDomainAuction",
        "label": "treasury",
        "offset": 0,
        "slot": "2",
        "type": "t_address"
      },
      {
        "astId": 1206,
        "contract": "contracts/auction/IDDomainAuction.sol:IDDomainAuction",
        "label": "auctions",
        "offset": 0,
        "slot": "3",
        "type": "t_mapping(t_uint256,t_struct(Auction)1172_storage)"
      },
      {
        "astId": 1208,
        "contract": "contracts/auction/IDDomainAuction.sol:IDDomainAuction",
        "label": "nextAuctionId",
        "offset": 0,
        "slot": "4",
        "type": "t_uint256"
      },
      {
        "astId": 1213,
        "contract": "contracts/auction/IDDomainAuction.sol:IDDomainAuction",
        "label": "activeAuctions",
        "offset": 0,
        "slot": "5",
        "type": "t_mapping(t_bytes32,t_uint256)"
      },
      {
        "astId": 1220,
        "contract": "contracts/auction/IDDomainAuction.sol:IDDomainAuction",
        "label": "pendingReturns",
        "offset": 0,
        "slot": "6",
        "type": "t_mapping(t_address,t_mapping(t_uint256,t_uint256))"
      }
    ],
    "types": {
      "t_address": {
        "encoding": "inplace",
        "label": "address",
        "numberOfBytes": "20"
      },
      "t_bool": {
        "encoding": "inplace",
        "label": "bool",
        "numberOfBytes": "1"
      },
      "t_bytes32": {
        "encoding": "inplace",
        "label": "bytes32",
        "numberOfBytes": "32"
      },
      "t_mapping(t_address,t_mapping(t_uint256,t_uint256))": {
        "encoding": "mapping",
        "key": "t_address",
        "label": "mapping(address => mapping(uint256 => uint256))",
        "numberOfBytes": "32",
        "value": "t_mapping(t_uint256,t_uint256)"
      },
      "t_mapping(t_bytes32,t_uint256)": {
        "encoding": "mapping",
        "key": "t_bytes32",
        "label": "mapping(bytes32 => uint256)",
        "numberOfBytes": "32",
        "value": "t_uint256"
      },
      "t_mapping(t_uint256,t_struct(Auction)1172_storage)": {
        "encoding": "mapping",
        "key": "t_uint256",
        "label": "mapping(uint256 => struct IDDomainAuction.Auction)",
        "numberOfBytes": "32",
        "value": "t_struct(Auction)1172_storage"
      },
      "t_mapping(t_uint256,t_uint256)": {
        "encoding": "mapping",
        "key": "t_uint256",
        "label": "mapping(uint256 => uint256)",
        "numberOfBytes": "32",
        "value": "t_uint256"
      },
      "t_string_storage": {
        "encoding": "bytes",
        "label": "string",
        "numberOfBytes": "32"
      },
      "t_struct(Auction)1172_storage": {
        "encoding": "inplace",
        "label": "struct IDDomainAuction.Auction",
        "members": [
          {
            "astId": 1155,
            "contract": "contracts/auction/IDDomainAuction.sol:IDDomainAuction",
            "label": "name",
            "offset": 0,
            "slot": "0",
            "type": "t_string_storage"
          },
          {
            "astId": 1157,
            "contract": "contracts/auction/IDDomainAuction.sol:IDDomainAuction",
            "label": "seller",
            "offset": 0,
            "slot": "1",
            "type": "t_address"
          },
          {
            "astId": 1159,
            "contract": "contracts/auction/IDDomainAuction.sol:IDDomainAuction",
            "label": "reservePrice",
            "offset": 0,
            "slot": "2",
            "type": "t_uint256"
          },
          {
            "astId": 1161,
            "contract": "contracts/auction/IDDomainAuction.sol:IDDomainAuction",
            "label": "startTime",
            "offset": 0,
            "slot": "3",
            "type": "t_uint256"
          },
          {
            "astId": 1163,
            "contract": "contracts/auction/IDDomainAuction.sol:IDDomainAuction",
            "label": "endTime",
            "offset": 0,
            "slot": "4",
            "type": "t_uint256"
          },
          {
            "astId": 1165,
            "contract": "contracts/auction/IDDomainAuction.sol:IDDomainAuction",
            "label": "highestBid",
            "offset": 0,
            "slot": "5",
            "type": "t_uint256"
          },
          {
            "astId": 1167,
            "contract": "contracts/auction/IDDomainAuction.sol:IDDomainAuction",
            "label": "highestBidder",
            "offset": 0,
            "slot": "6",
            "type": "t_address"
          },
          {
            "astId": 1169,
            "contract": "contracts/auction/IDDomainAuction.sol:IDDomainAuction",
            "label": "settled",
            "offset": 20,
            "slot": "6",
            "type": "t_bool"
          },
          {
            "astId": 1171,
            "contract": "contracts/auction/IDDomainAuction.sol:IDDomainAuction",
            "label": "isUSDC",
            "offset": 21,
            "slot": "6",
            "type": "t_bool"
          }
        ],
        "numberOfBytes": "224"
      },
      "t_uint256": {
        "encoding": "inplace",
        "label": "uint256",
        "numberOfBytes": "32"
      }
    }
  }
}