{
  "address": "0xa6de01413dae4763b7B0E243D8245e0f1Bf60b25",
  "abi": [
    {
      "anonymous": false,
      "inputs": [
        {
          "indexed": true,
          "internalType": "address",
          "name": "target",
          "type": "address"
        },
        {
          "indexed": false,
          "internalType": "uint256",
          "name": "value",
          "type": "uint256"
        },
        {
          "indexed": false,
          "internalType": "bytes",
          "name": "data",
          "type": "bytes"
        }
      ],
      "name": "Executed",
      "type": "event"
    },
    {
      "anonymous": false,
      "inputs": [
        {
          "indexed": true,
          "internalType": "address",
          "name": "owner",
          "type": "address"
        },
        {
          "indexed": true,
          "internalType": "address",
          "name": "entryPoint",
          "type": "address"
        }
      ],
      "name": "SimpleAgentAccountInitialized",
      "type": "event"
    },
    {
      "inputs": [],
      "name": "entryPoint",
      "outputs": [
        {
          "internalType": "address",
          "name": "",
          "type": "address"
        }
      ],
      "stateMutability": "view",
      "type": "function"
    },
    {
      "inputs": [
        {
          "internalType": "address",
          "name": "dest",
          "type": "address"
        },
        {
          "internalType": "uint256",
          "name": "value",
          "type": "uint256"
        },
        {
          "internalType": "bytes",
          "name": "func",
          "type": "bytes"
        }
      ],
      "name": "execute",
      "outputs": [],
      "stateMutability": "nonpayable",
      "type": "function"
    },
    {
      "inputs": [
        {
          "internalType": "address[]",
          "name": "dest",
          "type": "address[]"
        },
        {
          "internalType": "uint256[]",
          "name": "values",
          "type": "uint256[]"
        },
        {
          "internalType": "bytes[]",
          "name": "funcs",
          "type": "bytes[]"
        }
      ],
      "name": "executeBatch",
      "outputs": [],
      "stateMutability": "nonpayable",
      "type": "function"
    },
    {
      "inputs": [
        {
          "internalType": "address",
          "name": "_owner",
          "type": "address"
        },
        {
          "internalType": "address",
          "name": "_entryPoint",
          "type": "address"
        }
      ],
      "name": "initialize",
      "outputs": [],
      "stateMutability": "nonpayable",
      "type": "function"
    },
    {
      "inputs": [],
      "name": "owner",
      "outputs": [
        {
          "internalType": "address",
          "name": "",
          "type": "address"
        }
      ],
      "stateMutability": "view",
      "type": "function"
    },
    {
      "inputs": [
        {
          "internalType": "address",
          "name": "newOwner",
          "type": "address"
        }
      ],
      "name": "transferOwnership",
      "outputs": [],
      "stateMutability": "nonpayable",
      "type": "function"
    },
    {
      "inputs": [
        {
          "components": [
            {
              "internalType": "address",
              "name": "sender",
              "type": "address"
            },
            {
              "internalType": "uint256",
              "name": "nonce",
              "type": "uint256"
            },
            {
              "internalType": "bytes",
              "name": "initCode",
              "type": "bytes"
            },
            {
              "internalType": "bytes",
              "name": "callData",
              "type": "bytes"
            },
            {
              "internalType": "bytes32",
              "name": "accountGasLimits",
              "type": "bytes32"
            },
            {
              "internalType": "uint256",
              "name": "preVerificationGas",
              "type": "uint256"
            },
            {
              "internalType": "bytes32",
              "name": "gasFees",
              "type": "bytes32"
            },
            {
              "internalType": "bytes",
              "name": "paymasterAndData",
              "type": "bytes"
            },
            {
              "internalType": "bytes",
              "name": "signature",
              "type": "bytes"
            }
          ],
          "internalType": "struct PackedUserOperation",
          "name": "userOp",
          "type": "tuple"
        },
        {
          "internalType": "bytes32",
          "name": "userOpHash",
          "type": "bytes32"
        },
        {
          "internalType": "uint256",
          "name": "missingAccountFunds",
          "type": "uint256"
        }
      ],
      "name": "validateUserOp",
      "outputs": [
        {
          "internalType": "uint256",
          "name": "validationData",
          "type": "uint256"
        }
      ],
      "stateMutability": "nonpayable",
      "type": "function"
    },
    {
      "stateMutability": "payable",
      "type": "receive"
    }
  ],
  "transactionHash": "0xc5d5463f50567b976df6abe32d8bc47a2834e0cb09c861f7e0a8a662d121d81c",
  "args": [],
  "numDeployments": 1,
  "solcInputHash": "ac2e042007784c06bd529d75005e8f8d",
  "bytecode": "0x608060405234801561001057600080fd5b50610d5d806100206000396000f3fe6080604052600436106100745760003560e01c80638da5cb5b1161004e5780638da5cb5b146100f5578063b0d691fe1461012d578063b61d27f61461014d578063f2fde38b1461016d57600080fd5b806319822f7c1461008057806347e1da2a146100b3578063485cc955146100d557600080fd5b3661007b57005b600080fd5b34801561008c57600080fd5b506100a061009b3660046109fe565b61018d565b6040519081526020015b60405180910390f35b3480156100bf57600080fd5b506100d36100ce366004610a9e565b610351565b005b3480156100e157600080fd5b506100d36100f0366004610b54565b6104ce565b34801561010157600080fd5b50600054610115906001600160a01b031681565b6040516001600160a01b0390911681526020016100aa565b34801561013957600080fd5b50600154610115906001600160a01b031681565b34801561015957600080fd5b506100d3610168366004610b87565b610588565b34801561017957600080fd5b506100d3610188366004610c0e565b610639565b6001546000906001600160a01b031633146101e15760405162461bcd60e51b815260206004820152600f60248201526e13db9b1e48115b9d1c9e541bda5b9d608a1b60448201526064015b60405180910390fd5b6040517f19457468657265756d205369676e6564204d6573736167653a0a3332000000006020820152603c8101849052600090605c0160408051601f19818403018152919052805160209091012090506000610281610244610100880188610c29565b8080601f01602080910402602001604051908101604052809392919081815260200183838082843760009201919091525086939250506106e79050565b6000549091506001600160a01b038083169116146102a45760019250505061034a565b8315610343576001546040516000916001600160a01b03169086908381818185875af1925050503d80600081146102f7576040519150601f19603f3d011682016040523d82523d6000602084013e6102fc565b606091505b50509050806103415760405162461bcd60e51b815260206004820152601160248201527011985a5b1959081d1bc81c1c99599d5b99607a1b60448201526064016101d8565b505b6000925050505b9392505050565b6000546001600160a01b031633148061037457506001546001600160a01b031633145b6103bb5760405162461bcd60e51b815260206004820152601860248201527713db9b1e481bdddb995c881bdc88115b9d1c9e541bda5b9d60421b60448201526064016101d8565b84811480156103c957508483145b6104075760405162461bcd60e51b815260206004820152600f60248201526e098cadccee8d040dad2e6dac2e8c6d608b1b60448201526064016101d8565b60005b858110156104c5576104b387878381811061042757610427610c70565b905060200201602081019061043c9190610c0e565b86868481811061044e5761044e610c70565b9050602002013585858581811061046757610467610c70565b90506020028101906104799190610c29565b8080601f01602080910402602001604051908101604052809392919081815260200183838082843760009201919091525061079b92505050565b806104bd81610c86565b91505061040a565b50505050505050565b600154600160a01b900460ff161561051e5760405162461bcd60e51b8152602060048201526013602482015272105b1c9958591e481a5b9a5d1a585b1a5e9959606a1b60448201526064016101d8565b60018054600080546001600160a01b038087166001600160a01b03199092168217835585166001600160a81b03199093168317600160a01b179093556040519192917f6c9014382b745d8aa5623450eaf8a50f0a6c7168fd4bbad6ae362d8ea83ee4549190a35050565b6000546001600160a01b03163314806105ab57506001546001600160a01b031633145b6105f25760405162461bcd60e51b815260206004820152601860248201527713db9b1e481bdddb995c881bdc88115b9d1c9e541bda5b9d60421b60448201526064016101d8565b610633848484848080601f01602080910402602001604051908101604052809392919081815260200183838082843760009201919091525061079b92505050565b50505050565b6000546001600160a01b031633146106805760405162461bcd60e51b815260206004820152600a60248201526927b7363c9037bbb732b960b11b60448201526064016101d8565b6001600160a01b0381166106c55760405162461bcd60e51b815260206004820152600c60248201526b5a65726f206164647265737360a01b60448201526064016101d8565b600080546001600160a01b0319166001600160a01b0392909216919091179055565b60008060008084516041036107105750505060208201516040830151606084015160001a610785565b845160400361073d5750505060408201516020830151906001600160ff1b0381169060ff1c601b01610785565b60405162461bcd60e51b815260206004820152601f60248201527f45434453413a20696e76616c6964207369676e6174757265206c656e6774680060448201526064016101d8565b61079186828585610855565b9695505050505050565b600080846001600160a01b031684846040516107b79190610cd1565b60006040518083038185875af1925050503d80600081146107f4576040519150601f19603f3d011682016040523d82523d6000602084013e6107f9565b606091505b50915091508161080b57805160208201fd5b846001600160a01b03167fcaf938de11c367272220bfd1d2baa99ca46665e7bc4d85f00adb51b90fe1fa9f8585604051610846929190610ced565b60405180910390a25050505050565b60007f7fffffffffffffffffffffffffffffff5d576e7357a4501ddfe92f46681b20a08211156108d25760405162461bcd60e51b815260206004820152602260248201527f45434453413a20696e76616c6964207369676e6174757265202773272076616c604482015261756560f01b60648201526084016101d8565b8360ff16601b14806108e757508360ff16601c145b61093e5760405162461bcd60e51b815260206004820152602260248201527f45434453413a20696e76616c6964207369676e6174757265202776272076616c604482015261756560f01b60648201526084016101d8565b6040805160008082526020820180845288905260ff871692820192909252606081018590526080810184905260019060a0016020604051602081039080840390855afa158015610992573d6000803e3d6000fd5b5050604051601f1901519150506001600160a01b0381166109f55760405162461bcd60e51b815260206004820152601860248201527f45434453413a20696e76616c6964207369676e6174757265000000000000000060448201526064016101d8565b95945050505050565b600080600060608486031215610a1357600080fd5b833567ffffffffffffffff811115610a2a57600080fd5b84016101208187031215610a3d57600080fd5b95602085013595506040909401359392505050565b60008083601f840112610a6457600080fd5b50813567ffffffffffffffff811115610a7c57600080fd5b6020830191508360208260051b8501011115610a9757600080fd5b9250929050565b60008060008060008060608789031215610ab757600080fd5b863567ffffffffffffffff80821115610acf57600080fd5b610adb8a838b01610a52565b90985096506020890135915080821115610af457600080fd5b610b008a838b01610a52565b90965094506040890135915080821115610b1957600080fd5b50610b2689828a01610a52565b979a9699509497509295939492505050565b80356001600160a01b0381168114610b4f57600080fd5b919050565b60008060408385031215610b6757600080fd5b610b7083610b38565b9150610b7e60208401610b38565b90509250929050565b60008060008060608587031215610b9d57600080fd5b610ba685610b38565b935060208501359250604085013567ffffffffffffffff80821115610bca57600080fd5b818701915087601f830112610bde57600080fd5b813581811115610bed57600080fd5b886020828501011115610bff57600080fd5b95989497505060200194505050565b600060208284031215610c2057600080fd5b61034a82610b38565b6000808335601e19843603018112610c4057600080fd5b83018035915067ffffffffffffffff821115610c5b57600080fd5b602001915036819003821315610a9757600080fd5b634e487b7160e01b600052603260045260246000fd5b600060018201610ca657634e487b7160e01b600052601160045260246000fd5b5060010190565b60005b83811015610cc8578181015183820152602001610cb0565b50506000910152565b60008251610ce3818460208701610cad565b9190910192915050565b8281526040602082015260008251806040840152610d12816060850160208701610cad565b601f01601f191691909101606001939250505056fea2646970667358221220c0e6a46c056db8bb700bd90ee10cbf670ad2183d4a14496155020d18bbe56b3c64736f6c63430008140033",
  "devdoc": {
    "details": "Deployed behind ERC1967Proxy via AgentAccountFactory.      Updated for EntryPoint v0.7 (PackedUserOperation).",
    "kind": "dev",
    "methods": {},
    "title": "SimpleAgentAccount",
    "version": 1
  },
  "userdoc": {
    "kind": "user",
    "methods": {
      "execute(address,uint256,bytes)": {
        "notice": "Execute a call from this account"
      },
      "executeBatch(address[],uint256[],bytes[])": {
        "notice": "Execute a batch of calls"
      },
      "transferOwnership(address)": {
        "notice": "Transfer ownership"
      },
      "validateUserOp((address,uint256,bytes,bytes,bytes32,uint256,bytes32,bytes,bytes),bytes32,uint256)": {
        "notice": "ERC-4337 v0.7 validateUserOp"
      }
    },
    "notice": "Minimal ERC-4337 compatible smart wallet for AI agents",
    "version": 1
  },
  "storageLayout": {
    "storage": [
      {
        "astId": 158,
        "contract": "contracts/wallet/SimpleAgentAccount.sol:SimpleAgentAccount",
        "label": "owner",
        "offset": 0,
        "slot": "0",
        "type": "t_address"
      },
      {
        "astId": 160,
        "contract": "contracts/wallet/SimpleAgentAccount.sol:SimpleAgentAccount",
        "label": "entryPoint",
        "offset": 0,
        "slot": "1",
        "type": "t_address"
      },
      {
        "astId": 162,
        "contract": "contracts/wallet/SimpleAgentAccount.sol:SimpleAgentAccount",
        "label": "_initialized",
        "offset": 20,
        "slot": "1",
        "type": "t_bool"
      }
    ],
    "types": {
      "t_address": {
        "encoding": "inplace",
        "label": "address",
        "numberOfBytes": "20"
      },
      "t_bool": {
        "encoding": "inplace",
        "label": "bool",
        "numberOfBytes": "1"
      }
    }
  }
}